:100000000C9486000C94F2180C94F2180C94F218CC
:100010000C9480120C94F2180C94BA100C944B0FA0
:100020000C94F2180C94F2180C94F2180C94F21828
:100030000C94F2180C9452120C94F2180C94F218BE
:100040000C94F2180C94F2180C94F2180C94F21808
:100050000C94F2180C9401160C9420170C941117A0
:100060000C945F130C94AE120C94F2180C94F218CA
:100070000C94F2180C94F21807634236B79BD8A779
:100080001A39685618AEBAAB558C1D3CB7CC5763BD
:10009000BD6DEDFD753EF6177231BF000000803F6B
:1000A00008000000BE922449123EABAAAA2ABECD87
:1000B000CCCC4C3E00000080BEABAAAAAA3E0000F9
:1000C0000000BF000000803F0000000000084178F1
:1000D000D3BB4387D1133D190E3CC3BD4282AD2B28
:1000E0003E68EC8276BED98FE1A93E4C80EFFFBE20
:1000F00001C4FF7F3F000000000038003AB1803AA1
:10010000B13ABF0032043ABF3AEC800011241FBE5E
:10011000CFEFCDBFDFE3DEBFEAEFF0E041E017C095
:10012000B591A59135912591059107FD0CC095914B
:100130008591EF01F92FE82F05900D92A217B307D3
:10014000D9F7FE0104C01D92A217B307E1F7EB3007
:10015000F40731F70E949B160C94AE00F894FFCF81
:10016000ABE0B0E0E6EBF0E00C94E8156C017B014D
:100170008A01FC0116821782838181FFCCC1CE01E6
:1001800001963C01F6019381F70193FD859193FF60
:1001900081917F01882309F4BAC1853239F493FD36
:1001A000859193FF81917F01853229F4B60190E01A
:1001B0000E940810E7CF912C212C312CFFE1F31580
:1001C000D8F08B3279F038F4803279F08332A1F4B0
:1001D000232D20611DC08D3261F0803369F4232D01
:1001E000216016C0832D8260382EE32DE4603E2E00
:1001F0002AC0F32DF8601DC037FC2DC020ED280F5C
:100200002A3040F08E32B9F436FC81C1232D2064AF
:10021000322E19C036FE06C08AE0989E200D1124A9
:10022000922E11C0EAE02E9E200D1124222EF32DD5
:10023000F0623F2E08C08C3621F4832D8068382E62
:1002400002C0883641F4F70193FD859193FF8191B7
:100250007F018111B3CF982F9F7D9554933028F45F
:100260000C5F1F4F9FE399830DC0833631F08337B6
:1002700071F0833509F059C021C0F801808189836C
:100280000E5F1F4F88248394912C530113C02801C3
:10029000F2E04F0E511CF801A080B18036FE03C081
:1002A000692D70E002C06FEF7FEFC5010E94241836
:1002B0004C018201F32DFF773F2E16C0280122E06A
:1002C000420E511CF801A080B18036FE03C0692D9A
:1002D00070E002C06FEF7FEFC5010E9419184C015A
:1002E000F32DF0683F2E820133FC1BC0822D90E07D
:1002F00088169906B0F4B60180E290E00E940810DA
:100300002A94F4CFF50137FC859137FE81915F0186
:10031000B60190E00E94081021102A9421E0821A70
:1003200091088114910471F7E8C0843611F0893680
:1003300041F5F80137FE07C06081718182819381A8
:100340000C5F1F4F08C060817181072E000C880B65
:10035000990B0E5F1F4FF32DFF763F2E97FF09C0BD
:1003600090958095709561957F4F8F4F9F4FF06866
:100370003F2E2AE030E0A3010E94760D882E8618D9
:1003800045C0853731F4232D2F7EB22E2AE030E090
:1003900025C0932D997FB92E8F36C1F018F488357A
:1003A00079F0B5C0803719F0883721F0B0C0E92F57
:1003B000E061BE2EB4FE0DC0FB2DF460BF2E09C05F
:1003C00034FE0AC0292F2660B22E06C028E030E095
:1003D00005C020E130E002C020E132E0F801B7FEC4
:1003E00007C060817181828193810C5F1F4F06C0BD
:1003F0006081718180E090E00E5F1F4FA3010E9439
:10040000760D882E8618FB2DFF773F2E36FE0DC009
:10041000232D2E7FA22E891458F434FE0BC032FCFB
:1004200009C0832D8E7EA82E05C0B82CA32C03C036
:10043000B82C01C0B92CA4FE0FC0FE01E80DF11DBF
:100440008081803321F49A2D997EA92E09C0A2FEC5
:1004500006C0B394B39404C08A2D867809F0B3948F
:10046000A3FC11C0A0FE06C0B21488F4280C922C84
:100470009B180EC0B21460F4B60180E290E00E94B6
:100480000810B394F7CFB21418F42B1802C0982CAC
:10049000212CA4FE10C0B60180E390E00E94081059
:1004A000A2FE17C0A1FC03C088E790E002C088E567
:1004B00090E0B6010CC08A2D867859F0A1FE02C0EA
:1004C0008BE201C080E2A7FC8DE2B60190E00E94C1
:1004D0000810891438F4B60180E390E00E940810F7
:1004E0009A94F7CF8A94F301E80DF11D8081B6014B
:1004F00090E00E9408108110F5CF222009F442CE2E
:10050000B60180E290E00E9408102A94F6CFF6012E
:100510008681978102C08FEF9FEF2B96E2E10C94CA
:020520001916AA
:100522000D526573657474696E67204C52322043B4
:100532006C69636B0A002D2D2D2D2D2D2D2D2D2D4A
:100542002D2D2D2D2D2D2D2D2D2D2D2D2D2D2D2DD9
:100552002D2D2D2D2D2D2D2D2D2D2D2D2D2D2D2DC9
:100562002D2D2D2D2D2D2D2D2D2D0A004669726D2F
:10057200776172653A20000D0A54783A20000D0A1C
:1005820054783A206D6163207365742061707073D2
:100592006B65790D0A000D0A54783A206D6163206B
:1005A200736574206E776B736B65790D0A000D525B
:1005B200783A20000A0A436F6E6669677572696E3F
:1005C20067204C523220436C69636B20466F722065
:1005D2004142500A002D2D2D2D2D2D2D2D2D2D2D4D
:1005E2002D2D2D2D2D2D2D2D2D2D2D2D2D2D2D2D39
:1005F2002D2D2D2D2D2D2D2D2D2D2D2D2D2D2D2D29
:100602002D2D2D2D2D2D2D2D2D2D2D2D2D2D2D2D18
:100612002D2D2D2D2D2D2D2D2D2D2D2D0A006D61E4
:10062200632073657420646576657569203730428E
:10063200334435374544303035323534420D0A00C3
:100642006D616320736574206465766164647220F1
:1006520032363043433242340D0A006D61632073F7
:10066200657420617070736B657920384438414439
:1006720039393843394638434135343645433631C2
:1006820046444437413345324132380D0A006D61E8
:100692006320736574206E776B736B6579203935CF
:1006A2003745323841444435374230394133424686
:1006B20039374536443346433236394343330D0ADC
:1006C200006D616320736574206172206F6E0D0A84
:1006D200006D61632073657420727864656C617962
:1006E2003120353030300D0A006D6163207365743E
:1006F20020616472206F6E0D0A006D616320736168
:1007020076650D0A000A0A000A0A436F6E66696777
:100712007572696E67204C523220436C69636B209C
:10072200666F72204F5441410A006D616320736508
:1007320074206170706B65792046343243333832ED
:1007420042423941383739463732323439394445F1
:100752004337454636354246330D0A006D61632004
:100762007365742061707065756920303030303087
:1007720030303030303030303030300D0A006D6182
:10078200632070617573650D0A006D616320726587
:1007920073756D650D0A000A0A4A6F696E696E67A4
:1007A2002054544E0A006D6163206A6F696E2061A5
:1007B20062700D0A006D6163206A6F696E206F744A
:1007C20061610D0A000A0A5472616E736D69747474
:1007D200696E6720446174610A000A54783A206D98
:1007E200616320747820636E6620343220006D616C
:1007F2006320747820636E6620343220000A5478B5
:100802003A206D616320747820756E636E662034C1
:100812003320006D616320747820756E636E6620EC
:04082200343320004B
:100826004F925F926F927F928F929F92AF92BF92FA
:10083600CF92DF92EF92FF92C0907538D0907638C3
:10084600E0907738F0907838F594E794D794C79489
:100856008AEFD81AE108F108C701B6019595879580
:100866007795679595958795779567959B01AC01E3
:100876000E94E3164B015C01E9E7F8E3A285B38524
:100886009B01AC01012E1DE055954795379527959F
:100896001A95D1F7102D0E943F182B013C01689440
:1008A60012F875946794579447941694D1F7A085D7
:1008B600B185A70196010E943F18DC01CB01B595D1
:1008C600A79597958795840D951DA61DB71D072E8F
:1008D60072E1B595A795979587957A95D1F7702D7D
:1008E6009C01AD0130584F4F5F4FA681B7810E94E2
:1008F6000E182B013C01032E3FE075946794579424
:1009060047943A95D1F7302D41145104610471048E
:1009160009F4CEC0A5019401012E1BE0559547951B
:10092600379527951A95D1F7102DA089B1890E9480
:100936003F184B015C01A685B785A70196010E9469
:100946003F18DC01CB01880F991FAA1FBB1F880E19
:10095600991EAA1EBB1ED501C401B595A7959795EC
:100966008795B595A7959795879584849584092C41
:10097600000CAA08BB08540199248824880E991EE5
:10098600AA1EBB1E072E7CE0B594A7949794879465
:100996007A95D1F7702D80914E3890914F38A0916D
:1009A6005038B0915138A5019401280F391F4A1FBC
:1009B6005B1FABECB3EF0E944218805B9C4399230C
:1009C6005CF0660F771F881F991FA30192010E9492
:1009D600E81469017A010AC0A30192010E94E81491
:1009E60069017A01CC0CDD1CEE1CFF1CC701B601A7
:1009F600689412F896958795779567951694D1F72A
:100A06009B01AC010E94E3169B01AC01012E1DE087
:100A160056954795379527951A95D1F7102DE9E7FD
:100A2600F8E3A689B7890E943F184B015C01072E9F
:100A36007CE0B594A794979487947A95D1F7702D16
:100A4600A70196015695479537952795569547954B
:100A560037952795A489B5890E943F18DC01CB01FB
:100A6600072E7DE0B595A795979587957A95D1F749
:100A7600702DB501A401480F591F6A1F7B1F82897B
:100A86009389092E000CAA0BBB0B840F951FA61F7A
:100A9600B71F689413F8B595A795979587951694FB
:100AA600D1F7BC01CD016C0D7D1D8E1D9F1D03C0B0
:100AB60060E070E0CB01FF90EF90DF90CF90BF90A9
:100AC600AF909F908F907F906F905F904F9008951A
:100AD6000A416674657220313030204D6F69737437
:100AE6007572652052656164696E6773002D2D2DE0
:100AF6002D2D2D2D2D2D2D2D2D2D2D2D2D2D2D2D20
:100B06002D2D2D2D2D2D2D2D2D2D2D2D2D2D2D2D0F
:100B16002D2D2D2D2D2D2D2D2D2D2D2D2D2D2D2DFF
:100B26002D2D2D2D2D2D2D2D2D2D2D2D2D2D2D2DEF
:100B36002D2D2D2D00546865204D4158207265617C
:100B460064696E67207761732025640A00546865BE
:100B5600204D494E2072656164696E672077617326
:100B66002025640A0A00546865204D4158206D61AD
:100B7600707320746F2025640A00546865204D49FF
:100B86004E206D61707320746F2025640A000A0A76
:100B960043757272656E742053656E736F7220446E
:100BA6006174610A002D2D2D2D2D2D2D2D2D2D2D10
:100BB6002D2D2D2D2D2D2D2D2D2D2D2D2D2D2D2D5F
:100BC6002D2D2D2D2D2D2D2D2D2D2D2D2D2D2D2D4F
:100BD6002D2D2D2D2D2D2D2D2D2D2D2D2D2D2D2D3F
:100BE6002D2D2D2D2D2D2D2D2D2D2D2D0A00526522
:100BF6006C61746976652048756D69646974793AC3
:100C06002025752525200D0A004D6F6973747572B0
:100C1600653A2025752525200D0A005072657373E7
:100C26007572653A202575206850610D0A00416984
:100C3600722054656D70657261747572653A20250F
:100C4600692043200D0A0042617474657279204C54
:100C56006576656C3A2025752525200D0A0A000A59
:100C66004A534F4E20466F726D61740D0050617984
:100C76006C6F61643A207B206169725F74656D7088
:100C86003A2025692C20626174746572793A2025B0
:100C9600752C2068756D69646974793A2025752C00
:100CA600206D6F6973747572653A2025752C2070F6
:100CB600726573737572653A2025752C206E756D95
:100CC60054783A2025750D0A0A7D003031323334C6
:100CD60035363738394142434445460061636365DA
:100CE600707465640D0A0052783A2061636365701A
:050CF6007465640A00B2
:100CFC004F925F926F927F928F929F92AF92BF9220
:100D0C00CF92DF92EF92FF92809075389090763868
:100D1C00A0907738B09078382CE2921A21E0A20A91
:100D2C00B108C0900C38D0900D38E0900E38F0908F
:100D3C000F380B2EBEE0CC0CDD1CEE1CFF1CBA9544
:100D4C00D1F7B02DE9E7F8E3848D958D092E000CD1
:100D5C00AA0BBB0B072E74E1880F991FAA1FBB1F90
:100D6C007A95D1F7702DC81AD90AEA0AFB0AA68D12
:100D7C00B78DA50194010E943F18C61AD70AE80A3C
:100D8C00F90A30E4D30EE11CF11C0B2EBFE0F594F4
:100D9C00E794D794C794BA95D1F7B02DA38DB0E052
:100DAC00A50194010E940E182B013C01032E3BE07F
:100DBC0075946794579447943A95D1F7302D40E841
:100DCC00540E611C711CA0A10A2E000CBB0BA501BA
:100DDC0094010E943F18052E5AE0959587957795BA
:100DEC0067955A95D1F7502DA30192010E94E316F5
:100DFC00DC01CB01072E7AE0B595A79597958795E1
:100E0C007A95D1F7702D9C01AD01405E5F4FA18D9D
:100E1C00B28D0E943F18DC01CB01905EAF4FBF4FEB
:100E2C00BC01CD01052E5EE095958795779567956C
:100E3C005A95D1F7502DA70196010E94E3166B012C
:100E4C007C01052E5FE095958795779567955A956A
:100E5C00D1F7502D9B01AC010E94E3169B01AC0114
:100E6C00689416F855954795379527951694D1F7AC
:100E7C00A08DB0E00E940E18DC01CB01689413F831
:100E8C00B595A795979587951694D1F7A7019601D7
:100E9C00281B390B4A0B5B0BDA01C9011AF480E0F1
:100EAC0090E0DC0181309105A10539E1B30724F014
:100EBC0080E090E0A0E0B9E1BC01CD01052E5CE042
:100ECC0095958795779567955A95D1F7502DFF9005
:100EDC00EF90DF90CF90BF90AF909F908F907F90CE
:080EEC006F905F904F90089594
:100EF400CF93DF93CDB7DEB76197CDBFDEBF21E1DE
:100F0400E1EDFCE8DE01119601900D922A95E1F7DE
:100F1400DB012C9122952F70E1E0F0E0EC0FFD1F36
:100F2400E20FF11D2081FC0120832C912F70E1E060
:100F3400F0E0EC0FFD1FE20FF11D2081DC011196A2
:100F44002C931197FB01218122952F70E1E0F0E0B1
:100F5400EC0FFD1FE20FF11D208112962C93DB0193
:100F640011962C9111972F70E1E0F0E0EC0FFD1F2A
:100F7400E20FF11D2081FC01238314962C9122950C
:100F84002F70E1E0F0E0EC0FFD1FE20FF11D208176
:100F9400DC0114962C931497FB0124812F70E1E05B
:100FA400F0E0EC0FFD1FE20FF11D208115962C934C
:100FB400DB0113964C911397242F22952F7030E068
:100FC400E1E0F0E0EC0FFD1FE20FF31F2081FC01D4
:100FD400268313962C9130E02F703327E1E0F0E064
:100FE400EC0FFD1FE20FF31F2081DC0117962C93F9
:100FF400DB011296ED91FC911397F295E295EF7057
:10100400EF27FF70EF27EF70FF2721E030E02C0F70
:101014003D1FE20FF31F2081DC0118962C93DB01A6
:101024001296ED91FC911397EF70FF2721E030E0C9
:101034002C0F3D1FE20FF31F2081DC0119962C9326
:101044001997FB01258122952F70E1E0F0E0EC0F68
:10105400FD1FE20FF11D20811A962C93DB011596DA
:101064002C9115972F70E1E0F0E0EC0FFD1FE20FDB
:10107400F11D2081FC01238716962C9122952F7057
:10108400E1E0F0E0EC0FFD1FE20FF11D2081DC0137
:101094001C962C931C97FB0126812F70E1E0F0E055
:1010A400EC0FFD1FE20FF11D20811D962C931D975F
:1010B4002DE01E962C931E972AE01F962C931F97C3
:1010C40050961C926196CDBFDEBFDF91CF910895FB
:1010D4000F931F93CF93DF93CDB7DEB76897CDBF40
:1010E400DEBF28E1AE014F5F5F4F68E886E70E94EC
:1010F400BE0E09E718E38A8190E0982F882729819A
:10110400820F911DF801808391838C8190E0982F48
:1011140088272B81820F911D828393838E8190E097
:10112400982F88272D81820F911D8483958388852C
:1011340090E0982F88272F81820F911D86839783B3
:101144008A8590E0982F88272985820F911D8087B2
:1011540091878C8590E0982F88272B85820F911D8D
:10116400828793878E8590E0982F88272D85820F1C
:10117400911D84879587888990E0982F88272F85EB
:10118400820F911D868797878A8990E0982F8827F8
:101194002989820F911D808B918B8C8990E0982FE7
:1011A40088272B89820F911D828B938B8E8990E0E7
:1011B400982F88272D89820F911D848B958B888D7C
:1011C40090E0982F88272F89820F911D868B978B0B
:1011D40021E0AE014F5F5F4F61EA86E70E94BE0ED9
:1011E4008981F801808F27E0AE014F5F5F4F61EE88
:1011F40086E70E94BE0E2A8130E0322F2227998191
:10120400290F311DF801218F328F9B81938F9D818E
:101214002C81F0E12F9F90011124492F4F70242B32
:10122400F801248F358F2E81F0E12F9F9001112436
:1012340092959F70292BF801268F378F9F8190A359
:101244006896CDBFDEBFDF91CF911F910F910895B6
:101254008091E43A9091E53A80FF1DC08091E63A8E
:10126400882319F0823059F00DC00E94CD0B0E94E2
:10127400E9180E94EC1881E08093E63A03C083E009
:101284008093E63A8091E43A9091E53A8E7F809398
:10129400E43A9093E53A8091E63A8330A1F08430C1
:1012A40009F452C0813009F06EC082EE9CE80E94BD
:1012B400B513882321F08DEE9CE80E945B1182E037
:1012C4008093E63A08958FEB9AE30E94A1146FEBA2
:1012D4007AE38AE998E30E947A074091E23A5091CE
:1012E400E33A9A01ADECBCEC0E946B179695879596
:1012F40096958795969587959C01220F331F880FA5
:10130400991F880F991F880F991F820F931F4817E1
:10131400590729F48AE998E30E94461504C08AE92A
:1013240098E30E9462158091E23A9091E33A019623
:101334008093E23A9093E33AE0E4F1E080818160C3
:10134400808384E08093E63A8091C63A9091C73ACC
:10135400A091C83AB091C93A843B9105A105B10561
:1013640081F483E08093E63AE0E4F1E080818E7FCB
:1013740080831092C63A1092C73A1092C83A1092DB
:08138400C93A0E94DF1308952D
:10138C008F929F92AF92BF92CF92DF92EF92FF9289
:10139C008091523890915338A0915438B09155386F
:1013AC00E9E7F8E34081518160E070E06C017D0178
:1013BC00689413F8F594E794D794C7941694D1F7DE
:1013CC00C41AD50AE60AF70A689412F8B595A795D7
:1013DC00979587951694D1F7440F551F661F771F65
:1013EC004C015D01841A950AA60AB70AA50194015D
:1013FC00A281B3810E943F184B015C01072E7BE058
:10140C00B594A794979487947A95D1F7702DA701EA
:10141C009601C701B6010E94E3169B01AC01012E97
:10142C001CE055954795379527951A95D1F7102DB2
:10143C00A481B5810E943F18DC01CB01072E7EE010
:10144C00B595A795979587957A95D1F7702D880DB9
:10145C00991DAA1DBB1D8093753890937638A09367
:10146C007738B09378386C017D01CC0CDD1CEE1C08
:10147C00FF1CCC0CDD1CEE1CFF1C8C0D9D1DAE1D31
:10148C00BF1D80589F4FAF4FBF4F692F7A2F8B2FA7
:10149C00992787FD9A95FF90EF90DF90CF90BF90A2
:0814AC00AF909F908F9008950E
:1014B400CF93DF93CDB7DEB72897CDBFDEBF28E04B
:1014C400AE014F5F5F4F67EF86E70E94BE0E8F81CC
:1014D40090E0A0E0B0E0BA2FA92F982F88272885A4
:1014E400822B80930C3890930D38A0930E38B093D0
:1014F4000F388C8190E0A0E0B0E0AC01BD01032E78
:101504003CE0440F551F661F771F3A95D1F7302DE5
:101514009D81892F90E0A0E0B0E0880F991FAA1F59
:10152400BB1F880F991FAA1FBB1F880F991FAA1FD3
:10153400BB1F880F991FAA1FBB1F842B952BA62B9B
:10154400B72B2E8122952F70822B80935238909343
:101554005338A0935438B0935538898190E0A0E073
:10156400B0E0AC01BD01032E3CE0440F551F661FE3
:10157400771F3A95D1F7302D9A81892F90E0A0E01A
:10158400B0E0880F991FAA1FBB1F880F991FAA1FBD
:10159400BB1F880F991FAA1FBB1F880F991FAA1F63
:1015A400BB1F842B952BA62BB72B2B8122952F7039
:1015B400822B80934E3890934F38A0935038B09339
:0E15C40051382896CDBFDEBFDF91CF9108953C
:1015D200CF93DF93C0E0D4E082E08883A0E2B4E05E
:1015E20084E68C93E0E4F4E088E080831C82149625
:1015F2001C9214971482188A198A1A8A1B8A1C8AC6
:101602001D8A1E8A1F8A50961C92509751961C92D0
:10161200519752961C92529753961C9253975496F6
:101622001C92549755961C92559756961C92569713
:1016320057961C92108A118A128A138A148A158A62
:10164200168A178AE0EEF5E0118210821382148264
:101652001582128284EF98E18093DC3A9093DD3A0E
:1016620085EF98E18093DA3A9093DB3A86EF98E13E
:101672008093D83A9093D93A87EF98E18093D63AFB
:101682009093D73A88EF98E18093D43A9093D53AE1
:1016920089EF98E18093D23A9093D33A8AEF98E116
:1016A2008093D03A9093D13A8BEF98E18093CE3ADF
:0A16B2009093CF3ADF91CF91089595
:1016BC0010C00E946A1858F00E94631840F029F478
:1016CC005F3F29F00C94BA1851110C9472180C94B9
:1016DC00EF180E94C61468F39923B1F3552391F3C4
:1016EC00951B550BBB27AA2762177307840738F085
:1016FC009F5F5F4F220F331F441FAA1FA9F335D0E2
:10170C000E2E3AF0E0E832D091505040E695001C95
:10171C00CAF72BD0FE2F29D0660F771F881FBB1F4F
:10172C00261737074807AB07B0E809F0BB0B802D2D
:10173C00BF01FF2793585F4F3AF09E3F510578F059
:10174C000C94BA180C9472185F3FE4F3983ED4F3DF
:10175C00869577956795B795F7959F5FC9F7880F2D
:10176C00911D9695879597F90895E1E0660F771F7F
:10177C00881FBB1F621773078407BA0720F0621B10
:0E178C00730B840BBA0BEE1F88F7E0950895DF
:10179A00CF93DF9382E295E80E945B1188E395E894
:1017AA000E945B118EE695E80E945B11E5E2F4E087
:1017BA0080E480832AE634E041E021503040404012
:1017CA00E1F700C0C6E2D4E088839FE32DE033E06E
:1017DA00915020403040E1F700C0000080834AE683
:1017EA0094E021E0415090402040E1F700C0A5E498
:1017FA00B4E098E09C9380833AE644E021E03150DB
:10180A0040402040E1F700C088833FE34DE023E0F9
:10181A00315040402040E1F700C0000080833AE6A2
:10182A0044E081E0315040408040E1F700C09C93A1
:10183A000E949618882321F00E94E0180E948616BA
:10184A000E9484188823A1F30E940318C82F0E94BB
:10185A009617CA3069F79AE22CE23AE09150204092
:0C186A003040E1F70000DF91CF910895BD
:10187600CF93DF93EC0184E99BE80E945B118BEA2E
:101886009BE80E945B1189811F928F9384EF9BE8EE
:101896009F938F930E9431168C811F928F938FE0B6
:1018A6009CE89F938F930E9431168B818F938A8138
:1018B6008F9381E29CE89F938F930E9431168881D3
:1018C600282F082E000C330B3F938F9384E39CE85C
:1018D6009F938F930E9431168D811F928F938DE473
:1018E6009CE89F938F930E94311685E69CE80E94A0
:1018F6008B0F83EF9AE80E948B0F8E811F928F9336
:101906008B818F938A818F938C811F928F9389818C
:101916001F928F938D811F928F938881282F082E77
:10192600000C330B3F938F9383E79CE89F938F9331
:101936000E9431168DB79EB782968DBF9EBFDF91EE
:04194600CF910895A0
:10194A000FC00E94631838F00E946A1820F095238D
:10195A0011F00C94BA180C94EF1811240C94721804
:10196A000E94C61470F3959FC1F3950F50E0551F5E
:10197A00629FF001729FBB27F00DB11D639FAA27DA
:10198A00F00DB11DAA1F649F6627B00DA11D661F29
:10199A00829F2227B00DA11D621F739FB00DA11D4A
:1019AA00621F839FA00D611D221F749F3327A00D04
:1019BA00611D231F849F600D211D822F762F6A2FA0
:1019CA0011249F5750409AF0F1F088234AF0EE0F05
:1019DA00FF1FBB1F661F771F881F91505040A9F732
:1019EA009E3F510580F00C94BA180C9472185F3F10
:1019FA00E4F3983ED4F3869577956795B795F7956E
:101A0A00E7959F5FC1F7FE2B880F911D96958795E5
:041A1A0097F908959B
:101A1E0011C00E94631838F00E946A1820F039F441
:101A2E009F3F19F426F40C94EF180EF4E095E7FBA3
:101A3E000C94BA18E92F0E94C61458F3BA1762070D
:101A4E0073078407950720F079F4A6F50C947118A6
:101A5E000EF4E0950B2EBA2FA02D0B01B9019001BB
:101A6E000C01CA01A0011124FF27591B99F0593FFF
:101A7E0050F4503E68F11A16F040A22F232F342F47
:101A8E004427585FF3CF469537952795A795F04095
:101A9E005395C9F77EF41F16BA0B620B730B840BAA
:101AAE00BAF09150A1F0FF0FBB1F661F771F881F62
:101ABE00C2F70EC0BA0F621F731F841F48F48795BA
:101ACE0077956795B795F7959E3F08F0B0CF9395AC
:0E1ADE00880F08F09927EE0F979587950895C9
:101AEC00FA01AA27283051F1203181F1E8946F9343
:101AFC006E7F6E5F7F4F8F4F9F4FAF4FB1E03ED0E9
:101B0C00B4E03CD0670F781F891F9A1FA11D680F86
:101B1C00791F8A1F911DA11D6A0F711D811D911DB9
:101B2C00A11D20D009F468943F912AE0269F11242E
:101B3C003019305D3193DEF6CF010895462F477092
:101B4C00405D4193B3E00FD0C9F7F6CF462F4F70ED
:101B5C00405D4A3318F0495D31FD4052419302D04B
:101B6C00A9F7EACFB4E0A6959795879577956795F1
:101B7C00BA95C9F700976105710508959B01AC01F1
:101B8C000A2E06945795479537952795BA95C9F718
:0C1B9C00620F731F841F951FA01D089589
:101BA80008C016F00C94A4170C94EF1868940C94C1
:101BB800BA180E94CE14A8F39923C1F3AEF3DF93A9
:101BC800CF931F930F93FF92C92FDD2788232AF005
:101BD8002197660F771F881FDAF720E030E040E88A
:101BE8005FEB9FE3883920F0803E38F021968F77AD
:101BF8000E945618E0EAF0E004C00E945618EDEC86
:101C0800F0E00E942F148B01BE01EC01FB2E6F57F0
:101C180071097595771F880B990B0E94CD0F28E1E4
:101C280032E741E35FE30E94A50CAF2D9801AE01B6
:101C3800FF900F911F91CF91DF910E940F0D0C948F
:021C4800D216B2
:101C4A00FA01EE0FFF1F309621053105A1F161154A
:101C5A00710561F48038BFE39B0749F168949038B5
:101C6A00810561F08038BFEF9B0741F099234AF55F
:101C7A00FF3FE1053105210519F1E8940894E7953C
:101C8A00D901AA2329F4AB2FBE2FF85FD0F310C0D5
:101C9A00FF5F70F4A695E0F7F73950F019F0FF3AB4
:101CAA0038F49F779F930DD00F9007FC90580895B2
:101CBA0046F00C94EF1860E070E080E89FE3089526
:101CCA004FE79F775F934F933F932F930E94D40DD3
:101CDA002F913F914F915F910E94D6180C94441016
:101CEA008F929F92AF92BF92CF92DF92EF92FF9222
:101CFA000E9413044B015C010E94E21724E036E5BE
:101D0A004AE150E40E94561823E333E948E853E4D1
:101D1A000E9456189B01AC0164E076E58AE190E4E2
:101D2A000E94D2189B01AC0160E070E080E89FE35A
:101D3A000E94551828E539E348EA50EC0E94250E1E
:101D4A006B017C01C501B4010E94CB0F20E030E099
:101D5A0048EC52E40E94D218A70196010E94D618B4
:101D6A00FF90EF90DF90CF90BF90AF909F908F90B1
:021D7A000895CA
:101D7C00EF92FF920F931F93CF93DF931F92CDB7E8
:101D8C00DEB769838A01E22E60E00E947C14F82E93
:101D9C00882369F161E0CE0101960E940814F82EA7
:101DAC00811104C083E08093A40821C0E0EAF8E02C
:101DBC0087818160878381E08483858185FD0AC06A
:101DCC00858182FD07C0858183FD04C08581837078
:101DDC00833099F70E947A17882329F083E0809347
:101DEC00A408F12C04C06E2DC8010E948A138F2DFB
:101DFC000F90DF91CF911F910F91FF90EF9008956D
:101E0C0086EB95E80E945B1187ED95E80E945B11CB
:101E1C0080E296E80E94F4110E94281582E496E86C
:101E2C000E94F4110E9428158DE596E80E94F3108B
:101E3C000E94281580E996E80E9408130E94281534
:101E4C0083EC96E80E94F4110E94281583ED96E825
:101E5C000E94F4110E9428158BEE96E80E94F41152
:101E6C000E9428158CEF96E80E94F4110E94281508
:101E7C0087E097E80E945B112AE684E091E021500C
:0A1E8C0080409040E1F700C0089587
:101E96001F920F920FB60F9211242F933F934F93D9
:101EA6005F936F937F938F939F93AF93BF93EF93BC
:101EB600FF933B9B05C0E091D63AF091D73A09953E
:101EC6003A9B05C0E091D43AF091D53A09953D9BED
:101ED60005C0E091D23AF091D33A09953E9B05C0F0
:101EE600E091D03AF091D13A09958FEF87B9FF91F9
:101EF600EF91BF91AF919F918F917F916F915F917C
:101F06004F913F912F910F900FBE0F901F901895F4
:101F1600EF92FF920F931F93CF93DF93E091AD382B
:101F2600F091AE38238121FF29C08C01D0E0C0E0BA
:101F36008BEAE82E88E3F82EF80181918F01882339
:101F460081F0D70112966D917C911397DB0118965B
:101F5600ED91FC9119970995892B71F3DFEFCFEF7E
:101F6600EBCF6091AD387091AE38DB011896ED91EC
:101F7600FC9119978AE00995892B19F08FEF9FEF4D
:101F860002C08D2F9C2FCDB7DEB7E6E00C94251648
:101F9600E89409C097FB3EF49095809570956195FD
:101FA6007F4F8F4F9F4F9923A9F0F92F96E9BB27B3
:101FB6009395F695879577956795B795F111F8CF2F
:101FC600FAF4BB0F11F460FF1BC06F5F7F4F8F4F9A
:101FD6009F4F16C0882311F096E911C0772321F090
:101FE6009EE8872F762F05C0662371F096E8862F28
:101FF60070E060E02AF09A95660F771F881FDAF77F
:0A200600880F9695879597F90895C5
:102010000F931F93CF93DF93FB01238121FD03C017
:102020008FEF9FEF2CC022FF16C04681578124817D
:1020300035814217530744F4A081B1819D012F5F80
:102040003F4F208331838C93268137812F5F3F4F11
:102050002683378314C08B01EC01FB010084F185DA
:10206000E02D0995892BE1F6D80116968D919C916A
:102070001797019616968D939C931797CE01DF9133
:08208000CF911F910F9108950B
:1020880008C029F416F00C94BA180C9471180C9422
:10209800EF180E94CE14A8F39638A0F707F80F920D
:1020A800E8942BE33AEA48EB5FE70E94B80C0F92FA
:1020B8000F920F924DB75EB70F920E948F11E8E70B
:1020C800F0E00E942F144F915F91EF91FF91E595F9
:1020D800EE1FFF1F49F0FE57E0684427EE0F441F2C
:1020E800FA95E1F74195550B0E947F100F9007FE76
:0620F8000C943718089556
:1020FE0004C00C94BA180C94A4170E94CE14D8F3F2
:10210E009923C9F3940F511DA3F39150504094F0AD
:10211E0059F0882332F0660F771F881F9150504078
:10212E00C1F79E3F51052CF7880F911D9695879507
:10213E0097F908955F3FACF0983E9CF0BB278695CB
:10214E0077956795B79508F4B1609395C1F7BB0F76
:10215E0058F711F460FFE8CF6F5F7F4F8F4F9F4F9F
:06216E00E3CF0C9472188F
:102174001F920F920FB60F9211242F933F934F93F8
:102184005F936F937F938F939F93AF93BF93EF93DB
:10219400FF931F9B05C0E091DC3AF091DD3A09956D
:1021A4001A9B05C0E091DA3AF091DB3A0995199B44
:1021B40005C0E091D83AF091D93A09958FEF83B9E7
:1021C400FF91EF91BF91AF919F918F917F916F910B
:1021D4005F914F913F912F910F900FBE0F901F90E1
:0221E40018954C
:1021E600EF92FF921F93CF93DF937C0180E895E8EF
:1021F6000E945B11C7010E9427112AE684E091E044
:10220600215080409040E1F700C010E009C00E94D4
:102216009C18882341F00E94F8170E94E3181F5F5C
:10222600E701C10FD11D88818111F1CF2AE684E033
:1022360091E0215080409040E1F700C0DF91CF91BE
:082246001F91FF90EF90089535
:10224E000F931F93CF938C01FC014081C091E83A0C
:10225E002C2F30E0A091E93AB0E0C90101968A171F
:10226E009B07F1F04423E1F090E0CF5FF901EF54CA
:10227E00F74C40835C2F590F9F5FF801E90FF11D5A
:10228E004081252F30E0B9016F5F7F4F6A177B07C2
:10229E0019F45093E83A04C04111E8CF5093E83A4C
:0822AE00CF911F910F910895DB
:1022B600EF92FF920F931F93CF93FC01208122236D
:1022C60029F17C01E0E0F8E0848180648483F701F1
:1022D6008081811114C016C00E9484188823E1F3FE
:1022E600F80180810E949617CF5F87010C0F111DA0
:1022F600F8019081992331F0CF3F71F703C0870130
:10230600C0E0EACF0E948A188111FCCFCF911F91BD
:082316000F91FF90EF90089574
:10231E00FA01DC01AA0FBB1F9B01AC01BF5728F4C9
:10232E00222733274427507820C0B75190F4AB2F83
:10233E000024469537952795011CA395D2F30020CE
:10234E0071F0220F331F441FB395DAF30ED00C94A5
:10235E00551861307105A0E88A07B94630F49B0123
:10236E00AC016627772788279078309621F0208356
:08237E0031834283538308956B
:10238600CF93DF93CDB7DEB72697CDBFDEBF85EF00
:102396008983809110388A8342E0BE016F5F7F4F48
:1023A60086E70E94471682EF8B8380914D388C8397
:1023B60042E0BE016D5F7F4F86E70E94471684EFBD
:1023C6008D83809156388E8342E0BE016B5F7F4FCE
:1023D60086E70E9447162696CDBFDEBFDF91CF91D6
:0223E600089558
:1023E800FF920F931F93CF93DF938C0189E795E8B2
:1023F8000E945B11C8010E945B11C8010E9427114D
:10240800F12C09C00E949C18882341F00E94F817FB
:102418000E94E318F394E801CF0DD11D8881811142
:10242800F1CF2AE684E091E0215080409040E1F726
:0E24380000C0DF91CF911F910F91FF9008958A
:102446000E94CE1488F09F5798F0B92F9927B7515C
:10245600B0F0E1F0660F771F881F991F1AF0BA9542
:10246600C9F714C0B13091F00E947118B1E0089517
:102476000C947118672F782F8827B85F39F0B93F09
:10248600CCF3869577956795B395D9F73EF49095F5
:0E2496008095709561957F4F8F4F9F4F0895F1
:1024A4001F920F920FB60F9211248F939F93AF93A5
:1024B400BF93EF93FF938091CA3A9091CB3AA09146
:1024C400CC3AB091CD3A0196A11DB11D8093CA3A80
:1024D4009093CB3AA093CC3AB093CD3AE0E8FAE0AB
:1024E400868181608683FF91EF91BF91AF919F9127
:0C24F4008F910F900FBE0F901F90189555
:102500001F920F920FB60F9211248F939F93AF9348
:10251000BF93EF93FF938091C63A9091C73AA091F1
:10252000C83AB091C93A0196A11DB11D8093C63A2F
:102530009093C73AA093C83AB093C93AE0E4F1E067
:1025400083898160838BFF91EF91BF91AF919F91C0
:0C2550008F910F900FBE0F901F901895F8
:10255C001F920F920FB60F9211242F933F934F930C
:10256C005F936F937F938F939F93AF93BF93EF93EF
:10257C00FF938091480484FF03C00E944D1702C052
:10258C000E94A81881E08093960AFF91EF91BF9169
:10259C00AF919F918F917F916F915F914F913F91EF
:0C25AC002F910F900FBE0F901F901895FC
:1025B800E0E0F8E08DE695E080879187158280EC71
:1025C800868383E0878313861486168615868CEFA8
:1025D80098E180930238909303388DEF98E18093C7
:1025E8000038909301388EEF98E1809304389093E7
:1025F80005381092DE3A1092DF3A81EB9AE3809325
:08260800AD389093AE3808953F
:10261000EF92FF921F93CF93DF937C0188E995E8B7
:102620000E945B11C7010E9427112AE684E091E015
:10263000215080409040E1F700C010E009C00E94A6
:102640009C18882341F00E94F8170E94E3181F5F2E
:10265000E701C10FD11D88818111F1CFDF91CF91A9
:082660001F91FF90EF90089517
:1026680040E068ED80E690E00E94CE1841E168ED18
:1026780081E690E00E94CE1840E068ED82E690E0A6
:102688000E94CE1840E068ED83E690E00E94CE18E4
:1026980040E068ED80E790E00E94CE1840E068EDE9
:1026A80088E790E00E94CE1840E068ED8CE790E063
:0626B8000E94CE180895F7
:1026BE001F920F920FB60F9211242F933F934F93A9
:1026CE005F936F937F938F939F93AF93BF93EF938C
:1026DE00FF935B9B05C0E091CE3AF091CF3A0995FE
:1026EE008FEF8BB9FF91EF91BF91AF919F918F912A
:1026FE007F916F915F914F913F912F910F900FBEF0
:06270E000F901F901895CA
:1027140020E22093A5086623D1F0A82FB92F90E0DA
:10272400E0EAF8E022E0858185FD17C0858182FD1D
:1027340007C0858183FD04C085818370833099F748
:1027440080858D939F5F691711F02483ECCF87E018
:102754008093A40808952483E6CF80858D939F5F9A
:062764006913F9CFF4CF68
:10276A00CF93DF93EC010E94B4188823A9F0E0917B
:10277A00EB3AF0E0EF54F64C208180E0FE01E80FDE
:10278A00F11D9081291302C08F5F0AC081E09881F0
:10279A00921731F080E004C080E009C081E007C0F0
:1027AA00FE01E80FF11D90819111E8CFF7CFDF917B
:0427BA00CF9108951E
:1027BE000E947E18882321F00E94DA180E9471165A
:1027CE000E949618882321F00E94E0180E94861617
:1027DE000E94B418882341F00E948418882321F0A7
:1027EE000E9403180E94DD180E94AE18882341F043
:1027FE000E949C18882321F00E94F8170E94E3186B
:02280E0008952B
:10281000662309F1DC016150262F30E02F5F3F4F26
:10282000280F391FE0EAF8E09D919087958195FD8A
:102830000AC0958192FD07C0958193FD04C09581E2
:102840009370933099F7958194FD07C0A217B30751
:0E28500059F781E0089581E0089580E0089531
:10285E00DF93CF931F930F93FF92EF92DF927B0143
:10286E008C01689406C0DA2EEF010E94A50CFE01C1
:10287E00E894A5912591359145915591A6F3EF01D7
:10288E000E940F0DFE019701A801DA9469F7DF90FF
:0E289E00EF90FF900F911F91CF91DF91089561
:1028AC00E0E2F8E087EE90E080879187158280EC7B
:1028BC00868383E0878313861486168615868FEFAE
:1028CC0098E1809306389093073880E099E18093E3
:1028DC0008389093093881E099E180930A389093F5
:0C28EC000B381092E03A1092E13A089587
:1028F8009091A50893709330E1F0880F682B60934E
:10290800A708E0EAF8E0858185FD0AC0858182FD97
:1029180007C0858183FD04C085818370833099F762
:102928000E947A17882339F083E08093A40880E016
:0A293800089580E0089581E00895FD
:10294200CF93DF93EC010E94C5180E94E2170E9408
:102952005C1868830E94750E0E9423126A837B832F
:102962000E94ED170E94231269830E944E188C83E5
:102972000E94AF168D838091E23A8F5F8E83CE01E3
:0A2982000E943B0CDF91CF910895F5
:10298C0057FD9058440F551F59F05F3F71F0479514
:10299C00880F97FB991F61F09F3F79F087950895F9
:1029AC00121613061406551FF2CF4695F1DF08C018
:1029BC00161617061806991FF1CF86957105610535
:0429CC0008940895CE
:1029D000A1E21A2EAA1BBB1BFD010DC0AA1FBB1F23
:1029E000EE1FFF1FA217B307E407F50720F0A21B95
:1029F000B30BE40BF50B661F771F881F991F1A9402
:102A000069F760957095809590959B01AC01BD012B
:042A1000CF01089555
:102A1400883E2AE0920710F087EE9AE0873A24E095
:102A2400920710F487EA94E0BC01675A744080E08E
:102A340090E00E94CB0F20E030E040E85DE30E948C
:0C2A4400D6180E94231284E6861B089519
:102A5000CF9380EB95E80E945B110E949618882323
:102A600021F00E94E0180E9486160E94B418882364
:102A7000A1F30E948418882381F30E940318C82FB1
:0C2A80000E94DD18CA3049F7CF9108957C
:102A8C00CF93DF93EC0187EC97E80E945B1188E30E
:102A9C0095E80E945B118CED97E80E945B11CE01CA
:102AAC000E945B1180EF97E80E942711CE010E94D3
:082ABC002711DF91CF9108956D
:102AC400CF93DF93EC0187EC97E80E945B1188E3D6
:102AD40095E80E945B118FEF97E80E945B11CE018D
:102AE4000E945B1185E198E80E942711CE010E94A3
:082AF4002711DF91CF91089535
:102AFC00E0E8FAE080E197E28487958780E18183C2
:102B0C0081E0858393E09083E0E9FAE02FEF3FEFDB
:102B1C002487358746E0418341E1448390832287B3
:062B2C0033878583089544
:102B32000E945C1682EC92EA0197F1F700C00E94B3
:102B42006A0860E080E00E943E1741E061E081E0B7
:102B52000E94D61781E00E94E6180E94C31181E00C
:062B62008093E73A08959C
:102B6800E0E0F6E0118280E28187828313828FEFB2
:102B780080871386178280E18287148287E08487A2
:102B880080E38587168E178E148E158E81E08083DC
:042B980080E008953C
:102B9C00CF93DF9300D0CDB7DEB7809156388C7FC2
:102BAC0081608093563894EF99838A8342E0BE010A
:102BBC006F5F7F4F86E70E9447160F900F90DF9153
:042BCC00CF91089508
:102BD0002F923F924F925F926F927F928F929F922D
:102BE000AF92BF92CF92DF92EF92FF920F931F931B
:102BF000CF93DF93CDB7DEB7CA1BDB0BCDBFDEBFF4
:022C0000099435
:102C02001F920F920FB60F9211248F93EF93FF939F
:102C1200E0E0F6E080E2858380E1858388E08583D9
:102C2200FF91EF918F910F900FBE0F901F9018950B
:102C32002A88398848885F846E847D848C849B844A
:102C4200AA84B984C884DF80EE80FD800C811B8158
:102C5200AA81B981CE0FD11DCDBFDEBFED0108958E
:102C6200A0E0B0E0E7E3F6E10C94F815AE014B5FAB
:102C72005F4FFA0161917191AF018091AD389091EE
:0C2C8200AE380E94B000E2E00C9429166D
:102C8E001F93CF93DF93EB01142F60E00E947C140F
:102C9E00882339F0612FCE010E94081493E090939F
:0A2CAE00A408DF91CF911F91089553
:102CB800CF93DF9300D0CDB7DEB780EE898386EB64
:102CC8008A8342E0BE016F5F7F4F86E70E94471606
:0A2CD8000F900F90DF91CF91089547
:102CE2009091E83A292F30E0B9016F5F7F4F409110
:102CF200E93A50E06417750739F0F901EF54F74CDF
:0A2D020080839F5F9093E83A0895E4
:102D0C009091EA3A292F30E0B9016F5F7F4F4091E3
:102D1C00EB3A50E06417750739F0F901EF54F64CB3
:0A2D2C0080839F5F9093EA3A0895B8
:102D36000E942F170E94C1160E9447180E947E15F6
:102D46000E94CA1778940E94C0180E9488170E9491
:082D560099150E942A09FDCF26
:102D5E002091E23A3091E33AADECBCEC0E946B1755
:102D6E0096958795969587959695879594E6981B53
:042D7E00892F0895FC
:102D8200E0E2F4E0808180688083848180688483CB
:102D9200E0E4F4E080818F7E808384898860848B84
:022DA200089592
:102DA400092E0394000C11F4882352F0BB0F40F455
:102DB400BF2B11F460FF04C06F5F7F4F8F4F9F4F95
:022DC400089570
:102DC600DB018F939F930E940E18BF91AF91A29F34
:102DD600800D911DA39F900DB29F900D1124089513
:102DE600E0E0F6E09485907C94879485892B84872F
:0E2DF60082858F77828782858160828708952B
:102E04000E94F3160E94CA188823E1F3E0E0F6E07A
:0E2E1400608971898289938921E02583089560
:102E22001F920F920FB60F9211248F9382E080931C
:0E2E320005068F910F900FBE0F901F90189500
:102E40001F920F920FB60F9211248F9381E08093FF
:0E2E500005068F910F900FBE0F901F901895E2
:102E5E000E9434130E94E90A0E94B4150E94DC12EB
:0E2E6E000E9456140E94A2180E94B2170895E6
:102E7C0087708295807F2091103821786770962F0B
:0E2E8C00990F622F682B692B60931038089500
:102E9A00E0E2F4E08581806885838091E43A90914C
:0E2EAA00E53A81608093E43A9093E53A08950A
:102EB80089E997E80E945B1187ED95E80E945B110C
:0E2EC80088EA97E80E94F4110E9428150895E8
:102ED600A29FB001B39FC001A39F700D811D112455
:0E2EE600911DB29F700D811D1124911D089544
:102EF4008091A5088C7141F49091A508937081E0AC
:0C2F0400933019F080E0089581E00895FA
:102F10000E942F18E0EAF8E084E0808381E0828359
:0C2F20009DEF95839FE0968383830895C6
:102F2C00CF93C82F0E948418882331F0E0E0F8E09A
:0C2F3C00948190649483C283CF91089527
:102F48009F3F31F0915020F4879577956795B79515
:0C2F5800880F911D9695879597F90895B4
:102F640040E068ED80E191E00E94CE18E0E1F1E0FC
:082F74001282138280E008952F
:102F7C00CF93C82F0E9484188823E1F3C0930208D2
:082F8C0080E090E0CF91089570
:102F9400E0E4F1E081E08783828B818980FDFDCFCD
:082FA40089E4809350010895B7
:102FAC008295880F807E6770660F660F4370862B44
:082FBC00842B80935638089520
:102FC4000E94C6090E94CB0F20E030E048EC52E496
:062FD4000E94D2180895CE
:102FDA000E947E060E94CB0F20E030E040E85AE3D0
:062FEA000E94D6180895B4
:102FF0009091E93AE92FF0E0EF54F74C80819F5F20
:063000009093E93A0895E7
:103006009091EB3AE92FF0E0EF54F64C80819F5F08
:063016009093EB3A0895CF
:10301C000E946B17A59F900DB49F900DA49F800DDF
:06302C00911D112408951E
:10303200FC010590615070400110D8F78095909581
:063042008E0F9F1F089590
:10304800FC016150704001900110D8F7809590956F
:063058008E0F9F1F08957A
:10305E00E0E2F4E083E0818388E0808B818B089549
:10306E009B01AC0160E070E080E89FE30C94D21805
:10307E00B7FF0C940E180E940E18821B930B089526
:0E308E00E0E8F1E084E4838B84E082AB0895F7
:0E309C0087E00E940217CB010E940A150895DA
:0E30AA005058BB27AA270E940F0D0C94D21677
:0E30B8000E9423126894B1110C9472180895AE
:0E30C60000240A941616170618060906089527
:0E30D40000240A941216130614060506089529
:0E30E200E894BB2766277727CB0197F908955E
:0C30F000E0E0F8E08681806486830895AB
:0C30FC0080910408881F8827881F089511
:0C3108008091040885FB882780F9089559
:0C3114008091040886FB882780F908954C
:0C312000E0E0F8E0868180688683089576
:0C312C0080912408881F8827881F0895C0
:0C3138008091240885FB882780F9089509
:0C314400E0EAF0E01082118280E00895C3
:0C315000E0E2F4E085818F77858308952C
:0C315C008091E93A9091E83A891B0895AF
:0C3168008091EB3A9091EA3A891B08959F
:0C31740097F99F6780E870E060E0089524
:0A3180000E9490180E94781808952C
:0A318A000E94CE150E945A0A089513
:08319400809105068170089589
:08319C00FC0164BF40830895AB
:0831A4000E945E0B0C94D21690
:0831AC000E94A50C0C94D21640
:0631B4008091000808955F
:0631BA0080930208089555
:0631C00080912008089533
:0631C60080932208089529
:0631CC0080934D380895C8
:0631D2000E94060F0895A3
:0631D8000E945C1708953F
:0631DE009FEF80EC089554
:0431E4000C94000047
:0231E800089548
:0231EA00089546
:0231EC00089544
:0231EE00089542
:0231F000089540
:0231F20008953E
:0231F40008953C
:0231F60008953A
:0231F800089538
:0231FA00089536
:0231FC00089534
:0231FE00089532
:0232000008952F
:0232020008952D
:0E3204000000000200000000BE1700000000E5
:02000004008278
:090000000000020000C40700002A
:00000001FF
