:100000000C9486000C94F8180C94F8180C94F818BA
:100010000C9499120C94F8180C94D3100C94640F4F
:100020000C94F8180C94F8180C94F8180C94F81810
:100030000C94F8180C946B120C94F8180C94F81893
:100040000C94F8180C94F8180C94F8180C94F818F0
:100050000C94F8180C941A160C9437170C94281753
:100060000C9478130C94C7120C94F8180C94F8188C
:100070000C94F8180C94F81807634236B79BD8A76D
:100080001A39685618AEBAAB558C1D3CB7CC5763BD
:10009000BD6DEDFD753EF6177231BF000000803F6B
:1000A00008000000BE922449123EABAAAA2ABECD87
:1000B000CCCC4C3E00000080BEABAAAAAA3E0000F9
:1000C0000000BF000000803F0000000000084178F1
:1000D000D3BB4387D1133D190E3CC3BD4282AD2B28
:1000E0003E68EC8276BED98FE1A93E4C80EFFFBE20
:1000F00001C4FF7F3F000000000038003AB1803AA1
:10010000B13ABF0032103ABF3AEC800011241FBE52
:10011000CFEFCDBFDFE3DEBFEAEFF0E041E017C095
:10012000B591A59135912591059107FD0CC095914B
:100130008591EF01F92FE82F05900D92A217B307D3
:10014000D9F7FE0104C01D92A217B307E1F7EB3007
:10015000F40731F70E94B4160C94AE00F894FFCF68
:10016000ABE0B0E0E6EBF0E00C9401166C017B0133
:100170008A01FC0116821782838181FFCCC1CE01E6
:1001800001963C01F6019381F70193FD859193FF60
:1001900081917F01882309F4BAC1853239F493FD36
:1001A000859193FF81917F01853229F4B60190E01A
:1001B0000E942110E7CF912C212C312CFFE1F31567
:1001C000D8F08B3279F038F4803279F08332A1F4B0
:1001D000232D20611DC08D3261F0803369F4232D01
:1001E000216016C0832D8260382EE32DE4603E2E00
:1001F0002AC0F32DF8601DC037FC2DC020ED280F5C
:100200002A3040F08E32B9F436FC81C1232D2064AF
:10021000322E19C036FE06C08AE0989E200D1124A9
:10022000922E11C0EAE02E9E200D1124222EF32DD5
:10023000F0623F2E08C08C3621F4832D8068382E62
:1002400002C0883641F4F70193FD859193FF8191B7
:100250007F018111B3CF982F9F7D9554933028F45F
:100260000C5F1F4F9FE399830DC0833631F08337B6
:1002700071F0833509F059C021C0F801808189836C
:100280000E5F1F4F88248394912C530113C02801C3
:10029000F2E04F0E511CF801A080B18036FE03C081
:1002A000692D70E002C06FEF7FEFC5010E943B181F
:1002B0004C018201F32DFF773F2E16C0280122E06A
:1002C000420E511CF801A080B18036FE03C0692D9A
:1002D00070E002C06FEF7FEFC5010E9430184C0143
:1002E000F32DF0683F2E820133FC1BC0822D90E07D
:1002F00088169906B0F4B60180E290E00E942110C1
:100300002A94F4CFF50137FC859137FE81915F0186
:10031000B60190E00E94211021102A9421E0821A57
:1003200091088114910471F7E8C0843611F0893680
:1003300041F5F80137FE07C06081718182819381A8
:100340000C5F1F4F08C060817181072E000C880B65
:10035000990B0E5F1F4FF32DFF763F2E97FF09C0BD
:1003600090958095709561957F4F8F4F9F4FF06866
:100370003F2E2AE030E0A3010E948F0D882E8618C0
:1003800045C0853731F4232D2F7EB22E2AE030E090
:1003900025C0932D997FB92E8F36C1F018F488357A
:1003A00079F0B5C0803719F0883721F0B0C0E92F57
:1003B000E061BE2EB4FE0DC0FB2DF460BF2E09C05F
:1003C00034FE0AC0292F2660B22E06C028E030E095
:1003D00005C020E130E002C020E132E0F801B7FEC4
:1003E00007C060817181828193810C5F1F4F06C0BD
:1003F0006081718180E090E00E5F1F4FA3010E9439
:100400008F0D882E8618FB2DFF773F2E36FE0DC0F0
:10041000232D2E7FA22E891458F434FE0BC032FCFB
:1004200009C0832D8E7EA82E05C0B82CA32C03C036
:10043000B82C01C0B92CA4FE0FC0FE01E80DF11DBF
:100440008081803321F49A2D997EA92E09C0A2FEC5
:1004500006C0B394B39404C08A2D867809F0B3948F
:10046000A3FC11C0A0FE06C0B21488F4280C922C84
:100470009B180EC0B21460F4B60180E290E00E94B6
:100480002110B394F7CFB21418F42B1802C0982C93
:10049000212CA4FE10C0B60180E390E00E94211040
:1004A000A2FE17C0A1FC03C088E790E002C088E567
:1004B00090E0B6010CC08A2D867859F0A1FE02C0EA
:1004C0008BE201C080E2A7FC8DE2B60190E00E94C1
:1004D0002110891438F4B60180E390E00E942110C5
:1004E0009A94F7CF8A94F301E80DF11D8081B6014B
:1004F00090E00E9421108110F5CF222009F442CE15
:10050000B60180E290E00E9421102A94F6CFF60115
:100510008681978102C08FEF9FEF2B96E2E10C94CA
:02052000321691
:100522000D526573657474696E67204C52322043B4
:100532006C69636B0A002D2D2D2D2D2D2D2D2D2D4A
:100542002D2D2D2D2D2D2D2D2D2D2D2D2D2D2D2DD9
:100552002D2D2D2D2D2D2D2D2D2D2D2D2D2D2D2DC9
:100562002D2D2D2D2D2D2D2D2D2D0A004669726D2F
:10057200776172653A20000D0A54783A20000D0A1C
:1005820054783A206D6163207365742061707073D2
:100592006B65790D0A000D0A54783A206D6163206B
:1005A200736574206E776B736B65790D0A000D525B
:1005B200783A20000A0A436F6E6669677572696E3F
:1005C20067204C523220436C69636B20466F722065
:1005D2004142500A002D2D2D2D2D2D2D2D2D2D2D4D
:1005E2002D2D2D2D2D2D2D2D2D2D2D2D2D2D2D2D39
:1005F2002D2D2D2D2D2D2D2D2D2D2D2D2D2D2D2D29
:100602002D2D2D2D2D2D2D2D2D2D2D2D2D2D2D2D18
:100612002D2D2D2D2D2D2D2D2D2D2D2D0A006D61E4
:10062200632073657420646576657569203730428E
:10063200334435374544303035323534420D0A00C3
:100642006D616320736574206465766164647220F1
:1006520032363043433242340D0A006D61632073F7
:10066200657420617070736B657920384438414439
:1006720039393843394638434135343645433631C2
:1006820046444437413345324132380D0A006D61E8
:100692006320736574206E776B736B6579203935CF
:1006A2003745323841444435374230394133424686
:1006B20039374536443346433236394343330D0ADC
:1006C200006D616320736574206172206F6E0D0A84
:1006D200006D61632073657420727864656C617962
:1006E2003120353030300D0A006D6163207365743E
:1006F20020616472206F6E0D0A006D616320736168
:1007020076650D0A000A0A000A0A436F6E66696777
:100712007572696E67204C523220436C69636B209C
:10072200666F72204F5441410A006D616320736508
:1007320074206170706B65792046343243333832ED
:1007420042423941383739463732323439394445F1
:100752004337454636354246330D0A006D61632004
:100762007365742061707065756920303030303087
:1007720030303030303030303030300D0A006D6182
:10078200632070617573650D0A006D616320726587
:1007920073756D650D0A000A0A4A6F696E696E67A4
:1007A2002054544E0A006D6163206A6F696E2061A5
:1007B20062700D0A006D6163206A6F696E206F744A
:1007C20061610D0A000A0A5472616E736D69747474
:1007D200696E6720446174610A000A54783A206D98
:1007E200616320747820636E6620343220006D616C
:1007F2006320747820636E6620343220000A5478B5
:100802003A206D616320747820756E636E662034C1
:100812003320006D616320747820756E636E6620EC
:04082200343320004B
:100826004F925F926F927F928F929F92AF92BF92FA
:10083600CF92DF92EF92FF92C0907538D0907638C3
:10084600E0907738F0907838F594E794D794C79489
:100856008AEFD81AE108F108C701B6019595879580
:100866007795679595958795779567959B01AC01E3
:100876000E94FA164B015C01E9E7F8E3A285B3850D
:100886009B01AC01012E1DE055954795379527959F
:100896001A95D1F7102D0E9456182B013C01689429
:1008A60012F875946794579447941694D1F7A085D7
:1008B600B185A70196010E945618DC01CB01B595BA
:1008C600A79597958795840D951DA61DB71D072E8F
:1008D60072E1B595A795979587957A95D1F7702D7D
:1008E6009C01AD0130584F4F5F4FA681B7810E94E2
:1008F60025182B013C01032E3FE07594679457940D
:1009060047943A95D1F7302D41145104610471048E
:1009160009F4CEC0A5019401012E1BE0559547951B
:10092600379527951A95D1F7102DA089B1890E9480
:1009360056184B015C01A685B785A70196010E9452
:100946005618DC01CB01880F991FAA1FBB1F880E02
:10095600991EAA1EBB1ED501C401B595A7959795EC
:100966008795B595A7959795879584849584092C41
:10097600000CAA08BB08540199248824880E991EE5
:10098600AA1EBB1E072E7CE0B594A7949794879465
:100996007A95D1F7702D80914E3890914F38A0916D
:1009A6005038B0915138A5019401280F391F4A1FBC
:1009B6005B1FABECB3EF0E945918805B9C439923F5
:1009C6005CF0660F771F881F991FA30192010E9492
:1009D600011569017A010AC0A30192010E9401155D
:1009E60069017A01CC0CDD1CEE1CFF1CC701B601A7
:1009F600689412F896958795779567951694D1F72A
:100A06009B01AC010E94FA169B01AC01012E1DE070
:100A160056954795379527951A95D1F7102DE9E7FD
:100A2600F8E3A689B7890E9456184B015C01072E88
:100A36007CE0B594A794979487947A95D1F7702D16
:100A4600A70196015695479537952795569547954B
:100A560037952795A489B5890E945618DC01CB01E4
:100A6600072E7DE0B595A795979587957A95D1F749
:100A7600702DB501A401480F591F6A1F7B1F82897B
:100A86009389092E000CAA0BBB0B840F951FA61F7A
:100A9600B71F689413F8B595A795979587951694FB
:100AA600D1F7BC01CD016C0D7D1D8E1D9F1D03C0B0
:100AB60060E070E0CB01FF90EF90DF90CF90BF90A9
:100AC600AF909F908F907F906F905F904F9008951A
:100AD6000A416674657220313030204D6F69737437
:100AE6007572652052656164696E6773002D2D2DE0
:100AF6002D2D2D2D2D2D2D2D2D2D2D2D2D2D2D2D20
:100B06002D2D2D2D2D2D2D2D2D2D2D2D2D2D2D2D0F
:100B16002D2D2D2D2D2D2D2D2D2D2D2D2D2D2D2DFF
:100B26002D2D2D2D2D2D2D2D2D2D2D2D2D2D2D2DEF
:100B36002D2D2D2D00546865204D4158207265617C
:100B460064696E67207761732025640A00546865BE
:100B5600204D494E2072656164696E672077617326
:100B66002025640A0A00546865204D4158206D61AD
:100B7600707320746F2025640A00546865204D49FF
:100B86004E206D61707320746F2025640A000A0A76
:100B960043757272656E742053656E736F7220446E
:100BA6006174610A002D2D2D2D2D2D2D2D2D2D2D10
:100BB6002D2D2D2D2D2D2D2D2D2D2D2D2D2D2D2D5F
:100BC6002D2D2D2D2D2D2D2D2D2D2D2D2D2D2D2D4F
:100BD6002D2D2D2D2D2D2D2D2D2D2D2D2D2D2D2D3F
:100BE6002D2D2D2D2D2D2D2D2D2D2D2D0A00526522
:100BF6006C61746976652048756D69646974793AC3
:100C06002025752525200D0A004D6F6973747572B0
:100C1600653A2025752525200D0A005072657373E7
:100C26007572653A202575206850610D0A00416984
:100C3600722054656D70657261747572653A20250F
:100C4600692043200D0A0042617474657279204C54
:100C56006576656C3A2025752525200D0A0A000A59
:100C66004A534F4E20466F726D61740D0050617984
:100C76006C6F61643A207B206169725F74656D7088
:100C86003A2025692C20626174746572793A2025B0
:100C9600752C2068756D69646974793A2025752C00
:100CA600206D6F6973747572653A2025752C2070F6
:100CB600726573737572653A2025752C206E756D95
:100CC60054783A2025750D0A0A7D003031323334C6
:100CD60035363738394142434445460061636365DA
:100CE600707465640D0A0052783A2061636365701A
:100CF6007465640A0073797320736C6565702031BE
:080D060032303030300D0A00DC
:100D0E004F925F926F927F928F929F92AF92BF920D
:100D1E00CF92DF92EF92FF92809075389090763856
:100D2E00A0907738B09078382CE2921A21E0A20A7F
:100D3E00B108C0900C38D0900D38E0900E38F0907D
:100D4E000F380B2EBEE0CC0CDD1CEE1CFF1CBA9532
:100D5E00D1F7B02DE9E7F8E3848D958D092E000CBF
:100D6E00AA0BBB0B072E74E1880F991FAA1FBB1F7E
:100D7E007A95D1F7702DC81AD90AEA0AFB0AA68D00
:100D8E00B78DA50194010E945618C61AD70AE80A13
:100D9E00F90A30E4D30EE11CF11C0B2EBFE0F594E2
:100DAE00E794D794C794BA95D1F7B02DA38DB0E040
:100DBE00A50194010E9425182B013C01032E3BE056
:100DCE0075946794579447943A95D1F7302D40E82F
:100DDE00540E611C711CA0A10A2E000CBB0BA501A8
:100DEE0094010E945618052E5AE095958795779591
:100DFE0067955A95D1F7502DA30192010E94FA16CC
:100E0E00DC01CB01072E7AE0B595A79597958795CE
:100E1E007A95D1F7702D9C01AD01405E5F4FA18D8B
:100E2E00B28D0E945618DC01CB01905EAF4FBF4FC2
:100E3E00BC01CD01052E5EE095958795779567955A
:100E4E005A95D1F7502DA70196010E94FA166B0103
:100E5E007C01052E5FE095958795779567955A9558
:100E6E00D1F7502D9B01AC010E94FA169B01AC01EB
:100E7E00689416F855954795379527951694D1F79A
:100E8E00A08DB0E00E942518DC01CB01689413F808
:100E9E00B595A795979587951694D1F7A7019601C5
:100EAE00281B390B4A0B5B0BDA01C9011AF480E0DF
:100EBE0090E0DC0181309105A10539E1B30724F002
:100ECE0080E090E0A0E0B9E1BC01CD01052E5CE030
:100EDE0095958795779567955A95D1F7502DFF90F3
:100EEE00EF90DF90CF90BF90AF909F908F907F90BC
:080EFE006F905F904F90089582
:100F0600CF93DF93CDB7DEB76197CDBFDEBF21E1CB
:100F1600E1EDFCE8DE01119601900D922A95E1F7CC
:100F2600DB012C9122952F70E1E0F0E0EC0FFD1F24
:100F3600E20FF11D2081FC0120832C912F70E1E04E
:100F4600F0E0EC0FFD1FE20FF11D2081DC01119690
:100F56002C931197FB01218122952F70E1E0F0E09F
:100F6600EC0FFD1FE20FF11D208112962C93DB0181
:100F760011962C9111972F70E1E0F0E0EC0FFD1F18
:100F8600E20FF11D2081FC01238314962C912295FA
:100F96002F70E1E0F0E0EC0FFD1FE20FF11D208164
:100FA600DC0114962C931497FB0124812F70E1E049
:100FB600F0E0EC0FFD1FE20FF11D208115962C933A
:100FC600DB0113964C911397242F22952F7030E056
:100FD600E1E0F0E0EC0FFD1FE20FF31F2081FC01C2
:100FE600268313962C9130E02F703327E1E0F0E052
:100FF600EC0FFD1FE20FF31F2081DC0117962C93E7
:10100600DB011296ED91FC911397F295E295EF7044
:10101600EF27FF70EF27EF70FF2721E030E02C0F5E
:101026003D1FE20FF31F2081DC0118962C93DB0194
:101036001296ED91FC911397EF70FF2721E030E0B7
:101046002C0F3D1FE20FF31F2081DC0119962C9314
:101056001997FB01258122952F70E1E0F0E0EC0F56
:10106600FD1FE20FF11D20811A962C93DB011596C8
:101076002C9115972F70E1E0F0E0EC0FFD1FE20FC9
:10108600F11D2081FC01238716962C9122952F7045
:10109600E1E0F0E0EC0FFD1FE20FF11D2081DC0125
:1010A6001C962C931C97FB0126812F70E1E0F0E043
:1010B600EC0FFD1FE20FF11D20811D962C931D974D
:1010C6002DE01E962C931E972AE01F962C931F97B1
:1010D60050961C926196CDBFDEBFDF91CF910895E9
:1010E6000F931F93CF93DF93CDB7DEB76897CDBF2E
:1010F600DEBF28E1AE014F5F5F4F68E886E70E94DA
:10110600D70E09E718E38A8190E0982F882729816E
:10111600820F911DF801808391838C8190E0982F36
:1011260088272B81820F911D828393838E8190E085
:10113600982F88272D81820F911D8483958388851A
:1011460090E0982F88272F81820F911D86839783A1
:101156008A8590E0982F88272985820F911D8087A0
:1011660091878C8590E0982F88272B85820F911D7B
:10117600828793878E8590E0982F88272D85820F0A
:10118600911D84879587888990E0982F88272F85D9
:10119600820F911D868797878A8990E0982F8827E6
:1011A6002989820F911D808B918B8C8990E0982FD5
:1011B60088272B89820F911D828B938B8E8990E0D5
:1011C600982F88272D89820F911D848B958B888D6A
:1011D60090E0982F88272F89820F911D868B978BF9
:1011E60021E0AE014F5F5F4F61EA86E70E94D70EAE
:1011F6008981F801808F27E0AE014F5F5F4F61EE76
:1012060086E70E94D70E2A8130E0322F2227998165
:10121600290F311DF801218F328F9B81938F9D817C
:101226002C81F0E12F9F90011124492F4F70242B20
:10123600F801248F358F2E81F0E12F9F9001112424
:1012460092959F70292BF801268F378F9F8190A347
:101256006896CDBFDEBFDF91CF911F910F910895A4
:101266008091E43A9091E53A80FF1DC08091E63A7C
:10127600882319F0823059F00DC00E94E60B0E94B7
:10128600EF180E94F21881E08093E63A03C083E0EB
:101296008093E63A8091E43A9091E53A8E7F809386
:1012A600E43A9093E53A8091E63A8330A1F08430AF
:1012B60009F452C0813009F07EC082EE9CE80E949B
:1012C600CE13882321F08DEE9CE80E94741182E0F3
:1012D6008093E63A08958FEB9AE30E94BA146FEB77
:1012E6007AE38AE998E30E9483074091E23A5091B3
:1012F600E33A9A01ADECBCEC0E948217969587956D
:1013060096958795969587959C01220F331F880F92
:10131600991F880F991F880F991F820F931F4817CF
:10132600590729F48AE998E30E945F1504C08AE9FF
:1013360098E30E947B158091E23A9091E33A0196F8
:101346008093E23A9093E33AE0E4F1E080818160B1
:10135600808384E08093E63A8091C63A9091C73ABA
:10136600A091C83AB091C93A4E97A105B10521F4AA
:101376008BEF9CE80E9440118091C63A9091C73A43
:10138600A091C83AB091C93A843B9105A105B1052F
:1013960081F483E08093E63AE0E4F1E080818E7F99
:1013A60080831092C63A1092C73A1092C83A1092A9
:0813B600C93A0E94F8130895E2
:1013BE008F929F92AF92BF92CF92DF92EF92FF9257
:1013CE008091523890915338A0915438B09155383D
:1013DE00E9E7F8E34081518160E070E06C017D0146
:1013EE00689413F8F594E794D794C7941694D1F7AC
:1013FE00C41AD50AE60AF70A689412F8B595A795A5
:10140E00979587951694D1F7440F551F661F771F32
:10141E004C015D01841A950AA60AB70AA50194012A
:10142E00A281B3810E9456184B015C01072E7BE00E
:10143E00B594A794979487947A95D1F7702DA701B8
:10144E009601C701B6010E94FA169B01AC01012E4E
:10145E001CE055954795379527951A95D1F7102D80
:10146E00A481B5810E945618DC01CB01072E7EE0C7
:10147E00B595A795979587957A95D1F7702D880D87
:10148E00991DAA1DBB1D8093753890937638A09335
:10149E007738B09378386C017D01CC0CDD1CEE1CD6
:1014AE00FF1CCC0CDD1CEE1CFF1C8C0D9D1DAE1DFF
:1014BE00BF1D80589F4FAF4FBF4F692F7A2F8B2F75
:1014CE00992787FD9A95FF90EF90DF90CF90BF9070
:0814DE00AF909F908F900895DC
:1014E600CF93DF93CDB7DEB72897CDBFDEBF28E019
:1014F600AE014F5F5F4F67EF86E70E94D70E8F8181
:1015060090E0A0E0B0E0BA2FA92F982F8827288571
:10151600822B80930C3890930D38A0930E38B0939D
:101526000F388C8190E0A0E0B0E0AC01BD01032E45
:101536003CE0440F551F661F771F3A95D1F7302DB3
:101546009D81892F90E0A0E0B0E0880F991FAA1F27
:10155600BB1F880F991FAA1FBB1F880F991FAA1FA1
:10156600BB1F880F991FAA1FBB1F842B952BA62B69
:10157600B72B2E8122952F70822B80935238909311
:101586005338A0935438B0935538898190E0A0E041
:10159600B0E0AC01BD01032E3CE0440F551F661FB1
:1015A600771F3A95D1F7302D9A81892F90E0A0E0E8
:1015B600B0E0880F991FAA1FBB1F880F991FAA1F8B
:1015C600BB1F880F991FAA1FBB1F880F991FAA1F31
:1015D600BB1F842B952BA62BB72B2B8122952F7007
:1015E600822B80934E3890934F38A0935038B09307
:0E15F60051382896CDBFDEBFDF91CF9108950A
:10160400CF93DF93C0E0D4E082E08883A0E2B4E02B
:1016140084E68C93E0E4F4E088E080831C821496F2
:101624001C9214971482188A198A1A8A1B8A1C8A93
:101634001D8A1E8A1F8A50961C92509751961C929E
:10164400519752961C92529753961C9253975496C4
:101654001C92549755961C92559756961C925697E1
:1016640057961C92108A118A128A138A148A158A30
:10167400168A178AE0EEF5E0118210821382148232
:10168400158212828AEF98E18093DC3A9093DD3AD6
:101694008BEF98E18093DA3A9093DB3A8CEF98E100
:1016A4008093D83A9093D93A8DEF98E18093D63AC3
:1016B4009093D73A8EEF98E18093D43A9093D53AA9
:1016C4008FEF98E18093D23A9093D33A80E099E1F6
:1016D4008093D03A9093D13A81E099E18093CE3AC5
:0A16E4009093CF3ADF91CF91089563
:1016EE0010C00E94811858F00E947A1840F029F418
:1016FE005F3F29F00C94C51851110C9489180C9465
:10170E00F5180E94DF1468F39923B1F3552391F372
:10171E00951B550BBB27AA2762177307840738F052
:10172E009F5F5F4F220F331F441FAA1FA9F335D0AF
:10173E000E2E3AF0E0E832D091505040E695001C63
:10174E00CAF72BD0FE2F29D0660F771F881FBB1F1D
:10175E00261737074807AB07B0E809F0BB0B802DFB
:10176E00BF01FF2793585F4F3AF09E3F510578F027
:10177E000C94C5180C9489185F3FE4F3983ED4F38B
:10178E00869577956795B795F7959F5FC9F7880FFB
:10179E00911D9695879597F90895E1E0660F771F4D
:1017AE00881FBB1F621773078407BA0720F0621BDE
:0E17BE00730B840BBA0BEE1F88F7E0950895AD
:1017CC00CF93DF9382E295E80E94741188E395E849
:1017DC000E9474118EE695E80E947411E5E2F4E023
:1017EC0080E480832AE634E041E0215030404040E0
:1017FC00E1F700C0C6E2D4E088839FE32DE033E03C
:10180C00915020403040E1F700C0000080834AE650
:10181C0094E021E0415090402040E1F700C0A5E465
:10182C00B4E098E09C9380833AE644E021E03150A8
:10183C0040402040E1F700C088833FE34DE023E0C7
:10184C00315040402040E1F700C0000080833AE670
:10185C0044E081E0315040408040E1F700C09C936F
:10186C000E94A118882321F00E94E6180E949F165E
:10187C000E9495188823A1F30E941A18C82F0E9461
:10188C00AD17CA3069F79AE22CE23AE09150204049
:0C189C003040E1F70000DF91CF9108958B
:1018A800CF93DF93EC0184E99BE80E9474118BEAE3
:1018B8009BE80E94741189811F928F9384EF9BE8A3
:1018C8009F938F930E944A168C811F928F938FE06B
:1018D8009CE89F938F930E944A168B818F938A81ED
:1018E8008F9381E29CE89F938F930E944A16888188
:1018F800282F082E000C330B3F938F9384E39CE82A
:101908009F938F930E944A168D811F928F938DE427
:101918009CE89F938F930E944A1685E69CE80E9454
:10192800A40F83EF9AE80E94A40F8E811F928F93D1
:101938008B818F938A818F938C811F928F9389815A
:101948001F928F938D811F928F938881282F082E45
:10195800000C330B3F938F9383E79CE89F938F93FF
:101968000E944A168DB79EB782968DBF9EBFDF91A3
:04197800CF9108956E
:10197C000FC00E947A1838F00E94811820F095232D
:10198C0011F00C94C5180C94F51811240C948918AA
:10199C000E94DF1470F3959FC1F3950F50E0551F13
:1019AC00629FF001729FBB27F00DB11D639FAA27A8
:1019BC00F00DB11DAA1F649F6627B00DA11D661FF7
:1019CC00829F2227B00DA11D621F739FB00DA11D18
:1019DC00621F839FA00D611D221F749F3327A00DD2
:1019EC00611D231F849F600D211D822F762F6A2F6E
:1019FC0011249F5750409AF0F1F088234AF0EE0FD3
:101A0C00FF1FBB1F661F771F881F91505040A9F7FF
:101A1C009E3F510580F00C94C5180C9489185F3FBB
:101A2C00E4F3983ED4F3869577956795B795F7953B
:101A3C00E7959F5FC1F7FE2B880F911D96958795B3
:041A4C0097F9089569
:101A500011C00E947A1838F00E94811820F039F4E1
:101A60009F3F19F426F40C94F5180EF4E095E7FB6B
:101A70000C94C518E92F0E94DF1458F3BA176207B7
:101A800073078407950720F079F4A6F50C9488185D
:101A90000EF4E0950B2EBA2FA02D0B01B901900189
:101AA0000C01CA01A0011124FF27591B99F0593FCD
:101AB00050F4503E68F11A16F040A22F232F342F15
:101AC0004427585FF3CF469537952795A795F04063
:101AD0005395C9F77EF41F16BA0B620B730B840B78
:101AE000BAF09150A1F0FF0FBB1F661F771F881F30
:101AF000C2F70EC0BA0F621F731F841F48F4879588
:101B000077956795B795F7959E3F08F0B0CF939579
:0E1B1000880F08F09927EE0F97958795089596
:101B1E00FA01AA27283051F1203181F1E8946F9310
:101B2E006E7F6E5F7F4F8F4F9F4FAF4FB1E03ED0B6
:101B3E00B4E03CD0670F781F891F9A1FA11D680F54
:101B4E00791F8A1F911DA11D6A0F711D811D911D87
:101B5E00A11D20D009F468943F912AE0269F1124FC
:101B6E003019305D3193DEF6CF010895462F477060
:101B7E00405D4193B3E00FD0C9F7F6CF462F4F70BB
:101B8E00405D4A3318F0495D31FD4052419302D019
:101B9E00A9F7EACFB4E0A6959795879577956795BF
:101BAE00BA95C9F700976105710508959B01AC01BF
:101BBE000A2E06945795479537952795BA95C9F7E6
:0C1BCE00620F731F841F951FA01D089557
:101BDA0008C016F00C94BB170C94F51868940C9472
:101BEA00C5180E94E714A8F39923C1F3AEF3DF9353
:101BFA00CF931F930F93FF92C92FDD2788232AF0D3
:101C0A002197660F771F881FDAF720E030E040E857
:101C1A005FEB9FE3883920F0803E38F021968F777A
:101C2A000E946D18E0EAF0E004C00E946D18EDEC25
:101C3A00F0E00E9448148B01BE01EC01FB2E6F57A5
:101C4A0071097595771F880B990B0E94E60F28E199
:101C5A0032E741E35FE30E94BE0CAF2D9801AE016B
:101C6A00FF900F911F91CF91DF910E94280D0C9444
:021C7A00E91669
:101C7C00FA01EE0FFF1F309621053105A1F1611518
:101C8C00710561F48038BFE39B0749F16894903883
:101C9C00810561F08038BFEF9B0741F099234AF52D
:101CAC00FF3FE1053105210519F1E8940894E7950A
:101CBC00D901AA2329F4AB2FBE2FF85FD0F310C0A3
:101CCC00FF5F70F4A695E0F7F73950F019F0FF3A82
:101CDC0038F49F779F930DD00F9007FC9058089580
:101CEC0046F00C94F51860E070E080E89FE30895EE
:101CFC004FE79F775F934F933F932F930E94ED0D88
:101D0C002F913F914F915F910E94DC180C945D10C4
:101D1C008F929F92AF92BF92CF92DF92EF92FF92EF
:101D2C000E9413044B015C010E94F91724E036E574
:101D3C004AE150E40E946D1823E333E948E853E488
:101D4C000E946D189B01AC0164E076E58AE190E499
:101D5C000E94D8189B01AC0160E070E080E89FE322
:101D6C000E946C1828E539E348EA50EC0E943E0EBC
:101D7C006B017C01C501B4010E94E40F20E030E04E
:101D8C0048EC52E40E94D818A70196010E94DC1876
:101D9C00FF90EF90DF90CF90BF90AF909F908F907F
:021DAC00089598
:101DAE00EF92FF920F931F93CF93DF931F92CDB7B6
:101DBE00DEB769838A01E22E60E00E949514F82E48
:101DCE00882369F161E0CE0101960E942114F82E5C
:101DDE00811104C083E08093A40821C0E0EAF8E0FA
:101DEE0087818160878381E08483858185FD0AC038
:101DFE00858182FD07C0858183FD04C08581837046
:101E0E00833099F70E949117882329F083E08093FD
:101E1E00A408F12C04C06E2DC8010E94A3138F2DAF
:101E2E000F90DF91CF911F910F91FF90EF9008953A
:101E3E0086EB95E80E94741187ED95E80E94741167
:101E4E0080E296E80E940D120E94411582E496E807
:101E5E000E940D120E9441158DE596E80E940C110C
:101E6E000E94411580E996E80E9421130E944115B7
:101E7E0083EC96E80E940D120E94411583ED96E8C0
:101E8E000E940D120E9441158BEE96E80E940D12D3
:101E9E000E9441158CEF96E80E940D120E9441158A
:101EAE0087E097E80E9474112AE684E091E02150C1
:0A1EBE0080409040E1F700C0089555
:101EC8001F920F920FB60F9211242F933F934F93A7
:101ED8005F936F937F938F939F93AF93BF93EF938A
:101EE800FF933B9B05C0E091D63AF091D73A09950C
:101EF8003A9B05C0E091D43AF091D53A09953D9BBB
:101F080005C0E091D23AF091D33A09953E9B05C0BD
:101F1800E091D03AF091D13A09958FEF87B9FF91C6
:101F2800EF91BF91AF919F918F917F916F915F9149
:101F38004F913F912F910F900FBE0F901F901895C2
:101F4800EF92FF920F931F93CF93DF93E091AD38F9
:101F5800F091AE38238121FF29C08C01D0E0C0E088
:101F68008BEAE82E88E3F82EF80181918F01882307
:101F780081F0D70112966D917C911397DB01189629
:101F8800ED91FC9119970995892B71F3DFEFCFEF4C
:101F9800EBCF6091AD387091AE38DB011896ED91BA
:101FA800FC9119978AE00995892B19F08FEF9FEF1B
:101FB80002C08D2F9C2FCDB7DEB7E6E00C943E16FD
:101FC800E89409C097FB3EF49095809570956195CB
:101FD8007F4F8F4F9F4F9923A9F0F92F96E9BB2781
:101FE8009395F695879577956795B795F111F8CFFD
:101FF800FAF4BB0F11F460FF1BC06F5F7F4F8F4F68
:102008009F4F16C0882311F096E911C0772321F05D
:102018009EE8872F762F05C0662371F096E8862FF5
:1020280070E060E02AF09A95660F771F881FDAF74C
:0A203800880F9695879597F9089593
:102042000F931F93CF93DF93FB01238121FD03C0E5
:102052008FEF9FEF2CC022FF16C04681578124814B
:1020620035814217530744F4A081B1819D012F5F4E
:102072003F4F208331838C93268137812F5F3F4FDF
:102082002683378314C08B01EC01FB010084F185A8
:10209200E02D0995892BE1F6D80116968D919C9138
:1020A2001797019616968D939C931797CE01DF9101
:0820B200CF911F910F910895D9
:1020BA0008C029F416F00C94C5180C9488180C94CE
:1020CA00F5180E94E714A8F39638A0F707F80F92BC
:1020DA00E8942BE33AEA48EB5FE70E94D10C0F92AF
:1020EA000F920F924DB75EB70F920E94A811E8E7C0
:1020FA00F0E00E9448144F915F91EF91FF91E595AE
:10210A00EE1FFF1F49F0FE57E0684427EE0F441FF9
:10211A00FA95E1F74195550B0E9498100F9007FE2A
:06212A000C944E1808950C
:1021300004C00C94C5180C94BB170E94E714D8F384
:102140009923C9F3940F511DA3F39150504094F07B
:1021500059F0882332F0660F771F881F9150504046
:10216000C1F79E3F51052CF7880F911D96958795D5
:1021700097F908955F3FACF0983E9CF0BB27869599
:1021800077956795B79508F4B1609395C1F7BB0F44
:1021900058F711F460FFE8CF6F5F7F4F8F4F9F4F6D
:0621A000E3CF0C94891846
:1021A6001F920F920FB60F9211242F933F934F93C6
:1021B6005F936F937F938F939F93AF93BF93EF93A9
:1021C600FF931F9B05C0E091DC3AF091DD3A09953B
:1021D6001A9B05C0E091DA3AF091DB3A0995199B12
:1021E60005C0E091D83AF091D93A09958FEF83B9B5
:1021F600FF91EF91BF91AF919F918F917F916F91D9
:102206005F914F913F912F910F900FBE0F901F90AE
:02221600189519
:10221800EF92FF921F93CF93DF937C0180E895E8BC
:102228000E947411C7010E9440112AE684E091E0DF
:10223800215080409040E1F700C010E009C00E94A2
:10224800A718882341F00E940F180E94E9181F5F01
:10225800E701C10FD11D88818111F1CF2AE684E001
:1022680091E0215080409040E1F700C0DF91CF918C
:082278001F91FF90EF90089503
:102280000F931F93CF938C01FC014081C091E83ADA
:102290002C2F30E0A091E93AB0E0C90101968A17ED
:1022A0009B07F1F04423E1F090E0CF5FF901EF5498
:1022B000F74C40835C2F590F9F5FF801E90FF11D28
:1022C0004081252F30E0B9016F5F7F4F6A177B0790
:1022D00019F45093E83A04C04111E8CF5093E83A1A
:0822E000CF911F910F910895A9
:1022E800EF92FF920F931F93CF93FC01208122233B
:1022F80029F17C01E0E0F8E0848180648483F701BF
:102308008081811114C016C00E9495188823E1F3BA
:10231800F80180810E94AD17CF5F87010C0F111D56
:10232800F8019081992331F0CF3F71F703C08701FD
:10233800C0E0EACF0E949B188111FCCFCF911F917A
:082348000F91FF90EF90089542
:10235000FA01DC01AA0FBB1F9B01AC01BF5728F497
:10236000222733274427507820C0B75190F4AB2F51
:102370000024469537952795011CA395D2F300209C
:1023800071F0220F331F441FB395DAF30ED00C9473
:102390006C1861307105A0E88A07B94630F49B01DA
:1023A000AC016627772788279078309621F0208324
:0823B000318342835383089539
:1023B800CF93DF93CDB7DEB72697CDBFDEBF85EFCE
:1023C8008983809110388A8342E0BE016F5F7F4F16
:1023D80086E70E94601682EF8B8380914D388C834C
:1023E80042E0BE016D5F7F4F86E70E94601684EF72
:1023F8008D83809156388E8342E0BE016B5F7F4F9C
:1024080086E70E9460162696CDBFDEBFDF91CF918A
:02241800089525
:10241A00FF920F931F93CF93DF938C0189E795E87F
:10242A000E947411C8010E947411C8010E944011CF
:10243A00F12C09C00E94A718882341F00E940F18A6
:10244A000E94E918F394E801CF0DD11D888181110A
:10245A00F1CF2AE684E091E0215080409040E1F7F4
:0E246A0000C0DF91CF911F910F91FF90089558
:102478000E94E71488F09F5798F0B92F9927B75111
:10248800B0F0E1F0660F771F881F991F1AF0BA9510
:10249800C9F714C0B13091F00E948818B1E00895CE
:1024A8000C948818672F782F8827B85F39F0B93FC0
:1024B800CCF3869577956795B395D9F73EF49095C3
:0E24C8008095709561957F4F8F4F9F4F0895BF
:1024D6001F920F920FB60F9211248F939F93AF9373
:1024E600BF93EF93FF938091CA3A9091CB3AA09114
:1024F600CC3AB091CD3A0196A11DB11D8093CA3A4E
:102506009093CB3AA093CC3AB093CD3AE0E8FAE078
:10251600868181608683FF91EF91BF91AF919F91F4
:0C2526008F910F900FBE0F901F90189522
:102532001F920F920FB60F9211248F939F93AF9316
:10254200BF93EF93FF938091C63A9091C73AA091BF
:10255200C83AB091C93A0196A11DB11D8093C63AFD
:102562009093C73AA093C83AB093C93AE0E4F1E035
:1025720083898160838BFF91EF91BF91AF919F918E
:0C2582008F910F900FBE0F901F901895C6
:10258E001F920F920FB60F9211242F933F934F93DA
:10259E005F936F937F938F939F93AF93BF93EF93BD
:1025AE00FF938091480484FF03C00E94641702C009
:1025BE000E94B31881E08093960AFF91EF91BF912C
:1025CE00AF919F918F917F916F915F914F913F91BD
:0C25DE002F910F900FBE0F901F901895CA
:1025EA00E0E0F8E08DE695E080879187158280EC3F
:1025FA00868383E08783138614861686158682E08F
:10260A0099E1809302389093033883E099E18093AB
:10261A0000389093013884E099E1809304389093CC
:10262A0005381092DE3A1092DF3A81EB9AE38093F2
:08263A00AD389093AE3808950D
:10264200EF92FF921F93CF93DF937C0188E995E885
:102652000E947411C7010E9440112AE684E091E0B1
:10266200215080409040E1F700C010E009C00E9474
:10267200A718882341F00E940F180E94E9181F5FD3
:10268200E701C10FD11D88818111F1CFDF91CF9177
:082692001F91FF90EF900895E5
:10269A0040E068ED80E690E00E94D41841E168EDE0
:1026AA0081E690E00E94D41840E068ED82E690E06E
:1026BA000E94D41840E068ED83E690E00E94D418A6
:1026CA0040E068ED80E790E00E94D41840E068EDB1
:1026DA0088E790E00E94D41840E068ED8CE790E02B
:0626EA000E94D4180895BF
:1026F0001F920F920FB60F9211242F933F934F9377
:102700005F936F937F938F939F93AF93BF93EF9359
:10271000FF935B9B05C0E091CE3AF091CF3A0995CB
:102720008FEF8BB9FF91EF91BF91AF919F918F91F7
:102730007F916F915F914F913F912F910F900FBEBD
:062740000F901F90189598
:1027460020E22093A5086623D1F0A82FB92F90E0A8
:10275600E0EAF8E022E0858185FD17C0858182FDEB
:1027660007C0858183FD04C085818370833099F716
:1027760080858D939F5F691711F02483ECCF87E0E6
:102786008093A40808952483E6CF80858D939F5F68
:062796006913F9CFF4CF36
:10279C00CF93DF93EC010E94BF188823A9F0E0913E
:1027AC00EB3AF0E0EF54F64C208180E0FE01E80FAC
:1027BC00F11D9081291302C08F5F0AC081E09881BE
:1027CC00921731F080E004C080E009C081E007C0BE
:1027DC00FE01E80FF11D90819111E8CFF7CFDF9149
:0427EC00CF910895EC
:1027F0000E948F18882321F00E94E0180E948A16F8
:102800000E94A118882321F00E94E6180E949F16BA
:102810000E94BF18882341F00E949518882321F058
:102820000E941A180E94E3180E94B918882341F0E8
:102830000E94A718882321F00E940F180E94E9180F
:022840000895F9
:10284200662309F1DC016150262F30E02F5F3F4FF4
:10285200280F391FE0EAF8E09D919087958195FD58
:102862000AC0958192FD07C0958193FD04C09581B0
:102872009370933099F7958194FD07C0A217B3071F
:0E28820059F781E0089581E0089580E00895FF
:10289000DF93CF931F930F93FF92EF92DF927B0111
:1028A0008C01689406C0DA2EEF010E94BE0CFE0176
:1028B000E894A5912591359145915591A6F3EF01A5
:1028C0000E94280DFE019701A801DA9469F7DF90B4
:0E28D000EF90FF900F911F91CF91DF9108952F
:1028DE00E0E2F8E087EE90E080879187158280EC49
:1028EE00868383E08783138614861686158685E095
:1028FE0099E1809306389093073886E099E18093AA
:10290E0008389093093887E099E180930A389093BC
:0C291E000B381092E03A1092E13A089554
:10292A009091A50893709330E1F0880F682B60931B
:10293A00A708E0EAF8E0858185FD0AC0858182FD65
:10294A0007C0858183FD04C085818370833099F730
:10295A000E949117882339F083E08093A40880E0CD
:0A296A00089580E0089581E00895CB
:10297400CF93DF93EC010E94CB180E94F9170E94B9
:10298400731868830E948E0E0E943C126A837B83B4
:102994000E9404180E943C1269830E9465188C836B
:1029A4000E94C6168D838091E23A8F5F8E83CE019A
:0A29B4000E94540CDF91CF910895AA
:1029BE0057FD9058440F551F59F05F3F71F04795E2
:1029CE00880F97FB991F61F09F3F79F087950895C7
:1029DE00121613061406551FF2CF4695F1DF08C0E6
:1029EE00161617061806991FF1CF86957105610503
:0429FE00089408959C
:102A0200A1E21A2EAA1BBB1BFD010DC0AA1FBB1FF0
:102A1200EE1FFF1FA217B307E407F50720F0A21B62
:102A2200B30BE40BF50B661F771F881F991F1A94CF
:102A320069F760957095809590959B01AC01BD01F9
:042A4200CF01089523
:102A4600883E2AE0920710F087EE9AE0873A24E063
:102A5600920710F487EA94E0BC01675A744080E05C
:102A660090E00E94E40F20E030E040E85DE30E9441
:0C2A7600DC180E943C1284E6861B0895C8
:102A8200CF9380EB95E80E9474110E94A1188823CD
:102A920021F00E94E6180E949F160E94BF18882308
:102AA200A1F30E949518882381F30E941A18C82F57
:0C2AB2000E94E318CA3049F7CF91089544
:102ABE00CF93DF93EC0187EC97E80E94741188E3C3
:102ACE0095E80E9474118CED97E80E947411CE0166
:102ADE000E94741180EF97E80E944011CE010E946F
:082AEE004011DF91CF91089522
:102AF600CF93DF93EC0187EC97E80E94741188E38B
:102B060095E80E9474118FEF97E80E947411CE0128
:102B16000E94741185E198E80E944011CE010E943E
:082B26004011DF91CF910895E9
:102B2E00E0E8FAE080E197E28487958780E181838F
:102B3E0081E0858393E09083E0E9FAE02FEF3FEFA9
:102B4E002487358746E0418341E144839083228781
:062B5E0033878583089512
:102B64000E94751682EC92EA0197F1F700C00E9468
:102B7400730860E080E00E94551741E061E081E065
:102B84000E94ED1781E00E94EC180E94DC1181E0A4
:062B94008093E73A08956A
:102B9A00E0E0F6E0118280E28187828313828FEF80
:102BAA0080871386178280E18287148287E0848770
:102BBA0080E38587168E178E148E158E81E08083AA
:042BCA0080E008950A
:102BCE00CF93DF9300D0CDB7DEB7809156388C7F90
:102BDE0081608093563894EF99838A8342E0BE01D8
:102BEE006F5F7F4F86E70E9460160F900F90DF9108
:042BFE00CF910895D6
:102C02002F923F924F925F926F927F928F929F92FA
:102C1200AF92BF92CF92DF92EF92FF920F931F93E8
:102C2200CF93DF93CDB7DEB7CA1BDB0BCDBFDEBFC1
:022C3200099403
:102C34001F920F920FB60F9211248F93EF93FF936D
:102C4400E0E0F6E080E2858380E1858388E08583A7
:102C5400FF91EF918F910F900FBE0F901F901895D9
:102C64002A88398848885F846E847D848C849B8418
:102C7400AA84B984C884DF80EE80FD800C811B8126
:102C8400AA81B981CE0FD11DCDBFDEBFED0108955C
:102C9400A0E0B0E0E0E5F6E10C941116AE014B5F64
:102CA4005F4FFA0161917191AF018091AD389091BC
:0C2CB400AE380E94B000E2E00C94421622
:102CC0001F93CF93DF93EB01142F60E00E949514C4
:102CD000882339F0612FCE010E94211493E0909354
:0A2CE000A408DF91CF911F91089521
:102CEA00CF93DF9300D0CDB7DEB780EE898386EB32
:102CFA008A8342E0BE016F5F7F4F86E70E946016BB
:0A2D0A000F900F90DF91CF91089514
:102D14009091E83A292F30E0B9016F5F7F4F4091DD
:102D2400E93A50E06417750739F0F901EF54F74CAC
:0A2D340080839F5F9093E83A0895B2
:102D3E009091EA3A292F30E0B9016F5F7F4F4091B1
:102D4E00EB3A50E06417750739F0F901EF54F64C81
:0A2D5E0080839F5F9093EA3A089586
:102D68000E9446170E94D8160E945E180E94971566
:102D78000E94E11778940E949F170E94B2150E9442
:042D88003309FDCF3F
:102D8C002091E23A3091E33AADECBCEC0E94821710
:102D9C0096958795969587959695879594E6981B25
:042DAC00892F0895CE
:102DB000E0E2F4E08081806880838481806884839D
:102DC000E0E4F4E080818F7E808384898860848B56
:022DD000089564
:102DD200092E0394000C11F4882352F0BB0F40F427
:102DE200BF2B11F460FF04C06F5F7F4F8F4F9F4F67
:022DF200089542
:102DF400DB018F939F930E942518BF91AF91A29FEF
:102E0400800D911DA39F900DB29F900D11240895E4
:102E1400E0E0F6E09485907C94879485892B848700
:0E2E240082858F7782878285816082870895FC
:102E32000E940A170E94D0188823E1F3E0E0F6E02E
:0E2E4200608971898289938921E02583089532
:102E50001F920F920FB60F9211248F9382E08093EE
:0E2E600005068F910F900FBE0F901F901895D2
:102E6E001F920F920FB60F9211248F9381E08093D1
:0E2E7E0005068F910F900FBE0F901F901895B4
:102E8C000E944D130E94020B0E94CD150E94F51258
:0E2E9C000E946F140E94AD180E94C91708957D
:102EAA0087708295807F2091103821786770962FDD
:0E2EBA00990F622F682B692B609310380895D2
:102EC800E0E2F4E08581806885838091E43A90911E
:0E2ED800E53A81608093E43A9093E53A0895DC
:102EE60089E997E80E94741187ED95E80E947411AC
:0E2EF60088EA97E80E940D120E944115089587
:102F0400A29FB001B39FC001A39F700D811D112426
:0E2F1400911DB29F700D811D1124911D089515
:102F22008091A5088C7141F49091A508937081E07D
:0C2F3200933019F080E0089581E00895CC
:102F3E000E944618E0EAF8E084E0808381E0828314
:0C2F4E009DEF95839FE096838383089598
:102F5A00CF93C82F0E949518882331F0E0E0F8E05B
:0C2F6A00948190649483C283CF910895F9
:102F76009F3F31F0915020F4879577956795B795E7
:0C2F8600880F911D9695879597F9089586
:102F920040E068ED80E191E00E94D418E0E1F1E0C8
:082FA2001282138280E0089501
:102FAA00CF93C82F0E9495188823E1F3C093020893
:082FBA0080E090E0CF91089542
:102FC200E0E4F1E081E08783828B818980FDFDCF9F
:082FD20089E480935001089589
:102FDA008295880F807E6770660F660F4370862B16
:082FEA00842B809356380895F2
:102FF2000E94DF090E94E40F20E030E048EC52E436
:063002000E94D818089599
:103008000E9487060E94E40F20E030E040E85AE37F
:063018000E94DC1808957F
:10301E009091E93AE92FF0E0EF54F74C80819F5FF1
:06302E009093E93A0895B9
:103034009091EB3AE92FF0E0EF54F64C80819F5FDA
:063044009093EB3A0895A1
:10304A000E948217A59F900DB49F900DA49F800D9A
:06305A00911D11240895F0
:10306000FC010590615070400110D8F78095909553
:063070008E0F9F1F089562
:10307600FC016150704001900110D8F78095909541
:063086008E0F9F1F08954C
:10308C00E0E2F4E083E0818388E0808B818B08951B
:10309C009B01AC0160E070E080E89FE30C94D818D1
:1030AC00B7FF0C9425180E942518821B930B0895CA
:0E30BC00E0E8F1E084E4838B84E082AB0895C9
:0E30CA0087E00E941917CB010E94231508957C
:0E30D8005058BB27AA270E94280D0C94E91619
:0E30E6000E943C126894B1110C948918089550
:0E30F40000240A9416161706180609060895F9
:0E31020000240A9412161306140605060895FA
:0E311000E894BB2766277727CB0197F908952F
:0C311E0080910408881F8827881F0895EE
:0C312A008091040885FB882780F9089537
:0C3136008091040886FB882780F908952A
:0C31420080912408881F8827881F0895AA
:0C314E008091240885FB882780F90895F3
:0C315A00E0EAF0E01082118280E00895AD
:0C316600E0E2F4E085818F778583089516
:0C3172008091E93A9091E83A891B089599
:0C317E008091EB3A9091EA3A891B089589
:0C318A0097F99F6780E870E060E008950E
:0A3196000E94E7150E94730A0895D5
:0831A00080910506817008957D
:0831A800FC0164BF408308959F
:0831B0000E94770B0C94E91654
:0831B8000E94BE0C0C94E91604
:0631C00080910008089553
:0631C60080930208089549
:0631CC0080912008089527
:0631D2008093220808951D
:0631D80080934D380895BC
:0631DE000E941F0F08957E
:0631E4000E94731708951C
:0631EA009FEF80EC089548
:0431F0000C9400003B
:0231F40008953C
:0231F60008953A
:0231F800089538
:0231FA00089536
:0231FC00089534
:0231FE00089532
:0232000008952F
:0232020008952D
:0232040008952B
:02320600089529
:02320800089527
:02320A00089525
:02320C00089523
:02320E00089521
:0E3210000000000200000000D51700000000C2
:02000004008278
:090000000000020000C40700002A
:00000001FF
