:100000000C9486000C94A6180C94A6180C94A618B0
:100010000C9427120C94A6180C9461100C94F20EF8
:100020000C94A6180C94A6180C94A6180C94A61858
:100030000C94A6180C94F9110C94A6180C94A618FC
:100040000C94A6180C94A6180C94A6180C94A61838
:100050000C94A6180C94A4150C94C2160C94B31608
:100060000C9406130C9455120C94A6180C94A61814
:100070000C94A6180C94A61807634236B79BD8A711
:100080001A39685618AEBAAB558C1D3CB7CC5763BD
:10009000BD6DEDFD753EF6177231BF000000803F6B
:1000A00008000000BE922449123EABAAAA2ABECD87
:1000B000CCCC4C3E00000080BEABAAAAAA3E0000F9
:1000C0000000BF000000803F0000000000084178F1
:1000D000D3BB4387D1133D190E3CC3BD4282AD2B28
:1000E0003E68EC8276BED98FE1A93E4C80EFFFBE20
:1000F00001C4FF7F3F000000000038003AAF803AA3
:10010000AF3ABD00316C3ABD3AE9800011241FBE00
:10011000CFEFCDBFDFE3DEBFEAEFF0E041E017C095
:10012000B591A59135912591059107FD0CC095914B
:100130008591EF01F92FE82F05900D92A217B307D3
:10014000D9F7FE0104C01D92A217B307E1F7EB3007
:10015000F40731F70E943E160C94AE00F894FFCFDE
:100160000D526573657474696E67204C523220437A
:100170006C69636B0A002D2D2D2D2D2D2D2D2D2D10
:100180002D2D2D2D2D2D2D2D2D2D2D2D2D2D2D2D9F
:100190002D2D2D2D2D2D2D2D2D2D2D2D2D2D2D2D8F
:1001A0002D2D2D2D2D2D2D2D2D2D0A004669726DF5
:1001B000776172653A20000D0A54783A20000D0AE2
:1001C00054783A206D616320736574206170707398
:1001D0006B65790D0A000D0A54783A206D61632031
:1001E000736574206E776B736B65790D0A000D5221
:1001F000783A200052783A20000A0A436F6E666906
:10020000677572696E67204C523220436C69636B6C
:1002100020466F72204142500A002D2D2D2D2D2D8C
:100220002D2D2D2D2D2D2D2D2D2D2D2D2D2D2D2DFE
:100230002D2D2D2D2D2D2D2D2D2D2D2D2D2D2D2DEE
:100240002D2D2D2D2D2D2D2D2D2D2D2D2D2D2D2DDE
:100250002D2D2D2D2D2D2D2D2D2D2D2D2D2D2D2DCE
:100260002D0A006D61632073657420646576657581
:1002700069203730423344353745443030353235E4
:1002800034420D0A006D61632073657420646576E5
:10029000616464722032363043433242340D0A00C6
:1002A0006D61632073657420617070736B65792074
:1002B0003844384144393938433946384341353474
:1002C000364543363146444437413345324132386E
:1002D0000D0A006D616320736574206E776B736B1C
:1002E0006579203935374532384144443537423015
:1002F000394133424639374536443346433236393D
:100300004343330D0A006D6163207365742061728D
:10031000206F6E0D0A006D61632073657420727822
:1003200064656C61793120353030300D0A006D61C3
:10033000632073657420616472206F6E0D0A006D16
:10034000616320736176650D0A000A0A000A0A4398
:100350006F6E6669677572696E67204C5232204312
:100360006C69636B20666F72204F5441410A006DC7
:10037000616320736574206170706B657920463409
:1003800032433338324242394138373946373232D4
:1003900034393944454337454636354246330D0AEC
:1003A000006D6163207365742061707065756920EC
:1003B000303030303030303030303030303030303D
:1003C0000D0A006D61632070617573650D0A006D23
:1003D000616320726573756D650D0A000A0A4A6FC4
:1003E000696E696E672054544E0A006D6163206A1D
:1003F0006F696E206162700D0A006D6163206A6F23
:10040000696E206F7461610D0A000A41667465723D
:1004100020313030204D6F697374757265205265DC
:100420006164696E6773002D2D2D2D2D2D2D2D2DC1
:100430002D2D2D2D2D2D2D2D2D2D2D2D2D2D2D2DEC
:100440002D2D2D2D2D2D2D2D2D2D2D2D2D2D2D2DDC
:100450002D2D2D2D2D2D2D2D2D2D2D2D2D2D2D2DCC
:100460002D2D2D2D2D2D2D2D2D2D2D2D2D2D0054C2
:100470006865204D41582072656164696E67207718
:1004800061732025640A00546865204D494E20722E
:10049000656164696E67207761732025640A0A00CC
:1004A000546865204D4158206D61707320746F2031
:1004B00025640A00546865204D494E206D617073B3
:1004C00020746F2025640A000A0A43757272656EF3
:1004D000742053656E736F7220446174610A005218
:1004E000656C61746976652048756D6964697479B5
:1004F0003A2025752525200D0A004D6F6973747506
:1005000072653A2025752525200D0A005072657305
:10051000737572653A202575206850610D0A004197
:1005200069722054656D70657261747572653A20E8
:1005300025692043200D0A00426174746572792098
:100540004C6576656C3A2025752525200D0A0A0034
:100550000A4A534F4E20466F726D61740D00506110
:10056000796C6F61643A207B206169725F74656D9C
:10057000703A2025692C20626174746572793A2082
:1005800025752C2068756D69646974793A20257524
:100590002C206D6F6973747572653A2025752C2057
:1005A00070726573737572653A2025750D0A0A7D40
:1005B00000303132333435363738394142434445DF
:1005C00046000A0A5472616E736D697474696E67CD
:1005D00020446174610A000A54783A206D616320F6
:1005E000747820636E6620343220006D616320745D
:1005F0007820636E6620343220000A54783A206DE9
:10060000616320747820756E636E66203433200039
:100610006D616320747820756E636E6620343320BC
:0106200000D9
:10062200ABE0B0E0E7E1F3E00C948B156C017B01E9
:100632008A01FC0116821782838181FFCCC1CE011F
:1006420001963C01F6019381F70193FD859193FF99
:1006520081917F01882309F4BAC1853239F493FD6F
:10066200859193FF81917F01853229F4B60190E053
:100672000E94AF0FE7CF912C212C312CFFE1F31513
:10068200D8F08B3279F038F4803279F08332A1F4E9
:10069200232D20611DC08D3261F0803369F4232D3A
:1006A200216016C0832D8260382EE32DE4603E2E39
:1006B2002AC0F32DF8601DC037FC2DC020ED280F95
:1006C2002A3040F08E32B9F436FC81C1232D2064E9
:1006D200322E19C036FE06C08AE0989E200D1124E3
:1006E200922E11C0EAE02E9E200D1124222EF32D0F
:1006F200F0623F2E08C08C3621F4832D8068382E9C
:1007020002C0883641F4F70193FD859193FF8191F0
:100712007F018111B3CF982F9F7D9554933028F498
:100722000C5F1F4F9FE399830DC0833631F08337EF
:1007320071F0833509F059C021C0F80180818983A5
:100742000E5F1F4F88248394912C530113C02801FC
:10075200F2E04F0E511CF801A080B18036FE03C0BA
:10076200692D70E002C06FEF7FEFC5010E94D317C1
:100772004C018201F32DFF773F2E16C0280122E0A3
:10078200420E511CF801A080B18036FE03C0692DD3
:1007920070E002C06FEF7FEFC5010E94C8174C01E5
:1007A200F32DF0683F2E820133FC1BC0822D90E0B6
:1007B20088169906B0F4B60180E290E00E94AF0F6D
:1007C2002A94F4CFF50137FC859137FE81915F01C0
:1007D200B60190E00E94AF0F21102A9421E0821A04
:1007E20091088114910471F7E8C0843611F08936BA
:1007F20041F5F80137FE07C06081718182819381E2
:100802000C5F1F4F08C060817181072E000C880B9E
:10081200990B0E5F1F4FF32DFF763F2E97FF09C0F6
:1008220090958095709561957F4F8F4F9F4FF0689F
:100832003F2E2AE030E0A3010E941D0D882E86186B
:1008420045C0853731F4232D2F7EB22E2AE030E0C9
:1008520025C0932D997FB92E8F36C1F018F48835B3
:1008620079F0B5C0803719F0883721F0B0C0E92F90
:10087200E061BE2EB4FE0DC0FB2DF460BF2E09C098
:1008820034FE0AC0292F2660B22E06C028E030E0CE
:1008920005C020E130E002C020E132E0F801B7FEFD
:1008A20007C060817181828193810C5F1F4F06C0F6
:1008B2006081718180E090E00E5F1F4FA3010E9472
:1008C2001D0D882E8618FB2DFF773F2E36FE0DC09C
:1008D200232D2E7FA22E891458F434FE0BC032FC35
:1008E20009C0832D8E7EA82E05C0B82CA32C03C070
:1008F200B82C01C0B92CA4FE0FC0FE01E80DF11DF9
:100902008081803321F49A2D997EA92E09C0A2FEFE
:1009120006C0B394B39404C08A2D867809F0B394C8
:10092200A3FC11C0A0FE06C0B21488F4280C922CBD
:100932009B180EC0B21460F4B60180E290E00E94EF
:10094200AF0FB394F7CFB21418F42B1802C0982C3F
:10095200212CA4FE10C0B60180E390E00E94AF0FEC
:10096200A2FE17C0A1FC03C088E790E002C088E5A0
:1009720090E0B6010CC08A2D867859F0A1FE02C023
:100982008BE201C080E2A7FC8DE2B60190E00E94FA
:10099200AF0F891438F4B60180E390E00E94AF0FE4
:1009A2009A94F7CF8A94F301E80DF11D8081B60184
:1009B20090E00E94AF0F8110F5CF222009F442CEC1
:1009C200B60180E290E00E94AF0F2A94F6CFF601C2
:1009D2008681978102C08FEF9FEF2B96E2E10C9404
:0209E200BC1542
:1009E4004F925F926F927F928F929F92AF92BF923B
:1009F400CF92DF92EF92FF92C0907538D090763804
:100A0400E0907738F0907838F594E794D794C794C9
:100A14008AEFD81AE108F108C701B60195958795C0
:100A24007795679595958795779567959B01AC0123
:100A34000E9485164B015C01E9E7F8E3A285B385C2
:100A44009B01AC01012E1DE05595479537952795DF
:100A54001A95D1F7102D0E94EE172B013C016894D2
:100A640012F875946794579447941694D1F7A08517
:100A7400B185A70196010E94EE17DC01CB01B59563
:100A8400A79597958795840D951DA61DB71D072ECF
:100A940072E1B595A795979587957A95D1F7702DBD
:100AA4009C01AD0130584F4F5F4FA681B7810E9422
:100AB400BD172B013C01032E3FE0759467945794B6
:100AC40047943A95D1F7302D4114510461047104CF
:100AD40009F4CEC0A5019401012E1BE0559547955C
:100AE400379527951A95D1F7102DA089B1890E94C1
:100AF400EE174B015C01A685B785A70196010E94FC
:100B0400EE17DC01CB01880F991FAA1FBB1F880EAB
:100B1400991EAA1EBB1ED501C401B595A79597952C
:100B24008795B595A7959795879584849584092C81
:100B3400000CAA08BB08540199248824880E991E25
:100B4400AA1EBB1E072E7CE0B594A79497948794A5
:100B54007A95D1F7702D80914E3890914F38A091AD
:100B64005038B0915138A5019401280F391F4A1FFC
:100B74005B1FABECB3EF0E94F117805B9C4399239E
:100B84005CF0660F771F881F991FA30192010E94D2
:100B94006A1469017A010AC0A30192010E946A14CD
:100BA40069017A01CC0CDD1CEE1CFF1CC701B601E7
:100BB400689412F896958795779567951694D1F76A
:100BC4009B01AC010E9485169B01AC01012E1DE026
:100BD40056954795379527951A95D1F7102DE9E73E
:100BE400F8E3A689B7890E94EE174B015C01072E32
:100BF4007CE0B594A794979487947A95D1F7702D57
:100C0400A70196015695479537952795569547958B
:100C140037952795A489B5890E94EE17DC01CB018D
:100C2400072E7DE0B595A795979587957A95D1F789
:100C3400702DB501A401480F591F6A1F7B1F8289BB
:100C44009389092E000CAA0BBB0B840F951FA61FBA
:100C5400B71F689413F8B595A7959795879516943B
:100C6400D1F7BC01CD016C0D7D1D8E1D9F1D03C0F0
:100C740060E070E0CB01FF90EF90DF90CF90BF90E9
:100C8400AF909F908F907F906F905F904F9008955A
:100C94004F925F926F927F928F929F92AF92BF9288
:100CA400CF92DF92EF92FF928090753890907638D1
:100CB400A0907738B09078382CE2921A21E0A20AFA
:100CC400B108C0900C38D0900D38E0900E38F090F8
:100CD4000F380B2EBEE0CC0CDD1CEE1CFF1CBA95AD
:100CE400D1F7B02DE9E7F8E3848D958D092E000C3A
:100CF400AA0BBB0B072E74E1880F991FAA1FBB1FF9
:100D04007A95D1F7702DC81AD90AEA0AFB0AA68D7A
:100D1400B78DA50194010E94EE17C61AD70AE80AF6
:100D2400F90A30E4D30EE11CF11C0B2EBFE0F5945C
:100D3400E794D794C794BA95D1F7B02DA38DB0E0BA
:100D4400A50194010E94BD172B013C01032E3BE039
:100D540075946794579447943A95D1F7302D40E8A9
:100D6400540E611C711CA0A10A2E000CBB0BA50122
:100D740094010E94EE17052E5AE095958795779574
:100D840067955A95D1F7502DA30192010E948516BB
:100D9400DC01CB01072E7AE0B595A7959795879549
:100DA4007A95D1F7702D9C01AD01405E5F4FA18D06
:100DB400B28D0E94EE17DC01CB01905EAF4FBF4FA6
:100DC400BC01CD01052E5EE09595879577956795D5
:100DD4005A95D1F7502DA70196010E9485166B01F3
:100DE4007C01052E5FE095958795779567955A95D3
:100DF400D1F7502D9B01AC010E9485169B01AC01DB
:100E0400689416F855954795379527951694D1F714
:100E1400A08DB0E00E94BD17DC01CB01689413F8EB
:100E2400B595A795979587951694D1F7A70196013F
:100E3400281B390B4A0B5B0BDA01C9011AF480E059
:100E440090E0DC0181309105A10539E1B30724F07C
:100E540080E090E0A0E0B9E1BC01CD01052E5CE0AA
:100E640095958795779567955A95D1F7502DFF906D
:100E7400EF90DF90CF90BF90AF909F908F907F9036
:080E84006F905F904F900895FC
:100E8C00CF93DF93CDB7DEB76197CDBFDEBF21E146
:100E9C00E1EBF5E8DE01119601900D922A95E1F750
:100EAC00DB012C9122952F70E1E0F0E0EC0FFD1F9F
:100EBC00E20FF11D2081FC0120832C912F70E1E0C9
:100ECC00F0E0EC0FFD1FE20FF11D2081DC0111960B
:100EDC002C931197FB01218122952F70E1E0F0E01A
:100EEC00EC0FFD1FE20FF11D208112962C93DB01FC
:100EFC0011962C9111972F70E1E0F0E0EC0FFD1F93
:100F0C00E20FF11D2081FC01238314962C91229574
:100F1C002F70E1E0F0E0EC0FFD1FE20FF11D2081DE
:100F2C00DC0114962C931497FB0124812F70E1E0C3
:100F3C00F0E0EC0FFD1FE20FF11D208115962C93B4
:100F4C00DB0113964C911397242F22952F7030E0D0
:100F5C00E1E0F0E0EC0FFD1FE20FF31F2081FC013C
:100F6C00268313962C9130E02F703327E1E0F0E0CC
:100F7C00EC0FFD1FE20FF31F2081DC0117962C9361
:100F8C00DB011296ED91FC911397F295E295EF70BF
:100F9C00EF27FF70EF27EF70FF2721E030E02C0FD9
:100FAC003D1FE20FF31F2081DC0118962C93DB010F
:100FBC001296ED91FC911397EF70FF2721E030E032
:100FCC002C0F3D1FE20FF31F2081DC0119962C938F
:100FDC001997FB01258122952F70E1E0F0E0EC0FD1
:100FEC00FD1FE20FF11D20811A962C93DB01159643
:100FFC002C912F70E1E0F0E0EC0FFD1FE20FF11DE2
:10100C002081FC0123872DE024872AE02587168682
:0C101C006196CDBFDEBFDF91CF9108953B
:101028000F931F93CF93DF93CDB7DEB76897CDBFEC
:10103800DEBF28E1AE014F5F5F4F68E886E70E9498
:10104800650E09E718E38A8190E0982F882729819F
:10105800820F911DF801808391838C8190E0982FF5
:1010680088272B81820F911D828393838E8190E044
:10107800982F88272D81820F911D848395838885D9
:1010880090E0982F88272F81820F911D8683978360
:101098008A8590E0982F88272985820F911D80875F
:1010A80091878C8590E0982F88272B85820F911D3A
:1010B800828793878E8590E0982F88272D85820FC9
:1010C800911D84879587888990E0982F88272F8598
:1010D800820F911D868797878A8990E0982F8827A5
:1010E8002989820F911D808B918B8C8990E0982F94
:1010F80088272B89820F911D828B938B8E8990E094
:10110800982F88272D89820F911D848B958B888D28
:1011180090E0982F88272F89820F911D868B978BB7
:1011280021E0AE014F5F5F4F61EA86E70E94650EDE
:101138008981F801808F27E0AE014F5F5F4F61EE34
:1011480086E70E94650E2A8130E0322F2227998196
:10115800290F311DF801218F328F9B81938F9D813B
:101168002C81F0E12F9F90011124492F4F70242BDF
:10117800F801248F358F2E81F0E12F9F90011124E3
:1011880092959F70292BF801268F378F9F8190A306
:101198006896CDBFDEBFDF91CF911F910F91089563
:1011A8008091E13A9091E23A80FF1DC08091E83A3F
:1011B800882319F0823059F00DC00E94770B0E94E5
:1011C8009A180E949D1881E08093E83A03C083E052
:1011D8008093E83A8091E13A9091E23A8E7F809349
:1011E800E13A9093E23A8091E83A8330A1F0843072
:1011F80009F452C0813009F06EC088EA9EEA0E9464
:101208005C13882321F083EB9EEA0E94021182E09E
:101218008093E83A08958DEB9AE30E948C146DEB65
:101228007AE38AE998E30E9446074091DF3A5091B1
:10123800E03A9A01ADECBCEC0E940D1796958795A3
:1012480096958795969587959C01220F331F880F51
:10125800991F880F991F880F991F820F931F48178E
:10126800590729F48AE998E30E94E91404C08AE935
:1012780098E30E9405158091DF3A9091E03A019633
:101288008093DF3A9093E03AE0E4F1E08081816076
:10129800808384E08093E83A8091C33A9091C43A7D
:1012A800A091C53AB091C63A843B9105A105B10514
:1012B80081F483E08093E83AE0E4F1E080818E7F76
:1012C80080831092C33A1092C43A1092C53A109291
:0812D800C63A0E948613089536
:1012E0008F929F92AF92BF92CF92DF92EF92FF9236
:1012F0008091523890915338A0915438B09155381C
:10130000E9E7F8E34081518160E070E06C017D0124
:10131000689413F8F594E794D794C7941694D1F78A
:10132000C41AD50AE60AF70A689412F8B595A79583
:10133000979587951694D1F7440F551F661F771F11
:101340004C015D01841A950AA60AB70AA501940109
:10135000A281B3810E94EE174B015C01072E7BE056
:10136000B594A794979487947A95D1F7702DA70197
:101370009601C701B6010E9485169B01AC01012EA2
:101380001CE055954795379527951A95D1F7102D5F
:10139000A481B5810E94EE17DC01CB01072E7EE00F
:1013A000B595A795979587957A95D1F7702D880D66
:1013B000991DAA1DBB1D8093753890937638A09314
:1013C0007738B09378386C017D01CC0CDD1CEE1CB5
:1013D000FF1CCC0CDD1CEE1CFF1C8C0D9D1DAE1DDE
:1013E000BF1D80589F4FAF4FBF4F692F7A2F8B2F54
:1013F000992787FD9A95FF90EF90DF90CF90BF904F
:08140000AF909F908F900895BA
:10140800CF93DF93CDB7DEB72897CDBFDEBF28E0F7
:10141800AE014F5F5F4F67EF86E70E94650E8F81D1
:1014280090E0A0E0B0E0BA2FA92F982F8827288550
:10143800822B80930C3890930D38A0930E38B0937C
:101448000F388C8190E0A0E0B0E0AC01BD01032E24
:101458003CE0440F551F661F771F3A95D1F7302D92
:101468009D81892F90E0A0E0B0E0880F991FAA1F06
:10147800BB1F880F991FAA1FBB1F880F991FAA1F80
:10148800BB1F880F991FAA1FBB1F842B952BA62B48
:10149800B72B2E8122952F70822B809352389093F0
:1014A8005338A0935438B0935538898190E0A0E020
:1014B800B0E0AC01BD01032E3CE0440F551F661F90
:1014C800771F3A95D1F7302D9A81892F90E0A0E0C7
:1014D800B0E0880F991FAA1FBB1F880F991FAA1F6A
:1014E800BB1F880F991FAA1FBB1F880F991FAA1F10
:1014F800BB1F842B952BA62BB72B2B8122952F70E6
:10150800822B80934E3890934F38A0935038B093E5
:0E15180051382896CDBFDEBFDF91CF910895E8
:10152600CF93DF93C0E0D4E082E08883A0E2B4E00A
:1015360084E68C93E0E4F4E088E080831C821496D1
:101546001C9214971482188A198A1A8A1B8A1C8A72
:101556001D8A1E8A1F8A50961C92509751961C927D
:10156600519752961C92529753961C9253975496A3
:101576001C92549755961C92559756961C925697C0
:1015860057961C92108A118A128A138A148A158A0F
:10159600168A178AE0EEF5E0118210821382148211
:1015A6001582128288EA98E18093D93A9093DA3AC2
:1015B60089EA98E18093D73A9093D83A8AEA98E1F3
:1015C6008093D53A9093D63A8BEA98E18093D33AB2
:1015D6009093D43A8CEA98E18093D13A9093D23A98
:1015E6008DEA98E18093CF3A9093D03A8EEA98E1CB
:1015F6008093CD3A9093CE3A8FEA98E18093CB3A96
:0A1606009093CC3ADF91CF91089544
:1016100010C00E94191858F00E94121840F029F4C6
:101620005F3F29F00C94691851110C9421180C9407
:10163000A3180E94481468F39923B1F3552391F33A
:10164000951B550BBB27AA2762177307840738F031
:101650009F5F5F4F220F331F441FAA1FA9F335D08E
:101660000E2E3AF0E0E832D091505040E695001C42
:10167000CAF72BD0FE2F29D0660F771F881FBB1FFC
:10168000261737074807AB07B0E809F0BB0B802DDA
:10169000BF01FF2793585F4F3AF09E3F510578F006
:1016A0000C9469180C9421185F3FE4F3983ED4F32E
:1016B000869577956795B795F7959F5FC9F7880FDA
:1016C000911D9695879597F90895E1E0660F771F2C
:1016D000881FBB1F621773078407BA0720F0621BBD
:0E16E000730B840BBA0BEE1F88F7E09508958C
:1016EE00CF93DF9380E691E80E94021186E791E89E
:1016FE000E9402118CEA91E80E940211E5E2F4E0E8
:10170E0080E480832AE634E041E0215030404040BE
:10171E00E1F700C0C6E2D4E088839FE32DE033E01A
:10172E00915020403040E1F700C0000080834AE62F
:10173E0094E021E0415090402040E1F700C0A5E444
:10174E00B4E098E09C9380833AE644E021E0315087
:10175E0040402040E1F700C088833FE34DE023E0A6
:10176E00315040402040E1F700C0000080833AE64F
:10177E0044E081E0315040408040E1F700C09C934E
:10178E000E944518882321F00E9494180E94141676
:10179E000E9433188823A1F30E949C17C82F0E9421
:1017AE003817CA3069F79AE22CE23AE0915020409D
:0C17BE003040E1F70000DF91CF9108956A
:1017CA000FC00E94121838F00E94191820F09523B1
:1017DA0011F00C9469180C94A31811240C94211874
:1017EA000E94481470F3959FC1F3950F50E0551F5E
:1017FA00629FF001729FBB27F00DB11D639FAA275C
:10180A00F00DB11DAA1F649F6627B00DA11D661FAA
:10181A00829F2227B00DA11D621F739FB00DA11DCB
:10182A00621F839FA00D611D221F749F3327A00D85
:10183A00611D231F849F600D211D822F762F6A2F21
:10184A0011249F5750409AF0F1F088234AF0EE0F86
:10185A00FF1FBB1F661F771F881F91505040A9F7B3
:10186A009E3F510580F00C9469180C9421185F3F33
:10187A00E4F3983ED4F3869577956795B795F795EF
:10188A00E7959F5FC1F7FE2B880F911D9695879567
:04189A0097F908951D
:10189E00CF93DF93EC0188EC94E80E9402118AE169
:1018AE0092E80E94021189811F928F938FED94E826
:1018BE009F938F930E94D4158C811F928F938AEFE2
:1018CE0094E89F938F930E94D4158B818F938A8176
:1018DE008F938CE095E89F938F930E94D415888107
:1018EE00282F082E000C330B3F938F938FE195E832
:1018FE009F938F930E94D4158D811F928F9388E3AF
:10190E0095E89F938F930E94D41580E595E80E94E9
:10191E00320F87E294E80E94320F8B818F938A8177
:10192E008F938C811F928F9389811F928F938D81BC
:10193E001F928F938881282F082E000C330B3F9314
:10194E008F938EE595E89F938F930E94D4158DB754
:0E195E009EB780968DBF9EBFDF91CF910895FA
:10196C0011C00E94121838F00E94191820F039F496
:10197C009F3F19F426F40C94A3180EF4E095E7FBA2
:10198C000C946918E92F0E94481458F3BA1762078F
:10199C0073078407950720F079F4A6F50C942018AA
:1019AC000EF4E0950B2EBA2FA02D0B01B90190016E
:1019BC000C01CA01A0011124FF27591B99F0593FB2
:1019CC0050F4503E68F11A16F040A22F232F342FFA
:1019DC004427585FF3CF469537952795A795F04048
:1019EC005395C9F77EF41F16BA0B620B730B840B5D
:1019FC00BAF09150A1F0FF0FBB1F661F771F881F15
:101A0C00C2F70EC0BA0F621F731F841F48F487956C
:101A1C0077956795B795F7959E3F08F0B0CF93955E
:0E1A2C00880F08F09927EE0F9795879508957B
:101A3A00FA01AA27283051F1203181F1E8946F93F5
:101A4A006E7F6E5F7F4F8F4F9F4FAF4FB1E03ED09B
:101A5A00B4E03CD0670F781F891F9A1FA11D680F39
:101A6A00791F8A1F911DA11D6A0F711D811D911D6C
:101A7A00A11D20D009F468943F912AE0269F1124E1
:101A8A003019305D3193DEF6CF010895462F477045
:101A9A00405D4193B3E00FD0C9F7F6CF462F4F70A0
:101AAA00405D4A3318F0495D31FD4052419302D0FE
:101ABA00A9F7EACFB4E0A6959795879577956795A4
:101ACA00BA95C9F700976105710508959B01AC01A4
:101ADA000A2E06945795479537952795BA95C9F7CB
:0C1AEA00620F731F841F951FA01D08953C
:101AF60008C016F00C9446170C94A31868940C941E
:101B060069180E945014A8F39923C1F3AEF3DF932A
:101B1600CF931F930F93FF92C92FDD2788232AF0B7
:101B26002197660F771F881FDAF720E030E040E83C
:101B36005FEB9FE3883920F0803E38F021968F775F
:101B46000E940518E0EAF0E004C00E940518EDECDA
:101B5600F0E00E94D6138B01BE01EC01FB2E6F57FD
:101B660071097595771F880B990B0E94740F28E1F0
:101B760032E741E35FE30E94E50BAF2D9801AE012A
:101B8600FF900F911F91CF91DF910E94B60C0C949C
:021B96007416C3
:101B9800FA01EE0FFF1F309621053105A1F16115FD
:101BA800710561F48038BFE39B0749F16894903868
:101BB800810561F08038BFEF9B0741F099234AF512
:101BC800FF3FE1053105210519F1E8940894E795EF
:101BD800D901AA2329F4AB2FBE2FF85FD0F310C088
:101BE800FF5F70F4A695E0F7F73950F019F0FF3A67
:101BF80038F49F779F930DD00F9007FC9058089565
:101C080046F00C94A31860E070E080E89FE3089524
:101C18004FE79F775F934F933F932F930E947B0DDE
:101C28002F913F914F915F910E948A180C94EB0F6E
:101C38008F929F92AF92BF92CF92DF92EF92FF92D4
:101C48000E94F2044B015C010E94A71724E036E5CC
:101C58004AE150E40E94051823E333E948E853E4D5
:101C68000E9405189B01AC0164E076E58AE190E4E6
:101C78000E9486189B01AC0160E070E080E89FE359
:101C88000E94041828E539E348EA50EC0E94CC0D7C
:101C98006B017C01C501B4010E94720F20E030E0A5
:101CA80048EC52E40E948618A70196010E948A18FF
:101CB800FF90EF90DF90CF90BF90AF909F908F9064
:021CC80008957D
:101CCA00EF92FF920F931F93CF93DF931F92CDB79B
:101CDA00DEB769838A01E22E60E00E942314F82E9F
:101CEA00882369F161E0CE0101960E94AF13F82EB4
:101CFA00811104C083E08093A40821C0E0EAF8E0DF
:101D0A0087818160878381E08483858185FD0AC01C
:101D1A00858182FD07C0858183FD04C0858183702A
:101D2A00833099F70E941C17882329F083E0809357
:101D3A00A408F12C04C06E2DC8010E9431138F2D06
:101D4A000F90DF91CF911F910F91FF90EF9008951F
:101D5A0089EF91E80E9402118AE192E80E94021139
:101D6A0083E692E80E949B110E94AD1485E892E8EE
:101D7A000E949B110E94AD1480EA92E80E949A1078
:101D8A000E94AD1483ED92E80E94AF120E94AD1436
:101D9A0086E093E80E949B110E94AD1486E193E8C5
:101DAA000E949B110E94AD148EE293E80E949B113F
:101DBA000E94AD148FE393E80E949B110E94AD1418
:101DCA008AE493E80E9402112AE684E091E0215015
:0A1DDA0080409040E1F700C008953A
:101DE4001F920F920FB60F9211242F933F934F938C
:101DF4005F936F937F938F939F93AF93BF93EF936F
:101E0400FF933B9B05C0E091D33AF091D43A0995F6
:101E14003A9B05C0E091D13AF091D23A09953D9BA5
:101E240005C0E091CF3AF091D03A09953E9B05C0A8
:101E3400E091CD3AF091CE3A09958FEF87B9FF91B1
:101E4400EF91BF91AF919F918F917F916F915F912E
:101E54004F913F912F910F900FBE0F901F901895A7
:101E6400EF92FF920F931F93CF93DF93E091AB38E0
:101E7400F091AC38238121FF29C08C01D0E0C0E06F
:101E840089EAE82E88E3F82EF80181918F018823EE
:101E940081F0D70112966D917C911397DB0118960E
:101EA400ED91FC9119970995892B71F3DFEFCFEF31
:101EB400EBCF6091AB387091AC38DB011896ED91A3
:101EC400FC9119978AE00995892B19F08FEF9FEF00
:101ED40002C08D2F9C2FCDB7DEB7E6E00C94C81559
:101EE400E89409C097FB3EF49095809570956195B0
:101EF4007F4F8F4F9F4F9923A9F0F92F96E9BB2766
:101F04009395F695879577956795B795F111F8CFE1
:101F1400FAF4BB0F11F460FF1BC06F5F7F4F8F4F4C
:101F24009F4F16C0882311F096E911C0772321F042
:101F34009EE8872F762F05C0662371F096E8862FDA
:101F440070E060E02AF09A95660F771F881FDAF731
:0A1F5400880F9695879597F9089578
:101F5E000F931F93CF93DF93FB01238121FD03C0CA
:101F6E008FEF9FEF2CC022FF16C046815781248130
:101F7E0035814217530744F4A081B1819D012F5F33
:101F8E003F4F208331838C93268137812F5F3F4FC4
:101F9E002683378314C08B01EC01FB010084F1858D
:101FAE00E02D0995892BE1F6D80116968D919C911D
:101FBE001797019616968D939C931797CE01DF91E6
:081FCE00CF911F910F910895BE
:101FD60008C029F416F00C9469180C9420180C9477
:101FE600A3180E945014A8F39638A0F707F80F928A
:101FF600E8942BE33AEA48EB5FE70E94F80B0F926E
:102006000F920F924DB75EB70F920E943611E8E716
:10201600F0E00E94D6134F915F91EF91FF91E59505
:10202600EE1FFF1F49F0FE57E0684427EE0F441FDE
:10203600FA95E1F74195550B0E9426100F9007FE81
:062046000C94E61708955A
:10204C0004C00C9469180C9446170E945014D8F3D1
:10205C009923C9F3940F511DA3F39150504094F060
:10206C0059F0882332F0660F771F881F915050402B
:10207C00C1F79E3F51052CF7880F911D96958795BA
:10208C0097F908955F3FACF0983E9CF0BB2786957E
:10209C0077956795B79508F4B1609395C1F7BB0F29
:1020AC0058F711F460FFE8CF6F5F7F4F8F4F9F4F52
:0620BC00E3CF0C94211893
:1020C2001F920F920FB60F9211242F933F934F93AB
:1020D2005F936F937F938F939F93AF93BF93EF938E
:1020E200FF931F9B05C0E091D93AF091DA3A099526
:1020F2001A9B05C0E091D73AF091D83A0995199BFD
:1021020005C0E091D53AF091D63A09958FEF83B99F
:10211200FF91EF91BF91AF919F918F917F916F91BD
:102122005F914F913F912F910F900FBE0F901F9093
:022132001895FE
:10213400EF92FF921F93CF93DF937C018EEB91E894
:102144000E940211C7010E94CE102AE684E091E0A9
:10215400215080409040E1F700C010E009C00E9487
:102164004B18882341F00E9491170E9497181F5F13
:10217400E701C10FD11D88818111F1CF2AE684E0E6
:1021840091E0215080409040E1F700C0DF91CF9171
:082194001F91FF90EF900895E8
:10219C000F931F93CF938C01FC014081C091E43AC3
:1021AC002C2F30E0A091E53AB0E0C90101968A17D6
:1021BC009B07F1F04423E1F090E0CF5FF901E1558A
:1021CC00F74C40835C2F590F9F5FF801E90FF11D0D
:1021DC004081252F30E0B9016F5F7F4F6A177B0775
:1021EC0019F45093E43A04C04111E8CF5093E43A07
:0821FC00CF911F910F9108958E
:10220400EF92FF920F931F93CF93FC01208122231F
:1022140029F17C01E0E0F8E0848180648483F701A3
:102224008081811114C016C00E9433188823E1F301
:10223400F80180810E943817CF5F87010C0F111DB0
:10224400F8019081992331F0CF3F71F703C08701E2
:10225400C0E0EACF0E9439188111FCCFCF911F91C1
:082264000F91FF90EF90089527
:10226C00FA01DC01AA0FBB1F9B01AC01BF5728F47C
:10227C00222733274427507820C0B75190F4AB2F36
:10228C000024469537952795011CA395D2F3002081
:10229C0071F0220F331F441FB395DAF30ED00C9458
:1022AC00041861307105A0E88A07B94630F49B0127
:1022BC00AC016627772788279078309621F0208309
:0822CC0031834283538308951E
:1022D400CF93DF93CDB7DEB72697CDBFDEBF85EFB3
:1022E4008983809110388A8342E0BE016F5F7F4FFB
:1022F40086E70E94FF1582EF8B8380914D388C8393
:1023040042E0BE016D5F7F4F86E70E94FF1584EFB8
:102314008D83809156388E8342E0BE016B5F7F4F80
:1023240086E70E94FF152696CDBFDEBFDF91CF91D1
:0223340008950A
:10233600FF920F931F93CF93DF938C0187EB91E866
:102346000E940211C8010E940211C8010E94CE100B
:10235600F12C09C00E944B18882341F00E94911766
:102366000E949718F394E801CF0DD11D8881811141
:10237600F1CF2AE684E091E0215080409040E1F7D9
:0E23860000C0DF91CF911F910F91FF9008953D
:102394000E94501488F09F5798F0B92F9927B7518D
:1023A400B0F0E1F0660F771F881F991F1AF0BA95F5
:1023B400C9F714C0B13091F00E942018B1E008951B
:1023C4000C942018672F782F8827B85F39F0B93F0D
:1023D400CCF3869577956795B395D9F73EF49095A8
:0E23E4008095709561957F4F8F4F9F4F0895A4
:1023F2001F920F920FB60F9211248F939F93AF9358
:10240200BF93EF93FF938091C73A9091C83AA091FE
:10241200C93AB091CA3A0196A11DB11D8093C73A3B
:102422009093C83AA093C93AB093CA3AE0E8FAE066
:10243200868181608683FF91EF91BF91AF919F91D9
:0C2442008F910F900FBE0F901F90189507
:10244E001F920F920FB60F9211248F939F93AF93FB
:10245E00BF93EF93FF938091C33A9091C43AA091AA
:10246E00C53AB091C63A0196A11DB11D8093C33AEB
:10247E009093C43AA093C53AB093C63AE0E4F1E023
:10248E0083898160838BFF91EF91BF91AF919F9173
:0C249E008F910F900FBE0F901F901895AB
:1024AA001F920F920FB60F9211242F933F934F93BF
:1024BA005F936F937F938F939F93AF93BF93EF93A2
:1024CA00FF938091480484FF03C00E94FE1602C055
:1024DA000E94631881E08093960AFF91EF91BF9161
:1024EA00AF919F918F917F916F915F914F913F91A2
:0C24FA002F910F900FBE0F901F901895AF
:10250600E0E0F8E08DE695E080879187158280EC23
:10251600868383E08783138614861686158680EB6A
:1025260098E1809302389093033881EB98E1809389
:1025360000389093013882EB98E1809304389093A9
:1025460005381092DB3A1092DC3A8FEA9AE38093D0
:08255600AB389093AC380895F6
:10255E00EF92FF921F93CF93DF937C0186ED91E86C
:10256E000E940211C7010E94CE102AE684E091E07B
:10257E00215080409040E1F700C010E009C00E9459
:10258E004B18882341F00E9491170E9497181F5FE5
:10259E00E701C10FD11D88818111F1CFDF91CF915C
:0825AE001F91FF90EF900895CA
:1025B60040E068ED80E690E00E94821841E168ED17
:1025C60081E690E00E94821840E068ED82E690E0A5
:1025D6000E94821840E068ED83E690E00E9482182F
:1025E60040E068ED80E790E00E94821840E068EDE8
:1025F60088E790E00E94821840E068ED8CE790E062
:062606000E9482180895F5
:10260C001F920F920FB60F9211242F933F934F935B
:10261C005F936F937F938F939F93AF93BF93EF933E
:10262C00FF935B9B05C0E091CB3AF091CC3A0995B6
:10263C008FEF8BB9FF91EF91BF91AF919F918F91DC
:10264C007F916F915F914F913F912F910F900FBEA2
:06265C000F901F9018957D
:1026620020E22093A5086623D1F0A82FB92F90E08D
:10267200E0EAF8E022E0858185FD17C0858182FDD0
:1026820007C0858183FD04C085818370833099F7FB
:1026920080858D939F5F691711F02483ECCF87E0CB
:1026A2008093A40808952483E6CF80858D939F5F4D
:0626B2006913F9CFF4CF1B
:1026B800CF93DF93EC010E945D188823A9F0E09185
:1026C800E73AF0E0E155F64C208180E0FE01E80FA2
:1026D800F11D9081291302C08F5F0AC081E09881A3
:1026E800921731F080E004C080E009C081E007C0A3
:1026F800FE01E80FF11D90819111E8CFF7CFDF912E
:04270800CF910895D0
:10270C000E942D18882321F00E948E180E94EA1531
:10271C000E944518882321F00E9494180E941416D8
:10272C000E945D18882341F00E943318882321F001
:10273C000E949C170E9491180E945718882341F000
:10274C000E944B18882321F00E9491170E94971821
:02275C000895DE
:10275E00662309F1DC016150262F30E02F5F3F4FD9
:10276E00280F391FE0EAF8E09D919087958195FD3D
:10277E000AC0958192FD07C0958193FD04C0958195
:10278E009370933099F7958194FD07C0A217B30704
:0E279E0059F781E0089581E0089580E00895E4
:1027AC00DF93CF931F930F93FF92EF92DF927B01F6
:1027BC008C01689406C0DA2EEF010E94E50BFE0135
:1027CC00E894A5912591359145915591A6F3EF018A
:1027DC000E94B60CFE019701A801DA9469F7DF900C
:0E27EC00EF90FF900F911F91CF91DF91089514
:1027FA00E0E2F8E087EE90E080879187158280EC2E
:10280A00868383E08783138614861686158683EB70
:10281A0098E1809306389093073884EB98E1809387
:10282A0008389093093885EB98E180930A38909399
:0C283A000B381092DD3A1092DE3A08953F
:102846009091A50893709330E1F0880F682B609300
:10285600A708E0EAF8E0858185FD0AC0858182FD4A
:1028660007C0858183FD04C085818370833099F715
:102876000E941C17882339F083E08093A40880E027
:0A288600089580E0089581E00895B0
:1028900057FD9058440F551F59F05F3F71F0479511
:1028A000880F97FB991F61F09F3F79F087950895F6
:1028B000121613061406551FF2CF4695F1DF08C015
:1028C000161617061806991FF1CF86957105610532
:0428D00008940895CB
:1028D400A1E21A2EAA1BBB1BFD010DC0AA1FBB1F20
:1028E400EE1FFF1FA217B307E407F50720F0A21B92
:1028F400B30BE40BF50B661F771F881F991F1A94FF
:1029040069F760957095809590959B01AC01BD0128
:04291400CF01089552
:10291800CF93DF93EC010E9474180E94A7170E94BE
:102928000B1868830E941C0E0E94CA116A837B835D
:102938000E94B2170E94CA1169830E94FD178C83F6
:102948000E9463168D83CE010E944F0CDF91CF91B8
:022958000895E0
:10295A00CF938EEE91E80E9402110E9445188823B7
:10296A0021F00E9494180E9414160E945D18882370
:10297A00A1F30E943318882381F30E949C17C82F61
:0C298A000E949118CA3049F7CF910895BF
:10299600883E2AE0920710F087EE9AE0873A24E014
:1029A600920710F487EA94E0BC01675A744080E00D
:1029B60090E00E94720F20E030E040E85DE30E9464
:0C29C6008A180E94CA1184E6861B08953E
:1029D200CF93DF93EC0182EC95E80E94021186E727
:1029E20091E80E94021187ED95E80E940211CE0142
:1029F2000E9402118BEE95E80E94CE10CE010E9439
:082A0200CE10DF91CF91089581
:102A0A00CF93DF93EC0182EC95E80E94021186E7EE
:102A1A0091E80E9402118AEF95E80E940211CE0104
:102A2A000E94021180E196E80E94CE10CE010E9417
:082A3A00CE10DF91CF91089549
:102A4200E0E8FAE080E197E28487958780E181837C
:102A520081E0858393E09083E0E9FAE02FEF3FEF96
:102A62002487358746E0418341E14483908322876E
:062A7200338785830895FF
:102A78000E94291682EC92EA0197F1F700C00E94A1
:102A8800140860E080E00E94EF1641E061E081E018
:102A98000E94851781E00E94A0180E946A1181E0B7
:062AA8008093E33A08955B
:102AAE00E0E0F6E0118280E28187828313828FEF6D
:102ABE0080871386178280E18287148287E084875D
:102ACE0080E38587168E178E148E158E81E0808397
:042ADE0080E00895F7
:102AE200CF93DF9300D0CDB7DEB7809156388C7F7D
:102AF20081608093563894EF99838A8342E0BE01C5
:102B02006F5F7F4F86E70E94FF150F900F90DF9156
:042B1200CF910895C2
:102B16002F923F924F925F926F927F928F929F92E7
:102B2600AF92BF92CF92DF92EF92FF920F931F93D5
:102B3600CF93DF93CDB7DEB7CA1BDB0BCDBFDEBFAE
:022B46000994F0
:102B48001F920F920FB60F9211248F93EF93FF935A
:102B5800E0E0F6E080E2858380E1858388E0858394
:102B6800FF91EF918F910F900FBE0F901F901895C6
:102B78002A88398848885F846E847D848C849B8405
:102B8800AA84B984C884DF80EE80FD800C811B8113
:102B9800AA81B981CE0FD11DCDBFDEBFED01089549
:102BA800A0E0B0E0EAEDF5E10C949B15AE014B5FB7
:102BB8005F4FFA0161917191AF018091AB389091AB
:0C2BC800AC380E941103E2E00C94CC1524
:102BD4009091E43A292F30E0B9016F5F7F4F409123
:102BE400E53A50E06417750739F0F901E155F74CFF
:0A2BF40080839F5F9093E43A0895F8
:102BFE001F93CF93DF93EB01142F60E00E942314F9
:102C0E00882339F0612FCE010E94AF1393E0909389
:0A2C1E00A408DF91CF911F910895E3
:102C28009091E63A292F30E0B9016F5F7F4F4091CC
:102C3800E73A50E06417750739F0F901E155F64CA9
:0A2C480080839F5F9093E63A0895A1
:102C5200CF93DF9300D0CDB7DEB780EE898386EBCA
:102C62008A8342E0BE016F5F7F4F86E70E94FF15B5
:0A2C72000F900F90DF91CF910895AD
:102C7C000E94D1160E9452160E94F6170E9421152E
:102C8C000E94791778940E946F180E942A170E944C
:082C9C003C150E94D408FDCF95
:102CA400E0E2F4E0808180688083848180688483AA
:102CB400E0E4F4E080818F7E808384898860848B63
:022CC400089571
:102CC6000E9479189C01ADECBCEC0E940D179695FC
:102CD6008795969587959695879594E6981B892F5F
:022CE60008954F
:102CE800092E0394000C11F4882352F0BB0F40F412
:102CF800BF2B11F460FF04C06F5F7F4F8F4F9F4F52
:022D080008952C
:102D0A00DB018F939F930E94BD17BF91AF91A29F42
:102D1A00800D911DA39F900DB29F900D11240895CF
:102D2A00E0E0F6E09485907C94879485892B8487EB
:0E2D3A0082858F7782878285816082870895E7
:102D48000E9495160E947E188823E1F3E0E0F6E0E1
:0E2D5800608971898289938921E0258308951D
:102D66001F920F920FB60F9211248F9382E08093D9
:0E2D760005068F910F900FBE0F901F901895BD
:102D84001F920F920FB60F9211248F9381E08093BC
:0E2D940005068F910F900FBE0F901F9018959F
:102DA2000E94DB120E94930A0E9457150E9483120E
:0E2DB2000E94FD130E9451180E94611708959F
:102DC0008CED93E80E9402118AE192E80E940211C0
:0E2DD0008BEE93E80E949B110E94AD140895B3
:102DDE0087708295807F2091103821786770962FAA
:0E2DEE00990F622F682B692B6093103808959F
:102DFC00E0E2F4E08581806885838091E13A9091EE
:0E2E0C00E23A81608093E13A9093E23A0895B1
:102E1A00A29FB001B39FC001A39F700D811D112411
:0E2E2A00911DB29F700D811D1124911D089500
:102E38008091A5088C7141F49091A508937081E068
:0C2E4800933019F080E0089581E00895B7
:102E54000E94DE17E0EAF8E084E0808381E0828368
:0C2E64009DEF95839FE096838383089583
:102E7000CF93C82F0E943318882331F0E0E0F8E0A8
:0C2E8000948190649483C283CF910895E4
:102E8C009F3F31F0915020F4879577956795B795D2
:0C2E9C00880F911D9695879597F9089571
:102EA80061636365707465640D0A0052783A206145
:092EB800636365707465640A002F
:102EC20040E068ED80E191E00E948218E0E1F1E0EB
:082ED2001282138280E00895D2
:102EDA00CF93C82F0E9433188823E1F3C0930208C6
:082EEA0080E090E0CF91089513
:102EF200E0E4F1E081E08783828B818980FDFDCF70
:082F020089E480935001089559
:102F0A008295880F807E6770660F660F4370862BE6
:082F1A00842B809356380895C2
:102F22009091E53AE92FF0E0E155F74C80819F5FFF
:062F32009093E53A0895BA
:102F38009091E73AE92FF0E0E155F64C80819F5FE8
:062F48009093E73A0895A2
:102F4E000E9470090E94720F20E030E048EC52E4BB
:062F5E000E948618089590
:102F64000E944A060E94720F20E030E040E85AE3D3
:062F74000E948A18089576
:102F7A000E940D17A59F900DB49F900DA49F800DE0
:062F8A00911D11240895C1
:102F9000FC010590615070400110D8F78095909524
:062FA0008E0F9F1F089533
:102FA600FC016150704001900110D8F78095909512
:062FB6008E0F9F1F08951D
:102FBC00E0E2F4E083E0818388E0808B818B0895EC
:102FCC009B01AC0160E070E080E89FE30C948618F4
:102FDC00B7FF0C94BD170E94BD17821B930B08956D
:0E2FEC00E0E8F1E084E4838B84E082AB08959A
:0E2FFA0087E00E94A416CB010E94CB1408951C
:0E3008005058BB27AA270E94B60C0C947416D1
:0E3016000E94CA116894B1110C9421180895FB
:0E30240000240A9416161706180609060895C9
:0E30320000240A9412161306140605060895CB
:0E304000E894BB2766277727CB0197F9089500
:0C304E00E0E0F8E086818064868308954D
:0C305A0080910408881F8827881F0895B3
:0C3066008091040885FB882780F90895FC
:0C3072008091040886FB882780F90895EF
:0C307E00E0E0F8E0868180688683089519
:0C308A0080912408881F8827881F089563
:0C3096008091240885FB882780F90895AC
:0C30A200E0EAF0E01082118280E0089566
:0C30AE008091E53A9091E43A891B089566
:0C30BA008091E73A9091E63A891B089556
:0C30C600E0E2F4E085818F7785830895B7
:0C30D20097F99F6780E870E060E00895C7
:0A30DE000E943F180E942718089571
:0A30E8000E9471150E94040A089569
:0A30F2008091DF3A9091E03A0895D2
:0830FC00809105068170089522
:08310400FC0164BF4083089543
:08310C000E94080B0C947416DC
:083114000E94E50B0C947416F7
:06311C00809100080895F7
:06312200809302080895ED
:06312800809120080895CB
:06312E00809322080895C1
:063134000E94AD0E08959B
:06313A000E94E01608955A
:0631400080934D38089554
:063146009FEF80EC0895EC
:04314C000C940000DF
:023150000895E0
:023152000895DE
:023154000895DC
:023156000895DA
:023158000895D8
:02315A000895D6
:02315C000895D4
:02315E000895D2
:023160000895D0
:023162000895CE
:023164000895CC
:023166000895CA
:023168000895C8
:02316A000895C6
:0E316C0000000002000000006D1700000000CF
:02000004008278
:090000000000020000C40700002A
:00000001FF
