:100000000C9493000C94B2180C94B2180C94B2187F
:100010000C948B140C94B2180C9498100C94290F17
:100020000C94B2180C94B2180C94B2180C94B21828
:100030000C94B2180C9499150C94B2180C94B21834
:100040000C94B2180C94B2180C94B2180C94B21808
:100050000C94B2180C9469150C94C0160C94B1163B
:100060000C94E7120C94B2180C94B2180C94B218B9
:100070000C94B2180C94B218DD0DE30DE60DEC0DE6
:10008000F40DFA0D000E07634236B79BD8A71A3954
:10009000685618AEBAAB558C1D3CB7CC5763BD6DD6
:1000A000EDFD753EF6177231BF000000803F08007D
:1000B0000000BE922449123EABAAAA2ABECDCCCCE7
:1000C0004C3E00000080BEABAAAAAA3E0000000081
:1000D000BF000000803F0000000000084178D3BB53
:1000E0004387D1133D190E3CC3BD4282AD2B3E6800
:1000F000EC8276BED98FE1A93E4C80EFFFBE01C4F1
:10010000FF7F3F000000000038003AAD803AAD3A72
:10011000BB0031843ABB3AE0803AE03AE1003192E8
:100120003AE13AE2800011241FBECFEFCDBFDFE3FA
:10013000DEBFE8E0F1E041E017C0B591A59135914F
:100140002591059107FD0CC095918591EF01F92F3F
:10015000E82F05900D92A217B307D9F7FE0104C04E
:100160001D92A217B307E1F7E532F40731F70E94B9
:0A01700019160C94BB00F894FFCFA1
:10017A000D526573657474696E67204C5232204360
:10018A006C69636B0A002D2D2D2D2D2D2D2D2D2DF6
:10019A002D2D2D2D2D2D2D2D2D2D2D2D2D2D2D2D85
:1001AA002D2D2D2D2D2D2D2D2D2D2D2D2D2D2D2D75
:1001BA002D2D2D2D2D2D2D2D2D2D0A004669726DDB
:1001CA00776172653A20000D0A54783A20000D0AC8
:1001DA0054783A206D61632073657420617070737E
:1001EA006B65790D0A000D0A54783A206D61632017
:1001FA00736574206E776B736B65790D0A000D5207
:10020A00783A200052783A20000A0A436F6E6669EB
:10021A00677572696E67204C523220436C69636B52
:10022A0020466F72204142500A002D2D2D2D2D2D72
:10023A002D2D2D2D2D2D2D2D2D2D2D2D2D2D2D2DE4
:10024A002D2D2D2D2D2D2D2D2D2D2D2D2D2D2D2DD4
:10025A002D2D2D2D2D2D2D2D2D2D2D2D2D2D2D2DC4
:10026A002D2D2D2D2D2D2D2D2D2D2D2D2D2D2D2DB4
:10027A002D0A006D61632073657420646576657567
:10028A0069203730423344353745443030353235CA
:10029A0034420D0A006D61632073657420646576CB
:1002AA00616464722032363043433242340D0A00AC
:1002BA006D61632073657420617070736B6579205A
:1002CA00384438414439393843394638434135345A
:1002DA003645433631464444374133453241323854
:1002EA000D0A006D616320736574206E776B736B02
:1002FA0065792039353745323841444435374230FB
:10030A003941334246393745364433464332363922
:10031A004343330D0A006D61632073657420617273
:10032A00206F6E0D0A006D61632073657420727808
:10033A0064656C61793120353030300D0A006D61A9
:10034A00632073657420616472206F6E0D0A006DFC
:10035A00616320736176650D0A000A0A000A0A437E
:10036A006F6E6669677572696E67204C52322043F8
:10037A006C69636B20666F72204F5441410A006DAD
:10038A00616320736574206170706B6579204634EF
:10039A0032433338324242394138373946373232BA
:1003AA0034393944454337454636354246330D0AD2
:1003BA00006D6163207365742061707065756920D2
:1003CA003030303030303030303030303030303023
:1003DA000D0A006D61632070617573650D0A006D09
:1003EA00616320726573756D650D0A000A0A4A6FAA
:1003FA00696E696E672054544E0A006D6163206A03
:10040A006F696E206162700D0A006D6163206A6F08
:10041A00696E206F7461610D0A000A416674657223
:10042A0020313030204D6F697374757265205265C2
:10043A006164696E6773002D2D2D2D2D2D2D2D2DA7
:10044A002D2D2D2D2D2D2D2D2D2D2D2D2D2D2D2DD2
:10045A002D2D2D2D2D2D2D2D2D2D2D2D2D2D2D2DC2
:10046A002D2D2D2D2D2D2D2D2D2D2D2D2D2D2D2DB2
:10047A002D2D2D2D2D2D2D2D2D2D2D2D2D2D0054A8
:10048A006865204D41582072656164696E672077FE
:10049A0061732025640A00546865204D494E207214
:1004AA00656164696E67207761732025640A0A00B2
:1004BA00546865204D4158206D61707320746F2017
:1004CA0025640A00546865204D494E206D61707399
:1004DA0020746F2025640A000A0A43757272656ED9
:1004EA00742053656E736F7220446174610A0052FE
:1004FA00656C61746976652048756D69646974799B
:10050A003A2025752525200D0A004D6F69737475EB
:10051A0072653A2025752525200D0A0050726573EB
:10052A00737572653A202575206850610D0A00417D
:10053A0069722054656D70657261747572653A20CE
:10054A0025692043200D0A00536F696C2054656D9C
:10055A0070657261747572653A2025692043200DB1
:10056A000A0042617474657279204C6576656C3A4A
:10057A002025752525200D0A0A000A4A534F4E20C8
:10058A00466F726D61740D005061796C6F61643AE7
:10059A00207B206169725F74656D703A2025692C31
:1005AA0020626174746572793A2025752C20687509
:1005BA006D69646974793A2025752C206D6F6973A9
:1005CA00747572653A2025752C207072657373757F
:1005DA0072653A2025752C20736F696C5F74656D9E
:1005EA00703A2025690D0A0A7D00303132333435DC
:1005FA0036373839414243444546000A0A54726143
:10060A006E736D697474696E6720446174610A005F
:10061A000A54783A206D616320747820636E6620EC
:10062A00343220006D616320747820636E66203452
:10063A003220000A54783A206D616320747820755C
:10064A006E636E6620343320006D616320747820F7
:0A065A00756E636E662034332000D5
:10066400ABE0B0E0E8E3F3E00C9450156C017B01DF
:100674008A01FC0116821782838181FFCCC1CE01DD
:1006840001963C01F6019381F70193FD859193FF57
:1006940081917F01882309F4BAC1853239F493FD2D
:1006A400859193FF81917F01853229F4B60190E011
:1006B4000E94E60FE7CF912C212C312CFFE1F3159A
:1006C400D8F08B3279F038F4803279F08332A1F4A7
:1006D400232D20611DC08D3261F0803369F4232DF8
:1006E400216016C0832D8260382EE32DE4603E2EF7
:1006F4002AC0F32DF8601DC037FC2DC020ED280F53
:100704002A3040F08E32B9F436FC81C1232D2064A6
:10071400322E19C036FE06C08AE0989E200D1124A0
:10072400922E11C0EAE02E9E200D1124222EF32DCC
:10073400F0623F2E08C08C3621F4832D8068382E59
:1007440002C0883641F4F70193FD859193FF8191AE
:100754007F018111B3CF982F9F7D9554933028F456
:100764000C5F1F4F9FE399830DC0833631F08337AD
:1007740071F0833509F059C021C0F8018081898363
:100784000E5F1F4F88248394912C530113C02801BA
:10079400F2E04F0E511CF801A080B18036FE03C078
:1007A400692D70E002C06FEF7FEFC5010E94CF1783
:1007B4004C018201F32DFF773F2E16C0280122E061
:1007C400420E511CF801A080B18036FE03C0692D91
:1007D40070E002C06FEF7FEFC5010E94C4174C01A7
:1007E400F32DF0683F2E820133FC1BC0822D90E074
:1007F40088169906B0F4B60180E290E00E94E60FF4
:100804002A94F4CFF50137FC859137FE81915F017D
:10081400B60190E00E94E60F21102A9421E0821A8A
:1008240091088114910471F7E8C0843611F0893677
:1008340041F5F80137FE07C060817181828193819F
:100844000C5F1F4F08C060817181072E000C880B5C
:10085400990B0E5F1F4FF32DFF763F2E97FF09C0B4
:1008640090958095709561957F4F8F4F9F4FF0685D
:100874003F2E2AE030E0A3010E94620C882E8618E5
:1008840045C0853731F4232D2F7EB22E2AE030E087
:1008940025C0932D997FB92E8F36C1F018F4883571
:1008A40079F0B5C0803719F0883721F0B0C0E92F4E
:1008B400E061BE2EB4FE0DC0FB2DF460BF2E09C056
:1008C40034FE0AC0292F2660B22E06C028E030E08C
:1008D40005C020E130E002C020E132E0F801B7FEBB
:1008E40007C060817181828193810C5F1F4F06C0B4
:1008F4006081718180E090E00E5F1F4FA3010E9430
:10090400620C882E8618FB2DFF773F2E36FE0DC015
:10091400232D2E7FA22E891458F434FE0BC032FCF2
:1009240009C0832D8E7EA82E05C0B82CA32C03C02D
:10093400B82C01C0B92CA4FE0FC0FE01E80DF11DB6
:100944008081803321F49A2D997EA92E09C0A2FEBC
:1009540006C0B394B39404C08A2D867809F0B39486
:10096400A3FC11C0A0FE06C0B21488F4280C922C7B
:100974009B180EC0B21460F4B60180E290E00E94AD
:10098400E60FB394F7CFB21418F42B1802C0982CC6
:10099400212CA4FE10C0B60180E390E00E94E60F73
:1009A400A2FE17C0A1FC03C088E790E002C088E55E
:1009B40090E0B6010CC08A2D867859F0A1FE02C0E1
:1009C4008BE201C080E2A7FC8DE2B60190E00E94B8
:1009D400E60F891438F4B60180E390E00E94E60F34
:1009E4009A94F7CF8A94F301E80DF11D8081B60142
:1009F40090E00E94E60F8110F5CF222009F442CE48
:100A0400B60180E290E00E94E60F2A94F6CFF60148
:100A14008681978102C08FEF9FEF2B96E2E10C94C1
:020A240081153A
:100A26004F925F926F927F928F929F92AF92BF92F8
:100A3600CF92DF92EF92FF92C0908238D0908338A7
:100A4600E0908438F0908538F594E794D794C7946D
:100A56008AEFD81AE108F108C701B601959587957E
:100A66007795679595958795779567959B01AC01E1
:100A76000E9483164B015C01E6E8F8E3A285B38584
:100A86009B01AC01012E1DE055954795379527959D
:100A96001A95D1F7102D0E94F4172B013C0168948A
:100AA60012F875946794579447941694D1F7A085D5
:100AB600B185A70196010E94F417DC01CB01B5951B
:100AC600A79597958795840D951DA61DB71D072E8D
:100AD60072E1B595A795979587957A95D1F7702D7B
:100AE6009C01AD0130584F4F5F4FA681B7810E94E0
:100AF600B9172B013C01032E3FE075946794579478
:100B060047943A95D1F7302D41145104610471048C
:100B160009F4CEC0A5019401012E1BE05595479519
:100B2600379527951A95D1F7102DA089B1890E947E
:100B3600F4174B015C01A685B785A70196010E94B3
:100B4600F417DC01CB01880F991FAA1FBB1F880E63
:100B5600991EAA1EBB1ED501C401B595A7959795EA
:100B66008795B595A7959795879584849584092C3F
:100B7600000CAA08BB08540199248824880E991EE3
:100B8600AA1EBB1E072E7CE0B594A7949794879463
:100B96007A95D1F7702D80914E3890914F38A0916B
:100BA6005038B0915138A5019401280F391F4A1FBA
:100BB6005B1FABECB3EF0E94F717805B9C43992356
:100BC6005CF0660F771F881F991FA30192010E9490
:100BD600691469017A010AC0A30192010E9469148D
:100BE60069017A01CC0CDD1CEE1CFF1CC701B601A5
:100BF600689412F896958795779567951694D1F728
:100C06009B01AC010E9483169B01AC01012E1DE0E5
:100C160056954795379527951A95D1F7102DE6E8FD
:100C2600F8E3A689B7890E94F4174B015C01072EE9
:100C36007CE0B594A794979487947A95D1F7702D14
:100C4600A701960156954795379527955695479549
:100C560037952795A489B5890E94F417DC01CB0145
:100C6600072E7DE0B595A795979587957A95D1F747
:100C7600702DB501A401480F591F6A1F7B1F828979
:100C86009389092E000CAA0BBB0B840F951FA61F78
:100C9600B71F689413F8B595A795979587951694F9
:100CA600D1F7BC01CD016C0D7D1D8E1D9F1D03C0AE
:100CB60060E070E0CB01FF90EF90DF90CF90BF90A7
:100CC600AF909F908F907F906F905F904F90089518
:100CD6004F925F926F927F928F929F92AF92BF9246
:100CE600CF92DF92EF92FF92809082389090833875
:100CF600A0908438B09085382CE2921A21E0A20A9E
:100D0600B108C0900C38D0900D38E0900E38F090B5
:100D16000F380B2EBEE0CC0CDD1CEE1CFF1CBA956A
:100D2600D1F7B02DE6E8F8E3848D958D092E000CF9
:100D3600AA0BBB0B072E74E1880F991FAA1FBB1FB6
:100D46007A95D1F7702DC81AD90AEA0AFB0AA68D38
:100D5600B78DA50194010E94F417C61AD70AE80AAE
:100D6600F90A30E4D30EE11CF11C0B2EBFE0F5941A
:100D7600E794D794C794BA95D1F7B02DA38DB0E078
:100D8600A50194010E94B9172B013C01032E3BE0FB
:100D960075946794579447943A95D1F7302D40E867
:100DA600540E611C711CA0A10A2E000CBB0BA501E0
:100DB60094010E94F417052E5AE09595879577952C
:100DC60067955A95D1F7502DA30192010E9483167B
:100DD600DC01CB01072E7AE0B595A7959795879507
:100DE6007A95D1F7702D9C01AD01405E5F4FA18DC4
:100DF600B28D0E94F417DC01CB01905EAF4FBF4F5E
:100E0600BC01CD01052E5EE0959587957795679592
:100E16005A95D1F7502DA70196010E9483166B01B2
:100E26007C01052E5FE095958795779567955A9590
:100E3600D1F7502D9B01AC010E9483169B01AC019A
:100E4600689416F855954795379527951694D1F7D2
:100E5600A08DB0E00E94B917DC01CB01689413F8AD
:100E6600B595A795979587951694D1F7A7019601FD
:100E7600281B390B4A0B5B0BDA01C9011AF480E017
:100E860090E0DC0181309105A10539E1B30724F03A
:100E960080E090E0A0E0B9E1BC01CD01052E5CE068
:100EA60095958795779567955A95D1F7502DFF902B
:100EB600EF90DF90CF90BF90AF909F908F907F90F4
:080EC6006F905F904F900895BA
:100ECE00CF93DF93CDB7DEB76197CDBFDEBF21E104
:100EDE00E4EFF5E8DE01119601900D922A95E1F707
:100EEE00DB012C9122952F70E1E0F0E0EC0FFD1F5D
:100EFE00E20FF11D2081FC0120832C912F70E1E087
:100F0E00F0E0EC0FFD1FE20FF11D2081DC011196C8
:100F1E002C931197FB01218122952F70E1E0F0E0D7
:100F2E00EC0FFD1FE20FF11D208112962C93DB01B9
:100F3E0011962C9111972F70E1E0F0E0EC0FFD1F50
:100F4E00E20FF11D2081FC01238314962C91229532
:100F5E002F70E1E0F0E0EC0FFD1FE20FF11D20819C
:100F6E00DC0114962C931497FB0124812F70E1E081
:100F7E00F0E0EC0FFD1FE20FF11D208115962C9372
:100F8E00DB0113964C911397242F22952F7030E08E
:100F9E00E1E0F0E0EC0FFD1FE20FF31F2081FC01FA
:100FAE00268313962C9130E02F703327E1E0F0E08A
:100FBE00EC0FFD1FE20FF31F2081DC0117962C931F
:100FCE00DB011296ED91FC911397F295E295EF707D
:100FDE00EF27FF70EF27EF70FF2721E030E02C0F97
:100FEE003D1FE20FF31F2081DC0118962C93DB01CD
:100FFE001296ED91FC911397EF70FF2721E030E0F0
:10100E002C0F3D1FE20FF31F2081DC0119962C934C
:10101E001997FB01258122952F70E1E0F0E0EC0F8E
:10102E00FD1FE20FF11D20811A962C93DB01159600
:10103E002C9115972F70E1E0F0E0EC0FFD1FE20F01
:10104E00F11D2081FC01238716962C9122952F707D
:10105E00E1E0F0E0EC0FFD1FE20FF11D2081DC015D
:10106E001C962C931C97FB0126812F70E1E0F0E07B
:10107E00EC0FFD1FE20FF11D20811D962C931D9785
:10108E002DE01E962C931E972AE01F962C931F97E9
:10109E0050961C926196CDBFDEBFDF91CF91089521
:1010AE000F931F93CF93DF93CDB7DEB76897CDBF66
:1010BE00DEBF28E1AE014F5F5F4F68E886E70E9412
:1010CE009C0E06E818E38A8190E0982F88272981E4
:1010DE00820F911DF801808391838C8190E0982F6F
:1010EE0088272B81820F911D828393838E8190E0BE
:1010FE00982F88272D81820F911D84839583888553
:10110E0090E0982F88272F81820F911D86839783D9
:10111E008A8590E0982F88272985820F911D8087D8
:10112E0091878C8590E0982F88272B85820F911DB3
:10113E00828793878E8590E0982F88272D85820F42
:10114E00911D84879587888990E0982F88272F8511
:10115E00820F911D868797878A8990E0982F88271E
:10116E002989820F911D808B918B8C8990E0982F0D
:10117E0088272B89820F911D828B938B8E8990E00D
:10118E00982F88272D89820F911D848B958B888DA2
:10119E0090E0982F88272F89820F911D868B978B31
:1011AE0021E0AE014F5F5F4F61EA86E70E949C0E21
:1011BE008981F801808F27E0AE014F5F5F4F61EEAE
:1011CE0086E70E949C0E2A8130E0322F22279981D9
:1011DE00290F311DF801218F328F9B81938F9D81B5
:1011EE002C81F0E12F9F90011124492F4F70242B59
:1011FE00F801248F358F2E81F0E12F9F900111245D
:10120E0092959F70292BF801268F378F9F8190A37F
:10121E006896CDBFDEBFDF91CF911F910F910895DC
:10122E008F929F92AF92BF92CF92DF92EF92FF92E8
:10123E008091523890915338A0915438B0915538CE
:10124E00E6E8F8E34081518160E070E06C017D01D9
:10125E00689413F8F594E794D794C7941694D1F73D
:10126E00C41AD50AE60AF70A689412F8B595A79536
:10127E00979587951694D1F7440F551F661F771FC4
:10128E004C015D01841A950AA60AB70AA5019401BC
:10129E00A281B3810E94F4174B015C01072E7BE003
:1012AE00B594A794979487947A95D1F7702DA7014A
:1012BE009601C701B6010E9483169B01AC01012E57
:1012CE001CE055954795379527951A95D1F7102D12
:1012DE00A481B5810E94F417DC01CB01072E7EE0BC
:1012EE00B595A795979587957A95D1F7702D880D19
:1012FE00991DAA1DBB1D8093823890938338A093AD
:10130E008438B09385386C017D01CC0CDD1CEE1C4D
:10131E00FF1CCC0CDD1CEE1CFF1C8C0D9D1DAE1D90
:10132E00BF1D80589F4FAF4FBF4F692F7A2F8B2F06
:10133E00992787FD9A95FF90EF90DF90CF90BF9001
:08134E00AF909F908F9008956D
:10135600CF93DF93CDB7DEB72897CDBFDEBF28E0AA
:10136600AE014F5F5F4F67EF86E70E949C0E8F814D
:1013760090E0A0E0B0E0BA2FA92F982F8827288503
:10138600822B80930C3890930D38A0930E38B0932F
:101396000F388C8190E0A0E0B0E0AC01BD01032ED7
:1013A6003CE0440F551F661F771F3A95D1F7302D45
:1013B6009D81892F90E0A0E0B0E0880F991FAA1FB9
:1013C600BB1F880F991FAA1FBB1F880F991FAA1F33
:1013D600BB1F880F991FAA1FBB1F842B952BA62BFB
:1013E600B72B2E8122952F70822B809352389093A3
:1013F6005338A0935438B0935538898190E0A0E0D3
:10140600B0E0AC01BD01032E3CE0440F551F661F42
:10141600771F3A95D1F7302D9A81892F90E0A0E079
:10142600B0E0880F991FAA1FBB1F880F991FAA1F1C
:10143600BB1F880F991FAA1FBB1F880F991FAA1FC2
:10144600BB1F842B952BA62BB72B2B8122952F7098
:10145600822B80934E3890934F38A0935038B09398
:0E14660051382896CDBFDEBFDF91CF9108959B
:10147400CF93DF93C0E0D4E082E08883A0E2B4E0BD
:1014840084E68C93E0E4F4E088E080831C82149684
:101494001C9214971482188A198A1A8A1B8A1C8A25
:1014A4001D8A1E8A1F8A50961C92509751961C9230
:1014B400519752961C92529753961C925397549656
:1014C4001C92549755961C92559756961C92569773
:1014D40057961C92108A118A128A138A148A158AC2
:1014E400168A178AE0EEF5E01182108213821482C4
:1014F4001582128284EB98E18093D03A9093D13A8A
:1015040085EB98E18093CE3A9093CF3A86EB98E1BD
:101514008093CC3A9093CD3A87EB98E18093CA3A82
:101524009093CB3A88EB98E18093C83A9093C93A68
:1015340089EB98E18093C63A9093C73A8AEB98E195
:101544008093C43A9093C53A8BEB98E18093C23A66
:0A1554009093C33ADF91CF91089500
:10155E00CF93DF93EC0182EE94E80E94391184E37D
:10156E0092E80E94391189811F928F9389EF94E836
:10157E009F938F930E94AF158C811F928F9384E15E
:10158E0095E89F938F930E94AF158B818F938A81DD
:10159E008F9386E295E89F938F930E94AF15888173
:1015AE00282F082E000C330B3F938F9389E395E879
:1015BE009F938F930E94AF158D811F928F9382E51B
:1015CE0095E89F938F930E94AF158E811F928F93F4
:1015DE008CE695E89F938F930E94AF1584E895E86B
:1015EE000E94690F81E494E80E94690F8D811F9219
:1015FE008F938B818F938A818F938C811F928F9380
:10160E0089811F928F938E811F928F938881282FAD
:10161E00082E000C330B3F938F9382E995E89F932E
:10162E008F930E94AF158DB79EB786968DBF9EBFC6
:06163E00DF91CF91089539
:1016440010C00E941F1858F00E94181840F029F486
:101654005F3F29F00C946F1851110C9427180C94C7
:10166400AF180E94471468F39923B1F3552391F3FB
:10167400951B550BBB27AA2762177307840738F0FD
:101684009F5F5F4F220F331F441FAA1FA9F335D05A
:101694000E2E3AF0E0E832D091505040E695001C0E
:1016A400CAF72BD0FE2F29D0660F771F881FBB1FC8
:1016B400261737074807AB07B0E809F0BB0B802DA6
:1016C400BF01FF2793585F4F3AF09E3F510578F0D2
:1016D4000C946F180C9427185F3FE4F3983ED4F3EE
:1016E400869577956795B795F7959F5FC9F7880FA6
:1016F400911D9695879597F90895E1E0660F771FF8
:10170400881FBB1F621773078407BA0720F0621B88
:0E171400730B840BBA0BEE1F88F7E095089557
:101722000FC00E94181838F00E941F1820F095234D
:1017320011F00C946F180C94AF1811240C94271804
:101742000E94471470F3959FC1F3950F50E0551F07
:10175200629FF001729FBB27F00DB11D639FAA2704
:10176200F00DB11DAA1F649F6627B00DA11D661F53
:10177200829F2227B00DA11D621F739FB00DA11D74
:10178200621F839FA00D611D221F749F3327A00D2E
:10179200611D231F849F600D211D822F762F6A2FCA
:1017A20011249F5750409AF0F1F088234AF0EE0F2F
:1017B200FF1FBB1F661F771F881F91505040A9F75C
:1017C2009E3F510580F00C946F180C9427185F3FD0
:1017D200E4F3983ED4F3869577956795B795F79598
:1017E200E7959F5FC1F7FE2B880F911D9695879510
:0417F20097F90895C6
:1017F60011C00E94181838F00E941F1820F039F402
:101806009F3F19F426F40C94AF180EF4E095E7FB0D
:101816000C946F18E92F0E94471458F3BA17620701
:1018260073078407950720F079F4A6F50C9426181B
:101836000EF4E0950B2EBA2FA02D0B01B9019001E5
:101846000C01CA01A0011124FF27591B99F0593F29
:1018560050F4503E68F11A16F040A22F232F342F71
:101866004427585FF3CF469537952795A795F040BF
:101876005395C9F77EF41F16BA0B620B730B840BD4
:10188600BAF09150A1F0FF0FBB1F661F771F881F8C
:10189600C2F70EC0BA0F621F731F841F48F48795E4
:1018A60077956795B795F7959E3F08F0B0CF9395D6
:0E18B600880F08F09927EE0F979587950895F3
:1018C400FA01AA27283051F1203181F1E8946F936D
:1018D4006E7F6E5F7F4F8F4F9F4FAF4FB1E03ED013
:1018E400B4E03CD0670F781F891F9A1FA11D680FB1
:1018F400791F8A1F911DA11D6A0F711D811D911DE4
:10190400A11D20D009F468943F912AE0269F112458
:101914003019305D3193DEF6CF010895462F4770BC
:10192400405D4193B3E00FD0C9F7F6CF462F4F7017
:10193400405D4A3318F0495D31FD4052419302D075
:10194400A9F7EACFB4E0A69597958795779567951B
:10195400BA95C9F700976105710508959B01AC011B
:101964000A2E06945795479537952795BA95C9F742
:0C197400620F731F841F951FA01D0895B3
:101980004091D63A5091D73A9A01ADECBCEC0E9406
:10199000FC169695879596958795969587959C01C3
:1019A000220F331F880F991F880F991F880F991FC7
:1019B000820F931F48175907E9F45F934F9380EF05
:1019C00092EA9F938F930E94AF1587E598E30E9458
:1019D000C9148091D63A9091D73A01968093D63A1D
:1019E0009093D73A81E08093DF3A0F900F900F9059
:1019F0000F9008955F934F9380EF92EA9F938F9398
:101A00000E94AF1587E598E30E94E5148091D63ACD
:101A10009091D73A01968093D63A9093D73A81E045
:0E1A20008093DF3A0F900F900F900F90089573
:101A2E0008C016F00C9443170C94AF1868940C94DD
:101A3E006F180E944F14A8F39923C1F3AEF3DF93EE
:101A4E00CF931F930F93FF92C92FDD2788232AF080
:101A5E002197660F771F881FDAF720E030E040E805
:101A6E005FEB9FE3883920F0803E38F021968F7728
:101A7E000E940B18EEEAF0E004C00E940B18EBED8A
:101A8E00F0E00E948D138B01BE01EC01FB2E6F570F
:101A9E0071097595771F880B990B0E94AB0F28E182
:101AAE0032E741E35FE30E94910BAF2D9801AE0147
:101ABE00FF900F911F91CF91DF910E94FB0B0C9421
:021ACE0072168E
:101AD000FA01EE0FFF1F309621053105A1F16115C6
:101AE000710561F48038BFE39B0749F16894903831
:101AF000810561F08038BFEF9B0741F099234AF5DB
:101B0000FF3FE1053105210519F1E8940894E795B7
:101B1000D901AA2329F4AB2FBE2FF85FD0F310C050
:101B2000FF5F70F4A695E0F7F73950F019F0FF3A2F
:101B300038F49F779F930DD00F9007FC905808952D
:101B400046F00C94AF1860E070E080E89FE30895E1
:101B50004FE79F775F934F933F932F930E94170D0B
:101B60002F913F914F915F910E9496180C942210F3
:101B70008091DF3A8823A9F01092DF3A8091E03A11
:101B80008093E13A863069F48BEF92EA0E94391132
:101B90001092D83A1092D93AE0E4F1E08081816065
:101BA0008083E091E13A8E2F90E08730910568F5CF
:101BB000FC01E45CFF4F0C9475180E94691881E0E9
:101BC0008093E03A089582E08093E03A0E94DA1729
:101BD00083E08093E03A089584E08093E03A1092A5
:101BE000D83A1092D93A08950E94351785E080932B
:101BF000E03A089586E08093E03A0E94C00C089590
:0C1C000084E08093E03A0E942D160895C5
:101C0C00CF938AE791E80E94391180E991E80E940C
:101C1C00391186EC91E80E943911E5E2F4E080E498
:101C2C0080832AE634E091E0215030409040E1F787
:101C3C0000C0809326042FE33DE093E02150304018
:101C4C009040E1F700C0000080832AE634E081E098
:101C5C00215030408040E1F700C088E0809345047B
:101C6C000E944B18882321F00E94A0180E94EF15A7
:101C7C000E9439188823A1F30E949817C82F0E943C
:101C8C002717CA3069F79AE22CE23AE091502040CB
:0A1C9C003040E1F70000CF910895F9
:101CA6008F929F92AF92BF92CF92DF92EF92FF9266
:101CB6000E9413054B015C010E94A31724E036E540
:101CC6004AE150E40E940B1823E333E948E853E461
:101CD6000E940B189B01AC0164E076E58AE190E472
:101CE6000E9492189B01AC0160E070E080E89FE3DF
:101CF6000E940A1828E539E348EA50EC0E94680D6C
:101D06006B017C01C501B4010E94A90F20E030E0FF
:101D160048EC52E40E949218A70196010E94961878
:101D2600FF90EF90DF90CF90BF90AF909F908F90F5
:021D360008950E
:101D3800EF92FF920F931F93CF93DF931F92CDB72C
:101D4800DEB769838A01E22E60E00E94DA13F82E7A
:101D5800882369F161E0CE0101960E946613F82E8E
:101D6800811104C083E08093A40821C0E0EAF8E070
:101D780087818160878381E08483858185FD0AC0AE
:101D8800858182FD07C0858183FD04C085818370BC
:101D9800833099F70E940B17882329F083E08093FA
:101DA800A408F12C04C06E2DC8010E9412138F2DB7
:101DB8000F90DF91CF911F910F91FF90EF900895B1
:101DC80083E192E80E94391184E392E80E94391174
:101DD8008DE792E80E9406120E94FF138FE992E8AD
:101DE8000E9406120E94FF138AEB92E80E94D1100B
:101DF8000E94FF138DEE92E80E9490120E94FF133A
:101E080080E293E80E9406120E94FF1380E393E8A1
:101E18000E9406120E94FF1388E493E80E940612AB
:101E28000E94FF1389E593E80E9406120E94FF139F
:101E380084E693E80E9439112AE684E091E0215073
:0A1E480080409040E1F700C00895CB
:101E52001F920F920FB60F9211242F933F934F931D
:101E62005F936F937F938F939F93AF93BF93EF9300
:101E7200FF933B9B05C0E091CA3AF091CB3A09959A
:101E82003A9B05C0E091C83AF091C93A09953D9B49
:101E920005C0E091C63AF091C73A09953E9B05C04C
:101EA200E091C43AF091C53A09958FEF87B9FF9155
:101EB200EF91BF91AF919F918F917F916F915F91C0
:101EC2004F913F912F910F900FBE0F901F90189539
:101ED200EF92FF920F931F93CF93DF93E091A93874
:101EE200F091AA38238121FF29C08C01D0E0C0E003
:101EF20087EAE82E88E3F82EF80181918F01882382
:101F020081F0D70112966D917C911397DB0118969F
:101F1200ED91FC9119970995892B71F3DFEFCFEFC2
:101F2200EBCF6091A9387091AA38DB011896ED9138
:101F3200FC9119978AE00995892B19F08FEF9FEF91
:101F420002C08D2F9C2FCDB7DEB7E6E00C948D1525
:101F5200E89409C097FB3EF4909580957095619541
:101F62007F4F8F4F9F4F9923A9F0F92F96E9BB27F7
:101F72009395F695879577956795B795F111F8CF73
:101F8200FAF4BB0F11F460FF1BC06F5F7F4F8F4FDE
:101F92009F4F16C0882311F096E911C0772321F0D4
:101FA2009EE8872F762F05C0662371F096E8862F6C
:101FB20070E060E02AF09A95660F771F881FDAF7C3
:0A1FC200880F9695879597F908950A
:101FCC000F931F93CF93DF93FB01238121FD03C05C
:101FDC008FEF9FEF2CC022FF16C0468157812481C2
:101FEC0035814217530744F4A081B1819D012F5FC5
:101FFC003F4F208331838C93268137812F5F3F4F56
:10200C002683378314C08B01EC01FB010084F1851E
:10201C00E02D0995892BE1F6D80116968D919C91AE
:10202C001797019616968D939C931797CE01DF9177
:08203C00CF911F910F9108954F
:1020440008C029F416F00C946F180C9426180C94FC
:10205400AF180E944F14A8F39638A0F707F80F9210
:10206400E8942BE33AEA48EB5FE70E94A40B0F9253
:102074000F920F924DB75EB70F920E94A111E6E83E
:10208400F0E00E948D134F915F91EF91FF91E595E0
:10209400EE1FFF1F49F0FE57E0684427EE0F441F70
:1020A400FA95E1F74195550B0E945D100F9007FEDC
:0620B4000C94EC170895E6
:1020BA0004C00C946F180C9443170E944F14D8F361
:1020CA009923C9F3940F511DA3F39150504094F0F2
:1020DA0059F0882332F0660F771F881F91505040BD
:1020EA00C1F79E3F51052CF7880F911D969587954C
:1020FA0097F908955F3FACF0983E9CF0BB27869510
:10210A0077956795B79508F4B1609395C1F7BB0FBA
:10211A0058F711F460FFE8CF6F5F7F4F8F4F9F4FE3
:06212A00E3CF0C9427181E
:102130001F920F920FB60F9211242F933F934F933C
:102140005F936F937F938F939F93AF93BF93EF931F
:10215000FF931F9B05C0E091D03AF091D13A0995C9
:102160001A9B05C0E091CE3AF091CF3A0995199BA0
:1021700005C0E091CC3AF091CD3A09958FEF83B943
:10218000FF91EF91BF91AF919F918F917F916F914F
:102190005F914F913F912F910F900FBE0F901F9025
:0221A000189590
:1021A200EF92FF921F93CF93DF937C0188ED91E82A
:1021B2000E943911C7010E9405112AE684E091E0CC
:1021C200215080409040E1F700C010E009C00E9419
:1021D2005118882341F00E948D170E94A3181F5F97
:1021E200E701C10FD11D88818111F1CF2AE684E078
:1021F20091E0215080409040E1F700C0DF91CF9103
:082202001F91FF90EF90089579
:10220A000F931F93CF938C01FC014081C091DB3A5D
:10221A002C2F30E0A091DC3AB0E0C90101968A1770
:10222A009B07F1F04423E1F090E0CF5FF901E35519
:10223A00F74C40835C2F590F9F5FF801E90FF11D9E
:10224A004081252F30E0B9016F5F7F4F6A177B0706
:10225A0019F45093DB3A04C04111E8CF5093DB3AAA
:08226A00CF911F910F9108951F
:10227200EF92FF920F931F93CF93FC0120812223B1
:1022820029F17C01E0E0F8E0848180648483F70135
:102292008081811114C016C00E9439188823E1F38D
:1022A200F80180810E942717CF5F87010C0F111D53
:1022B200F8019081992331F0CF3F71F703C0870174
:1022C200C0E0EACF0E943F188111FCCFCF911F914D
:0822D2000F91FF90EF900895B9
:1022DA000A0D456E746572696E67202573207374E2
:1022EA006174650A0D006E756D54783A2025640A8A
:1022FA00000D52783A2000494E49540049444C4551
:10230A00004A4F494E004A4F494E5F4143434550A8
:10231A0054004745545F44415441005452414E537E
:10232A004D4954005245434549564500534C45458D
:08233A005000524553455400C8
:10234200FA01DC01AA0FBB1F9B01AC01BF5728F4A5
:10235200222733274427507820C0B75190F4AB2F5F
:102362000024469537952795011CA395D2F30020AA
:1023720071F0220F331F441FB395DAF30ED00C9481
:102382000A1861307105A0E88A07B94630F49B014A
:10239200AC016627772788279078309621F0208332
:0823A200318342835383089547
:1023AA00CF93DF93CDB7DEB72697CDBFDEBF85EFDC
:1023BA008983809110388A8342E0BE016F5F7F4F24
:1023CA0086E70E94DA1582EF8B8380914D388C83E1
:1023DA0042E0BE016D5F7F4F86E70E94DA1584EF07
:1023EA008D83809156388E8342E0BE016B5F7F4FAA
:1023FA0086E70E94DA152696CDBFDEBFDF91CF9120
:02240A00089533
:10240C00FF920F931F93CF93DF938C0181ED91E893
:10241C000E943911C8010E943911C8010E9405118E
:10242C00F12C09C00E945118882341F00E948D178D
:10243C000E94A318F394E801CF0DD11D888181115E
:10244C00F1CF2AE684E091E0215080409040E1F702
:0E245C0000C0DF91CF911F910F91FF90089566
:10246A000E944F1488F09F5798F0B92F9927B751B7
:10247A00B0F0E1F0660F771F881F991F1AF0BA951E
:10248A00C9F714C0B13091F00E942618B1E008953E
:10249A000C942618672F782F8827B85F39F0B93F30
:1024AA00CCF3869577956795B395D9F73EF49095D1
:0E24BA008095709561957F4F8F4F9F4F0895CD
:1024C800E0E0F8E08DE695E080879187158280EC62
:1024D800868383E0878313861486168615868CEB9D
:1024E80098E180930238909303388DEB98E18093BC
:1024F8000038909301388EEB98E1809304389093DC
:1025080005381092D23A1092D33A8DEA9AE3809322
:08251800A9389093AA38089538
:10252000EF92FF921F93CF93DF937C0180EF91E8AE
:102530000E943911C7010E9405112AE684E091E04A
:10254000215080409040E1F700C010E009C00E9497
:102550005118882341F00E948D170E94A3181F5F15
:10256000E701C10FD11D88818111F1CFDF91CF919A
:082570001F91FF90EF90089508
:1025780040E068ED80E690E00E948E1841E168ED49
:1025880081E690E00E948E1840E068ED82E690E0D7
:102598000E948E1840E068ED83E690E00E948E1855
:1025A80040E068ED80E790E00E948E1840E068ED1A
:1025B80088E790E00E948E1840E068ED8CE790E094
:0625C8000E948E18089528
:1025CE001F920F920FB60F9211242F933F934F939A
:1025DE005F936F937F938F939F93AF93BF93EF937D
:1025EE00FF935B9B05C0E091C23AF091C33A099507
:1025FE008FEF8BB9FF91EF91BF91AF919F918F911B
:10260E007F916F915F914F913F912F910F900FBEE0
:06261E000F901F901895BB
:1026240020E22093A5086623D1F0A82FB92F90E0CB
:10263400E0EAF8E022E0858185FD17C0858182FD0E
:1026440007C0858183FD04C085818370833099F739
:1026540080858D939F5F691711F02483ECCF87E009
:102664008093A40808952483E6CF80858D939F5F8B
:062674006913F9CFF4CF59
:10267A000E943318882321F00E949A180E94C515D7
:10268A000E944B18882321F00E94A0180E94EF157F
:10269A000E946318882341F00E943918882321F088
:1026AA000E9498170E949D180E945D18882341F085
:1026BA000E945118882321F00E948D170E94A318A6
:0226CA00089571
:1026CC00662309F1DC016150262F30E02F5F3F4F6C
:1026DC00280F391FE0EAF8E09D919087958195FDD0
:1026EC000AC0958192FD07C0958193FD04C0958128
:1026FC009370933099F7958194FD07C0A217B30797
:0E270C0059F781E0089581E0089580E0089576
:10271A00DF93CF931F930F93FF92EF92DF927B0188
:10272A008C01689406C0DA2EEF010E94910BFE011B
:10273A00E894A5912591359145915591A6F3EF011C
:10274A000E94FB0BFE019701A801DA9469F7DF905A
:0E275A00EF90FF900F911F91CF91DF910895A6
:10276800E0E2F8E087EE90E080879187158280ECC0
:10277800868383E0878313861486168615868FEBF7
:1027880098E1809306389093073880EC98E180931D
:1027980008389093093881EC98E180930A3890932F
:0C27A8000B381092D43A1092D53A0895E4
:1027B4009091A50893709330E1F0880F682B609393
:1027C400A708E0EAF8E0858185FD0AC0858182FDDD
:1027D40007C0858183FD04C085818370833099F7A8
:1027E4000E940B17882339F083E08093A40880E0CB
:0A27F400089580E0089581E0089543
:1027FE00CF9388E092E80E94391188E080934504D7
:10280E000E944B18882321F00E94A0180E94EF15F9
:10281E000E9463188823A1F30E943918882381F33C
:10282E000E949817C82F0E949D18CA3049F788E059
:08283E0080934604CF91089538
:10284600CF93DF93EC010E9480180E94A3170E9489
:10285600111868830E94530E0E9435126A837B8387
:102866000E94AE170E94351269830E9403188C835A
:102876000E9475178D830E9461168E83CE010E9479
:08288600AF0ADF91CF91089524
:10288E0057FD9058440F551F59F05F3F71F0479513
:10289E00880F97FB991F61F09F3F79F087950895F8
:1028AE00121613061406551FF2CF4695F1DF08C017
:1028BE00161617061806991FF1CF86957105610534
:0428CE0008940895CD
:1028D200A1E21A2EAA1BBB1BFD010DC0AA1FBB1F22
:1028E200EE1FFF1FA217B307E407F50720F0A21B94
:1028F200B30BE40BF50B661F771F881F991F1A9401
:1029020069F760957095809590959B01AC01BD012A
:04291200CF01089554
:102916001F920F920FB60F9211248F939F93EF93EE
:10292600FF938091D83A9091D93A01968093D83AFC
:102936009093D93AE0E4F1E083898160838BFF913B
:10294600EF919F918F910F900FBE0F901F9018954A
:10295600883E2AE0920710F087EE9AE0873A24E054
:10296600920710F487EA94E0BC01675A744080E04D
:1029760090E00E94A90F20E030E040E85DE30E946D
:0C29860096180E94351284E6861B089506
:10299200CF93DF93EC0185E096E80E94391180E93C
:1029A20091E80E9439118AE196E80E943911CE011C
:1029B2000E9439118EE296E80E940511CE010E9412
:0829C2000511DF91CF9108958A
:1029CA00CF93DF93EC0185E096E80E94391180E904
:1029DA0091E80E9439118DE396E80E943911CE01DF
:1029EA000E94391183E596E80E940511CE010E94E2
:0829FA000511DF91CF91089552
:102A02000E94041682EC92EA0197F1F700C00E943C
:102A1200570860E080E00E94ED1641E061E081E04D
:102A22000E94811781E00E94AC180E94D51181E0BA
:062A32008093DA3A0895DA
:102A3800E0E0F6E0118280E28187828313828FEFE3
:102A480080871386178280E18287148287E08487D3
:102A580080E38587168E178E148E158E81E080830D
:042A680080E008956D
:102A6C00CF93DF9300D0CDB7DEB7809156388C7FF3
:102A7C0081608093563894EF99838A8342E0BE013B
:102A8C006F5F7F4F86E70E94DA150F900F90DF91F2
:042A9C00CF91089539
:102AA0002F923F924F925F926F927F928F929F925E
:102AB000AF92BF92CF92DF92EF92FF920F931F934C
:102AC000CF93DF93CDB7DEB7CA1BDB0BCDBFDEBF25
:022AD000099467
:102AD2001F920F920FB60F9211248F93EF93FF93D1
:102AE200E0E0F6E080E2858380E1858388E085830B
:102AF200FF91EF918F910F900FBE0F901F9018953D
:102B02002A88398848885F846E847D848C849B847B
:102B1200AA84B984C884DF80EE80FD800C811B8189
:102B2200AA81B981CE0FD11DCDBFDEBFED010895BF
:102B32001F920F920FB60F9211248F938091480427
:102B420084FF03C081E08093DF3A81E08093860AAC
:0C2B52008F910F900FBE0F901F901895F0
:102B5E00A0E0B0E0E5EBF5E10C946015AE014B5F43
:102B6E005F4FFA0161917191AF018091A9389091F7
:0C2B7E00AA380E943203E2E00C9491158A
:102B8A009091DB3A292F30E0B9016F5F7F4F409176
:102B9A00DC3A50E06417750739F0F901E355F74C50
:0A2BAA0080839F5F9093DB3A08954B
:102BB4001F93CF93DF93EB01142F60E00E94DA138D
:102BC400882339F0612FCE010E94661393E090931D
:0A2BD400A408DF91CF911F9108952E
:102BDE009091DD3A292F30E0B9016F5F7F4F409120
:102BEE00DE3A50E06417750739F0F901E355F64CFB
:0A2BFE0080839F5F9093DD3A0895F5
:102C0800CF93DF9300D0CDB7DEB780EE898386EB14
:102C18008A8342E0BE016F5F7F4F86E70E94DA1524
:0A2C28000F900F90DF91CF910895F7
:102C32000E94CF160E943F160E94FC170E94501657
:102C42000E94691778940E947B180E9419170E94AB
:082C5200B80D88950000FBCFCE
:102C5A008091D83A9091D93A843B910541F481E028
:102C6A008093DF3AE0E4F1E080818E7F80830E94E6
:042C7A003D13089569
:102C7E00E0E2F4E0808180688083848180688483D0
:102C8E00E0E4F4E080818F7E808384898860848B89
:022C9E00089597
:102CA000E0E8FAE08FEF9FEF8487958726E02183A5
:102CB00021E1248323E020838287938781E0858339
:022CC000089575
:102CC2000E9485189C01ADECBCEC0E94FC16969506
:102CD2008795969587959695879594E6981B892F63
:022CE200089553
:102CE400092E0394000C11F4882352F0BB0F40F416
:102CF400BF2B11F460FF04C06F5F7F4F8F4F9F4F56
:022D0400089530
:102D0600DB018F939F930E94B917BF91AF91A29F4A
:102D1600800D911DA39F900DB29F900D11240895D3
:102D2600E0E0F6E09485907C94879485892B8487EF
:0E2D360082858F7782878285816082870895EB
:102D44000E9493160E948A188823E1F3E0E0F6E0DB
:0E2D5400608971898289938921E02583089521
:102D62001F920F920FB60F9211248F9382E08093DD
:0E2D720005068F910F900FBE0F901F901895C1
:102D80001F920F920FB60F9211248F9381E08093C0
:0E2D900005068F910F900FBE0F901F901895A3
:102D9E000E94BC120E943A0A0E941C150E946412E4
:0E2DAE000E94B4130E9457180E9451170895F6
:102DBC0086EF93E80E94391184E392E80E9439115E
:0E2DCC0085E094E80E9406120E94FF1308950D
:102DDA0087708295807F2091103821786770962FAE
:0E2DEA00990F622F682B692B609310380895A3
:102DF800A29FB001B39FC001A39F700D811D112434
:0E2E0800911DB29F700D811D1124911D089522
:102E16008091A5088C7141F49091A508937081E08A
:0C2E2600933019F080E0089581E00895D9
:102E32000E94E417E0EAF8E084E0808381E0828384
:0C2E42009DEF95839FE0968383830895A5
:102E4E00CF93C82F0E943918882331F0E0E0F8E0C4
:0C2E5E00948190649483C283CF91089506
:102E6A008BEB9AE30E9423146BEB7AE387E598E3F2
:0C2E7A000E94670781E08093DF3A089512
:102E86009F3F31F0915020F4879577956795B795D8
:0C2E9600880F911D9695879597F9089577
:102EA20040E068ED80E191E00E948E18E0E1F1E0FF
:082EB2001282138280E00895F2
:102EBA00CF93C82F0E9439188823E1F3C0930208E0
:082ECA0080E090E0CF91089533
:102ED200E0E4F1E081E08783828B818980FDFDCF90
:082EE20089E48093500108957A
:102EEA000E94A31720E030E040EA50E40E940A184A
:082EFA000E943512862F089595
:102F02008295880F807E6770660F660F4370862BEE
:082F1200842B809356380895CA
:102F1A009091DC3AE92FF0E0E355F74C80819F5F0E
:062F2A009093DC3A0895CB
:102F30009091DE3AE92FF0E0E355F64C80819F5FF7
:062F40009093DE3A0895B3
:102F46000E9417090E94A90F20E030E048EC52E4E5
:062F56000E94921808958C
:102F5C000E946B060E94A90F20E030E040E85AE383
:062F6C000E949618089572
:102F72000E94FC16A59F900DB49F900DA49F800DFA
:062F8200911D11240895C9
:102F8800FC010590615070400110D8F7809590952C
:062F98008E0F9F1F08953B
:102F9E00FC016150704001900110D8F7809590951A
:062FAE008E0F9F1F089525
:102FB4000E94060E0E94A6180E94A91881E0809320
:042FC400DF3A089553
:102FC800E0E2F4E083E0818388E0808B818B0895E0
:102FD8009B01AC0160E070E080E89FE30C949218DC
:102FE800B7FF0C94B9170E94B917821B930B089569
:0E2FF800E0E8F1E084E4838B84E080AB089590
:0E30060087E00E94A216CB010E94AB14089531
:0E3014005058BB27AA270E94FB0B0C94721683
:0E3022000E9435126894B1110C94271808957D
:0E30300000240A9416161706180609060895BD
:0E303E0000240A9412161306140605060895BF
:0E304C00E894BB2766277727CB0197F90895F4
:0C305A00E0E0F8E0868180648683089541
:0C30660080910408881F8827881F0895A7
:0C3072008091040885FB882780F90895F0
:0C307E008091040886FB882780F90895E3
:0C308A00E0E0F8E086818068868308950D
:0C30960080912408881F8827881F089557
:0C30A2008091240885FB882780F90895A0
:0C30AE00E0EAF0E01082118280E008955A
:0C30BA008091DC3A9091DB3A891B08956C
:0C30C6008091DE3A9091DD3A891B08955C
:0C30D2000E94011581E08093DF3A089510
:0C30DE0097F99F6780E870E060E00895BB
:0C30EA00EE0FFF1F0590F491E02D0994FB
:0A30F6000E9445180E942D1808954D
:0A3100000E9436150E94AB090895E5
:0A310A008091D63A9091D73A0895CB
:08311400809105068170089509
:08311C00FC0164BF408308952B
:083124000E94220B0C947216AC
:08312C000E94910B0C94721635
:06313400809100080895DF
:06313A00809302080895D5
:06314000809120080895B3
:06314600809322080895A9
:06314C000E94E40E08954C
:063152000E94DE16089544
:0631580080934D3808953C
:06315E009FEF80EC0895D4
:043164000C940000C7
:023168000895C8
:02316A000895C6
:02316C000895C4
:02316E000895C2
:023170000895C0
:023172000895BE
:023174000895BC
:023176000895BA
:023178000895B8
:02317A000895B6
:02317C000895B4
:02317E000895B2
:023180000895B0
:023182000895AE
:0E31840000000002000000005D1700000000C7
:01319200013B
:02000004008278
:090000000000020000C40700002A
:00000001FF
