:100000000C9486000C949A180C949A180C949A18D4
:100010000C9460120C949A180C949A100C942B0F58
:100020000C949A180C949A180C949A180C949A1888
:100030000C949A180C9432120C949A180C949A18E6
:100040000C949A180C949A180C949A180C949A1868
:100050000C949A180C94B7150C94D9160C94CA16D3
:100060000C943F130C948E120C949A180C949A18BA
:100070000C949A180C949A1807634236B79BD8A729
:100080001A39685618AEBAAB558C1D3CB7CC5763BD
:10009000BD6DEDFD753EF6177231BF000000803F6B
:1000A00008000000BE922449123EABAAAA2ABECD87
:1000B000CCCC4C3E00000080BEABAAAAAA3E0000F9
:1000C0000000BF000000803F0000000000084178F1
:1000D000D3BB4387D1133D190E3CC3BD4282AD2B28
:1000E0003E68EC8276BED98FE1A93E4C80EFFFBE20
:1000F00001C4FF7F3F000000000038003AB1803AA1
:10010000B13ABF0031543ABF3AEC800011241FBE0F
:10011000CFEFCDBFDFE3DEBFEAEFF0E041E017C095
:10012000B591A59135912591059107FD0CC095914B
:100130008591EF01F92FE82F05900D92A217B307D3
:10014000D9F7FE0104C01D92A217B307E1F7EB3007
:10015000F40731F70E94E7150C94AE00F894FFCF36
:10016000ABE0B0E0E6EBF0E00C949E156C017B0197
:100170008A01FC0116821782838181FFCCC1CE01E6
:1001800001963C01F6019381F70193FD859193FF60
:1001900081917F01882309F4BAC1853239F493FD36
:1001A000859193FF81917F01853229F4B60190E01A
:1001B0000E94E80FE7CF912C212C312CFFE1F315A1
:1001C000D8F08B3279F038F4803279F08332A1F4B0
:1001D000232D20611DC08D3261F0803369F4232D01
:1001E000216016C0832D8260382EE32DE4603E2E00
:1001F0002AC0F32DF8601DC037FC2DC020ED280F5C
:100200002A3040F08E32B9F436FC81C1232D2064AF
:10021000322E19C036FE06C08AE0989E200D1124A9
:10022000922E11C0EAE02E9E200D1124222EF32DD5
:10023000F0623F2E08C08C3621F4832D8068382E62
:1002400002C0883641F4F70193FD859193FF8191B7
:100250007F018111B3CF982F9F7D9554933028F45F
:100260000C5F1F4F9FE399830DC0833631F08337B6
:1002700071F0833509F059C021C0F801808189836C
:100280000E5F1F4F88248394912C530113C02801C3
:10029000F2E04F0E511CF801A080B18036FE03C081
:1002A000692D70E002C06FEF7FEFC5010E94DD177E
:1002B0004C018201F32DFF773F2E16C0280122E06A
:1002C000420E511CF801A080B18036FE03C0692D9A
:1002D00070E002C06FEF7FEFC5010E94D2174C01A2
:1002E000F32DF0683F2E820133FC1BC0822D90E07D
:1002F00088169906B0F4B60180E290E00E94E80FFB
:100300002A94F4CFF50137FC859137FE81915F0186
:10031000B60190E00E94E80F21102A9421E0821A91
:1003200091088114910471F7E8C0843611F0893680
:1003300041F5F80137FE07C06081718182819381A8
:100340000C5F1F4F08C060817181072E000C880B65
:10035000990B0E5F1F4FF32DFF763F2E97FF09C0BD
:1003600090958095709561957F4F8F4F9F4FF06866
:100370003F2E2AE030E0A3010E94090D882E861846
:1003800045C0853731F4232D2F7EB22E2AE030E090
:1003900025C0932D997FB92E8F36C1F018F488357A
:1003A00079F0B5C0803719F0883721F0B0C0E92F57
:1003B000E061BE2EB4FE0DC0FB2DF460BF2E09C05F
:1003C00034FE0AC0292F2660B22E06C028E030E095
:1003D00005C020E130E002C020E132E0F801B7FEC4
:1003E00007C060817181828193810C5F1F4F06C0BD
:1003F0006081718180E090E00E5F1F4FA3010E9439
:10040000090D882E8618FB2DFF773F2E36FE0DC076
:10041000232D2E7FA22E891458F434FE0BC032FCFB
:1004200009C0832D8E7EA82E05C0B82CA32C03C036
:10043000B82C01C0B92CA4FE0FC0FE01E80DF11DBF
:100440008081803321F49A2D997EA92E09C0A2FEC5
:1004500006C0B394B39404C08A2D867809F0B3948F
:10046000A3FC11C0A0FE06C0B21488F4280C922C84
:100470009B180EC0B21460F4B60180E290E00E94B6
:10048000E80FB394F7CFB21418F42B1802C0982CCD
:10049000212CA4FE10C0B60180E390E00E94E80F7A
:1004A000A2FE17C0A1FC03C088E790E002C088E567
:1004B00090E0B6010CC08A2D867859F0A1FE02C0EA
:1004C0008BE201C080E2A7FC8DE2B60190E00E94C1
:1004D000E80F891438F4B60180E390E00E94E80F39
:1004E0009A94F7CF8A94F301E80DF11D8081B6014B
:1004F00090E00E94E80F8110F5CF222009F442CE4F
:10050000B60180E290E00E94E80F2A94F6CFF6014F
:100510008681978102C08FEF9FEF2B96E2E10C94CA
:02052000CF15F5
:100522000D526573657474696E67204C52322043B4
:100532006C69636B0A002D2D2D2D2D2D2D2D2D2D4A
:100542002D2D2D2D2D2D2D2D2D2D2D2D2D2D2D2DD9
:100552002D2D2D2D2D2D2D2D2D2D2D2D2D2D2D2DC9
:100562002D2D2D2D2D2D2D2D2D2D0A004669726D2F
:10057200776172653A20000D0A54783A20000D0A1C
:1005820054783A206D6163207365742061707073D2
:100592006B65790D0A000D0A54783A206D6163206B
:1005A200736574206E776B736B65790D0A000D525B
:1005B200783A20000A0A436F6E6669677572696E3F
:1005C20067204C523220436C69636B20466F722065
:1005D2004142500A002D2D2D2D2D2D2D2D2D2D2D4D
:1005E2002D2D2D2D2D2D2D2D2D2D2D2D2D2D2D2D39
:1005F2002D2D2D2D2D2D2D2D2D2D2D2D2D2D2D2D29
:100602002D2D2D2D2D2D2D2D2D2D2D2D2D2D2D2D18
:100612002D2D2D2D2D2D2D2D2D2D2D2D0A006D61E4
:10062200632073657420646576657569203730428E
:10063200334435374544303035323534420D0A00C3
:100642006D616320736574206465766164647220F1
:1006520032363043433242340D0A006D61632073F7
:10066200657420617070736B657920384438414439
:1006720039393843394638434135343645433631C2
:1006820046444437413345324132380D0A006D61E8
:100692006320736574206E776B736B6579203935CF
:1006A2003745323841444435374230394133424686
:1006B20039374536443346433236394343330D0ADC
:1006C200006D616320736574206172206F6E0D0A84
:1006D200006D61632073657420727864656C617962
:1006E2003120353030300D0A006D6163207365743E
:1006F20020616472206F6E0D0A006D616320736168
:1007020076650D0A000A0A000A0A436F6E66696777
:100712007572696E67204C523220436C69636B209C
:10072200666F72204F5441410A006D616320736508
:1007320074206170706B65792046343243333832ED
:1007420042423941383739463732323439394445F1
:100752004337454636354246330D0A006D61632004
:100762007365742061707065756920303030303087
:1007720030303030303030303030300D0A006D6182
:10078200632070617573650D0A006D616320726587
:1007920073756D650D0A000A0A4A6F696E696E67A4
:1007A2002054544E0A006D6163206A6F696E2061A5
:1007B20062700D0A006D6163206A6F696E206F744A
:1007C20061610D0A000A0A5472616E736D69747474
:1007D200696E6720446174610A000A54783A206D98
:1007E200616320747820636E6620343220006D616C
:1007F2006320747820636E6620343220000A5478B5
:100802003A206D616320747820756E636E662034C1
:100812003320006D616320747820756E636E6620EC
:04082200343320004B
:100826004F925F926F927F928F929F92AF92BF92FA
:10083600CF92DF92EF92FF92C0907538D0907638C3
:10084600E0907738F0907838F594E794D794C79489
:100856008AEFD81AE108F108C701B6019595879580
:100866007795679595958795779567959B01AC01E3
:100876000E949C164B015C01E9E7F8E3A285B3856B
:100886009B01AC01012E1DE055954795379527959F
:100896001A95D1F7102D0E94F8172B013C01689488
:1008A60012F875946794579447941694D1F7A085D7
:1008B600B185A70196010E94F817DC01CB01B59519
:1008C600A79597958795840D951DA61DB71D072E8F
:1008D60072E1B595A795979587957A95D1F7702D7D
:1008E6009C01AD0130584F4F5F4FA681B7810E94E2
:1008F600C7172B013C01032E3FE07594679457946C
:1009060047943A95D1F7302D41145104610471048E
:1009160009F4CEC0A5019401012E1BE0559547951B
:10092600379527951A95D1F7102DA089B1890E9480
:10093600F8174B015C01A685B785A70196010E94B1
:10094600F817DC01CB01880F991FAA1FBB1F880E61
:10095600991EAA1EBB1ED501C401B595A7959795EC
:100966008795B595A7959795879584849584092C41
:10097600000CAA08BB08540199248824880E991EE5
:10098600AA1EBB1E072E7CE0B594A7949794879465
:100996007A95D1F7702D80914E3890914F38A0916D
:1009A6005038B0915138A5019401280F391F4A1FBC
:1009B6005B1FABECB3EF0E94FB17805B9C43992354
:1009C6005CF0660F771F881F991FA30192010E9492
:1009D6009E1469017A010AC0A30192010E949E1425
:1009E60069017A01CC0CDD1CEE1CFF1CC701B601A7
:1009F600689412F896958795779567951694D1F72A
:100A06009B01AC010E949C169B01AC01012E1DE0CE
:100A160056954795379527951A95D1F7102DE9E7FD
:100A2600F8E3A689B7890E94F8174B015C01072EE7
:100A36007CE0B594A794979487947A95D1F7702D16
:100A4600A70196015695479537952795569547954B
:100A560037952795A489B5890E94F817DC01CB0143
:100A6600072E7DE0B595A795979587957A95D1F749
:100A7600702DB501A401480F591F6A1F7B1F82897B
:100A86009389092E000CAA0BBB0B840F951FA61F7A
:100A9600B71F689413F8B595A795979587951694FB
:100AA600D1F7BC01CD016C0D7D1D8E1D9F1D03C0B0
:100AB60060E070E0CB01FF90EF90DF90CF90BF90A9
:100AC600AF909F908F907F906F905F904F9008951A
:100AD6000A416674657220313030204D6F69737437
:100AE6007572652052656164696E6773002D2D2DE0
:100AF6002D2D2D2D2D2D2D2D2D2D2D2D2D2D2D2D20
:100B06002D2D2D2D2D2D2D2D2D2D2D2D2D2D2D2D0F
:100B16002D2D2D2D2D2D2D2D2D2D2D2D2D2D2D2DFF
:100B26002D2D2D2D2D2D2D2D2D2D2D2D2D2D2D2DEF
:100B36002D2D2D2D00546865204D4158207265617C
:100B460064696E67207761732025640A00546865BE
:100B5600204D494E2072656164696E672077617326
:100B66002025640A0A00546865204D4158206D61AD
:100B7600707320746F2025640A00546865204D49FF
:100B86004E206D61707320746F2025640A000A0A76
:100B960043757272656E742053656E736F7220446E
:100BA6006174610A002D2D2D2D2D2D2D2D2D2D2D10
:100BB6002D2D2D2D2D2D2D2D2D2D2D2D2D2D2D2D5F
:100BC6002D2D2D2D2D2D2D2D2D2D2D2D2D2D2D2D4F
:100BD6002D2D2D2D2D2D2D2D2D2D2D2D2D2D2D2D3F
:100BE6002D2D2D2D2D2D2D2D2D2D2D2D0A00526522
:100BF6006C61746976652048756D69646974793AC3
:100C06002025752525200D0A004D6F6973747572B0
:100C1600653A2025752525200D0A005072657373E7
:100C26007572653A202575206850610D0A00416984
:100C3600722054656D70657261747572653A20250F
:100C4600692043200D0A0042617474657279204C54
:100C56006576656C3A2025752525200D0A0A000A59
:100C66004A534F4E20466F726D61740D0050617984
:100C76006C6F61643A207B206169725F74656D7088
:100C86003A2025692C20626174746572793A2025B0
:100C9600752C2068756D69646974793A2025752C00
:100CA600206D6F6973747572653A2025752C2070F6
:100CB600726573737572653A2025752C206E756D95
:100CC60054783A2025750D0A0A7D003031323334C6
:0C0CD6003536373839414243444546006A
:100CE2004F925F926F927F928F929F92AF92BF923A
:100CF200CF92DF92EF92FF92809075389090763883
:100D0200A0907738B09078382CE2921A21E0A20AAB
:100D1200B108C0900C38D0900D38E0900E38F090A9
:100D22000F380B2EBEE0CC0CDD1CEE1CFF1CBA955E
:100D3200D1F7B02DE9E7F8E3848D958D092E000CEB
:100D4200AA0BBB0B072E74E1880F991FAA1FBB1FAA
:100D52007A95D1F7702DC81AD90AEA0AFB0AA68D2C
:100D6200B78DA50194010E94F817C61AD70AE80A9E
:100D7200F90A30E4D30EE11CF11C0B2EBFE0F5940E
:100D8200E794D794C794BA95D1F7B02DA38DB0E06C
:100D9200A50194010E94C7172B013C01032E3BE0E1
:100DA20075946794579447943A95D1F7302D40E85B
:100DB200540E611C711CA0A10A2E000CBB0BA501D4
:100DC20094010E94F817052E5AE09595879577951C
:100DD20067955A95D1F7502DA30192010E949C1656
:100DE200DC01CB01072E7AE0B595A79597958795FB
:100DF2007A95D1F7702D9C01AD01405E5F4FA18DB8
:100E0200B28D0E94F817DC01CB01905EAF4FBF4F4D
:100E1200BC01CD01052E5EE0959587957795679586
:100E22005A95D1F7502DA70196010E949C166B018D
:100E32007C01052E5FE095958795779567955A9584
:100E4200D1F7502D9B01AC010E949C169B01AC0175
:100E5200689416F855954795379527951694D1F7C6
:100E6200A08DB0E00E94C717DC01CB01689413F893
:100E7200B595A795979587951694D1F7A7019601F1
:100E8200281B390B4A0B5B0BDA01C9011AF480E00B
:100E920090E0DC0181309105A10539E1B30724F02E
:100EA20080E090E0A0E0B9E1BC01CD01052E5CE05C
:100EB20095958795779567955A95D1F7502DFF901F
:100EC200EF90DF90CF90BF90AF909F908F907F90E8
:080ED2006F905F904F900895AE
:100EDA00CF93DF93CDB7DEB76197CDBFDEBF21E1F8
:100EEA00E1EDFCE8DE01119601900D922A95E1F7F9
:100EFA00DB012C9122952F70E1E0F0E0EC0FFD1F51
:100F0A00E20FF11D2081FC0120832C912F70E1E07A
:100F1A00F0E0EC0FFD1FE20FF11D2081DC011196BC
:100F2A002C931197FB01218122952F70E1E0F0E0CB
:100F3A00EC0FFD1FE20FF11D208112962C93DB01AD
:100F4A0011962C9111972F70E1E0F0E0EC0FFD1F44
:100F5A00E20FF11D2081FC01238314962C91229526
:100F6A002F70E1E0F0E0EC0FFD1FE20FF11D208190
:100F7A00DC0114962C931497FB0124812F70E1E075
:100F8A00F0E0EC0FFD1FE20FF11D208115962C9366
:100F9A00DB0113964C911397242F22952F7030E082
:100FAA00E1E0F0E0EC0FFD1FE20FF31F2081FC01EE
:100FBA00268313962C9130E02F703327E1E0F0E07E
:100FCA00EC0FFD1FE20FF31F2081DC0117962C9313
:100FDA00DB011296ED91FC911397F295E295EF7071
:100FEA00EF27FF70EF27EF70FF2721E030E02C0F8B
:100FFA003D1FE20FF31F2081DC0118962C93DB01C1
:10100A001296ED91FC911397EF70FF2721E030E0E3
:10101A002C0F3D1FE20FF31F2081DC0119962C9340
:10102A001997FB01258122952F70E1E0F0E0EC0F82
:10103A00FD1FE20FF11D20811A962C93DB011596F4
:10104A002C9115972F70E1E0F0E0EC0FFD1FE20FF5
:10105A00F11D2081FC01238716962C9122952F7071
:10106A00E1E0F0E0EC0FFD1FE20FF11D2081DC0151
:10107A001C962C931C97FB0126812F70E1E0F0E06F
:10108A00EC0FFD1FE20FF11D20811D962C931D9779
:10109A002DE01E962C931E972AE01F962C931F97DD
:1010AA0050961C926196CDBFDEBFDF91CF91089515
:1010BA000F931F93CF93DF93CDB7DEB76897CDBF5A
:1010CA00DEBF28E1AE014F5F5F4F68E886E70E9406
:1010DA009E0E09E718E38A8190E0982F88272981D4
:1010EA00820F911DF801808391838C8190E0982F63
:1010FA0088272B81820F911D828393838E8190E0B2
:10110A00982F88272D81820F911D84839583888546
:10111A0090E0982F88272F81820F911D86839783CD
:10112A008A8590E0982F88272985820F911D8087CC
:10113A0091878C8590E0982F88272B85820F911DA7
:10114A00828793878E8590E0982F88272D85820F36
:10115A00911D84879587888990E0982F88272F8505
:10116A00820F911D868797878A8990E0982F882712
:10117A002989820F911D808B918B8C8990E0982F01
:10118A0088272B89820F911D828B938B8E8990E001
:10119A00982F88272D89820F911D848B958B888D96
:1011AA0090E0982F88272F89820F911D868B978B25
:1011BA0021E0AE014F5F5F4F61EA86E70E949E0E13
:1011CA008981F801808F27E0AE014F5F5F4F61EEA2
:1011DA0086E70E949E0E2A8130E0322F22279981CB
:1011EA00290F311DF801218F328F9B81938F9D81A9
:1011FA002C81F0E12F9F90011124492F4F70242B4D
:10120A00F801248F358F2E81F0E12F9F9001112450
:10121A0092959F70292BF801268F378F9F8190A373
:10122A006896CDBFDEBFDF91CF911F910F910895D0
:10123A008091E43A9091E53A80FF2CC08091E63A99
:10124A00813099F018F08230C9F01BC00E94080E54
:10125A000E9491180E94941881E08093E63AE0E295
:10126A00F4E084818F7784830CC083E08093E63A2C
:10127A00E0E2F4E084818068848303C083E08093A1
:10128A00E63A8091E43A9091E53A8E7F8093E43A87
:10129A009093E53A8091E63A833049F0843009F434
:1012AA0051C0813009F06DC00E9495130895E0E2A3
:1012BA00F4E084818F7784838FEB9AE30E9457143A
:1012CA006FEB7AE38AE998E30E946D074091E23A6C
:1012DA005091E33A9A01ADECBCEC0E942417969522
:1012EA00879596958795969587959C01220F331F2A
:1012FA00880F991F880F991F880F991F820F931FB4
:10130A004817590729F48AE998E30E94FC1404C093
:10131A008AE998E30E9418158091E23A9091E33A9B
:10132A0001968093E23A9093E33AE0E2F4E0848112
:10133A0080688483E0E4F1E080818160808384E0D6
:10134A008093E63A8091C63A9091C73AA091C83AFA
:10135A00B091C93A843B9105A105B10581F483E0B6
:10136A008093E63AE0E4F1E080818E7F80831092F8
:10137A00C63A1092C73A1092C83A1092C93A0E94D5
:04138A00951308951A
:10138E008F929F92AF92BF92CF92DF92EF92FF9287
:10139E008091523890915338A0915438B09155386D
:1013AE00E9E7F8E34081518160E070E06C017D0176
:1013BE00689413F8F594E794D794C7941694D1F7DC
:1013CE00C41AD50AE60AF70A689412F8B595A795D5
:1013DE00979587951694D1F7440F551F661F771F63
:1013EE004C015D01841A950AA60AB70AA50194015B
:1013FE00A281B3810E94F8174B015C01072E7BE09E
:10140E00B594A794979487947A95D1F7702DA701E8
:10141E009601C701B6010E949C169B01AC01012EDC
:10142E001CE055954795379527951A95D1F7102DB0
:10143E00A481B5810E94F817DC01CB01072E7EE056
:10144E00B595A795979587957A95D1F7702D880DB7
:10145E00991DAA1DBB1D8093753890937638A09365
:10146E007738B09378386C017D01CC0CDD1CEE1C06
:10147E00FF1CCC0CDD1CEE1CFF1C8C0D9D1DAE1D2F
:10148E00BF1D80589F4FAF4FBF4F692F7A2F8B2FA5
:10149E00992787FD9A95FF90EF90DF90CF90BF90A0
:0814AE00AF909F908F9008950C
:1014B600CF93DF93CDB7DEB72897CDBFDEBF28E049
:1014C600AE014F5F5F4F67EF86E70E949E0E8F81EA
:1014D60090E0A0E0B0E0BA2FA92F982F88272885A2
:1014E600822B80930C3890930D38A0930E38B093CE
:1014F6000F388C8190E0A0E0B0E0AC01BD01032E76
:101506003CE0440F551F661F771F3A95D1F7302DE3
:101516009D81892F90E0A0E0B0E0880F991FAA1F57
:10152600BB1F880F991FAA1FBB1F880F991FAA1FD1
:10153600BB1F880F991FAA1FBB1F842B952BA62B99
:10154600B72B2E8122952F70822B80935238909341
:101556005338A0935438B0935538898190E0A0E071
:10156600B0E0AC01BD01032E3CE0440F551F661FE1
:10157600771F3A95D1F7302D9A81892F90E0A0E018
:10158600B0E0880F991FAA1FBB1F880F991FAA1FBB
:10159600BB1F880F991FAA1FBB1F880F991FAA1F61
:1015A600BB1F842B952BA62BB72B2B8122952F7037
:1015B600822B80934E3890934F38A0935038B09337
:0E15C60051382896CDBFDEBFDF91CF9108953A
:1015D400CF93DF93C0E0D4E082E08883A0E2B4E05C
:1015E40084E68C93E0E4F4E088E080831C82149623
:1015F4001C9214971482188A198A1A8A1B8A1C8AC4
:101604001D8A1E8A1F8A50961C92509751961C92CE
:10161400519752961C92529753961C9253975496F4
:101624001C92549755961C92559756961C92569711
:1016340057961C92108A118A128A138A148A158A60
:10164400168A178AE0EEF5E0118210821382148262
:10165400158212828CE998E18093DC3A9093DD3A0A
:101664008DE998E18093DA3A9093DB3A8EE998E138
:101674008093D83A9093D93A8FE998E18093D63AF7
:101684009093D73A80EA98E18093D43A9093D53AEC
:1016940081EA98E18093D23A9093D33A82EA98E12E
:1016A4008093D03A9093D13A83EA98E18093CE3AEA
:0A16B4009093CF3ADF91CF91089593
:1016BE0010C00E94231858F00E941C1840F029F404
:1016CE005F3F29F00C94671851110C942B180C9451
:1016DE0097180E947C1468F39923B1F3552391F364
:1016EE00951B550BBB27AA2762177307840738F083
:1016FE009F5F5F4F220F331F441FAA1FA9F335D0E0
:10170E000E2E3AF0E0E832D091505040E695001C93
:10171E00CAF72BD0FE2F29D0660F771F881FBB1F4D
:10172E00261737074807AB07B0E809F0BB0B802D2B
:10173E00BF01FF2793585F4F3AF09E3F510578F057
:10174E000C9467180C942B185F3FE4F3983ED4F377
:10175E00869577956795B795F7959F5FC9F7880F2B
:10176E00911D9695879597F90895E1E0660F771F7D
:10177E00881FBB1F621773078407BA0720F0621B0E
:0E178E00730B840BBA0BEE1F88F7E0950895DD
:10179C00CF93DF93EC0184E99BE80E943B118BEA29
:1017AC009BE80E943B1189811F928F9384EF9BE8E9
:1017BC009F938F930E94FE158C811F928F938FE0C5
:1017CC009CE89F938F930E94FE158B818F938A8147
:1017DC008F9381E29CE89F938F930E94FE158881E2
:1017EC00282F082E000C330B3F938F9384E39CE837
:1017FC009F938F930E94FE158D811F928F938DE482
:10180C009CE89F938F930E94FE1585E69CE80E94AE
:10181C006B0F83EF9AE80E946B0F8E811F928F9350
:10182C008B818F938A818F938C811F928F93898167
:10183C001F928F938D811F928F938881282F082E52
:10184C00000C330B3F938F9383E79CE89F938F930C
:10185C000E94FE158DB79EB782968DBF9EBFDF91FD
:04186C00CF9108957B
:101870000FC00E941C1838F00E94231820F09523F6
:1018800011F00C9467180C94971811240C942B18D1
:101890000E947C1470F3959FC1F3950F50E0551F83
:1018A000629FF001729FBB27F00DB11D639FAA27B5
:1018B000F00DB11DAA1F649F6627B00DA11D661F04
:1018C000829F2227B00DA11D621F739FB00DA11D25
:1018D000621F839FA00D611D221F749F3327A00DDF
:1018E000611D231F849F600D211D822F762F6A2F7B
:1018F00011249F5750409AF0F1F088234AF0EE0FE0
:10190000FF1FBB1F661F771F881F91505040A9F70C
:101910009E3F510580F00C9467180C942B185F3F84
:10192000E4F3983ED4F3869577956795B795F79548
:10193000E7959F5FC1F7FE2B880F911D96958795C0
:0419400097F9089576
:1019440011C00E941C1838F00E94231820F039F4AA
:101954009F3F19F426F40C9497180EF4E095E7FBD6
:101964000C946718E92F0E947C1458F3BA17620785
:1019740073078407950720F079F4A6F50C942A18C8
:101984000EF4E0950B2EBA2FA02D0B01B901900196
:101994000C01CA01A0011124FF27591B99F0593FDA
:1019A40050F4503E68F11A16F040A22F232F342F22
:1019B4004427585FF3CF469537952795A795F04070
:1019C4005395C9F77EF41F16BA0B620B730B840B85
:1019D400BAF09150A1F0FF0FBB1F661F771F881F3D
:1019E400C2F70EC0BA0F621F731F841F48F4879595
:1019F40077956795B795F7959E3F08F0B0CF939587
:0E1A0400880F08F09927EE0F979587950895A3
:101A1200FA01AA27283051F1203181F1E8946F931D
:101A22006E7F6E5F7F4F8F4F9F4FAF4FB1E03ED0C3
:101A3200B4E03CD0670F781F891F9A1FA11D680F61
:101A4200791F8A1F911DA11D6A0F711D811D911D94
:101A5200A11D20D009F468943F912AE0269F112409
:101A62003019305D3193DEF6CF010895462F47706D
:101A7200405D4193B3E00FD0C9F7F6CF462F4F70C8
:101A8200405D4A3318F0495D31FD4052419302D026
:101A9200A9F7EACFB4E0A6959795879577956795CC
:101AA200BA95C9F700976105710508959B01AC01CC
:101AB2000A2E06945795479537952795BA95C9F7F3
:0C1AC200620F731F841F951FA01D089564
:101ACE0008C016F00C945D170C94971868940C943B
:101ADE0067180E948414A8F39923C1F3AEF3DF9321
:101AEE00CF931F930F93FF92C92FDD2788232AF0E0
:101AFE002197660F771F881FDAF720E030E040E865
:101B0E005FEB9FE3883920F0803E38F021968F7787
:101B1E000E940F18E0EAF0E004C00E940F18EDECEE
:101B2E00F0E00E94E5138B01BE01EC01FB2E6F5716
:101B3E0071097595771F880B990B0E94AD0F28E1DF
:101B4E0032E741E35FE30E94380CAF2D9801AE01FE
:101B5E00FF900F911F91CF91DF910E94A20C0C94D8
:021B6E008B16D4
:101B7000FA01EE0FFF1F309621053105A1F1611525
:101B8000710561F48038BFE39B0749F16894903890
:101B9000810561F08038BFEF9B0741F099234AF53A
:101BA000FF3FE1053105210519F1E8940894E79517
:101BB000D901AA2329F4AB2FBE2FF85FD0F310C0B0
:101BC000FF5F70F4A695E0F7F73950F019F0FF3A8F
:101BD00038F49F779F930DD00F9007FC905808958D
:101BE00046F00C94971860E070E080E89FE3089559
:101BF0004FE79F775F934F933F932F930E94670D1B
:101C00002F913F914F915F910E947E180C94241068
:101C1000CF9382E295E80E943B1188E395E80E9409
:101C20003B118EE695E80E943B11E5E2F4E080E48A
:101C300080832AE634E091E0215030409040E1F783
:101C400000C0809326042FE33DE093E02150304014
:101C50009040E1F700C0000080832AE634E081E094
:101C6000215030408040E1F700C088E08093450477
:101C70000E944318882321F00E9488180E9453165E
:101C80000E9437188823A1F30E94BC17C82F0E9416
:101C90004F17CA3069F79AE22CE23AE0915020409F
:0A1CA0003040E1F70000CF910895F5
:101CAA008F929F92AF92BF92CF92DF92EF92FF9262
:101CBA000E9413044B015C010E949B1724E036E545
:101CCA004AE150E40E940F1823E333E948E853E459
:101CDA000E940F189B01AC0164E076E58AE190E46A
:101CEA000E947A189B01AC0160E070E080E89FE3F3
:101CFA000E940E1828E539E348EA50EC0E94B80D14
:101D0A006B017C01C501B4010E94AB0F20E030E0F9
:101D1A0048EC52E40E947A18A70196010E947E18A4
:101D2A00FF90EF90DF90CF90BF90AF909F908F90F1
:021D3A0008950A
:101D3C00EF92FF920F931F93CF93DF931F92CDB728
:101D4C00DEB769838A01E22E60E00E943214F82E1D
:101D5C00882369F161E0CE0101960E94BE13F82E32
:101D6C00811104C083E08093A40821C0E0EAF8E06C
:101D7C0087818160878381E08483858185FD0AC0AA
:101D8C00858182FD07C0858183FD04C085818370B8
:101D9C00833099F70E943317882329F083E08093CE
:101DAC00A408F12C04C06E2DC8010E946A138F2D5B
:101DBC000F90DF91CF911F910F91FF90EF900895AD
:101DCC0086EB95E80E943B1187ED95E80E943B114C
:101DDC0080E296E80E94D4110E94DE1482E496E818
:101DEC000E94D4110E94DE148DE596E80E94D31057
:101DFC000E94DE1480E996E80E94E8120E94DE142C
:101E0C0083EC96E80E94D4110E94DE1483ED96E8D0
:101E1C000E94D4110E94DE148BEE96E80E94D4111D
:101E2C000E94DE148CEF96E80E94D4110E94DE14FE
:101E3C0087E097E80E943B112AE684E091E021506C
:0A1E4C0080409040E1F700C00895C7
:101E56001F920F920FB60F9211242F933F934F9319
:101E66005F936F937F938F939F93AF93BF93EF93FC
:101E7600FF933B9B05C0E091D63AF091D73A09957E
:101E86003A9B05C0E091D43AF091D53A09953D9B2D
:101E960005C0E091D23AF091D33A09953E9B05C030
:101EA600E091D03AF091D13A09958FEF87B9FF9139
:101EB600EF91BF91AF919F918F917F916F915F91BC
:101EC6004F913F912F910F900FBE0F901F90189535
:101ED600EF92FF920F931F93CF93DF93E091AD386C
:101EE600F091AE38238121FF29C08C01D0E0C0E0FB
:101EF6008BEAE82E88E3F82EF80181918F0188237A
:101F060081F0D70112966D917C911397DB0118969B
:101F1600ED91FC9119970995892B71F3DFEFCFEFBE
:101F2600EBCF6091AD387091AE38DB011896ED912C
:101F3600FC9119978AE00995892B19F08FEF9FEF8D
:101F460002C08D2F9C2FCDB7DEB7E6E00C94DB15D3
:101F5600E89409C097FB3EF490958095709561953D
:101F66007F4F8F4F9F4F9923A9F0F92F96E9BB27F3
:101F76009395F695879577956795B795F111F8CF6F
:101F8600FAF4BB0F11F460FF1BC06F5F7F4F8F4FDA
:101F96009F4F16C0882311F096E911C0772321F0D0
:101FA6009EE8872F762F05C0662371F096E8862F68
:101FB60070E060E02AF09A95660F771F881FDAF7BF
:0A1FC600880F9695879597F9089506
:101FD0000F931F93CF93DF93FB01238121FD03C058
:101FE0008FEF9FEF2CC022FF16C0468157812481BE
:101FF00035814217530744F4A081B1819D012F5FC1
:102000003F4F208331838C93268137812F5F3F4F51
:102010002683378314C08B01EC01FB010084F1851A
:10202000E02D0995892BE1F6D80116968D919C91AA
:102030001797019616968D939C931797CE01DF9173
:08204000CF911F910F9108954B
:1020480008C029F416F00C9467180C942A180C94FC
:1020580097180E948414A8F39638A0F707F80F92EF
:10206800E8942BE33AEA48EB5FE70E944B0C0F92A7
:102078000F920F924DB75EB70F920E946F11E8E76B
:10208800F0E00E94E5134F915F91EF91FF91E59584
:10209800EE1FFF1F49F0FE57E0684427EE0F441F6C
:1020A800FA95E1F74195550B0E945F100F9007FED6
:0620B8000C94F0170895DE
:1020BE0004C00C9467180C945D170E948414D8F316
:1020CE009923C9F3940F511DA3F39150504094F0EE
:1020DE0059F0882332F0660F771F881F91505040B9
:1020EE00C1F79E3F51052CF7880F911D9695879548
:1020FE0097F908955F3FACF0983E9CF0BB2786950C
:10210E0077956795B79508F4B1609395C1F7BB0FB6
:10211E0058F711F460FFE8CF6F5F7F4F8F4F9F4FDF
:06212E00E3CF0C942B1816
:102134001F920F920FB60F9211242F933F934F9338
:102144005F936F937F938F939F93AF93BF93EF931B
:10215400FF931F9B05C0E091DC3AF091DD3A0995AD
:102164001A9B05C0E091DA3AF091DB3A0995199B84
:1021740005C0E091D83AF091D93A09958FEF83B927
:10218400FF91EF91BF91AF919F918F917F916F914B
:102194005F914F913F912F910F900FBE0F901F9021
:0221A40018958C
:1021A600EF92FF921F93CF93DF937C0180E895E82F
:1021B6000E943B11C7010E9407112AE684E091E0C4
:1021C600215080409040E1F700C010E009C00E9415
:1021D6004918882341F00E94B1170E948B181F5F8F
:1021E600E701C10FD11D88818111F1CF2AE684E074
:1021F60091E0215080409040E1F700C0DF91CF91FF
:082206001F91FF90EF90089575
:10220E000F931F93CF938C01FC014081C091E83A4C
:10221E002C2F30E0A091E93AB0E0C90101968A175F
:10222E009B07F1F04423E1F090E0CF5FF901EF540A
:10223E00F74C40835C2F590F9F5FF801E90FF11D9A
:10224E004081252F30E0B9016F5F7F4F6A177B0702
:10225E0019F45093E83A04C04111E8CF5093E83A8C
:08226E00CF911F910F9108951B
:10227600EF92FF920F931F93CF93FC0120812223AD
:1022860029F17C01E0E0F8E0848180648483F70131
:102296008081811114C016C00E9437188823E1F38B
:1022A600F80180810E944F17CF5F87010C0F111D27
:1022B600F8019081992331F0CF3F71F703C0870170
:1022C600C0E0EACF0E943D188111FCCFCF911F914B
:0822D6000F91FF90EF900895B5
:1022DE00FA01DC01AA0FBB1F9B01AC01BF5728F40A
:1022EE00222733274427507820C0B75190F4AB2FC4
:1022FE000024469537952795011CA395D2F300200F
:10230E0071F0220F331F441FB395DAF30ED00C94E5
:10231E000E1861307105A0E88A07B94630F49B01AA
:10232E00AC016627772788279078309621F0208396
:08233E003183428353830895AB
:10234600CF93DF93CDB7DEB72697CDBFDEBF85EF40
:102356008983809110388A8342E0BE016F5F7F4F88
:1023660086E70E94141682EF8B8380914D388C830A
:1023760042E0BE016D5F7F4F86E70E94141684EF30
:102386008D83809156388E8342E0BE016B5F7F4F0E
:1023960086E70E9414162696CDBFDEBFDF91CF9149
:0223A600089598
:1023A800FF920F931F93CF93DF938C0189E795E8F2
:1023B8000E943B11C8010E943B11C8010E940711ED
:1023C800F12C09C00E944918882341F00E94B117D6
:1023D8000E948B18F394E801CF0DD11D88818111DB
:1023E800F1CF2AE684E091E0215080409040E1F767
:0E23F80000C0DF91CF911F910F91FF900895CB
:102406000E94841488F09F5798F0B92F9927B751E6
:10241600B0F0E1F0660F771F881F991F1AF0BA9582
:10242600C9F714C0B13091F00E942A18B1E008959E
:102436000C942A18672F782F8827B85F39F0B93F90
:10244600CCF3869577956795B395D9F73EF4909535
:0E2456008095709561957F4F8F4F9F4F089531
:102464001F920F920FB60F9211248F939F93AF93E5
:10247400BF93EF93FF938091CA3A9091CB3AA09186
:10248400CC3AB091CD3A0196A11DB11D8093CA3AC0
:102494009093CB3AA093CC3AB093CD3AE0E8FAE0EB
:1024A400868181608683FF91EF91BF91AF919F9167
:0C24B4008F910F900FBE0F901F90189595
:1024C0001F920F920FB60F9211248F939F93AF9389
:1024D000BF93EF93FF938091C63A9091C73AA09132
:1024E000C83AB091C93A0196A11DB11D8093C63A70
:1024F0009093C73AA093C83AB093C93AE0E4F1E0A8
:1025000083898160838BFF91EF91BF91AF919F9100
:0C2510008F910F900FBE0F901F90189538
:10251C001F920F920FB60F9211242F933F934F934C
:10252C005F936F937F938F939F93AF93BF93EF932F
:10253C00FF938091480484FF03C00E94061702C0D9
:10254C000E94551881E08093960AFF91EF91BF91FC
:10255C00AF919F918F917F916F915F914F913F912F
:0C256C002F910F900FBE0F901F9018953C
:10257800E0E0F8E08DE695E080879187158280ECB1
:10258800868383E08783138614861686158684EAF5
:1025980098E1809302389093033885EA98E1809314
:1025A80000389093013886EA98E180930438909334
:1025B80005381092DE3A1092DF3A81EB9AE3809365
:0825C800AD389093AE38089580
:1025D000EF92FF921F93CF93DF937C0188E995E8F8
:1025E0000E943B11C7010E9407112AE684E091E096
:1025F000215080409040E1F700C010E009C00E94E7
:102600004918882341F00E94B1170E948B181F5F60
:10261000E701C10FD11D88818111F1CFDF91CF91E9
:082620001F91FF90EF90089557
:1026280040E068ED80E690E00E94761841E168EDB0
:1026380081E690E00E94761840E068ED82E690E03E
:102648000E94761840E068ED83E690E00E947618D4
:1026580040E068ED80E790E00E94761840E068ED81
:1026680088E790E00E94761840E068ED8CE790E0FB
:062678000E94761808958F
:10267E001F920F920FB60F9211242F933F934F93E9
:10268E005F936F937F938F939F93AF93BF93EF93CC
:10269E00FF935B9B05C0E091CE3AF091CF3A09953E
:1026AE008FEF8BB9FF91EF91BF91AF919F918F916A
:1026BE007F916F915F914F913F912F910F900FBE30
:0626CE000F901F9018950B
:1026D40020E22093A5086623D1F0A82FB92F90E01B
:1026E400E0EAF8E022E0858185FD17C0858182FD5E
:1026F40007C0858183FD04C085818370833099F789
:1027040080858D939F5F691711F02483ECCF87E058
:102714008093A40808952483E6CF80858D939F5FDA
:062724006913F9CFF4CFA8
:10272A000E943118882321F00E9482180E943E16C6
:10273A000E944318882321F00E9488180E94531689
:10274A000E946118882341F00E943718882321F0DB
:10275A000E94BC170E9485180E945B18882341F0CA
:10276A000E944918882321F00E94B1170E948B18F1
:02277A000895C0
:10277C00662309F1DC016150262F30E02F5F3F4FBB
:10278C00280F391FE0EAF8E09D919087958195FD1F
:10279C000AC0958192FD07C0958193FD04C0958177
:1027AC009370933099F7958194FD07C0A217B307E6
:0E27BC0059F781E0089581E0089580E00895C6
:1027CA00DF93CF931F930F93FF92EF92DF927B01D8
:1027DA008C01689406C0DA2EEF010E94380CFE01C3
:1027EA00E894A5912591359145915591A6F3EF016C
:1027FA000E94A20CFE019701A801DA9469F7DF9002
:0E280A00EF90FF900F911F91CF91DF910895F5
:10281800E0E2F8E087EE90E080879187158280EC0F
:10282800868383E08783138614861686158687EA4F
:1028380098E1809306389093073888EA98E1809366
:1028480008389093093889EA98E180930A38909378
:0C2858000B381092E03A1092E13A08951B
:102864009091A50893709330E1F0880F682B6093E2
:10287400A708E0EAF8E0858185FD0AC0858182FD2C
:1028840007C0858183FD04C085818370833099F7F7
:102894000E943317882339F083E08093A40880E0F2
:0A28A400089580E0089581E0089592
:1028AE00CF93DF93EC010E946D180E949B170E943C
:1028BE00151868830E94550E0E9403126A837B834B
:1028CE000E94A6170E94031269830E9407188C8328
:1028DE000E9468168D838091E23A8F5F8E83CE01BF
:0A28EE000E94CE0BDF91CF910895F8
:1028F80057FD9058440F551F59F05F3F71F04795A9
:10290800880F97FB991F61F09F3F79F0879508958D
:10291800121613061406551FF2CF4695F1DF08C0AC
:10292800161617061806991FF1CF869571056105C9
:042938000894089562
:10293C00A1E21A2EAA1BBB1BFD010DC0AA1FBB1FB7
:10294C00EE1FFF1FA217B307E407F50720F0A21B29
:10295C00B30BE40BF50B661F771F881F991F1A9496
:10296C0069F760957095809590959B01AC01BD01C0
:04297C00CF010895EA
:10298000883E2AE0920710F087EE9AE0873A24E02A
:10299000920710F487EA94E0BC01675A744080E023
:1029A00090E00E94AB0F20E030E040E85DE30E9441
:0C29B0007E180E94031284E6861B089526
:1029BC00CF9380EB95E80E943B110E94431888232B
:1029CC0021F00E9488180E9453160E9461188823D7
:1029DC00A1F30E943718882381F30E94BC17C82FDB
:0C29EC000E948518CA3049F7CF91089569
:1029F800CF93DF93EC0187EC97E80E943B1188E3C3
:102A080095E80E943B118CED97E80E943B11CE019E
:102A18000E943B1180EF97E80E940711CE010E94A7
:082A28000711DF91CF91089521
:102A3000CF93DF93EC0187EC97E80E943B1188E38A
:102A400095E80E943B118FEF97E80E943B11CE0161
:102A50000E943B1185E198E80E940711CE010E9477
:082A60000711DF91CF910895E9
:102A6800E0E8FAE080E197E28487958780E1818356
:102A780081E0858393E09083E0E9FAE02FEF3FEF70
:102A88002487358746E0418341E144839083228748
:062A9800338785830895D9
:102A9E000E94291682EC92EA0197F1F700C00E947B
:102AAE005D0860E080E00E94F71641E061E081E0A1
:102ABE000E948F1781E00E948E180E94A31181E060
:062ACE008093E73A089531
:102AD400E0E0F6E0118280E28187828313828FEF47
:102AE40080871386178280E18287148287E0848737
:102AF40080E38587168E178E148E158E81E0808371
:042B040080E00895D0
:102B0800CF93DF9300D0CDB7DEB7809156388C7F56
:102B180081608093563894EF99838A8342E0BE019E
:102B28006F5F7F4F86E70E9414160F900F90DF911A
:042B3800CF9108959C
:102B3C002F923F924F925F926F927F928F929F92C1
:102B4C00AF92BF92CF92DF92EF92FF920F931F93AF
:102B5C00CF93DF93CDB7DEB7CA1BDB0BCDBFDEBF88
:022B6C000994CA
:102B6E001F920F920FB60F9211248F93EF93FF9334
:102B7E00E0E0F6E080E2858380E1858388E085836E
:102B8E00FF91EF918F910F900FBE0F901F901895A0
:102B9E002A88398848885F846E847D848C849B84DF
:102BAE00AA84B984C884DF80EE80FD800C811B81ED
:102BBE00AA81B981CE0FD11DCDBFDEBFED01089523
:102BCE000E94E8160E947A160E9400180E94341580
:102BDE000E94831778940E9441170E944F15E0E2DD
:0E2BEE00F4E084818F7784830E941D09FDCF5F
:102BFC00A0E0B0E0E4E0F6E10C94AE15AE014B5F62
:102C0C005F4FFA0161917191AF018091AD38909154
:0C2C1C00AE380E94B000E2E00C94DF151E
:102C28001F93CF93DF93EB01142F60E00E943214BF
:102C3800882339F0612FCE010E94BE1393E0909350
:0A2C4800A408DF91CF911F910895B9
:102C5200CF93DF9300D0CDB7DEB780EE898386EBCA
:102C62008A8342E0BE016F5F7F4F86E70E9414169F
:0A2C72000F900F90DF91CF910895AD
:102C7C009091E83A292F30E0B9016F5F7F4F409176
:102C8C00E93A50E06417750739F0F901EF54F74C45
:0A2C9C0080839F5F9093E83A08954B
:102CA6009091EA3A292F30E0B9016F5F7F4F40914A
:102CB600EB3A50E06417750739F0F901EF54F64C1A
:0A2CC60080839F5F9093EA3A08951F
:102CD0002091E23A3091E33AADECBCEC0E9424172B
:102CE00096958795969587959695879594E6981BE2
:042CF000892F08958B
:102CF400E0E2F4E08081806880838481806884835A
:102D0400E0E4F4E080818F7E808384898860848B12
:022D1400089520
:102D1600092E0394000C11F4882352F0BB0F40F4E3
:102D2600BF2B11F460FF04C06F5F7F4F8F4F9F4F23
:022D36000895FE
:102D3800DB018F939F930E94C717BF91AF91A29F0A
:102D4800800D911DA39F900DB29F900D11240895A1
:102D5800E0E0F6E09485907C94879485892B8487BD
:0E2D680082858F7782878285816082870895B9
:102D76000E94AC160E9472188823E1F3E0E0F6E0A8
:0E2D8600608971898289938921E025830895EF
:102D94001F920F920FB60F9211248F9382E08093AB
:0E2DA40005068F910F900FBE0F901F9018958F
:102DB2001F920F920FB60F9211248F9381E080938E
:0E2DC20005068F910F900FBE0F901F90189571
:102DD0000E9414130E94EA0A0E946A150E94BC1203
:0E2DE0000E940C140E944F180E946B17089559
:102DEE0087708295807F2091103821786770962F9A
:0E2DFE00990F622F682B692B6093103808958F
:102E0C00E0E2F4E08481806884838091E43A9091DC
:0E2E1C00E53A81608093E43A9093E53A089598
:102E2A0089E997E80E943B1187ED95E80E943B11DA
:0E2E3A0088EA97E80E94D4110E94DE140895E1
:102E4800A29FB001B39FC001A39F700D811D1124E3
:0E2E5800911DB29F700D811D1124911D0895D2
:102E66008091A5088C7141F49091A508937081E03A
:0C2E7600933019F080E0089581E0089589
:102E82000E94E817E0EAF8E084E0808381E0828330
:0C2E92009DEF95839FE096838383089555
:102E9E00CF93C82F0E943718882331F0E0E0F8E076
:0C2EAE00948190649483C283CF910895B6
:102EBA009F3F31F0915020F4879577956795B795A4
:0C2ECA00880F911D9695879597F9089543
:102ED60040E068ED80E191E00E947618E0E1F1E0E3
:082EE6001282138280E00895BE
:102EEE00CF93C82F0E9437188823E1F3C0930208AE
:082EFE0080E090E0CF910895FF
:102F0600E0E4F1E081E08783828B818980FDFDCF5B
:082F160089E480935001089545
:102F1E008295880F807E6770660F660F4370862BD2
:082F2E00842B809356380895AE
:102F36000E94C7090E94AB0F20E030E048EC52E443
:062F46000E947A180895B4
:102F4C000E9471060E94AB0F20E030E040E85AE38B
:062F5C000E947E1808959A
:102F62009091E93AE92FF0E0EF54F74C80819F5FAE
:062F72009093E93A089576
:102F78009091EB3AE92FF0E0EF54F64C80819F5F97
:062F88009093EB3A08955E
:102F8E000E942417A59F900DB49F900DA49F800DB5
:062F9E00911D11240895AD
:102FA400FC010590615070400110D8F78095909510
:062FB4008E0F9F1F08951F
:102FBA00FC016150704001900110D8F780959095FE
:062FCA008E0F9F1F089509
:102FD000E0E2F4E083E0818388E0808B818B0895D8
:102FE0009B01AC0160E070E080E89FE30C947A18EC
:102FF000B7FF0C94C7170E94C717821B930B089545
:0E300000E0E8F1E084E4838B84E082AB089585
:0E300E0087E00E94BB16CB010E94C0140895FB
:0E301C005058BB27AA270E94A20C0C948B16BA
:0E302A000E9403126894B1110C942B180895A3
:0E30380000240A9416161706180609060895B5
:0E30460000240A9412161306140605060895B7
:0E305400E894BB2766277727CB0197F90895EC
:0C30620080910408881F8827881F0895AB
:0C306E008091040885FB882780F90895F4
:0C307A008091040886FB882780F90895E7
:0C30860080912408881F8827881F089567
:0C3092008091240885FB882780F90895B0
:0C309E00E0EAF0E01082118280E008956A
:0C30AA00E0E2F4E084818F7784830895D5
:0C30B6008091E93A9091E83A891B089556
:0C30C2008091EB3A9091EA3A891B089546
:0C30CE0097F99F6780E870E060E00895CB
:0A30DA000E9484150E945B0A08950D
:0830E40080910506817008953A
:0830EC00FC0164BF408308955C
:0830F4000E945F0B0C948B1687
:0830FC000E94380C0C948B16A5
:063104008091000808950F
:06310A0080930208089505
:06311000809120080895E3
:06311600809322080895D9
:06311C0080934D38089578
:063122000E94E60E089574
:063128000E941517089536
:06312E009FEF80EC089504
:043134000C940000F7
:023138000895F8
:02313A000895F6
:02313C000895F4
:02313E000895F2
:023140000895F0
:023142000895EE
:023144000895EC
:023146000895EA
:023148000895E8
:02314A000895E6
:02314C000895E4
:02314E000895E2
:023150000895E0
:023152000895DE
:0E3154000000000200000000771700000000DD
:02000004008278
:090000000000020000C40700002A
:00000001FF
