:100000000C9486000C94AA190C94AA190C94AA19A1
:100010000C9497130C94AA190C9422100C94D111DF
:100020000C94AA190C94AA190C94AA190C94AA1944
:100030000C94AA190C9469130C94AA190C94AA197B
:100040000C94AA190C94AA190C94AA190C94AA1924
:100050000C94AA190C94BE160C94F4170C94E51782
:100060000C9462100C9473140C94AA190C94AA1991
:100070000C94AA190C94AA1907634236B79BD8A707
:100080001A39685618AEBAAB558C1D3CB7CC5763BD
:10009000BD6DEDFD753EF6177231BF000000803F6B
:1000A00008000000BE922449123EABAAAA2ABECD87
:1000B000CCCC4C3E00000080BEABAAAAAA3E0000F9
:1000C0000000BF000000803F0000000000084178F1
:1000D000D3BB4387D1133D190E3CC3BD4282AD2B28
:1000E0003E68EC8276BED98FE1A93E4C80EFFFBE20
:1000F00001C4FF7F3F0000000000340036B18036AD
:10010000B136BF00337A36BF3704800011241FBEDA
:10011000CFEFCDBFDFE3DEBFEAEFF0E041E017C095
:10012000B591A59135912591059107FD0CC095914B
:100130008591EF01F92FE82F05900D92A217B307D3
:10014000D9F7FE0104C01D92A217B307E1F7EB3007
:10015000F40731F70E948C160C94AE00F894FFCF90
:10016000ABE0B0E0E6EBF0E00C94A5166C017B018F
:100170008A01FC0116821782838181FFCCC1CE01E6
:1001800001963C01F6019381F70193FD859193FF60
:1001900081917F01882309F4BAC1853239F493FD36
:1001A000859193FF81917F01853229F4B60190E01A
:1001B0000E941F11E7CF912C212C312CFFE1F31568
:1001C000D8F08B3279F038F4803279F08332A1F4B0
:1001D000232D20611DC08D3261F0803369F4232D01
:1001E000216016C0832D8260382EE32DE4603E2E00
:1001F0002AC0F32DF8601DC037FC2DC020ED280F5C
:100200002A3040F08E32B9F436FC81C1232D2064AF
:10021000322E19C036FE06C08AE0989E200D1124A9
:10022000922E11C0EAE02E9E200D1124222EF32DD5
:10023000F0623F2E08C08C3621F4832D8068382E62
:1002400002C0883641F4F70193FD859193FF8191B7
:100250007F018111B3CF982F9F7D9554933028F45F
:100260000C5F1F4F9FE399830DC0833631F08337B6
:1002700071F0833509F059C021C0F801808189836C
:100280000E5F1F4F88248394912C530113C02801C3
:10029000F2E04F0E511CF801A080B18036FE03C081
:1002A000692D70E002C06FEF7FEFC5010E94E71873
:1002B0004C018201F32DFF773F2E16C0280122E06A
:1002C000420E511CF801A080B18036FE03C0692D9A
:1002D00070E002C06FEF7FEFC5010E94DC184C0197
:1002E000F32DF0683F2E820133FC1BC0822D90E07D
:1002F00088169906B0F4B60180E290E00E941F11C2
:100300002A94F4CFF50137FC859137FE81915F0186
:10031000B60190E00E941F1121102A9421E0821A58
:1003200091088114910471F7E8C0843611F0893680
:1003300041F5F80137FE07C06081718182819381A8
:100340000C5F1F4F08C060817181072E000C880B65
:10035000990B0E5F1F4FF32DFF763F2E97FF09C0BD
:1003600090958095709561957F4F8F4F9F4FF06866
:100370003F2E2AE030E0A3010E940B0E882E861843
:1003800045C0853731F4232D2F7EB22E2AE030E090
:1003900025C0932D997FB92E8F36C1F018F488357A
:1003A00079F0B5C0803719F0883721F0B0C0E92F57
:1003B000E061BE2EB4FE0DC0FB2DF460BF2E09C05F
:1003C00034FE0AC0292F2660B22E06C028E030E095
:1003D00005C020E130E002C020E132E0F801B7FEC4
:1003E00007C060817181828193810C5F1F4F06C0BD
:1003F0006081718180E090E00E5F1F4FA3010E9439
:100400000B0E882E8618FB2DFF773F2E36FE0DC073
:10041000232D2E7FA22E891458F434FE0BC032FCFB
:1004200009C0832D8E7EA82E05C0B82CA32C03C036
:10043000B82C01C0B92CA4FE0FC0FE01E80DF11DBF
:100440008081803321F49A2D997EA92E09C0A2FEC5
:1004500006C0B394B39404C08A2D867809F0B3948F
:10046000A3FC11C0A0FE06C0B21488F4280C922C84
:100470009B180EC0B21460F4B60180E290E00E94B6
:100480001F11B394F7CFB21418F42B1802C0982C94
:10049000212CA4FE10C0B60180E390E00E941F1141
:1004A000A2FE17C0A1FC03C088E790E002C088E567
:1004B00090E0B6010CC08A2D867859F0A1FE02C0EA
:1004C0008BE201C080E2A7FC8DE2B60190E00E94C1
:1004D0001F11891438F4B60180E390E00E941F11C7
:1004E0009A94F7CF8A94F301E80DF11D8081B6014B
:1004F00090E00E941F118110F5CF222009F442CE16
:10050000B60180E290E00E941F112A94F6CFF60116
:100510008681978102C08FEF9FEF2B96E2E10C94CA
:02052000D616ED
:100522000D526573657474696E67204C52322043B4
:100532006C69636B0A002D2D2D2D2D2D2D2D2D2D4A
:100542002D2D2D2D2D2D2D2D2D2D2D2D2D2D2D2DD9
:100552002D2D2D2D2D2D2D2D2D2D2D2D2D2D2D2DC9
:100562002D2D2D2D2D2D2D2D2D2D0A004669726D2F
:10057200776172653A20000D0A54783A20000D0A1C
:1005820054783A206D6163207365742061707073D2
:100592006B65790D0A000D0A54783A206D6163206B
:1005A200736574206E776B736B65790D0A000D525B
:1005B200783A20000A0A436F6E6669677572696E3F
:1005C20067204C523220436C69636B20466F722065
:1005D2004142500A002D2D2D2D2D2D2D2D2D2D2D4D
:1005E2002D2D2D2D2D2D2D2D2D2D2D2D2D2D2D2D39
:1005F2002D2D2D2D2D2D2D2D2D2D2D2D2D2D2D2D29
:100602002D2D2D2D2D2D2D2D2D2D2D2D2D2D2D2D18
:100612002D2D2D2D2D2D2D2D2D2D2D2D0A006D61E4
:10062200632073657420646576657569203730428E
:10063200334435374544303035363430330D0A00D3
:100642006D616320736574206465766164647220F1
:1006520032363043303333330D0A006D6163207319
:10066200657420617070736B657920383336463853
:1006720030394537364632393141353239433534EE
:1006820030413033373145343133370D0A006D6133
:100692006320736574206E776B736B6579204538C0
:1006A20034303935454132434636343637394430B1
:1006B20042323033313941313433393738390D0A26
:1006C200006D616320736574206172206F6E0D0A84
:1006D200006D61632073657420727864656C617962
:1006E2003120353030300D0A006D6163207365743E
:1006F20020616472206F6E0D0A006D616320736168
:1007020076650D0A000A0A000A0A436F6E66696777
:100712007572696E67204C523220436C69636B209C
:10072200666F72204F5441410A006D616320736508
:1007320074206170706B65792038333646383039F1
:100742004537364632393141353239433534304115
:100752003033373145343133370D0A006D61632050
:100762007365742061707065756920303030303087
:1007720030303030303030303030300D0A006D6182
:10078200632070617573650D0A006D616320726587
:1007920073756D650D0A000A0A4A6F696E696E67A4
:1007A2002054544E0A006D6163206A6F696E2061A5
:1007B20062700D0A006D6163206A6F696E206F744A
:1007C20061610D0A000A0A5472616E736D69747474
:1007D200696E6720446174610A000A54783A206D98
:1007E200616320747820636E6620343220006D616C
:1007F2006320747820636E6620343220000A5478B5
:100802003A206D616320747820756E636E662034C1
:100812003320006D616320747820756E636E6620EC
:04082200343320004B
:100826004F925F926F927F928F929F92AF92BF92FA
:10083600CF92DF92EF92FF92C0907534D0907634CB
:10084600E0907734F0907834F594E794D794C79491
:100856008AEFD81AE108F108C701B6019595879580
:100866007795679595958795779567959B01AC01E3
:100876000E94B7174B015C01E9E7F4E3A285B38553
:100886009B01AC01012E1DE055954795379527959F
:100896001A95D1F7102D0E9415192B013C01689469
:1008A60012F875946794579447941694D1F7A085D7
:1008B600B185A70196010E941519DC01CB01B595FA
:1008C600A79597958795840D951DA61DB71D072E8F
:1008D60072E1B595A795979587957A95D1F7702D7D
:1008E6009C01AD0130584F4F5F4FA681B7810E94E2
:1008F600D1182B013C01032E3FE075946794579461
:1009060047943A95D1F7302D41145104610471048E
:1009160009F4CEC0A5019401012E1BE0559547951B
:10092600379527951A95D1F7102DA089B1890E9480
:1009360015194B015C01A685B785A70196010E9492
:100946001519DC01CB01880F991FAA1FBB1F880E42
:10095600991EAA1EBB1ED501C401B595A7959795EC
:100966008795B595A7959795879584849584092C41
:10097600000CAA08BB08540199248824880E991EE5
:10098600AA1EBB1E072E7CE0B594A7949794879465
:100996007A95D1F7702D80914E3490914F34A09175
:1009A6005034B0915134A5019401280F391F4A1FC4
:1009B6005B1FABECB3EF0E941819805B9C43992335
:1009C6005CF0660F771F881F991FA30192010E9492
:1009D600A61569017A010AC0A30192010E94A61513
:1009E60069017A01CC0CDD1CEE1CFF1CC701B601A7
:1009F600689412F896958795779567951694D1F72A
:100A06009B01AC010E94B7179B01AC01012E1DE0B2
:100A160056954795379527951A95D1F7102DE9E7FD
:100A2600F4E3A689B7890E9415194B015C01072ECC
:100A36007CE0B594A794979487947A95D1F7702D16
:100A4600A70196015695479537952795569547954B
:100A560037952795A489B5890E941519DC01CB0124
:100A6600072E7DE0B595A795979587957A95D1F749
:100A7600702DB501A401480F591F6A1F7B1F82897B
:100A86009389092E000CAA0BBB0B840F951FA61F7A
:100A9600B71F689413F8B595A795979587951694FB
:100AA600D1F7BC01CD016C0D7D1D8E1D9F1D03C0B0
:100AB60060E070E0CB01FF90EF90DF90CF90BF90A9
:100AC600AF909F908F907F906F905F904F9008951A
:100AD6008091FA369091FB3680FF31C08091FF36C7
:100AE600813081F028F0823089F0853099F01EC07F
:100AF6000E94E00F0E94A1190E94A41981E0809330
:100B0600FF3614C083E08093FF3610C083E08093E5
:100B1600FF360CC086E08093FF368091FC369091BC
:100B2600FD3601968093FC369093FD368091FA3619
:100B36009091FB368E7F8093FA369093FB368091A8
:100B4600FF36833071F018F4813041F00895843017
:100B560009F448C0863009F465C008950E949D14C2
:100B660008958FEB96E30E945F156FEB76E38AE9B3
:100B760094E30E94A3084091F8365091F9369A0101
:100B8600ADECBCEC0E9421189695879596958795B5
:100B9600969587959C01220F331F880F991F880F02
:100BA600991F880F991F820F931F4817590729F419
:100BB6008AE994E30E94041604C08AE994E30E9439
:100BC60020168091F8369091F93601968093F83682
:100BD6009093F936E0E4F1E080818160808384E0DF
:100BE6008093FF368091D2369091D336A091D43639
:100BF600B091D536843B9105A105B10581F483E01A
:100C06008093FF36E0E4F1E080818E7F808310924E
:100C1600D2361092D3361092D4361092D5360E9420
:100C26009D1408958091FC369091FD368230910591
:100C3600F9F08330910589F1019709F068C01F9298
:100C460081E08F9382E29FE89F938F930E9405171E
:100C560085E08093FF362AE634E081E0215030407B
:100C66008040E1F700C00F900F900F900F9008950D
:100C76001F9282E08F9382E39FE89F938F930E9457
:100C860005178FEB96E30E945F1585E08093FF368C
:100C96000F900F900F900F9008951F9283E08F93FF
:100CA60081E49FE89F938F930E940517E5E0F4E0A7
:100CB60088E080839AE624E031E09150204030407D
:100CC600E1F700C0809306049FE32DE033E09150E6
:100CD60020403040E1F700C0000080839AE624E01F
:100CE60031E0915020403040E1F700C08093450448
:100CF6008AE29CE22AE0815090402040E1F7000021
:100D060085E08093FF360F900F900F900F90089517
:100D16000A416674657220313030204D6F697374F4
:100D26007572652052656164696E6773002D2D2D9D
:100D36002D2D2D2D2D2D2D2D2D2D2D2D2D2D2D2DDD
:100D46002D2D2D2D2D2D2D2D2D2D2D2D2D2D2D2DCD
:100D56002D2D2D2D2D2D2D2D2D2D2D2D2D2D2D2DBD
:100D66002D2D2D2D2D2D2D2D2D2D2D2D2D2D2D2DAD
:100D76002D2D2D2D00546865204D4158207265613A
:100D860064696E67207761732025640A005468657C
:100D9600204D494E2072656164696E6720776173E4
:100DA6002025640A0A00546865204D4158206D616B
:100DB600707320746F2025640A00546865204D49BD
:100DC6004E206D61707320746F2025640A000A0A34
:100DD60043757272656E742053656E736F7220442C
:100DE6006174610A002D2D2D2D2D2D2D2D2D2D2DCE
:100DF6002D2D2D2D2D2D2D2D2D2D2D2D2D2D2D2D1D
:100E06002D2D2D2D2D2D2D2D2D2D2D2D2D2D2D2D0C
:100E16002D2D2D2D2D2D2D2D2D2D2D2D2D2D2D2DFC
:100E26002D2D2D2D2D2D2D2D2D2D2D2D0A005265DF
:100E36006C61746976652048756D69646974793A80
:100E46002025752525200D0A004D6F69737475726E
:100E5600653A2025752525200D0A005072657373A5
:100E66007572653A202575206850610D0A00416942
:100E7600722054656D70657261747572653A2025CD
:100E8600692043200D0A0042617474657279204C12
:100E96006576656C3A2025752525200D0A0A000A17
:100EA6004A534F4E20466F726D61740D0050617942
:100EB6006C6F61643A207B206169725F74656D7046
:100EC6003A2025692C20626174746572793A20256E
:100ED600752C2068756D69646974793A2025752CBE
:100EE600206D6F6973747572653A2025752C2070B4
:100EF600726573737572653A2025752C206E756D53
:100F060054783A2025750D0A0A7D00303132333483
:100F160035363738394142434445460042656769AC
:100F26006E20546573742025640D0A00546573742D
:100F360020256420424D45323830005465737420B4
:080F46002564204C6F5261008C
:100F4E004F925F926F927F928F929F92AF92BF92CB
:100F5E00CF92DF92EF92FF9280907534909076341C
:100F6E00A0907734B09078342CE2921A21E0A20A45
:100F7E00B108C0900C34D0900D34E0900E34F09047
:100F8E000F340B2EBEE0CC0CDD1CEE1CFF1CBA95F4
:100F9E00D1F7B02DE9E7F4E3848D958D092E000C81
:100FAE00AA0BBB0B072E74E1880F991FAA1FBB1F3C
:100FBE007A95D1F7702DC81AD90AEA0AFB0AA68DBE
:100FCE00B78DA50194010E941519C61AD70AE80A11
:100FDE00F90A30E4D30EE11CF11C0B2EBFE0F594A0
:100FEE00E794D794C794BA95D1F7B02DA38DB0E0FE
:100FFE00A50194010E94D1182B013C01032E3BE068
:10100E0075946794579447943A95D1F7302D40E8EC
:10101E00540E611C711CA0A10A2E000CBB0BA50165
:10102E0094010E941519052E5AE09595879577958E
:10103E0067955A95D1F7502DA30192010E94B717CB
:10104E00DC01CB01072E7AE0B595A795979587958C
:10105E007A95D1F7702D9C01AD01405E5F4FA18D49
:10106E00B28D0E941519DC01CB01905EAF4FBF4FC0
:10107E00BC01CD01052E5EE0959587957795679518
:10108E005A95D1F7502DA70196010E94B7176B0103
:10109E007C01052E5FE095958795779567955A9516
:1010AE00D1F7502D9B01AC010E94B7179B01AC01EB
:1010BE00689416F855954795379527951694D1F758
:1010CE00A08DB0E00E94D118DC01CB01689413F81A
:1010DE00B595A795979587951694D1F7A701960183
:1010EE00281B390B4A0B5B0BDA01C9011AF480E09D
:1010FE0090E0DC0181309105A10539E1B30724F0C0
:10110E0080E090E0A0E0B9E1BC01CD01052E5CE0ED
:10111E0095958795779567955A95D1F7502DFF90B0
:10112E00EF90DF90CF90BF90AF909F908F907F9079
:08113E006F905F904F9008953F
:10114600CF93DF93CDB7DEB76197CDBFDEBF21E189
:10115600E1E1FFE8DE01119601900D922A95E1F793
:10116600DB012C9122952F70E1E0F0E0EC0FFD1FE2
:10117600E20FF11D2081FC0120832C912F70E1E00C
:10118600F0E0EC0FFD1FE20FF11D2081DC0111964E
:101196002C931197FB01218122952F70E1E0F0E05D
:1011A600EC0FFD1FE20FF11D208112962C93DB013F
:1011B60011962C9111972F70E1E0F0E0EC0FFD1FD6
:1011C600E20FF11D2081FC01238314962C912295B8
:1011D6002F70E1E0F0E0EC0FFD1FE20FF11D208122
:1011E600DC0114962C931497FB0124812F70E1E007
:1011F600F0E0EC0FFD1FE20FF11D208115962C93F8
:10120600DB0113964C911397242F22952F7030E013
:10121600E1E0F0E0EC0FFD1FE20FF31F2081FC017F
:10122600268313962C9130E02F703327E1E0F0E00F
:10123600EC0FFD1FE20FF31F2081DC0117962C93A4
:10124600DB011296ED91FC911397F295E295EF7002
:10125600EF27FF70EF27EF70FF2721E030E02C0F1C
:101266003D1FE20FF31F2081DC0118962C93DB0152
:101276001296ED91FC911397EF70FF2721E030E075
:101286002C0F3D1FE20FF31F2081DC0119962C93D2
:101296001997FB01258122952F70E1E0F0E0EC0F14
:1012A600FD1FE20FF11D20811A962C93DB01159686
:1012B6002C9115972F70E1E0F0E0EC0FFD1FE20F87
:1012C600F11D2081FC01238716962C9122952F7003
:1012D600E1E0F0E0EC0FFD1FE20FF11D2081DC01E3
:1012E6001C962C931C97FB0126812F70E1E0F0E001
:1012F600EC0FFD1FE20FF11D20811D962C931D970B
:101306002DE01E962C931E972AE01F962C931F976E
:1013160050961C926196CDBFDEBFDF91CF910895A6
:101326000F931F93CF93DF93CDB7DEB76897CDBFEB
:10133600DEBF28E1AE014F5F5F4F68E886E70E9497
:10134600530F09E714E38A8190E0982F88272981B3
:10135600820F911DF801808391838C8190E0982FF4
:1013660088272B81820F911D828393838E8190E043
:10137600982F88272D81820F911D848395838885D8
:1013860090E0982F88272F81820F911D868397835F
:101396008A8590E0982F88272985820F911D80875E
:1013A60091878C8590E0982F88272B85820F911D39
:1013B600828793878E8590E0982F88272D85820FC8
:1013C600911D84879587888990E0982F88272F8597
:1013D600820F911D868797878A8990E0982F8827A4
:1013E6002989820F911D808B918B8C8990E0982F93
:1013F60088272B89820F911D828B938B8E8990E093
:10140600982F88272D89820F911D848B958B888D27
:1014160090E0982F88272F89820F911D868B978BB6
:1014260021E0AE014F5F5F4F61EA86E70E94530FEE
:101436008981F801808F27E0AE014F5F5F4F61EE33
:1014460086E70E94530F2A8130E0322F22279981A6
:10145600290F311DF801218F328F9B81938F9D813A
:101466002C81F0E12F9F90011124492F4F70242BDE
:10147600F801248F358F2E81F0E12F9F90011124E2
:1014860092959F70292BF801268F378F9F8190A305
:101496006896CDBFDEBFDF91CF911F910F91089562
:1014A6008F929F92AF92BF92CF92DF92EF92FF926E
:1014B6008091523490915334A0915434B091553464
:1014C600E9E7F4E34081518160E070E06C017D0161
:1014D600689413F8F594E794D794C7941694D1F7C3
:1014E600C41AD50AE60AF70A689412F8B595A795BC
:1014F600979587951694D1F7440F551F661F771F4A
:101506004C015D01841A950AA60AB70AA501940141
:10151600A281B3810E9415194B015C01072E7BE065
:10152600B594A794979487947A95D1F7702DA701CF
:101536009601C701B6010E94B7179B01AC01012EA7
:101546001CE055954795379527951A95D1F7102D97
:10155600A481B5810E941519DC01CB01072E7EE01E
:10156600B595A795979587957A95D1F7702D880D9E
:10157600991DAA1DBB1D8093753490937634A09354
:101586007734B09378346C017D01CC0CDD1CEE1CF5
:10159600FF1CCC0CDD1CEE1CFF1C8C0D9D1DAE1D16
:1015A600BF1D80589F4FAF4FBF4F692F7A2F8B2F8C
:1015B600992787FD9A95FF90EF90DF90CF90BF9087
:0815C600AF909F908F900895F3
:1015CE00CF93DF93CDB7DEB72897CDBFDEBF28E030
:1015DE00AE014F5F5F4F67EF86E70E94530F8F811B
:1015EE0090E0A0E0B0E0BA2FA92F982F8827288589
:1015FE00822B80930C3490930D34A0930E34B093C1
:10160E000F348C8190E0A0E0B0E0AC01BD01032E60
:10161E003CE0440F551F661F771F3A95D1F7302DCA
:10162E009D81892F90E0A0E0B0E0880F991FAA1F3E
:10163E00BB1F880F991FAA1FBB1F880F991FAA1FB8
:10164E00BB1F880F991FAA1FBB1F842B952BA62B80
:10165E00B72B2E8122952F70822B8093523490932C
:10166E005334A0935434B0935534898190E0A0E064
:10167E00B0E0AC01BD01032E3CE0440F551F661FC8
:10168E00771F3A95D1F7302D9A81892F90E0A0E0FF
:10169E00B0E0880F991FAA1FBB1F880F991FAA1FA2
:1016AE00BB1F880F991FAA1FBB1F880F991FAA1F48
:1016BE00BB1F842B952BA62BB72B2B8122952F701E
:1016CE00822B80934E3490934F34A0935034B0932A
:0E16DE0051342896CDBFDEBFDF91CF91089525
:1016EC00CF93DF93C0E0D4E08AE08883A0E2B4E03B
:1016FC0084E28C93E0E4F4E08DE080831C82149609
:10170C001C9214971482188A198A1A8A1B8A1C8AAA
:10171C001D8A1E8A1F8A50961C92509751961C92B5
:10172C00519752961C92529753961C9253975496DB
:10173C001C92549755961C92559756961C925697F8
:10174C0057961C92108A118A128A138A148A158A47
:10175C00168A178AE0EEF5E0118210821382148249
:10176C00158212828CEA99E18093F2369093F336CB
:10177C008DEA99E18093F0369093F1368EEA99E1F7
:10178C008093EE369093EF368FEA99E18093EC36A6
:10179C009093ED3680EB99E18093EA369093EB369B
:1017AC0081EB99E18093E8369093E93682EB99E1ED
:1017BC008093E6369093E73683EB99E18093E43699
:1017CC009093E53684EB99E18093E2369093E3367F
:1017DC0085EB99E18093E0369093E13686EB99E1C5
:0E17EC008093DE369093DF36DF91CF91089523
:1017FA0010C00E94391958F00E94321940F029F499
:10180A005F3F29F00C94771951110C9441190C94EB
:10181A00A7190E94841568F39923B1F3552391F30C
:10182A00951B550BBB27AA2762177307840738F045
:10183A009F5F5F4F220F331F441FAA1FA9F335D0A2
:10184A000E2E3AF0E0E832D091505040E695001C56
:10185A00CAF72BD0FE2F29D0660F771F881FBB1F10
:10186A00261737074807AB07B0E809F0BB0B802DEE
:10187A00BF01FF2793585F4F3AF09E3F510578F01A
:10188A000C9477190C9441195F3FE4F3983ED4F312
:10189A00869577956795B795F7959F5FC9F7880FEE
:1018AA00911D9695879597F90895E1E0660F771F40
:1018BA00881FBB1F621773078407BA0720F0621BD1
:0E18CA00730B840BBA0BEE1F88F7E0950895A0
:1018D800CF93DF93EC0184ED9DE80E9472128BEEAA
:1018E8009DE80E94721289811F928F9384E39EE87B
:1018F8009F938F930E9405178C811F928F938FE47B
:101908009EE89F938F930E9405178B818F938A81FE
:101918008F9381E69EE89F938F930E940517888195
:10192800282F082E000C330B3F938F9384E79EE8F3
:101938009F938F930E9405178D811F928F938DE837
:101948009EE89F938F930E94051785EA9EE80E9460
:10195800A21083E39DE80E94A2108E811F928F93AC
:101968008B818F938A818F938C811F928F9389812A
:101978001F928F938D811F928F938881282F082E15
:10198800000C330B3F938F9383EB9EE89F938F93C9
:101998000E9405178DB79EB782968DBF9EBFDF91B7
:0419A800CF9108953E
:1019AC000FC00E94321938F00E94391920F095238B
:1019BC0011F00C9477190C94A71911240C9441195B
:1019CC000E94841570F3959FC1F3950F50E0551F3D
:1019DC00629FF001729FBB27F00DB11D639FAA2778
:1019EC00F00DB11DAA1F649F6627B00DA11D661FC7
:1019FC00829F2227B00DA11D621F739FB00DA11DE8
:101A0C00621F839FA00D611D221F749F3327A00DA1
:101A1C00611D231F849F600D211D822F762F6A2F3D
:101A2C0011249F5750409AF0F1F088234AF0EE0FA2
:101A3C00FF1FBB1F661F771F881F91505040A9F7CF
:101A4C009E3F510580F00C9477190C9441195F3F1F
:101A5C00E4F3983ED4F3869577956795B795F7950B
:101A6C00E7959F5FC1F7FE2B880F911D9695879583
:041A7C0097F9089539
:101A800011C00E94321938F00E94391920F039F43F
:101A90009F3F19F426F40C94A7190EF4E095E7FB88
:101AA0000C947719E92F0E94841558F3BA1762072E
:101AB00073078407950720F079F4A6F50C94401974
:101AC0000EF4E0950B2EBA2FA02D0B01B901900159
:101AD0000C01CA01A0011124FF27591B99F0593F9D
:101AE00050F4503E68F11A16F040A22F232F342FE5
:101AF0004427585FF3CF469537952795A795F04033
:101B00005395C9F77EF41F16BA0B620B730B840B47
:101B1000BAF09150A1F0FF0FBB1F661F771F881FFF
:101B2000C2F70EC0BA0F621F731F841F48F4879557
:101B300077956795B795F7959E3F08F0B0CF939549
:0E1B4000880F08F09927EE0F97958795089566
:101B4E00EF92FF920F931F938091C6369091C736F6
:101B5E00A091C836B091C9360196A11DB11D8093D2
:101B6E00C6369093C736A093C836B093C9368091C7
:101B7E00DA369091DB36A091DC36B091DD360091ED
:101B8E00D6361091D7362091D8363091D936BC0141
:101B9E00CD01601B710B820B930B28EE33E040E0FE
:101BAE0050E00E94A6152093CE363093CF36409348
:101BBE00D0365093D1368091CA369091CB36A091C3
:101BCE00CC36B091CD3679018A01E81AF90A0A0BA2
:101BDE001B0BD801C7010297A105B10580F08091BA
:101BEE00DA369091DB36A091DC36B091DD368093FB
:101BFE00D6369093D736A093D836B093D9361F9158
:081C0E000F91FF90EF90089583
:101C1600FA01AA27283051F1203181F1E8946F9317
:101C26006E7F6E5F7F4F8F4F9F4FAF4FB1E03ED0BD
:101C3600B4E03CD0670F781F891F9A1FA11D680F5B
:101C4600791F8A1F911DA11D6A0F711D811D911D8E
:101C5600A11D20D009F468943F912AE0269F112403
:101C66003019305D3193DEF6CF010895462F477067
:101C7600405D4193B3E00FD0C9F7F6CF462F4F70C2
:101C8600405D4A3318F0495D31FD4052419302D020
:101C9600A9F7EACFB4E0A6959795879577956795C6
:101CA600BA95C9F700976105710508959B01AC01C6
:101CB6000A2E06945795479537952795BA95C9F7ED
:0C1CC600620F731F841F951FA01D08955E
:101CD20008C016F00C945A180C94A71968940C9426
:101CE20077190E948C15A8F39923C1F3AEF3DF9301
:101CF200CF931F930F93FF92C92FDD2788232AF0DA
:101D02002197660F771F881FDAF720E030E040E85E
:101D12005FEB9FE3883920F0803E38F021968F7781
:101D22000E942519E0EAF0E004C00E942519EDECBA
:101D3200F0E00E94ED148B01BE01EC01FB2E6F5707
:101D420071097595771F880B990B0E94E41028E1A1
:101D520032E741E35FE30E94D60CAF2D9801AE015A
:101D6200FF900F911F91CF91DF910E94400D0C9433
:021D7200A617B2
:101D7400FA01EE0FFF1F309621053105A1F161151F
:101D8400710561F48038BFE39B0749F1689490388A
:101D9400810561F08038BFEF9B0741F099234AF534
:101DA400FF3FE1053105210519F1E8940894E79511
:101DB400D901AA2329F4AB2FBE2FF85FD0F310C0AA
:101DC400FF5F70F4A695E0F7F73950F019F0FF3A89
:101DD40038F49F779F930DD00F9007FC9058089587
:101DE40046F00C94A71960E070E080E89FE3089542
:101DF4004FE79F775F934F933F932F930E94690E12
:101E04002F913F914F915F910E948E190C945B1119
:101E14008F929F92AF92BF92CF92DF92EF92FF92F6
:101E24000E9413044B015C010E94A51824E036E5CE
:101E34004AE150E40E94251923E333E948E853E4D6
:101E44000E9425199B01AC0164E076E58AE190E4E7
:101E54000E948A199B01AC0160E070E080E89FE376
:101E64000E94241928E539E348EA50EC0E94BA0E8E
:101E74006B017C01C501B4010E94E21020E030E056
:101E840048EC52E40E948A19A70196010E948E1917
:101E9400FF90EF90DF90CF90BF90AF909F908F9086
:021EA40008959F
:101EA600EF92FF920F931F93CF93DF931F92CDB7BD
:101EB600DEB769838A01E22E60E00E943A15F82EA9
:101EC600882369F161E0CE0101960E94C614F82EBE
:101ED600811104C083E08093A40821C0E0EAF8E001
:101EE60087818160878381E08483858185FD0AC03F
:101EF600858182FD07C0858183FD04C0858183704D
:101F0600833099F70E943018882329F083E0809364
:101F1600A408F12C04C06E2DC8010E9448148F2D10
:101F26000F90DF91CF911F910F91FF90EF90089541
:101F360086EB95E80E94721287ED95E80E94721270
:101F460080E296E80E940B130E94E61582E496E86A
:101F56000E940B130E94E6158DE596E80E940A1270
:101F66000E94E61580E996E80E94F1130E94E615A4
:101F760083EC96E80E940B130E94E61583ED96E823
:101F86000E940B130E94E6158BEE96E80E940B1337
:101F96000E94E6158CEF96E80E940B130E94E61548
:101FA60087E097E80E9472122AE684E091E02150C9
:0A1FB60080409040E1F700C008955C
:101FC00082E295E80E94721288E395E80E947212FC
:101FD0008EE695E80E94721284E0809346042AE619
:101FE00034E081E0215030408040E1F700C0E5E07E
:101FF000F4E088E080839AE624E031E091502040CC
:102000003040E1F700C0809306049FE32DE033E009
:10201000915020403040E1F700C0000080839AE6F4
:1020200024E031E0915020403040E1F700C080933F
:1020300045048AE29CE22AE0815090402040E1F78A
:0420400000000895FF
:102044001F920F920FB60F9211242F933F934F9329
:102054005F936F937F938F939F93AF93BF93EF930C
:10206400FF931F9B05C0E091F236F091F33609957A
:102074001A9B05C0E091F036F091F1360995199B51
:1020840005C0E091EE36F091EF3609951B9B05C033
:10209400E091E636F091E73609958FEF83B9FF9129
:1020A400EF91BF91AF919F918F917F916F915F91CC
:1020B4004F913F912F910F900FBE0F901F90189545
:1020C4001F920F920FB60F9211242F933F934F93A9
:1020D4005F936F937F938F939F93AF93BF93EF938C
:1020E400FF93599B05C0E091E836F091E9360995D4
:1020F400589B05C0E091E236F091E33609955A9B6E
:1021040005C0E091E036F091E13609955B9B05C08E
:10211400E091DE36F091DF3609958FEF8BB9FF91B0
:10212400EF91BF91AF919F918F917F916F915F914B
:102134004F913F912F910F900FBE0F901F901895C4
:10214400EF92FF920F931F93CF93DF93E091AD34FF
:10215400F091AE34238121FF29C08C01D0E0C0E08E
:102164008BEAE82E84E3F82EF80181918F0188230D
:1021740081F0D70112966D917C911397DB0118962B
:10218400ED91FC9119970995892B71F3DFEFCFEF4E
:10219400EBCF6091AD347091AE34DB011896ED91C4
:1021A400FC9119978AE00995892B19F08FEF9FEF1D
:1021B40002C08D2F9C2FCDB7DEB7E6E00C94E2165B
:1021C400E89409C097FB3EF49095809570956195CD
:1021D4007F4F8F4F9F4F9923A9F0F92F96E9BB2783
:1021E4009395F695879577956795B795F111F8CFFF
:1021F400FAF4BB0F11F460FF1BC06F5F7F4F8F4F6A
:102204009F4F16C0882311F096E911C0772321F05F
:102214009EE8872F762F05C0662371F096E8862FF7
:1022240070E060E02AF09A95660F771F881FDAF74E
:0A223400880F9695879597F9089595
:10223E000F931F93CF93DF93FB01238121FD03C0E7
:10224E008FEF9FEF2CC022FF16C04681578124814D
:10225E0035814217530744F4A081B1819D012F5F50
:10226E003F4F208331838C93268137812F5F3F4FE1
:10227E002683378314C08B01EC01FB010084F185AA
:10228E00E02D0995892BE1F6D80116968D919C913A
:10229E001797019616968D939C931797CE01DF9103
:0822AE00CF911F910F910895DB
:1022B60008C029F416F00C9477190C9440190C9464
:1022C600A7190E948C15A8F39638A0F707F80F9265
:1022D600E8942BE33AEA48EB5FE70E94E90C0F9299
:1022E6000F920F924DB75EB70F920E94A612E8E7C3
:1022F600F0E00E94ED144F915F91EF91FF91E5950B
:10230600EE1FFF1F49F0FE57E0684427EE0F441FFB
:10231600FA95E1F74195550B0E9496110F9007FE2D
:062326000C940D1908954E
:10232C0004C00C9477190C945A180E948C15D8F38D
:10233C009923C9F3940F511DA3F39150504094F07D
:10234C0059F0882332F0660F771F881F9150504048
:10235C00C1F79E3F51052CF7880F911D96958795D7
:10236C0097F908955F3FACF0983E9CF0BB2786959B
:10237C0077956795B79508F4B1609395C1F7BB0F46
:10238C0058F711F460FFE8CF6F5F7F4F8F4F9F4F6F
:06239C00E3CF0C9441198F
:1023A2001F920F920FB60F9211242F933F934F93C8
:1023B2005F936F937F938F939F93AF93BF93EF93AB
:1023C200FF933B9B05C0E091EC36F091ED36099509
:1023D2003A9B05C0E091EA36F091EB3609953D9BB8
:1023E20005C0E091E436F091E53609958FEF87B9A3
:1023F200FF91EF91BF91AF919F918F917F916F91DB
:102402005F914F913F912F910F900FBE0F901F90B0
:0224120018951B
:10241400EF92FF921F93CF93DF937C0180E895E8BE
:102424000E947212C7010E943E122AE684E091E0E3
:10243400215080409040E1F700C010E009C00E94A4
:102444005F19882341F00E94BB180E949B191F5FEB
:10245400E701C10FD11D88818111F1CF2AE684E003
:1024640091E0215080409040E1F700C0DF91CF918E
:082474001F91FF90EF90089505
:10247C000F931F93CF938C01FC014081C0910037C7
:10248C002C2F30E0A0910137B0E0C90101968A17DA
:10249C009B07F1F04423E1F090E0CF5FF901EF549A
:1024AC00FB4C40835C2F590F9F5FF801E90FF11D26
:1024BC004081252F30E0B9016F5F7F4F6A177B0792
:1024CC0019F45093003704C04111E8CF50930037F2
:0824DC00CF911F910F910895AB
:1024E400EF92FF920F931F93CF93FC01208122233D
:1024F40029F17C01E0E0F8E0848180648483F701C1
:102504008081811114C016C00E944D198823E1F303
:10251400F80180810E944C18CF5F87010C0F111DB8
:10252400F8019081992331F0CF3F71F703C08701FF
:10253400C0E0EACF0E9453198111FCCFCF911F91C3
:082544000F91FF90EF90089544
:10254C00FA01DC01AA0FBB1F9B01AC01BF5728F499
:10255C00222733274427507820C0B75190F4AB2F53
:10256C000024469537952795011CA395D2F300209E
:10257C0071F0220F331F441FB395DAF30ED00C9475
:10258C00241961307105A0E88A07B94630F49B0123
:10259C00AC016627772788279078309621F0208326
:0825AC0031834283538308953B
:1025B400CF93DF93CDB7DEB72697CDBFDEBF85EFD0
:1025C4008983809110348A8342E0BE016F5F7F4F1C
:1025D40086E70E941B1782EF8B8380914D348C8396
:1025E40042E0BE016D5F7F4F86E70E941B1784EFB8
:1025F4008D83809156348E8342E0BE016B5F7F4FA2
:1026040086E70E941B172696CDBFDEBFDF91CF91D0
:02261400089527
:10261600FF920F931F93CF93DF938C0189E795E881
:102626000E947212C8010E947212C8010E943E12D4
:10263600F12C09C00E945F19882341F00E94BB1843
:102646000E949B19F394E801CF0DD11D8881811159
:10265600F1CF2AE684E091E0215080409040E1F7F6
:0E26660000C0DF91CF911F910F91FF9008955A
:102674000E948C1588F09F5798F0B92F9927B7516D
:10268400B0F0E1F0660F771F881F991F1AF0BA9512
:10269400C9F714C0B13091F00E944019B1E0089517
:1026A4000C944019672F782F8827B85F39F0B93F09
:1026B400CCF3869577956795B395D9F73EF49095C5
:0E26C4008095709561957F4F8F4F9F4F0895C1
:1026D2001F920F920FB60F9211248F939F93AF9375
:1026E200BF93EF93FF938091DA369091DB36A091FE
:1026F200DC36B091DD360196A11DB11D8093DA362C
:102702009093DB36A093DC36B093DD36E0E8FAE056
:10271200868181608683FF91EF91BF91AF919F91F6
:0C2722008F910F900FBE0F901F90189524
:10272E001F920F920FB60F9211248F939F93AF9318
:10273E00BF93EF93FF938091D2369091D336A091B1
:10274E00D436B091D5360196A11DB11D8093D236E7
:10275E009093D336A093D436B093D536E0E4F1E01F
:10276E0083898160838BFF91EF91BF91AF919F9190
:0C277E008F910F900FBE0F901F901895C8
:10278A00E0E0F8E08DE695E080879187158280EC9D
:10279A00868383E08783138614861686158687EBDD
:1027AA0099E1809302349093033488EB99E1809302
:1027BA0000349093013489EB99E180930434909327
:1027CA0005341092F4361092F53681EB96E3809335
:0827DA00AD349093AE34089574
:1027E200EF92FF921F93CF93DF937C0188E995E8E4
:1027F2000E947212C7010E943E122AE684E091E012
:10280200215080409040E1F700C010E009C00E94D2
:102812005F19882341F00E94BB180E949B191F5F19
:10282200E701C10FD11D88818111F1CFDF91CF91D5
:082832001F91FF90EF90089543
:10283A0040E068ED80E690E00E94861941E168ED8B
:10284A0081E690E00E94861940E068ED82E690E019
:10285A000E94861940E068ED83E690E00E9486199E
:10286A0040E068ED80E790E00E94861940E068ED5C
:10287A0088E790E00E94861940E068ED8CE790E0D6
:06288A000E94861908956A
:1028900020E22093A5086623D1F0A82FB92F90E05D
:1028A000E0EAF8E022E0858185FD17C0858182FDA0
:1028B00007C0858183FD04C085818370833099F7CB
:1028C00080858D939F5F691711F02483ECCF87E09B
:1028D0008093A40808952483E6CF80858D939F5F1D
:0628E0006913F9CFF4CFEB
:1028E6001F920F920FB60F9211242F933F934F937F
:1028F6005F936F937F938F939F93AF93BF93EF9362
:10290600FF938091480481FD0E94F21881E0809334
:10291600960AFF91EF91BF91AF919F918F917F9111
:102926006F915F914F913F912F910F900FBE0F9036
:042936001F90189541
:10293A000E944719882321F00E9492190E94451784
:10294A000E945919882321F00E9498190E945A1747
:10295A000E947119882341F00E944D19882321F0A1
:10296A000E94C6180E9495190E946B19882341F08B
:10297A000E945F19882321F00E94BB180E949B19AC
:02298A000895AE
:10298C00662309F1DC016150262F30E02F5F3F4FA9
:10299C00280F391FE0EAF8E09D919087958195FD0D
:1029AC000AC0958192FD07C0958193FD04C0958165
:1029BC009370933099F7958194FD07C0A217B307D4
:0E29CC0059F781E0089581E0089580E00895B4
:1029DA00DF93CF931F930F93FF92EF92DF927B01C6
:1029EA008C01689406C0DA2EEF010E94D60CFE0113
:1029FA00E894A5912591359145915591A6F3EF015A
:102A0A000E94400DFE019701A801DA9469F7DF9050
:0E2A1A00EF90FF900F911F91CF91DF910895E3
:102A2800E0E2F8E087EE90E080879187158280ECFD
:102A3800868383E0878313861486168615868AEB39
:102A480099E180930634909307348BEB99E1809356
:102A58000834909309348CEB99E180930A3490936D
:0C2A68000B341092F6361092F7360895E9
:102A74009091A50893709330E1F0880F682B6093D0
:102A8400A708E0EAF8E0858185FD0AC0858182FD1A
:102A940007C0858183FD04C085818370833099F7E5
:102AA4000E943018882339F083E08093A40880E0E2
:0A2AB400089580E0089581E0089580
:102ABE00CF93DF93EC010E947D190E94A5180E940E
:102ACE002B1968830E940A0F0E943A136A837B8334
:102ADE000E94B0180E943A1369830E94FC188C83DE
:102AEE000E9483178D838091F8368F5F8E83CE017F
:0A2AFE000E946C0CDF91CF91089547
:102B080057FD9058440F551F59F05F3F71F0479596
:102B1800880F97FB991F61F09F3F79F0879508957B
:102B2800121613061406551FF2CF4695F1DF08C09A
:102B3800161617061806991FF1CF869571056105B7
:042B48000894089550
:102B4C00A1E21A2EAA1BBB1BFD010DC0AA1FBB1FA5
:102B5C00EE1FFF1FA217B307E407F50720F0A21B17
:102B6C00B30BE40BF50B661F771F881F991F1A9484
:102B7C0069F760957095809590959B01AC01BD01AE
:042B8C00CF010895D8
:102B9000883E2AE0920710F087EE9AE0873A24E018
:102BA000920710F487EA94E0BC01675A744080E011
:102BB00090E00E94E21020E030E040E85DE30E94F7
:0C2BC0008E190E943A1384E6861B0895CB
:102BCC00CF9380EB95E80E9472120E9459198823CA
:102BDC0021F00E9498190E945A170E94711988239B
:102BEC00A1F30E944D19882381F30E94C618C82FA7
:0C2BFC000E949519CA3049F7CF91089546
:102C0800CF93DF93EC0187EC97E80E94721288E378
:102C180095E80E9472128CED97E80E947212CE011C
:102C28000E94721280EF97E80E943E12CE010E9425
:082C38003E12DF91CF910895D7
:102C4000CF93DF93EC0187EC97E80E94721288E340
:102C500095E80E9472128FEF97E80E947212CE01DF
:102C60000E94721285E198E80E943E12CE010E94F5
:082C70003E12DF91CF9108959F
:102C7800E0E8FAE080E197E28487958780E1818344
:102C880081E0858393E09083E0E9FAE02FE730E084
:102C98002487358746E0418341E144839083228736
:062CA800338785830895C7
:102CAE000E94301782EC92EA0197F1F700C00E9461
:102CBE00930960E080E00E94031841E061E081E04A
:102CCE000E94991881E00E949E190E94DA1281E0FA
:062CDE008093FE3608950C
:102CE400CF93DF9300D0CDB7DEB7809156348C7F7D
:102CF40081608093563494EF99838A8342E0BE01C5
:102D04006F5F7F4F86E70E941B170F900F90DF9134
:042D1400CF910895BE
:102D18000E9468180E94EE160E941D190E946F17E3
:102D28000E943C160E948D180E94951778940E9464
:102D38003E180E94571684E0809346040E946B0553
:022D4800FDCFBD
:102D4A002F923F924F925F926F927F928F929F92B1
:102D5A00AF92BF92CF92DF92EF92FF920F931F939F
:102D6A00CF93DF93CDB7DEB7CA1BDB0BCDBFDEBF78
:022D7A000994BA
:102D7C001F920F920FB60F9211248F93EF93FF9324
:102D8C00E0E0F6E080E2858380E1858388E085835E
:102D9C00FF91EF918F910F900FBE0F901F90189590
:102DAC002A88398848885F846E847D848C849B84CF
:102DBC00AA84B984C884DF80EE80FD800C811B81DD
:102DCC00AA81B981CE0FD11DCDBFDEBFED01089513
:102DDC00E0E4F4E08081816080838481816084837D
:102DEC0080818D7F808381898860818B80E1809355
:0E2DFC002104E0E0F4E080818064808308958B
:102E0A00A0E0B0E0EBE0F7E10C94B516AE014B5F41
:102E1A005F4FFA0161917191AF018091AD34909148
:0C2E2A00AE340E94B000E2E00C94E6160A
:102E36001F93CF93DF93EB01142F60E00E943A15A6
:102E4600882339F0612FCE010E94C61493E0909337
:0A2E5600A408DF91CF911F910895A9
:102E6000CF93DF9300D0CDB7DEB780EE898386EBBA
:102E70008A8342E0BE016F5F7F4F86E70E941B1787
:0A2E80000F900F90DF91CF9108959D
:102E8A0090910037292F30E0B9016F5F7F4F409151
:102E9A00013750E06417750739F0F901EF54FB4C1C
:0A2EAA0080839F5F90930037089526
:102EB40090910237292F30E0B9016F5F7F4F409125
:102EC400033750E06417750739F0F901EF54FA4CF1
:0A2ED40080839F5F909302370895FA
:102EDE0082E08093E405E0E0FAE082E090E082A7F1
:102EEE0093A710A211A283E2818383E090E086A3D0
:082EFE0097A381E08083089591
:102F06002091F8363091F936ADECBCEC0E942118D0
:102F160096958795969587959695879594E6981BA9
:042F2600892F089552
:102F2A0087EF80931704E0E0F6E081E080838183F5
:102F3A0080E282838FEF808787E0848780E18287BF
:022F4A000895E8
:102F4C00092E0394000C11F4882352F0BB0F40F4AB
:102F5C00BF2B11F460FF04C06F5F7F4F8F4F9F4FEB
:022F6C000895C6
:102F6E00DB018F939F930E94D118BF91AF91A29FC7
:102F7E00800D911DA39F900DB29F900D1124089569
:102F8E00E0E0F6E09485907C94879485892B848785
:0E2F9E0082858F778287828581608287089581
:102FAC000E94C7170E9482198823E1F3E0E0F6E043
:0E2FBC00608971898289938921E025830895B7
:102FCA001F920F920FB60F9211248F9382E0809373
:0E2FDA0005068F910F900FBE0F901F90189557
:102FE8001F920F920FB60F9211248F9381E0809356
:0E2FF80005068F910F900FBE0F901F90189539
:1030060087708295807F2091103421786770962F83
:0E301600990F622F682B692B60931034089578
:1030240089E997E80E94721287ED95E80E9472126E
:0E30340088EA97E80E940B130E94E6150895A3
:10304200A29FB001B39FC001A39F700D811D1124E7
:0E305200911DB29F700D811D1124911D0895D6
:103060008091A5088C7141F49091A508937081E03E
:0C307000933019F080E0089581E008958D
:10307C000E940519E0EAF8E084E0808381E0828315
:0C308C009DEF95839FE096838383089559
:10309800CF93C82F0E944D19882331F0E0E0F8E063
:0C30A800948190649483C283CF910895BA
:1030B4009F3F31F0915020F4879577956795B795A8
:0C30C400880F911D9695879597F9089547
:1030D0000E941D140E94760B0E94C5130E941415B5
:0A30E0000E9465190E9475180895FA
:1030EA0040E068ED80E191E00E948619E0E1F1E0BC
:0830FA001282138280E00895A8
:10310200CF93C82F0E944D198823E1F3C093020880
:0831120080E090E0CF910895E8
:10311A00E0E4F1E081E08783828B818980FDFDCF45
:08312A0089E48093500108952F
:103132008295880F807E6770660F660F4370862BBC
:08314200842B8093563408959C
:10314A000E94530A0E94E21020E030E048EC52E468
:06315A000E948A1908958D
:103160000E94A7070E94E21020E030E040E85AE306
:063170000E948E19089573
:1031760090910137E92FF0E0EF54FB4C80819F5F7F
:063186009093013708954B
:10318C0090910337E92FF0E0EF54FA4C80819F5F68
:06319C0090930337089533
:1031A2000E942118A59F900DB49F900DA49F800DA1
:0631B200911D1124089597
:1031B800FC010590615070400110D8F780959095FA
:0631C8008E0F9F1F089509
:1031CE00FC016150704001900110D8F780959095E8
:0631DE008E0F9F1F0895F3
:1031E4008091FA369091FB3681608093FA36909301
:0431F400FB36089509
:1031F8000E94A70D87E00E94D617CB010E94C81530
:02320800089527
:10320A00E0E2F4E083E0818388E0808B818B08959B
:10321A009B01AC0160E070E080E89FE30C948A199E
:10322A00B7FF0C94D1180E94D118821B930B0895F2
:0E323A00E0E8F1E081E4838B84E082AB08954C
:0E3248005058BB27AA270E94400D0C94A617D1
:0E3256000E943A136894B1110C944119089526
:0E32640000240A941616170618060906089587
:0E32720000240A941216130614060506089589
:0E328000E894BB2766277727CB0197F90895BE
:0C328E0080910408881F8827881F08957D
:0C329A008091040885FB882780F90895C6
:0C32A6008091040886FB882780F90895B9
:0C32B20080912408881F8827881F089539
:0C32BE008091240885FB882780F9089582
:0C32CA00E0EAF0E01082118280E008953C
:0C32D6008091013790910037891B08950A
:0C32E2008091033790910237891B0895FA
:0C32EE0097F99F6780E870E060E00895A9
:0A32FA000E9472160E94E70A089570
:08330400809105068170089517
:08330C00FC0164BF4083089539
:083314000E94FD0B0C94A617AA
:08331C000E94D60C0C94A617C8
:06332400809100080895ED
:06332A00809302080895E3
:06333000809120080895C1
:06333600809322080895B7
:06333C0080934D3408955A
:063342000E949B0F08959C
:063348000E941218089516
:06334E009FEF80EC0895E2
:043354000C940000D5
:023358000895D6
:02335A000895D4
:02335C000895D2
:02335E000895D0
:023360000895CE
:023362000895CC
:023364000895CA
:023366000895C8
:023368000895C6
:02336A000895C4
:02336C000895C2
:02336E000895C0
:023370000895BE
:023372000895BC
:023374000895BA
:023376000895B8
:023378000895B6
:0E337A000000000200000000811800000000AA
:02000004008278
:090000000000020000C40700002A
:00000001FF
