:100000000C9486000C94E71A0C94E71A0C94E71AE7
:100010000C9489140C94E71A0C9414110C94C312C8
:100020000C94E71A0C94E71A0C94E71A0C94E71A4C
:100030000C94E71A0C945B140C94E71A0C94E71ACE
:100040000C94E71A0C94E71A0C94E71A0C94E71A2C
:100050000C94E71A0C940E180C9433190C94241970
:100060000C9454110C9465150C94E71A0C94E71A2F
:100070000C94E71A0C94E71A07634236B79BD8A78B
:100080001A39685618AEBAAB558C1D3CB7CC5763BD
:10009000BD6DEDFD753EF6177231BF000000803F6B
:1000A00008000000BE922449123EABAAAA2ABECD87
:1000B000CCCC4C3E00000080BEABAAAAAA3E0000F9
:1000C0000000BF000000803F0000000000084178F1
:1000D000D3BB4387D1133D190E3CC3BD4282AD2B28
:1000E0003E68EC8276BED98FE1A93E4C80EFFFBE20
:1000F00001C4FF7F3F0000000000340036B18036AD
:10010000B136BF0035F436BF3705800011241FBE5D
:10011000CFEFCDBFDFE3DEBFEAEFF0E041E017C095
:10012000B591A59135912591059107FD0CC095914B
:100130008591EF01F92FE82F05900D92A217B307D3
:10014000D9F7FE0104C01D92A217B307E1F7EB3007
:10015000F40731F70E94FF160C94AE00F894FFCF1D
:10016000E3076400E4075F00ED075A00FC07550051
:100170001308500031084B00560846008208410021
:10018000B6083C00F0083700320932007A092D0029
:10019000CA092800210A23007F0A1E00E40A190068
:1001A000500B1400C30B0F003E0C0A00BF0C0500DF
:0401B000480D0000F6
:1001B400ABE0B0E0E0EEF0E00C94F5176C017B01ED
:1001C4008A01FC0116821782838181FFCCC1CE0192
:1001D40001963C01F6019381F70193FD859193FF0C
:1001E40081917F01882309F4BAC1853239F493FDE2
:1001F400859193FF81917F01853229F4B60190E0C6
:100204000E941112E7CF912C212C312CFFE1F31520
:10021400D8F08B3279F038F4803279F08332A1F45B
:10022400232D20611DC08D3261F0803369F4232DAC
:10023400216016C0832D8260382EE32DE4603E2EAB
:100244002AC0F32DF8601DC037FC2DC020ED280F07
:100254002A3040F08E32B9F436FC81C1232D20645B
:10026400322E19C036FE06C08AE0989E200D112455
:10027400922E11C0EAE02E9E200D1124222EF32D81
:10028400F0623F2E08C08C3621F4832D8068382E0E
:1002940002C0883641F4F70193FD859193FF819163
:1002A4007F018111B3CF982F9F7D9554933028F40B
:1002B4000C5F1F4F9FE399830DC0833631F0833762
:1002C40071F0833509F059C021C0F8018081898318
:1002D4000E5F1F4F88248394912C530113C028016F
:1002E400F2E04F0E511CF801A080B18036FE03C02D
:1002F400692D70E002C06FEF7FEFC5010E94261ADE
:100304004C018201F32DFF773F2E16C0280122E015
:10031400420E511CF801A080B18036FE03C0692D45
:1003240070E002C06FEF7FEFC5010E941B1A4C0101
:10033400F32DF0683F2E820133FC1BC0822D90E028
:1003440088169906B0F4B60180E290E00E9411127A
:100354002A94F4CFF50137FC859137FE81915F0132
:10036400B60190E00E94111221102A9421E0821A11
:1003740091088114910471F7E8C0843611F089362C
:1003840041F5F80137FE07C0608171818281938154
:100394000C5F1F4F08C060817181072E000C880B11
:1003A400990B0E5F1F4FF32DFF763F2E97FF09C069
:1003B40090958095709561957F4F8F4F9F4FF06812
:1003C4003F2E2AE030E0A3010E94FD0E882E8618FD
:1003D40045C0853731F4232D2F7EB22E2AE030E03C
:1003E40025C0932D997FB92E8F36C1F018F4883526
:1003F40079F0B5C0803719F0883721F0B0C0E92F03
:10040400E061BE2EB4FE0DC0FB2DF460BF2E09C00A
:1004140034FE0AC0292F2660B22E06C028E030E040
:1004240005C020E130E002C020E132E0F801B7FE6F
:1004340007C060817181828193810C5F1F4F06C068
:100444006081718180E090E00E5F1F4FA3010E94E4
:10045400FD0E882E8618FB2DFF773F2E36FE0DC02D
:10046400232D2E7FA22E891458F434FE0BC032FCA7
:1004740009C0832D8E7EA82E05C0B82CA32C03C0E2
:10048400B82C01C0B92CA4FE0FC0FE01E80DF11D6B
:100494008081803321F49A2D997EA92E09C0A2FE71
:1004A40006C0B394B39404C08A2D867809F0B3943B
:1004B400A3FC11C0A0FE06C0B21488F4280C922C30
:1004C4009B180EC0B21460F4B60180E290E00E9462
:1004D4001112B394F7CFB21418F42B1802C0982C4D
:1004E400212CA4FE10C0B60180E390E00E941112FA
:1004F400A2FE17C0A1FC03C088E790E002C088E513
:1005040090E0B6010CC08A2D867859F0A1FE02C095
:100514008BE201C080E2A7FC8DE2B60190E00E946C
:100524001112891438F4B60180E390E00E9411128C
:100534009A94F7CF8A94F301E80DF11D8081B601F6
:1005440090E00E9411128110F5CF222009F442CECE
:10055400B60180E290E00E9411122A94F6CFF601CF
:100564008681978102C08FEF9FEF2B96E2E10C9476
:020574003E182F
:100576000D526573657474696E67204C5232204360
:100586006C69636B0A002D2D2D2D2D2D2D2D2D2DF6
:100596002D2D2D2D2D2D2D2D2D2D2D2D2D2D2D2D85
:1005A6002D2D2D2D2D2D2D2D2D2D2D2D2D2D2D2D75
:1005B6002D2D2D2D2D2D2D2D2D2D0A004669726DDB
:1005C600776172653A20000D0A54783A20000D0AC8
:1005D60054783A206D61632073657420617070737E
:1005E6006B65790D0A000D0A54783A206D61632017
:1005F600736574206E776B736B65790D0A000D5207
:10060600783A20000A0A436F6E6669677572696EEA
:1006160067204C523220436C69636B20466F722010
:100626004142500A002D2D2D2D2D2D2D2D2D2D2DF8
:100636002D2D2D2D2D2D2D2D2D2D2D2D2D2D2D2DE4
:100646002D2D2D2D2D2D2D2D2D2D2D2D2D2D2D2DD4
:100656002D2D2D2D2D2D2D2D2D2D2D2D2D2D2D2DC4
:100666002D2D2D2D2D2D2D2D2D2D2D2D0A006D6190
:10067600632073657420646576657569203730423A
:10068600334435374544303035363430330D0A007F
:100696006D6163207365742064657661646472209D
:1006A60032363043303333330D0A006D61632073C5
:1006B600657420617070736B6579203833364638FF
:1006C600303945373646323931413532394335349A
:1006D60030413033373145343133370D0A006D61DF
:1006E6006320736574206E776B736B65792045386C
:1006F600343039354541324346363436373944305D
:1007060042323033313941313433393738390D0AD1
:10071600006D616320736574206172206F6E0D0A2F
:10072600006D61632073657420727864656C61790D
:100736003120353030300D0A006D616320736574E9
:1007460020616472206F6E0D0A006D616320736113
:1007560076650D0A000A0A000A0A436F6E66696723
:100766007572696E67204C523220436C69636B2048
:10077600666F72204F5441410A006D6163207365B4
:1007860074206170706B657920383336463830399D
:1007960045373646323931413532394335343041C1
:1007A6003033373145343133370D0A006D616320FC
:1007B6007365742061707065756920303030303033
:1007C60030303030303030303030300D0A006D612E
:1007D600632070617573650D0A006D616320726533
:1007E60073756D650D0A000A0A4A6F696E696E6750
:1007F6002054544E0A006D6163206A6F696E206151
:1008060062700D0A006D6163206A6F696E206F74F5
:1008160061610D0A000A0A5472616E736D6974741F
:10082600696E6720446174610A000A54783A206D43
:10083600616320747820636E6620343220006D6117
:100846006320747820636E6620343220000A547860
:100856003A206D616320747820756E636E6620346D
:100866003320006D616320747820756E636E662098
:0408760034332000F7
:10087A008091FB369091FC3680FF3DC08091003715
:10088A008130C9F028F08230E9F08530F9F02AC0C9
:10089A000E94D2100E94DE1A0E94E11A8091FB3651
:1008AA009091FC3684608093FB369093FC3681E00D
:1008BA008093003717C083E08093003781E08093EC
:1008CA00450410C083E0809300370CC086E0809313
:1008DA0000378091FD369091FE3601968093FD3661
:1008EA009093FE368091FB369091FC368E7F8093F2
:1008FA00FB369093FC368091FB369091FC3682FF52
:10090A000CC081E0809346048091FB369091FC36BE
:10091A008B7F8093FB369093FC368091FB369091C7
:10092A00FC3684FF0CC081E0809346048091FB363C
:10093A009091FC368F7E8093FB369093FC368091A3
:10094A000037833071F018F4813041F00895843013
:10095A0009F451C0863009F46EC008950E948F15BB
:10096A0008958FEB96E30E94B8156FEB76E38AE958
:10097A0094E30E9409094091F9365091FA369A0196
:10098A00ADECBCEC0E946019969587959695879573
:10099A00969587959C01220F331F880F991F880F00
:1009AA00991F880F991F820F931F4817590729F417
:1009BA008AE994E30E94381704C08AE994E30E9402
:1009CA0054178091F9369091FA3601968093F93648
:1009DA009093FA368091FB369091FC36846080932E
:1009EA00FB369093FC36E0E4F1E0808181608083FD
:1009FA0084E0809300378091D3369091D436A091C9
:100A0A00D536B091D636843B9105A105B10581F45E
:100A1A0083E080930037E0E4F1E080818E7F808379
:100A2A001092D3361092D4361092D5361092D6360A
:100A3A000E948F1508958091FD369091FE3682307E
:100A4A009105F9F08330910589F1019709F068C0A1
:100A5A001F9281E08F938DEE9FE89F938F930E9460
:100A6A00561885E0809300372AE634E081E0215069
:100A7A0030408040E1F700C00F900F900F900F9028
:100A8A0008951F9282E08F938DEF9FE89F938F9333
:100A9A000E9456188FEB96E30E94B81585E0809362
:100AAA0000370F900F900F900F9008951F9283E0D8
:100ABA008F938CE090E99F938F930E945618E5E0FC
:100ACA00F4E088E080839AE624E031E09150204007
:100ADA003040E1F700C0809306049FE32DE033E045
:100AEA00915020403040E1F700C0000080839AE630
:100AFA0024E031E0915020403040E1F700C080937B
:100B0A0045048AE29CE22AE0815090402040E1F7C5
:100B1A00000085E0809300370F900F900F900F90A0
:020B2A0008952C
:100B2C004F925F926F927F928F929F92AF92BF92F1
:100B3C00CF92DF92EF92FF92C0907534D0907634C2
:100B4C00E0907734F0907834F594E794D794C79488
:100B5C008AEFD81AE108F108C701B6019595879577
:100B6C007795679595958795779567959B01AC01DA
:100B7C000E94F6184B015C01E9E7F4E3A285B3850A
:100B8C009B01AC01012E1DE0559547953795279596
:100B9C001A95D1F7102D0E944B1A2B013C01689429
:100BAC0012F875946794579447941694D1F7A085CE
:100BBC00B185A70196010E944B1ADC01CB01B595BA
:100BCC00A79597958795840D951DA61DB71D072E86
:100BDC0072E1B595A795979587957A95D1F7702D74
:100BEC009C01AD0130584F4F5F4FA681B7810E94D9
:100BFC00101A2B013C01032E3FE075946794579417
:100C0C0047943A95D1F7302D411451046104710485
:100C1C0009F4CEC0A5019401012E1BE05595479512
:100C2C00379527951A95D1F7102DA089B1890E9477
:100C3C004B1A4B015C01A685B785A70196010E9452
:100C4C004B1ADC01CB01880F991FAA1FBB1F880E02
:100C5C00991EAA1EBB1ED501C401B595A7959795E3
:100C6C008795B595A7959795879584849584092C38
:100C7C00000CAA08BB08540199248824880E991EDC
:100C8C00AA1EBB1E072E7CE0B594A794979487945C
:100C9C007A95D1F7702D80914E3490914F34A0916C
:100CAC005034B0915134A5019401280F391F4A1FBB
:100CBC005B1FABECB3EF0E944E1A805B9C439923F5
:100CCC005CF0660F771F881F991FA30192010E9489
:100CDC00BF1669017A010AC0A30192010E94BF16D6
:100CEC0069017A01CC0CDD1CEE1CFF1CC701B6019E
:100CFC00689412F896958795779567951694D1F721
:100D0C009B01AC010E94F6189B01AC01012E1DE069
:100D1C0056954795379527951A95D1F7102DE9E7F4
:100D2C00F4E3A689B7890E944B1A4B015C01072E8C
:100D3C007CE0B594A794979487947A95D1F7702D0D
:100D4C00A701960156954795379527955695479542
:100D5C0037952795A489B5890E944B1ADC01CB01E4
:100D6C00072E7DE0B595A795979587957A95D1F740
:100D7C00702DB501A401480F591F6A1F7B1F828972
:100D8C009389092E000CAA0BBB0B840F951FA61F71
:100D9C00B71F689413F8B595A795979587951694F2
:100DAC00D1F7BC01CD016C0D7D1D8E1D9F1D03C0A7
:100DBC0060E070E0CB01FF90EF90DF90CF90BF90A0
:100DCC00AF909F908F907F906F905F904F90089511
:100DDC000A416674657220313030204D6F6973742E
:100DEC007572652052656164696E6773002D2D2DD7
:100DFC002D2D2D2D2D2D2D2D2D2D2D2D2D2D2D2D17
:100E0C002D2D2D2D2D2D2D2D2D2D2D2D2D2D2D2D06
:100E1C002D2D2D2D2D2D2D2D2D2D2D2D2D2D2D2DF6
:100E2C002D2D2D2D2D2D2D2D2D2D2D2D2D2D2D2DE6
:100E3C002D2D2D2D00546865204D41582072656173
:100E4C0064696E67207761732025640A00546865B5
:100E5C00204D494E2072656164696E67207761731D
:100E6C002025640A0A00546865204D4158206D61A4
:100E7C00707320746F2025640A00546865204D49F6
:100E8C004E206D61707320746F2025640A002575E7
:100E9C000D0A000A0A43757272656E742053656EF2
:100EAC00736F7220446174610A002D2D2D2D2D2D30
:100EBC002D2D2D2D2D2D2D2D2D2D2D2D2D2D2D2D56
:100ECC002D2D2D2D2D2D2D2D2D2D2D2D2D2D2D2D46
:100EDC002D2D2D2D2D2D2D2D2D2D2D2D2D2D2D2D36
:100EEC002D2D2D2D2D2D2D2D2D2D2D2D2D2D2D2D26
:100EFC002D0A0052656C61746976652048756D69C0
:100F0C00646974793A2025752525200D0A004D6FEA
:100F1C006973747572653A2025752525200D0A00B4
:100F2C0050726573737572653A202575206850612F
:100F3C000D0A004169722054656D7065726174759B
:100F4C0072653A2025692043200D0A0042617474B1
:100F5C00657279204C6576656C3A202575252520BF
:100F6C000D0A0A000A4A534F4E20466F726D617487
:100F7C000D005061796C6F61643A207B206169725D
:100F8C005F74656D703A2025692C206261747465FC
:100F9C0072793A2025752C2068756D6964697479AD
:100FAC003A2025752C206D6F6973747572653A2023
:100FBC0025752C2070726573737572653A202575D2
:100FCC002C206E756D54783A2025750D0A0A7D001B
:100FDC003031323334353637383941424344454663
:100FEC0000426567696E20546573742025640D0A90
:100FFC00005465737420256420424D45323830000E
:0D100C0054657374202564204C6F52610000
:10101A004F925F926F927F928F929F92AF92BF92FE
:10102A00CF92DF92EF92FF9280907534909076344F
:10103A00A0907734B09078342CE2921A21E0A20A78
:10104A00B108C0900C34D0900D34E0900E34F0907A
:10105A000F340B2EBEE0CC0CDD1CEE1CFF1CBA9527
:10106A00D1F7B02DE9E7F4E3848D958D092E000CB4
:10107A00AA0BBB0B072E74E1880F991FAA1FBB1F6F
:10108A007A95D1F7702DC81AD90AEA0AFB0AA68DF1
:10109A00B78DA50194010E944B1AC61AD70AE80A0D
:1010AA00F90A30E4D30EE11CF11C0B2EBFE0F594D3
:1010BA00E794D794C794BA95D1F7B02DA38DB0E031
:1010CA00A50194010E94101A2B013C01032E3BE05A
:1010DA0075946794579447943A95D1F7302D40E820
:1010EA00540E611C711CA0A10A2E000CBB0BA50199
:1010FA0094010E944B1A052E5AE09595879577958B
:10110A0067955A95D1F7502DA30192010E94F618BE
:10111A00DC01CB01072E7AE0B595A79597958795BF
:10112A007A95D1F7702D9C01AD01405E5F4FA18D7C
:10113A00B28D0E944B1ADC01CB01905EAF4FBF4FBC
:10114A00BC01CD01052E5EE095958795779567954B
:10115A005A95D1F7502DA70196010E94F6186B01F6
:10116A007C01052E5FE095958795779567955A9549
:10117A00D1F7502D9B01AC010E94F6189B01AC01DE
:10118A00689416F855954795379527951694D1F78B
:10119A00A08DB0E00E94101ADC01CB01689413F80C
:1011AA00B595A795979587951694D1F7A7019601B6
:1011BA00281B390B4A0B5B0BDA01C9011AF480E0D0
:1011CA0090E0DC0181309105A10539E1B30724F0F3
:1011DA0080E090E0A0E0B9E1BC01CD01052E5CE021
:1011EA0095958795779567955A95D1F7502DFF90E4
:1011FA00EF90DF90CF90BF90AF909F908F907F90AD
:08120A006F905F904F90089572
:10121200CF93DF93CDB7DEB76197CDBFDEBF21E1BC
:10122200ECEDFFE8DE01119601900D922A95E1F7AF
:10123200DB012C9122952F70E1E0F0E0EC0FFD1F15
:10124200E20FF11D2081FC0120832C912F70E1E03F
:10125200F0E0EC0FFD1FE20FF11D2081DC01119681
:101262002C931197FB01218122952F70E1E0F0E090
:10127200EC0FFD1FE20FF11D208112962C93DB0172
:1012820011962C9111972F70E1E0F0E0EC0FFD1F09
:10129200E20FF11D2081FC01238314962C912295EB
:1012A2002F70E1E0F0E0EC0FFD1FE20FF11D208155
:1012B200DC0114962C931497FB0124812F70E1E03A
:1012C200F0E0EC0FFD1FE20FF11D208115962C932B
:1012D200DB0113964C911397242F22952F7030E047
:1012E200E1E0F0E0EC0FFD1FE20FF31F2081FC01B3
:1012F200268313962C9130E02F703327E1E0F0E043
:10130200EC0FFD1FE20FF31F2081DC0117962C93D7
:10131200DB011296ED91FC911397F295E295EF7035
:10132200EF27FF70EF27EF70FF2721E030E02C0F4F
:101332003D1FE20FF31F2081DC0118962C93DB0185
:101342001296ED91FC911397EF70FF2721E030E0A8
:101352002C0F3D1FE20FF31F2081DC0119962C9305
:101362001997FB01258122952F70E1E0F0E0EC0F47
:10137200FD1FE20FF11D20811A962C93DB011596B9
:101382002C9115972F70E1E0F0E0EC0FFD1FE20FBA
:10139200F11D2081FC0123871696ED91FC91179790
:1013A200F295E295EF70EF27FF70EF27EF70FF27BE
:1013B20021E030E02C0F3D1FE20FF31F2081DC0102
:1013C2001C962C93DB011696ED91FC911797EF700A
:1013D200FF2721E030E02C0F3D1FE20FF31F208199
:1013E200DC011D962C931D972DE01E962C931E97C3
:1013F2002AE01F962C931F9750961C926196CDBFA0
:08140200DEBFDF91CF910895D8
:10140A000F931F93CF93DF93CDB7DEB76897CDBF06
:10141A00DEBF28E1AE014F5F5F4F68E886E70E94B2
:10142A00451009E714E38A8190E0982F88272981DB
:10143A00820F911DF801808391838C8190E0982F0F
:10144A0088272B81820F911D828393838E8190E05E
:10145A00982F88272D81820F911D848395838885F3
:10146A0090E0982F88272F81820F911D868397837A
:10147A008A8590E0982F88272985820F911D808779
:10148A0091878C8590E0982F88272B85820F911D54
:10149A00828793878E8590E0982F88272D85820FE3
:1014AA00911D84879587888990E0982F88272F85B2
:1014BA00820F911D868797878A8990E0982F8827BF
:1014CA002989820F911D808B918B8C8990E0982FAE
:1014DA0088272B89820F911D828B938B8E8990E0AE
:1014EA00982F88272D89820F911D848B958B888D43
:1014FA0090E0982F88272F89820F911D868B978BD2
:10150A0021E0AE014F5F5F4F61EA86E70E94451016
:10151A008981F801808F27E0AE014F5F5F4F61EE4E
:10152A0086E70E9445102A8130E0322F22279981CE
:10153A00290F311DF801218F328F9B81938F9D8155
:10154A002C81F0E12F9F90011124492F4F70242BF9
:10155A00F801248F358F2E81F0E12F9F90011124FD
:10156A0092959F70292BF801268F378F9F8190A320
:10157A006896CDBFDEBFDF91CF911F910F9108957D
:10158A008F929F92AF92BF92CF92DF92EF92FF9289
:10159A008091523490915334A0915434B09155347F
:1015AA00E9E7F4E34081518160E070E06C017D017C
:1015BA00689413F8F594E794D794C7941694D1F7DE
:1015CA00C41AD50AE60AF70A689412F8B595A795D7
:1015DA00979587951694D1F7440F551F661F771F65
:1015EA004C015D01841A950AA60AB70AA50194015D
:1015FA00A281B3810E944B1A4B015C01072E7BE04A
:10160A00B594A794979487947A95D1F7702DA701EA
:10161A009601C701B6010E94F6189B01AC01012E82
:10162A001CE055954795379527951A95D1F7102DB2
:10163A00A481B5810E944B1ADC01CB01072E7EE002
:10164A00B595A795979587957A95D1F7702D880DB9
:10165A00991DAA1DBB1D8093753490937634A0936F
:10166A007734B09378346C017D01CC0CDD1CEE1C10
:10167A00FF1CCC0CDD1CEE1CFF1C8C0D9D1DAE1D31
:10168A00BF1D80589F4FAF4FBF4F692F7A2F8B2FA7
:10169A00992787FD9A95FF90EF90DF90CF90BF90A2
:0816AA00AF909F908F9008950E
:1016B200CF93DF93CDB7DEB72897CDBFDEBF28E04B
:1016C200AE014F5F5F4F67EF86E70E9445108F8143
:1016D20090E0A0E0B0E0BA2FA92F982F88272885A4
:1016E200822B80930C3490930D34A0930E34B093DC
:1016F2000F348C8190E0A0E0B0E0AC01BD01032E7C
:101702003CE0440F551F661F771F3A95D1F7302DE5
:101712009D81892F90E0A0E0B0E0880F991FAA1F59
:10172200BB1F880F991FAA1FBB1F880F991FAA1FD3
:10173200BB1F880F991FAA1FBB1F842B952BA62B9B
:10174200B72B2E8122952F70822B80935234909347
:101752005334A0935434B0935534898190E0A0E07F
:10176200B0E0AC01BD01032E3CE0440F551F661FE3
:10177200771F3A95D1F7302D9A81892F90E0A0E01A
:10178200B0E0880F991FAA1FBB1F880F991FAA1FBD
:10179200BB1F880F991FAA1FBB1F880F991FAA1F63
:1017A200BB1F842B952BA62BB72B2B8122952F7039
:1017B200822B80934E3490934F34A0935034B09345
:0E17C20051342896CDBFDEBFDF91CF91089540
:1017D000CF93DF93C0E0D4E08AE08883A0E2B4E056
:1017E00084E08C93E0E4F4E08DE080831C82149626
:1017F0001C9214971482188A198A1A8A1B8A1C8AC6
:101800001D8A1E8A1F8A50961C92509751961C92D0
:10181000519752961C92529753961C9253975496F6
:101820001C92549781E055968C93559756961C922E
:10183000569757961C92108A118A128A138A148A14
:10184000158A168A178AE0EEF5E01182108213825B
:1018500014821582128289EE9AE18093F336909376
:10186000F4368AEE9AE18093F1369093F2368BEE5D
:101870009AE18093EF369093F0368CEE9AE1809364
:10188000ED369093EE368DEE9AE18093EB369093A1
:10189000EC368EEE9AE18093E9369093EA368FEE3D
:1018A0009AE18093E7369093E83680EF9AE180934F
:1018B000E5369093E63681EF9AE18093E336909394
:1018C000E43682EF9AE18093E1369093E23683EF3B
:1018D0009AE18093DF369093E036DF91CF910895BF
:1018E0008F929F92AF92BF92EF92FF920F931F93AE
:1018F000CF93DF939C01233E87E0380708F460C054
:1019000029348DE0380708F05DC0243E87E03807B1
:1019100078F090E09E5FC92FD0E0FE01EE0FFF1F30
:10192000E05AFE4F059115910217130798F304C072
:1019300003EE17E0C0E0D0E0B901FE01EE0FFF1F9B
:10194000E45AFE4FE590F5906E197F0980E090E033
:101950000E94D4114B015C01B8016E197F0980E02F
:1019600090E00E94D4119B01AC01C501B4010E941A
:10197000C71A9B01AC0160E070E080E89FE30E9421
:101980005A1A20E030E040EA50E40E94CB1A4B01A2
:101990005C01FE01EE0FFF1FEE59FE4F6591759140
:1019A00080E090E00E94D4119B01AC01C501B4011C
:1019B0000E945B1A0E9479160E94611A862F03C04A
:1019C00084E601C080E0DF91CF911F910F91FF90DD
:0C19D000EF90BF90AF909F908F90089513
:1019DC0010C00E946F1A58F00E94681A40F029F447
:1019EC005F3F29F00C94B41A51110C94771A0C9493
:1019FC00E41A0E949D1668F39923B1F3552391F3D1
:101A0C00951B550BBB27AA2762177307840738F061
:101A1C009F5F5F4F220F331F441FAA1FA9F335D0BE
:101A2C000E2E3AF0E0E832D091505040E695001C72
:101A3C00CAF72BD0FE2F29D0660F771F881FBB1F2C
:101A4C00261737074807AB07B0E809F0BB0B802D0A
:101A5C00BF01FF2793585F4F3AF09E3F510578F036
:101A6C000C94B41A0C94771A5F3FE4F3983ED4F3B9
:101A7C00869577956795B795F7959F5FC9F7880F0A
:101A8C00911D9695879597F90895E1E0660F771F5C
:101A9C00881FBB1F621773078407BA0720F0621BED
:0E1AAC00730B840BBA0BEE1F88F7E0950895BC
:101ABA00CF93DF93EC018FE99EE80E94641386EBD3
:101ACA009EE80E94641389811F928F938FEF9EE88C
:101ADA009F938F930E9456188C811F928F938AE14D
:101AEA009FE89F938F930E9456188B818F938A81C8
:101AFA008F938CE29FE89F938F930E945618888158
:101B0A00282F082E000C330B3F938F938FE39FE807
:101B1A009F938F930E9456188D811F928F9388E509
:101B2A009FE89F938F930E94561880E79FE80E9430
:101B3A00941189EF9DE80E9494118F818F938E8171
:101B4A008F938B818F938A818F938C811F928F932E
:101B5A0089811F928F938D811F928F938881282F5D
:101B6A00082E000C330B3F938F938EE79FE89F93C9
:101B7A008F930E9456188DB79EB782968DBF9EBFCF
:061B8A00DF91CF910895E8
:101B90000FC00E94681A38F00E946F1A20F0952337
:101BA00011F00C94B41A0C94E41A11240C94771AC2
:101BB0000E949D1670F3959FC1F3950F50E0551F3D
:101BC000629FF001729FBB27F00DB11D639FAA2792
:101BD000F00DB11DAA1F649F6627B00DA11D661FE1
:101BE000829F2227B00DA11D621F739FB00DA11D02
:101BF000621F839FA00D611D221F749F3327A00DBC
:101C0000611D231F849F600D211D822F762F6A2F57
:101C100011249F5750409AF0F1F088234AF0EE0FBC
:101C2000FF1FBB1F661F771F881F91505040A9F7E9
:101C30009E3F510580F00C94B41A0C94771A5F3FC4
:101C4000E4F3983ED4F3869577956795B795F79525
:101C5000E7959F5FC1F7FE2B880F911D969587959D
:041C600097F9089553
:101C640011C00E94681A38F00E946F1A20F039F4EB
:101C74009F3F19F426F40C94E41A0EF4E095E7FB64
:101C84000C94B41AE92F0E949D1658F3BA176207F0
:101C940073078407950720F079F4A6F50C94761A57
:101CA4000EF4E0950B2EBA2FA02D0B01B901900173
:101CB4000C01CA01A0011124FF27591B99F0593FB7
:101CC40050F4503E68F11A16F040A22F232F342FFF
:101CD4004427585FF3CF469537952795A795F0404D
:101CE4005395C9F77EF41F16BA0B620B730B840B62
:101CF400BAF09150A1F0FF0FBB1F661F771F881F1A
:101D0400C2F70EC0BA0F621F731F841F48F4879571
:101D140077956795B795F7959E3F08F0B0CF939563
:0E1D2400880F08F09927EE0F97958795089580
:101D3200EF92FF920F931F938091C7369091C8360E
:101D4200A091C936B091CA360196A11DB11D8093EA
:101D5200C7369093C836A093C936B093CA368091DD
:101D6200DB369091DC36A091DD36B091DE36009103
:101D7200D7361091D8362091D9363091DA36BC0157
:101D8200CD01601B710B820B930B28EE33E040E018
:101D920050E00E94BF162093CF363093D036409346
:101DA200D1365093D2368091CB369091CC36A091D9
:101DB200CD36B091CE3679018A01E81AF90A0A0BBA
:101DC2001B0BD801C7010297A105B10580F08091D4
:101DD200DB369091DC36A091DD36B091DE36809311
:101DE200D7369093D836A093D936B093DA361F916E
:081DF2000F91FF90EF9008959E
:101DFA00FA01AA27283051F1203181F1E8946F9332
:101E0A006E7F6E5F7F4F8F4F9F4FAF4FB1E03ED0D7
:101E1A00B4E03CD0670F781F891F9A1FA11D680F75
:101E2A00791F8A1F911DA11D6A0F711D811D911DA8
:101E3A00A11D20D009F468943F912AE0269F11241D
:101E4A003019305D3193DEF6CF010895462F477081
:101E5A00405D4193B3E00FD0C9F7F6CF462F4F70DC
:101E6A00405D4A3318F0495D31FD4052419302D03A
:101E7A00A9F7EACFB4E0A6959795879577956795E0
:101E8A00BA95C9F700976105710508959B01AC01E0
:101E9A000A2E06945795479537952795BA95C9F707
:0C1EAA00620F731F841F951FA01D089578
:101EB60008C016F00C9499190C94E41A68940C94C2
:101EC600B41A0E94A516A8F39923C1F3AEF3DF93C3
:101ED600CF931F930F93FF92C92FDD2788232AF0F4
:101EE6002197660F771F881FDAF720E030E040E879
:101EF6005FEB9FE3883920F0803E38F021968F779C
:101F06000E945B1AE0EAF0E004C00E945B1AEDEC66
:101F1600F0E00E9407168B01BE01EC01FB2E6F5705
:101F260071097595771F880B990B0E94D61128E1C8
:101F360032E741E35FE30E94C80DAF2D9801AE0181
:101F4600FF900F911F91CF91DF910E94320E0C945A
:021F5600E5188C
:101F5800FA01EE0FFF1F309621053105A1F1611539
:101F6800710561F48038BFE39B0749F168949038A4
:101F7800810561F08038BFEF9B0741F099234AF54E
:101F8800FF3FE1053105210519F1E8940894E7952B
:101F9800D901AA2329F4AB2FBE2FF85FD0F310C0C4
:101FA800FF5F70F4A695E0F7F73950F019F0FF3AA3
:101FB80038F49F779F930DD00F9007FC90580895A1
:101FC80046F00C94E41A60E070E080E89FE308951E
:101FD8004FE79F775F934F933F932F930E945B0F39
:101FE8002F913F914F915F910E94CB1A0C944D1203
:101FF8008F929F92AF92BF92CF92DF92EF92FF9211
:102008000E9496054B015C010E94E41924E036E524
:102018004AE150E40E945B1A23E333E948E853E4B9
:102028000E945B1A9B01AC0164E076E58AE190E4CA
:102038000E94C71A9B01AC0160E070E080E89FE352
:102048000E945A1A28E539E348EA50EC0E94AC0F7E
:102058006B017C01C501B4010E94D41120E030E07D
:1020680048EC52E40E94C71AA70196010E94CB1AB5
:10207800FF90EF90DF90CF90BF90AF909F908F90A0
:022088000895B9
:10208A00EF92FF920F931F93CF93DF931F92CDB7D7
:10209A00DEB769838A01E22E60E00E945416F82EA8
:1020AA00882369F161E0CE0101960E94E015F82EBD
:1020BA00811104C083E08093A40821C0E0EAF8E01B
:1020CA0087818160878381E08483858185FD0AC059
:1020DA00858182FD07C0858183FD04C08581837067
:1020EA00833099F70E946F19882329F083E080933F
:1020FA00A408F12C04C06E2DC8010E943A158F2D38
:10210A000F90DF91CF911F910F91FF90EF9008955B
:10211A008AE096E80E9464138BE296E80E946413B0
:10212A0084E796E80E94FD130E94E11686E996E884
:10213A000E94FD130E94E11681EB96E80E94FC12B0
:10214A000E94E11684EE96E80E94E3140E94E116CA
:10215A0087E197E80E94FD130E94E11687E297E85B
:10216A000E94FD130E94E1168FE397E80E94FD1377
:10217A000E94E11680E597E80E94FD130E94E1168D
:10218A008BE597E80E9464132AE684E091E02150E7
:0A219A0080409040E1F700C0089576
:1021A40086E795E80E9464138CE895E80E9464131E
:1021B40082EC95E80E94641384E0809346042AE646
:1021C40034E081E0215030408040E1F700C0E5E098
:1021D400F4E088E080839AE624E031E091502040E6
:1021E4003040E1F700C0809306049FE32DE033E024
:1021F400915020403040E1F700C0000080839AE60F
:1022040024E031E0915020403040E1F700C0809359
:1022140045048AE29CE22AE0815090402040E1F7A4
:042224000000089519
:102228001F920F920FB60F9211242F933F934F9343
:102238005F936F937F938F939F93AF93BF93EF9326
:10224800FF931F9B05C0E091F336F091F436099592
:102258001A9B05C0E091ED36F091EE360995199B71
:1022680005C0E091EB36F091EC3609951B9B05C053
:10227800E091E336F091E43609958FEF83B9FF9149
:10228800EF91BF91AF919F918F917F916F915F91E6
:102298004F913F912F910F900FBE0F901F9018955F
:1022A8001F920F920FB60F9211242F933F934F93C3
:1022B8005F936F937F938F939F93AF93BF93EF93A6
:1022C800FF935B9B05C0E091EF36F091F0360995DE
:1022D800599B05C0E091E536F091E6360995589B83
:1022E80005C0E091E136F091E23609955A9B05C0A8
:1022F800E091DF36F091E03609958FEF8BB9FF91C9
:10230800EF91BF91AF919F918F917F916F915F9165
:102318004F913F912F910F900FBE0F901F901895DE
:10232800EF92FF920F931F93CF93DF93E091AD3419
:10233800F091AE34238121FF29C08C01D0E0C0E0A8
:102348008BEAE82E84E3F82EF80181918F01882327
:1023580081F0D70112966D917C911397DB01189645
:10236800ED91FC9119970995892B71F3DFEFCFEF68
:10237800EBCF6091AD347091AE34DB011896ED91DE
:10238800FC9119978AE00995892B19F08FEF9FEF37
:1023980002C08D2F9C2FCDB7DEB7E6E00C944A180B
:1023A800E89409C097FB3EF49095809570956195E7
:1023B8007F4F8F4F9F4F9923A9F0F92F96E9BB279D
:1023C8009395F695879577956795B795F111F8CF19
:1023D800FAF4BB0F11F460FF1BC06F5F7F4F8F4F84
:1023E8009F4F16C0882311F096E911C0772321F07A
:1023F8009EE8872F762F05C0662371F096E8862F12
:1024080070E060E02AF09A95660F771F881FDAF768
:0A241800880F9695879597F90895AF
:102422000F931F93CF93DF93FB01238121FD03C001
:102432008FEF9FEF2CC022FF16C046815781248167
:1024420035814217530744F4A081B1819D012F5F6A
:102452003F4F208331838C93268137812F5F3F4FFB
:102462002683378314C08B01EC01FB010084F185C4
:10247200E02D0995892BE1F6D80116968D919C9154
:102482001797019616968D939C931797CE01DF911D
:08249200CF911F910F910895F5
:10249A0008C029F416F00C94B41A0C94761A0C9409
:1024AA00E41A0E94A516A8F39638A0F707F80F9227
:1024BA00E8942BE33AEA48EB5FE70E94DB0D0F92C0
:1024CA000F920F924DB75EB70F920E949813E8E7EA
:1024DA00F0E00E9407164F915F91EF91FF91E59509
:1024EA00EE1FFF1F49F0FE57E0684427EE0F441F16
:1024FA00FA95E1F74195550B0E9488120F9007FE55
:06250A000C94431A089531
:1025100004C00C94B41A0C9499190E94A516D8F30F
:102520009923C9F3940F511DA3F39150504094F097
:1025300059F0882332F0660F771F881F9150504062
:10254000C1F79E3F51052CF7880F911D96958795F1
:1025500097F908955F3FACF0983E9CF0BB278695B5
:1025600077956795B79508F4B1609395C1F7BB0F60
:1025700058F711F460FFE8CF6F5F7F4F8F4F9F4F89
:06258000E3CF0C94771A72
:102586001F920F920FB60F9211242F933F934F93E2
:102596005F936F937F938F939F93AF93BF93EF93C5
:1025A600FF933D9B05C0E091F136F091F236099517
:1025B6003B9B05C0E091E936F091EA3609953A9BD6
:1025C60005C0E091E736F091E83609958FEF87B9B7
:1025D600FF91EF91BF91AF919F918F917F916F91F5
:1025E6005F914F913F912F910F900FBE0F901F90CB
:0225F600189536
:1025F800EF92FF921F93CF93DF937C0184ED95E8D0
:102608000E946413C7010E9430132AE684E091E017
:10261800215080409040E1F700C010E009C00E94BE
:102628009C1A882341F00E94FA190E94D81A1F5F49
:10263800E701C10FD11D88818111F1CF2AE684E01D
:1026480091E0215080409040E1F700C0DF91CF91A8
:082658001F91FF90EF9008951F
:102660000F931F93CF938C01FC014081C0910137E0
:102670002C2F30E0A0910237B0E0C90101968A17F3
:102680009B07F1F04423E1F090E0CF5FF901EF54B4
:10269000FB4C40835C2F590F9F5FF801E90FF11D40
:1026A0004081252F30E0B9016F5F7F4F6A177B07AC
:1026B00019F45093013704C04111E8CF509301370A
:0826C000CF911F910F910895C5
:1026C800EF92FF920F931F93CF93FC012081222357
:1026D80029F17C01E0E0F8E0848180648483F701DB
:1026E8008081811114C016C00E948A1A8823E1F3E0
:1026F800F80180810E948B19CF5F87010C0F111D93
:10270800F8019081992331F0CF3F71F703C0870119
:10271800C0E0EACF0E94901A8111FCCFCF911F919F
:082728000F91FF90EF9008955E
:10273000FA01DC01AA0FBB1F9B01AC01BF5728F4B3
:10274000222733274427507820C0B75190F4AB2F6D
:102750000024469537952795011CA395D2F30020B8
:1027600071F0220F331F441FB395DAF30ED00C948F
:102770005A1A61307105A0E88A07B94630F49B0106
:10278000AC016627772788279078309621F0208340
:08279000318342835383089555
:10279800CF93DF93CDB7DEB72697CDBFDEBF85EFEA
:1027A8008983809110348A8342E0BE016F5F7F4F36
:1027B80086E70E946C1882EF8B8380914D348C835E
:1027C80042E0BE016D5F7F4F86E70E946C1884EF80
:1027D8008D83809156348E8342E0BE016B5F7F4FBC
:1027E80086E70E946C182696CDBFDEBFDF91CF9199
:0227F800089542
:1027FA00FF920F931F93CF93DF938C018DEC95E893
:10280A000E946413C8010E946413C8010E94301315
:10281A00F12C09C00E949C1A882341F00E94FA19DF
:10282A000E94D81AF394E801CF0DD11D8881811135
:10283A00F1CF2AE684E091E0215080409040E1F710
:0E284A0000C0DF91CF911F910F91FF90089574
:102858000E94A51688F09F5798F0B92F9927B7516D
:10286800B0F0E1F0660F771F881F991F1AF0BA952C
:10287800C9F714C0B13091F00E94761AB1E00895FA
:102888000C94761A672F782F8827B85F39F0B93FEC
:10289800CCF3869577956795B395D9F73EF49095DF
:0E28A8008095709561957F4F8F4F9F4F0895DB
:1028B6001F920F920FB60F9211248F939F93AF938F
:1028C600BF93EF93FF938091DB369091DC36A09116
:1028D600DD36B091DE360196A11DB11D8093DB3643
:1028E6009093DC36A093DD36B093DE36E0E8FAE06E
:1028F600868181608683FF91EF91BF91AF919F9111
:0C2906008F910F900FBE0F901F9018953E
:102912001F920F920FB60F9211248F939F93AF9332
:10292200BF93EF93FF938091D3369091D436A091C9
:10293200D536B091D6360196A11DB11D8093D336FE
:102942009093D436A093D536B093D636E0E4F1E036
:1029520083898160838BFF91EF91BF91AF919F91AA
:0C2962008F910F900FBE0F901F901895E2
:10296E00E0E0F8E08DE695E080879187158280ECB7
:10297E00868383E08783138614861686158684EFF6
:10298E009AE1809302349093033485EF9AE1809319
:10299E0000349093013486EF9AE18093043490933F
:1029AE0005341092F5361092F63681EB96E380934D
:0829BE00AD349093AE3408958E
:1029C600EF92FF921F93CF93DF937C018CEE95E8F5
:1029D6000E946413C7010E9430132AE684E091E046
:1029E600215080409040E1F700C010E009C00E94ED
:1029F6009C1A882341F00E94FA190E94D81A1F5F78
:102A0600E701C10FD11D88818111F1CFDF91CF91EF
:082A16001F91FF90EF9008955D
:102A1E0040E068ED80E690E00E94C31A41E168ED67
:102A2E0081E690E00E94C31A40E068ED82E690E0F5
:102A3E000E94C31A40E068ED83E690E00E94C31A3C
:102A4E0040E068ED80E790E00E94C31A40E068ED38
:102A5E0088E790E00E94C31A40E068ED8CE790E0B2
:062A6E000E94C31A089546
:102A740020E22093A5086623D1F0A82FB92F90E077
:102A8400E0EAF8E022E0858185FD17C0858182FDBA
:102A940007C0858183FD04C085818370833099F7E5
:102AA40080858D939F5F691711F02483ECCF87E0B5
:102AB4008093A40808952483E6CF80858D939F5F37
:062AC4006913F9CFF4CF05
:102ACA001F920F920FB60F9211242F933F934F9399
:102ADA005F936F937F938F939F93AF93BF93EF937C
:102AEA00FF938091480481FD0E94311A81E080930E
:102AFA00960AFF91EF91BF91AF919F918F917F912C
:102B0A006F915F914F913F912F910F900FBE0F9050
:042B1A001F9018955B
:102B1E000E94841A882321F00E94CF1A0E949618D0
:102B2E000E94961A882321F00E94D51A0E94AB1893
:102B3E000E94AE1A882341F00E948A1A882321F03F
:102B4E000E94051A0E94D21A0E94A81A882341F0E8
:102B5E000E949C1A882321F00E94FA190E94D81A0A
:022B6E000895C8
:102B7000CF93DF93EC010E94BA1A0E94E4190E94DD
:102B8000611A68830E94FC0F0E942C146A837B8365
:102B90000E94EF190E942C1469830E941C178C83D9
:102BA0000E9426188D838091F9369091FA3601960D
:102BB0008E839F83CE010E945D0DDF91CF9108959A
:102BC000662309F1DC016150262F30E02F5F3F4F73
:102BD000280F391FE0EAF8E09D919087958195FDD7
:102BE0000AC0958192FD07C0958193FD04C095812F
:102BF0009370933099F7958194FD07C0A217B3079E
:0E2C000059F781E0089581E0089580E008957D
:102C0E00DF93CF931F930F93FF92EF92DF927B018F
:102C1E008C01689406C0DA2EEF010E94C80DFE01E9
:102C2E00E894A5912591359145915591A6F3EF0123
:102C3E000E94320EFE019701A801DA9469F7DF9027
:0E2C4E00EF90FF900F911F91CF91DF910895AD
:102C5C00E0E2F8E087EE90E080879187158280ECC7
:102C6C00868383E08783138614861686158687EF02
:102C7C009AE1809306349093073488EF9AE180931D
:102C8C0008349093093489EF9AE180930A34909335
:0C2C9C000B341092F7361092F8360895B1
:102CA8009091A50893709330E1F0880F682B60939A
:102CB800A708E0EAF8E0858185FD0AC0858182FDE4
:102CC80007C0858183FD04C085818370833099F7AF
:102CD8000E946F19882339F083E08093A40880E06C
:0A2CE800089580E0089581E008954A
:102CF2000E94A516E8F09E37E8F09639B8F49E389F
:102D020048F4672F782F8827985FF9CF86957795B3
:102D1200679593959539D0F3B62FB1706B0F711DEE
:102D2200811D20F487957795679593950C94A61746
:082D32000C9499190C94771A16
:102D3A0057FD9058440F551F59F05F3F71F0479562
:102D4A00880F97FB991F61F09F3F79F08795089547
:102D5A00121613061406551FF2CF4695F1DF08C066
:102D6A00161617061806991FF1CF86957105610583
:042D7A00089408951C
:102D7E00A1E21A2EAA1BBB1BFD010DC0AA1FBB1F71
:102D8E00EE1FFF1FA217B307E407F50720F0A21BE3
:102D9E00B30BE40BF50B661F771F881F991F1A9450
:102DAE0069F760957095809590959B01AC01BD017A
:042DBE00CF010895A4
:102DC200CF9384E096E80E9464130E94961A8823A7
:102DD20021F00E94D51A0E94AB180E94AE1A8823D5
:102DE200A1F30E948A1A882381F30E94051AC82F30
:0C2DF2000E94D21ACA3049F7CF91089510
:102DFE000E94A7190E94C1170E94531A0E94C01860
:102E0E000E9470170E94CC190E94D41878940E94C8
:102E1E007D190E948B178AEF94EB0E94941184E027
:0A2E2E00809346040E943D04FDCF8E
:102E3800CF93DF930E94990E87E00E941519D62F31
:102E4800C72F7F936F938AE99EE89F938F930E9481
:102E580056188D2F9C2F0E94700C0F900F900F907A
:082E68000F90DF91CF91089556
:102E7000CF93DF93EC018BE198E80E9464138CE818
:102E800095E80E94641380E398E80E946413CE01E1
:102E90000E94641384E498E80E943013CE010E94DB
:082EA0003013DF91CF9108957A
:102EA800CF93DF93EC018BE198E80E9464138CE8E0
:102EB80095E80E94641383E598E80E946413CE01A4
:102EC8000E94641389E698E80E943013CE010E949C
:082ED8003013DF91CF91089542
:102EE000E0E8FAE080E197E28487958780E18183DA
:102EF00081E0858393E09083E0E9FAE02FE730E01A
:102F00002487358746E0418341E1448390832287CB
:062F10003387858308955C
:102F16000E94811882EC92EA0197F1F700C00E94A4
:102F2600050A60E080E00E94421941E061E081E02C
:102F36000E94D81981E00E94DB1A0E94CC1381E01E
:062F46008093FF360895A0
:102F4C00882371F4772321F09850872B762F07C0B4
:102F5C00662311F499270DC09051862B70E060E028
:102F6C002AF09A95660F771F881FDAF7880F9695C7
:062F7C00879597F9089506
:102F8200E0E4F4E0808181608083848181608483D5
:102F920080818D7F808381898860818B80E18093AD
:102FA2002104E0E0F4E08081806480838581806494
:042FB2008583089576
:102FB600CF93DF9300D0CDB7DEB7809156348C7FA8
:102FC60081608093563494EF99838A8342E0BE01F0
:102FD6006F5F7F4F86E70E946C180F900F90DF910E
:042FE600CF910895EA
:102FEA002F923F924F925F926F927F928F929F920F
:102FFA00AF92BF92CF92DF92EF92FF920F931F93FD
:10300A00CF93DF93CDB7DEB7CA1BDB0BCDBFDEBFD5
:02301A00099417
:10301C001F920F920FB60F9211248F93EF93FF9381
:10302C00E0E0F6E080E2858380E1858388E08583BB
:10303C00FF91EF918F910F900FBE0F901F901895ED
:10304C002091F9363091FA36369527953695279595
:10305C0036952795A5ECB0E20E9460199295829561
:10306C008F7089279F70892794E6981B892F089564
:10307C002A88398848885F846E847D848C849B84FC
:10308C00AA84B984C884DF80EE80FD800C811B810A
:10309C00AA81B981CE0FD11DCDBFDEBFED01089540
:1030AC00A0E0B0E0ECE5F8E10C940518AE014B5F44
:1030BC005F4FFA0161917191AF018091AD349091A4
:0C30CC00AE340E94DA00E2E00C944E18D2
:1030D8001F93CF93DF93EB01142F60E00E945416E7
:1030E800882339F0612FCE010E94E01593E0909378
:0A30F800A408DF91CF911F91089505
:10310200CF93DF9300D0CDB7DEB780EE898386EB15
:103112008A8342E0BE016F5F7F4F86E70E946C1890
:0A3122000F900F90DF91CF910895F8
:10312C0090910137292F30E0B9016F5F7F4F4091AB
:10313C00023750E06417750739F0F901EF54FB4C76
:0A314C0080839F5F90930137089580
:1031560090910337292F30E0B9016F5F7F4F40917F
:10316600043750E06417750739F0F901EF54FA4C4B
:0A31760080839F5F90930337089554
:1031800082E08093E405E0E0FAE082E090E082A74C
:1031900093A710A211A283E2818383E090E086A32B
:0831A00097A381E080830895EC
:1031A80087EF80931704E0E0F6E081E08083818375
:1031B80080E282838FEF808787E0848780E182873F
:0231C800089568
:1031CA00092E0394000C11F4882352F0BB0F40F42B
:1031DA00BF2B11F460FF04C06F5F7F4F8F4F9F4F6B
:0231EA00089546
:1031EC00DB018F939F930E94101ABF91AF91A29F06
:1031FC00800D911DA39F900DB29F900D11240895E9
:10320C00E0E0F6E09485907C94879485892B848704
:0E321C0082858F778287828581608287089500
:10322A000E9406190E94BF1A8823E1F3E0E0F6E043
:0E323A00608971898289938921E02583089536
:103248001F920F920FB60F9211248F9382E08093F2
:0E32580005068F910F900FBE0F901F901895D6
:103266001F920F920FB60F9211248F9381E08093D5
:0E32760005068F910F900FBE0F901F901895B8
:1032840087708295807F2091103421786770962F03
:0E329400990F622F682B692B609310340895F8
:1032A2008DEE97E80E9464138BE296E80E94641305
:0E32B2008CEF97E80E94FD130E94E11608952C
:1032C000A29FB001B39FC001A39F700D811D112467
:0E32D000911DB29F700D811D1124911D089556
:1032DE008091A5088C7141F49091A508937081E0BE
:0C32EE00933019F080E0089581E008950D
:1032FA000E943B1AE0EAF8E084E0808381E082835E
:0C330A009DEF95839DE0968383830895DA
:10331600CF93C82F0E948A1A882331F0E0E0F8E0A4
:0C332600948190649483C283CF91089539
:103332009F3F31F0915020F4879577956795B79527
:0C334200880F911D9695879597F90895C6
:10334E000E940F150E94E80B0E94B7140E942E16C1
:0A335E000E94A21A0E94B4190895FB
:1033680040E068ED80E191E00E94C31AE0E1F1E0FD
:083378001282138280E0089527
:10338000CF93C82F0E948A1A8823E1F3C0930208C2
:0833900080E090E0CF91089568
:10339800E0E4F1E081E08783828B818980FDFDCFC5
:0833A80089E4809350010895AF
:1033B0008295880F807E6770660F660F4370862B3C
:0833C000842B8093563408951C
:1033C8000E94C50A0E94D41120E030E048EC52E483
:0633D8000E94C71A0895CF
:1033DE000E940D080E94D41120E030E040E85AE32C
:0633EE000E94CB1A0895B5
:1033F40090910237E92FF0E0EF54FB4C80819F5FFE
:06340400909302370895C9
:10340A0090910437E92FF0E0EF54FA4C80819F5FE6
:06341A00909304370895B1
:103420000E946019A59F900DB49F900DA49F800DE0
:06343000911D1124089516
:10343600FC010590615070400110D8F78095909579
:063446008E0F9F1F089588
:10344C00FC016150704001900110D8F78095909567
:06345C008E0F9F1F089572
:103462008091FB369091FC3681608093FB3690937D
:04347200FC36089587
:10347600E0E2F4E083E0818388E0808B818B08952D
:103486009B01AC0160E070E080E89FE30C94C71AF2
:10349600B7FF0C94101A0E94101A821B930B089502
:0E34A600E0E8F1E081E4838B84E082AB0895DE
:0E34B4005058BB27AA270E94320E0C94E51830
:0E34C2000E942C146894B1110C94771A08958E
:0E34D00000240A941616170618060906089519
:0E34DE0000240A94121613061406050608951B
:0E34EC00E894BB2766277727CB0197F9089550
:0D34FA00726573657474696E672E2E2E0066
:0C35080080910408881F8827881F089500
:0C3514008091040885FB882780F9089549
:0C3520008091040886FB882780F908953C
:0C352C0080912408881F8827881F0895BC
:0C3538008091240885FB882780F9089505
:0C354400E0EAF0E01082118280E00895BF
:0C3550008091023790910137891B08958B
:0C355C008091043790910337891B08957B
:0C35680097F99F6780E870E060E008952C
:0A3574000E94DB170E94590B089516
:08357E0080910506817008959B
:08358600FC0164BF40830895BD
:08358E000E94EE0C0C94E518FC
:083596000E94C80D0C94E51819
:06359E0080910008089571
:0635A40080930208089567
:0635AA0080912008089545
:0635B0008093220808953B
:0635B60080934D340895DE
:0635BC000E948D1008952D
:0635C2000E94511908955A
:0635C8009FEF80EC089566
:0435CE000C94000059
:0235D20008955A
:0235D400089558
:0235D600089556
:0235D800089554
:0235DA00089552
:0235DC00089550
:0235DE0008954E
:0235E00008954C
:0235E20008954A
:0235E400089548
:0235E600089546
:0235E800089544
:0235EA00089542
:0235EC00089540
:0235EE0008953E
:0235F00008953C
:0235F20008953A
:0E35F4000000000200000000C01900000000EE
:02000004008278
:090000000000020000C40700002A
:00000001FF
