:100000000C9486000C94EC1A0C94EC1A0C94EC1AD8
:100010000C948E140C94EC1A0C9419110C94C812B4
:100020000C94EC1A0C94EC1A0C94EC1A0C94EC1A38
:100030000C94EC1A0C9460140C94EC1A0C94EC1ABA
:100040000C94EC1A0C94EC1A0C94EC1A0C94EC1A18
:100050000C94EC1A0C9413180C9438190C9429195C
:100060000C9459110C946A150C94EC1A0C94EC1A1B
:100070000C94EC1A0C94EC1A07634236B79BD8A781
:100080001A39685618AEBAAB558C1D3CB7CC5763BD
:10009000BD6DEDFD753EF6177231BF000000803F6B
:1000A00008000000BE922449123EABAAAA2ABECD87
:1000B000CCCC4C3E00000080BEABAAAAAA3E0000F9
:1000C0000000BF000000803F0000000000084178F1
:1000D000D3BB4387D1133D190E3CC3BD4282AD2B28
:1000E0003E68EC8276BED98FE1A93E4C80EFFFBE20
:1000F00001C4FF7F3F0000000000340036B38036AB
:10010000B336C10035FE36C13707800011241FBE4B
:10011000CFEFCDBFDFE3DEBFEAEFF0E041E017C095
:10012000B591A59135912591059107FD0CC095914B
:100130008591EF01F92FE82F05900D92A217B307D3
:10014000D9F7FE0104C01D92A217B307E1F7EB3007
:10015000F40731F70E9404170C94AE00F894FFCF17
:10016000E3076400E4075F00ED075A00FC07550051
:100170001308500031084B00560846008208410021
:10018000B6083C00F0083700320932007A092D0029
:10019000CA092800210A23007F0A1E00E40A190068
:1001A000500B1400C30B0F003E0C0A00BF0C0500DF
:0401B000480D0000F6
:1001B400ABE0B0E0E0EEF0E00C94FA176C017B01E8
:1001C4008A01FC0116821782838181FFCCC1CE0192
:1001D40001963C01F6019381F70193FD859193FF0C
:1001E40081917F01882309F4BAC1853239F493FDE2
:1001F400859193FF81917F01853229F4B60190E0C6
:100204000E941612E7CF912C212C312CFFE1F3151B
:10021400D8F08B3279F038F4803279F08332A1F45B
:10022400232D20611DC08D3261F0803369F4232DAC
:10023400216016C0832D8260382EE32DE4603E2EAB
:100244002AC0F32DF8601DC037FC2DC020ED280F07
:100254002A3040F08E32B9F436FC81C1232D20645B
:10026400322E19C036FE06C08AE0989E200D112455
:10027400922E11C0EAE02E9E200D1124222EF32D81
:10028400F0623F2E08C08C3621F4832D8068382E0E
:1002940002C0883641F4F70193FD859193FF819163
:1002A4007F018111B3CF982F9F7D9554933028F40B
:1002B4000C5F1F4F9FE399830DC0833631F0833762
:1002C40071F0833509F059C021C0F8018081898318
:1002D4000E5F1F4F88248394912C530113C028016F
:1002E400F2E04F0E511CF801A080B18036FE03C02D
:1002F400692D70E002C06FEF7FEFC5010E942B1AD9
:100304004C018201F32DFF773F2E16C0280122E015
:10031400420E511CF801A080B18036FE03C0692D45
:1003240070E002C06FEF7FEFC5010E94201A4C01FC
:10033400F32DF0683F2E820133FC1BC0822D90E028
:1003440088169906B0F4B60180E290E00E94161275
:100354002A94F4CFF50137FC859137FE81915F0132
:10036400B60190E00E94161221102A9421E0821A0C
:1003740091088114910471F7E8C0843611F089362C
:1003840041F5F80137FE07C0608171818281938154
:100394000C5F1F4F08C060817181072E000C880B11
:1003A400990B0E5F1F4FF32DFF763F2E97FF09C069
:1003B40090958095709561957F4F8F4F9F4FF06812
:1003C4003F2E2AE030E0A3010E94020F882E8618F7
:1003D40045C0853731F4232D2F7EB22E2AE030E03C
:1003E40025C0932D997FB92E8F36C1F018F4883526
:1003F40079F0B5C0803719F0883721F0B0C0E92F03
:10040400E061BE2EB4FE0DC0FB2DF460BF2E09C00A
:1004140034FE0AC0292F2660B22E06C028E030E040
:1004240005C020E130E002C020E132E0F801B7FE6F
:1004340007C060817181828193810C5F1F4F06C068
:100444006081718180E090E00E5F1F4FA3010E94E4
:10045400020F882E8618FB2DFF773F2E36FE0DC027
:10046400232D2E7FA22E891458F434FE0BC032FCA7
:1004740009C0832D8E7EA82E05C0B82CA32C03C0E2
:10048400B82C01C0B92CA4FE0FC0FE01E80DF11D6B
:100494008081803321F49A2D997EA92E09C0A2FE71
:1004A40006C0B394B39404C08A2D867809F0B3943B
:1004B400A3FC11C0A0FE06C0B21488F4280C922C30
:1004C4009B180EC0B21460F4B60180E290E00E9462
:1004D4001612B394F7CFB21418F42B1802C0982C48
:1004E400212CA4FE10C0B60180E390E00E941612F5
:1004F400A2FE17C0A1FC03C088E790E002C088E513
:1005040090E0B6010CC08A2D867859F0A1FE02C095
:100514008BE201C080E2A7FC8DE2B60190E00E946C
:100524001612891438F4B60180E390E00E94161282
:100534009A94F7CF8A94F301E80DF11D8081B601F6
:1005440090E00E9416128110F5CF222009F442CEC9
:10055400B60180E290E00E9416122A94F6CFF601CA
:100564008681978102C08FEF9FEF2B96E2E10C9476
:0205740043182A
:100576000D526573657474696E67204C5232204360
:100586006C69636B0A002D2D2D2D2D2D2D2D2D2DF6
:100596002D2D2D2D2D2D2D2D2D2D2D2D2D2D2D2D85
:1005A6002D2D2D2D2D2D2D2D2D2D2D2D2D2D2D2D75
:1005B6002D2D2D2D2D2D2D2D2D2D0A004669726DDB
:1005C600776172653A20000D0A54783A20000D0AC8
:1005D60054783A206D61632073657420617070737E
:1005E6006B65790D0A000D0A54783A206D61632017
:1005F600736574206E776B736B65790D0A000D5207
:10060600783A20000A0A436F6E6669677572696EEA
:1006160067204C523220436C69636B20466F722010
:100626004142500A002D2D2D2D2D2D2D2D2D2D2DF8
:100636002D2D2D2D2D2D2D2D2D2D2D2D2D2D2D2DE4
:100646002D2D2D2D2D2D2D2D2D2D2D2D2D2D2D2DD4
:100656002D2D2D2D2D2D2D2D2D2D2D2D2D2D2D2DC4
:100666002D2D2D2D2D2D2D2D2D2D2D2D0A006D6190
:10067600632073657420646576657569203730423A
:10068600334435374544303035363430330D0A007F
:100696006D6163207365742064657661646472209D
:1006A60032363043303333330D0A006D61632073C5
:1006B600657420617070736B6579203833364638FF
:1006C600303945373646323931413532394335349A
:1006D60030413033373145343133370D0A006D61DF
:1006E6006320736574206E776B736B65792045386C
:1006F600343039354541324346363436373944305D
:1007060042323033313941313433393738390D0AD1
:10071600006D616320736574206172206F6E0D0A2F
:10072600006D61632073657420727864656C61790D
:100736003120353030300D0A006D616320736574E9
:1007460020616472206F6E0D0A006D616320736113
:1007560076650D0A000A0A000A0A436F6E66696723
:100766007572696E67204C523220436C69636B2048
:10077600666F72204F5441410A006D6163207365B4
:1007860074206170706B657920383336463830399D
:1007960045373646323931413532394335343041C1
:1007A6003033373145343133370D0A006D616320FC
:1007B6007365742061707065756920303030303033
:1007C60030303030303030303030300D0A006D612E
:1007D600632070617573650D0A006D616320726533
:1007E60073756D650D0A000A0A4A6F696E696E6750
:1007F6002054544E0A006D6163206A6F696E206151
:1008060062700D0A006D6163206A6F696E206F74F5
:1008160061610D0A000A0A5472616E736D6974741F
:10082600696E6720446174610A000A54783A206D43
:10083600616320747820636E6620343220006D6117
:100846006320747820636E6620343220000A547860
:100856003A206D616320747820756E636E6620346D
:100866003320006D616320747820756E636E662098
:0408760034332000F7
:10087A004F925F926F927F928F929F92AF92BF92A6
:10088A00CF92DF92EF92FF92C0907534D090763477
:10089A00E0907734F0907834F594E794D794C7943D
:1008AA008AEFD81AE108F108C701B601959587952C
:1008BA007795679595958795779567959B01AC018F
:1008CA000E94FB184B015C01E9E7F4E3A285B385BA
:1008DA009B01AC01012E1DE055954795379527954B
:1008EA001A95D1F7102D0E94501A2B013C016894D9
:1008FA0012F875946794579447941694D1F7A08583
:10090A00B185A70196010E94501ADC01CB01B59569
:10091A00A79597958795840D951DA61DB71D072E3A
:10092A0072E1B595A795979587957A95D1F7702D28
:10093A009C01AD0130584F4F5F4FA681B7810E948D
:10094A00151A2B013C01032E3FE0759467945794C6
:10095A0047943A95D1F7302D41145104610471043A
:10096A0009F4CEC0A5019401012E1BE055954795C7
:10097A00379527951A95D1F7102DA089B1890E942C
:10098A00501A4B015C01A685B785A70196010E9402
:10099A00501ADC01CB01880F991FAA1FBB1F880EB2
:1009AA00991EAA1EBB1ED501C401B595A795979598
:1009BA008795B595A7959795879584849584092CED
:1009CA00000CAA08BB08540199248824880E991E91
:1009DA00AA1EBB1E072E7CE0B594A7949794879411
:1009EA007A95D1F7702D80914E3490914F34A09121
:1009FA005034B0915134A5019401280F391F4A1F70
:100A0A005B1FABECB3EF0E94531A805B9C439923A4
:100A1A005CF0660F771F881F991FA30192010E943D
:100A2A00C41669017A010AC0A30192010E94C41680
:100A3A0069017A01CC0CDD1CEE1CFF1CC701B60152
:100A4A00689412F896958795779567951694D1F7D5
:100A5A009B01AC010E94FB189B01AC01012E1DE019
:100A6A0056954795379527951A95D1F7102DE9E7A9
:100A7A00F4E3A689B7890E94501A4B015C01072E3C
:100A8A007CE0B594A794979487947A95D1F7702DC2
:100A9A00A7019601569547953795279556954795F7
:100AAA0037952795A489B5890E94501ADC01CB0194
:100ABA00072E7DE0B595A795979587957A95D1F7F5
:100ACA00702DB501A401480F591F6A1F7B1F828927
:100ADA009389092E000CAA0BBB0B840F951FA61F26
:100AEA00B71F689413F8B595A795979587951694A7
:100AFA00D1F7BC01CD016C0D7D1D8E1D9F1D03C05C
:100B0A0060E070E0CB01FF90EF90DF90CF90BF9054
:100B1A00AF909F908F907F906F905F904F900895C5
:100B2A008091FD369091FE3680FF3DC0809102375C
:100B3A008130C9F028F08230E9F08530F9F02AC016
:100B4A000E94D7100E94E31A0E94E61A8091FD368D
:100B5A009091FE3684608093FD369093FE3681E054
:100B6A008093023717C083E08093023781E0809335
:100B7A00450410C083E0809302370CC086E080935E
:100B8A0002378091FF369091003701968093FF36A5
:100B9A00909300378091FD369091FE368E7F809338
:100BAA00FD369093FE368091FD369091FE3682FF97
:100BBA000CC081E0809346048091FD369091FE3608
:100BCA008B7F8093FD369093FE3680910237833077
:100BDA0071F018F4813041F00895843009F448C066
:100BEA00863009F465C008950E949415089581EC31
:100BFA0096E30E94BD1561EC76E38AE994E30E94CC
:100C0A00F2074091FB365091FC369A01ADECBCECF0
:100C1A000E946519969587959695879596958795D5
:100C2A009C01220F331F880F991F880F991F880F65
:100C3A00991F820F931F4817590729F48AE994E3E9
:100C4A000E943D1704C08AE994E30E9459178091D3
:100C5A00FB369091FC3601968093FB369093FC36D6
:100C6A00E0E4F1E080818160808384E08093023750
:100C7A008091D5369091D636A091D736B091D83694
:100C8A00843B9105A105B10581F483E08093023785
:100C9A00E0E4F1E080818E7F80831092D536109255
:100CAA00D6361092D7361092D8360E9494150895E7
:100CBA008091FF369091003782309105F9F08330A8
:100CCA00910589F1019709F068C01F9281E08F931D
:100CDA0087EB9FE89F938F930E945B1885E0809330
:100CEA0002372AE634E081E0215030408040E1F7C3
:100CFA0000C00F900F900F900F9008951F9282E0FE
:100D0A008F9387EC9FE89F938F930E945B1881ECE7
:100D1A0096E30E94BD1585E0809302370F900F90ED
:100D2A000F900F9008951F9283E08F9386ED9FE8AE
:100D3A009F938F930E945B18E5E0F4E088E080833C
:100D4A009AE624E031E0915020403040E1F700C0BB
:100D5A00809306049FE32DE033E091502040304019
:100D6A00E1F700C0000080839AE624E031E0915068
:100D7A0020403040E1F700C0809345048AE29CE2BB
:100D8A002AE0815090402040E1F7000085E08093FE
:0C0D9A0002370F900F900F900F900895FB
:100DA6000A416674657220313030204D6F69737464
:100DB6007572652052656164696E6773002D2D2D0D
:100DC6002D2D2D2D2D2D2D2D2D2D2D2D2D2D2D2D4D
:100DD6002D2D2D2D2D2D2D2D2D2D2D2D2D2D2D2D3D
:100DE6002D2D2D2D2D2D2D2D2D2D2D2D2D2D2D2D2D
:100DF6002D2D2D2D2D2D2D2D2D2D2D2D2D2D2D2D1D
:100E06002D2D2D2D00546865204D415820726561A9
:100E160064696E67207761732025640A00546865EB
:100E2600204D494E2072656164696E672077617353
:100E36002025640A0A00546865204D4158206D61DA
:100E4600707320746F2025640A00546865204D492C
:100E56004E206D61707320746F2025640A0025751D
:100E66000D0A000A0A43757272656E742053656E28
:100E7600736F7220446174610A002D2D2D2D2D2D66
:100E86002D2D2D2D2D2D2D2D2D2D2D2D2D2D2D2D8C
:100E96002D2D2D2D2D2D2D2D2D2D2D2D2D2D2D2D7C
:100EA6002D2D2D2D2D2D2D2D2D2D2D2D2D2D2D2D6C
:100EB6002D2D2D2D2D2D2D2D2D2D2D2D2D2D2D2D5C
:100EC6002D0A0052656C61746976652048756D69F6
:100ED600646974793A2025752525200D0A004D6F21
:100EE6006973747572653A2025752525200D0A00EB
:100EF60050726573737572653A2025752068506166
:100F06000D0A004169722054656D706572617475D1
:100F160072653A2025692043200D0A0042617474E7
:100F2600657279204C6576656C3A202575252520F5
:100F36000D0A0A000A4A534F4E20466F726D6174BD
:100F46000D005061796C6F61643A207B2061697293
:100F56005F74656D703A2025692C20626174746532
:100F660072793A2025752C2068756D6964697479E3
:100F76003A2025752C206D6F6973747572653A2059
:100F860025752C2070726573737572653A20257508
:100F96002C206E756D54783A2025750D0A0A7D0051
:100FA6003031323334353637383941424344454699
:100FB60000426567696E20546573742025640D0AC6
:100FC600005465737420256420424D453238300044
:0D0FD60054657374202564204C6F52610037
:100FE400CF93DF93CDB7DEB76197CDBFDEBF21E1ED
:100FF400E6EAFFE8DE01119601900D922A95E1F7E9
:10100400DB012C9122952F70E1E0F0E0EC0FFD1F45
:10101400E20FF11D2081FC0120832C912F70E1E06F
:10102400F0E0EC0FFD1FE20FF11D2081DC011196B1
:101034002C931197FB01218122952F70E1E0F0E0C0
:10104400EC0FFD1FE20FF11D208112962C93DB01A2
:1010540011962C9111972F70E1E0F0E0EC0FFD1F39
:10106400E20FF11D2081FC01238314962C9122951B
:101074002F70E1E0F0E0EC0FFD1FE20FF11D208185
:10108400DC0114962C931497FB0124812F70E1E06A
:10109400F0E0EC0FFD1FE20FF11D208115962C935B
:1010A400DB0113964C911397242F22952F7030E077
:1010B400E1E0F0E0EC0FFD1FE20FF31F2081FC01E3
:1010C400268313962C9130E02F703327E1E0F0E073
:1010D400EC0FFD1FE20FF31F2081DC0117962C9308
:1010E400DB011296ED91FC911397F295E295EF7066
:1010F400EF27FF70EF27EF70FF2721E030E02C0F80
:101104003D1FE20FF31F2081DC0118962C93DB01B5
:101114001296ED91FC911397EF70FF2721E030E0D8
:101124002C0F3D1FE20FF31F2081DC0119962C9335
:101134001997FB01258122952F70E1E0F0E0EC0F77
:10114400FD1FE20FF11D20811A962C93DB011596E9
:101154002C9115972F70E1E0F0E0EC0FFD1FE20FEA
:10116400F11D2081FC01238717964C91242F229591
:101174002F7030E0E1E0F0E0EC0FFD1FE20FF31F11
:101184002081DC011C962C931C97FB01278130E005
:101194002F703327E1E0F0E0EC0FFD1FE20FF31FA7
:1011A40020811D962C93DB011696ED91FC911797E7
:1011B400F295E295EF70EF27FF70EF27EF70FF27AE
:1011C40021E030E02C0F3D1FE20FF31F2081DC01F2
:1011D4001E962C93DB011696ED91FC911797EF70F8
:1011E400FF2721E030E02C0F3D1FE20FF31F208189
:1011F400DC011F962C931F972DE050962C9350974B
:101204002AE051962C93519752961C926196CDBF29
:08121400DEBFDF91CF910895C8
:10121C004F925F926F927F928F929F92AF92BF92FA
:10122C00CF92DF92EF92FF9280907534909076344B
:10123C00A0907734B09078342CE2921A21E0A20A74
:10124C00B108C0900C34D0900D34E0900E34F09076
:10125C000F340B2EBEE0CC0CDD1CEE1CFF1CBA9523
:10126C00D1F7B02DE9E7F4E3848D958D092E000CB0
:10127C00AA0BBB0B072E74E1880F991FAA1FBB1F6B
:10128C007A95D1F7702DC81AD90AEA0AFB0AA68DED
:10129C00B78DA50194010E94501AC61AD70AE80A04
:1012AC00F90A30E4D30EE11CF11C0B2EBFE0F594CF
:1012BC00E794D794C794BA95D1F7B02DA38DB0E02D
:1012CC00A50194010E94151A2B013C01032E3BE051
:1012DC0075946794579447943A95D1F7302D40E81C
:1012EC00540E611C711CA0A10A2E000CBB0BA50195
:1012FC0094010E94501A052E5AE095958795779582
:10130C0067955A95D1F7502DA30192010E94FB18B5
:10131C00DC01CB01072E7AE0B595A79597958795BB
:10132C007A95D1F7702D9C01AD01405E5F4FA18D78
:10133C00B28D0E94501ADC01CB01905EAF4FBF4FB3
:10134C00BC01CD01052E5EE0959587957795679547
:10135C005A95D1F7502DA70196010E94FB186B01ED
:10136C007C01052E5FE095958795779567955A9545
:10137C00D1F7502D9B01AC010E94FB189B01AC01D5
:10138C00689416F855954795379527951694D1F787
:10139C00A08DB0E00E94151ADC01CB01689413F803
:1013AC00B595A795979587951694D1F7A7019601B2
:1013BC00281B390B4A0B5B0BDA01C9011AF480E0CC
:1013CC0090E0DC0181309105A10539E1B30724F0EF
:1013DC0080E090E0A0E0B9E1BC01CD01052E5CE01D
:1013EC0095958795779567955A95D1F7502DFF90E0
:1013FC00EF90DF90CF90BF90AF909F908F907F90A9
:08140C006F905F904F9008956E
:101414000F931F93CF93DF93CDB7DEB76897CDBFFC
:10142400DEBF28E1AE014F5F5F4F68E886E70E94A8
:101434004A1009E714E38A8190E0982F88272981CC
:10144400820F911DF801808391838C8190E0982F05
:1014540088272B81820F911D828393838E8190E054
:10146400982F88272D81820F911D848395838885E9
:1014740090E0982F88272F81820F911D8683978370
:101484008A8590E0982F88272985820F911D80876F
:1014940091878C8590E0982F88272B85820F911D4A
:1014A400828793878E8590E0982F88272D85820FD9
:1014B400911D84879587888990E0982F88272F85A8
:1014C400820F911D868797878A8990E0982F8827B5
:1014D4002989820F911D808B918B8C8990E0982FA4
:1014E40088272B89820F911D828B938B8E8990E0A4
:1014F400982F88272D89820F911D848B958B888D39
:1015040090E0982F88272F89820F911D868B978BC7
:1015140021E0AE014F5F5F4F61EA86E70E944A1007
:101524008981F801808F27E0AE014F5F5F4F61EE44
:1015340086E70E944A102A8130E0322F22279981BF
:10154400290F311DF801218F328F9B81938F9D814B
:101554002C81F0E12F9F90011124492F4F70242BEF
:10156400F801248F358F2E81F0E12F9F90011124F3
:1015740092959F70292BF801268F378F9F8190A316
:101584006896CDBFDEBFDF91CF911F910F91089573
:101594008F929F92AF92BF92CF92DF92EF92FF927F
:1015A4008091523490915334A0915434B091553475
:1015B400E9E7F4E34081518160E070E06C017D0172
:1015C400689413F8F594E794D794C7941694D1F7D4
:1015D400C41AD50AE60AF70A689412F8B595A795CD
:1015E400979587951694D1F7440F551F661F771F5B
:1015F4004C015D01841A950AA60AB70AA501940153
:10160400A281B3810E94501A4B015C01072E7BE03A
:10161400B594A794979487947A95D1F7702DA701E0
:101624009601C701B6010E94FB189B01AC01012E73
:101634001CE055954795379527951A95D1F7102DA8
:10164400A481B5810E94501ADC01CB01072E7EE0F3
:10165400B595A795979587957A95D1F7702D880DAF
:10166400991DAA1DBB1D8093753490937634A09365
:101674007734B09378346C017D01CC0CDD1CEE1C06
:10168400FF1CCC0CDD1CEE1CFF1C8C0D9D1DAE1D27
:10169400BF1D80589F4FAF4FBF4F692F7A2F8B2F9D
:1016A400992787FD9A95FF90EF90DF90CF90BF9098
:0816B400AF909F908F90089504
:1016BC00CF93DF93CDB7DEB72897CDBFDEBF28E041
:1016CC00AE014F5F5F4F67EF86E70E944A108F8134
:1016DC0090E0A0E0B0E0BA2FA92F982F882728859A
:1016EC00822B80930C3490930D34A0930E34B093D2
:1016FC000F348C8190E0A0E0B0E0AC01BD01032E72
:10170C003CE0440F551F661F771F3A95D1F7302DDB
:10171C009D81892F90E0A0E0B0E0880F991FAA1F4F
:10172C00BB1F880F991FAA1FBB1F880F991FAA1FC9
:10173C00BB1F880F991FAA1FBB1F842B952BA62B91
:10174C00B72B2E8122952F70822B8093523490933D
:10175C005334A0935434B0935534898190E0A0E075
:10176C00B0E0AC01BD01032E3CE0440F551F661FD9
:10177C00771F3A95D1F7302D9A81892F90E0A0E010
:10178C00B0E0880F991FAA1FBB1F880F991FAA1FB3
:10179C00BB1F880F991FAA1FBB1F880F991FAA1F59
:1017AC00BB1F842B952BA62BB72B2B8122952F702F
:1017BC00822B80934E3490934F34A0935034B0933B
:0E17CC0051342896CDBFDEBFDF91CF91089536
:1017DA00CF93DF93C0E0D4E08AE08883A0E2B4E04C
:1017EA0084E08C93E0E4F4E08DE080831C8214961C
:1017FA001C9214971482188A198A1A8A1B8A1C8ABC
:10180A001D8A1E8A1F8A50961C92509751961C92C6
:10181A00519752961C92529753961C9253975496EC
:10182A001C92549781E055968C93559756961C9224
:10183A00569757961C92108A118A128A138A148A0A
:10184A00158A168A178AE0EEF5E011821082138251
:10185A001482158212828EEE9AE18093F536909365
:10186A00F6368FEE9AE18093F3369093F43680EF52
:10187A009AE18093F1369093F23681EF9AE1809360
:10188A00EF369093F03682EF9AE18093ED3690939B
:10189A00EE3683EF9AE18093EB369093EC3684EF41
:1018AA009AE18093E9369093EA3685EF9AE180933C
:1018BA00E7369093E83686EF9AE18093E53690937F
:1018CA00E63687EF9AE18093E3369093E43688EF21
:1018DA009AE18093E1369093E236DF91CF910895B1
:1018EA008F929F92AF92BF92EF92FF920F931F93A4
:1018FA00CF93DF939C01233E87E0380708F460C04A
:10190A0029348DE0380708F05DC0243E87E03807A7
:10191A0078F090E09E5FC92FD0E0FE01EE0FFF1F26
:10192A00E05AFE4F059115910217130798F304C068
:10193A0003EE17E0C0E0D0E0B901FE01EE0FFF1F91
:10194A00E45AFE4FE590F5906E197F0980E090E029
:10195A000E94D9114B015C01B8016E197F0980E020
:10196A0090E00E94D9119B01AC01C501B4010E940B
:10197A00CC1A9B01AC0160E070E080E89FE30E9412
:10198A005F1A20E030E040EA50E40E94D01A4B018E
:10199A005C01FE01EE0FFF1FEE59FE4F6591759136
:1019AA0080E090E00E94D9119B01AC01C501B4010D
:1019BA000E94601A0E947E160E94661A862F03C031
:1019CA0084E601C080E0DF91CF911F910F91FF90D3
:0C19DA00EF90BF90AF909F908F90089509
:1019E60010C00E94741A58F00E946D1A40F029F433
:1019F6005F3F29F00C94B91A51110C947C1A0C947F
:101A0600E91A0E94A21668F39923B1F3552391F3BC
:101A1600951B550BBB27AA2762177307840738F057
:101A26009F5F5F4F220F331F441FAA1FA9F335D0B4
:101A36000E2E3AF0E0E832D091505040E695001C68
:101A4600CAF72BD0FE2F29D0660F771F881FBB1F22
:101A5600261737074807AB07B0E809F0BB0B802D00
:101A6600BF01FF2793585F4F3AF09E3F510578F02C
:101A76000C94B91A0C947C1A5F3FE4F3983ED4F3A5
:101A8600869577956795B795F7959F5FC9F7880F00
:101A9600911D9695879597F90895E1E0660F771F52
:101AA600881FBB1F621773078407BA0720F0621BE3
:0E1AB600730B840BBA0BEE1F88F7E0950895B2
:101AC400CF93DF93EC0189E69EE80E94691380E8D6
:101AD4009EE80E94691389811F928F9389EC9EE886
:101AE4009F938F930E945B188C811F928F9384EE37
:101AF4009EE89F938F930E945B188B818F938A81BA
:101B04008F9386EF9EE89F938F930E945B18888142
:101B1400282F082E000C330B3F938F9389E09FE806
:101B24009F938F930E945B188D811F928F9382E203
:101B34009FE89F938F930E945B188AE39FE80E941B
:101B4400991183EC9DE80E9499118F818F938E8166
:101B54008F938B818F938A818F938C811F928F9324
:101B640089811F928F938D811F928F938881282F53
:101B7400082E000C330B3F938F9388E49FE89F93C8
:101B84008F930E945B188DB79EB782968DBF9EBFC0
:061B9400DF91CF910895DE
:101B9A000FC00E946D1A38F00E94741A20F0952323
:101BAA0011F00C94B91A0C94E91A11240C947C1AA9
:101BBA000E94A21670F3959FC1F3950F50E0551F2E
:101BCA00629FF001729FBB27F00DB11D639FAA2788
:101BDA00F00DB11DAA1F649F6627B00DA11D661FD7
:101BEA00829F2227B00DA11D621F739FB00DA11DF8
:101BFA00621F839FA00D611D221F749F3327A00DB2
:101C0A00611D231F849F600D211D822F762F6A2F4D
:101C1A0011249F5750409AF0F1F088234AF0EE0FB2
:101C2A00FF1FBB1F661F771F881F91505040A9F7DF
:101C3A009E3F510580F00C94B91A0C947C1A5F3FB0
:101C4A00E4F3983ED4F3869577956795B795F7951B
:101C5A00E7959F5FC1F7FE2B880F911D9695879593
:041C6A0097F9089549
:101C6E0011C00E946D1A38F00E94741A20F039F4D7
:101C7E009F3F19F426F40C94E91A0EF4E095E7FB55
:101C8E000C94B91AE92F0E94A21658F3BA176207DC
:101C9E0073078407950720F079F4A6F50C947B1A48
:101CAE000EF4E0950B2EBA2FA02D0B01B901900169
:101CBE000C01CA01A0011124FF27591B99F0593FAD
:101CCE0050F4503E68F11A16F040A22F232F342FF5
:101CDE004427585FF3CF469537952795A795F04043
:101CEE005395C9F77EF41F16BA0B620B730B840B58
:101CFE00BAF09150A1F0FF0FBB1F661F771F881F10
:101D0E00C2F70EC0BA0F621F731F841F48F4879567
:101D1E0077956795B795F7959E3F08F0B0CF939559
:0E1D2E00880F08F09927EE0F97958795089576
:101D3C00EF92FF920F931F938091C9369091CA3600
:101D4C00A091CB36B091CC360196A11DB11D8093DC
:101D5C00C9369093CA36A093CB36B093CC368091CB
:101D6C00DD369091DE36A091DF36B091E0360091F1
:101D7C00D9361091DA362091DB363091DC36BC0145
:101D8C00CD01601B710B820B930B28EE33E040E00E
:101D9C0050E00E94C4162093D1363093D236409333
:101DAC00D3365093D4368091CD369091CE36A091C7
:101DBC00CF36B091D03679018A01E81AF90A0A0BAC
:101DCC001B0BD801C7010297A105B10580F08091CA
:101DDC00DD369091DE36A091DF36B091E0368093FF
:101DEC00D9369093DA36A093DB36B093DC361F915C
:081DFC000F91FF90EF90089594
:101E0400FA01AA27283051F1203181F1E8946F9327
:101E14006E7F6E5F7F4F8F4F9F4FAF4FB1E03ED0CD
:101E2400B4E03CD0670F781F891F9A1FA11D680F6B
:101E3400791F8A1F911DA11D6A0F711D811D911D9E
:101E4400A11D20D009F468943F912AE0269F112413
:101E54003019305D3193DEF6CF010895462F477077
:101E6400405D4193B3E00FD0C9F7F6CF462F4F70D2
:101E7400405D4A3318F0495D31FD4052419302D030
:101E8400A9F7EACFB4E0A6959795879577956795D6
:101E9400BA95C9F700976105710508959B01AC01D6
:101EA4000A2E06945795479537952795BA95C9F7FD
:0C1EB400620F731F841F951FA01D08956E
:101EC00008C016F00C949E190C94E91A68940C94AE
:101ED000B91A0E94AA16A8F39923C1F3AEF3DF93AF
:101EE000CF931F930F93FF92C92FDD2788232AF0EA
:101EF0002197660F771F881FDAF720E030E040E86F
:101F00005FEB9FE3883920F0803E38F021968F7791
:101F10000E94601AE0EAF0E004C00E94601AEDEC52
:101F2000F0E00E940C168B01BE01EC01FB2E6F57F6
:101F300071097595771F880B990B0E94DB1128E1B9
:101F400032E741E35FE30E94CD0DAF2D9801AE0172
:101F5000FF900F911F91CF91DF910E94370E0C944B
:021F6000EA187D
:101F6200FA01EE0FFF1F309621053105A1F161152F
:101F7200710561F48038BFE39B0749F1689490389A
:101F8200810561F08038BFEF9B0741F099234AF544
:101F9200FF3FE1053105210519F1E8940894E79521
:101FA200D901AA2329F4AB2FBE2FF85FD0F310C0BA
:101FB200FF5F70F4A695E0F7F73950F019F0FF3A99
:101FC20038F49F779F930DD00F9007FC9058089597
:101FD20046F00C94E91A60E070E080E89FE308950F
:101FE2004FE79F775F934F933F932F930E94600F2A
:101FF2002F913F914F915F910E94D01A0C945212EF
:102002008F929F92AF92BF92CF92DF92EF92FF9206
:102012000E943D044B015C010E94E91924E036E56F
:102022004AE150E40E94601A23E333E948E853E4AA
:102032000E94601A9B01AC0164E076E58AE190E4BB
:102042000E94CC1A9B01AC0160E070E080E89FE343
:102052000E945F1A28E539E348EA50EC0E94B10F6A
:102062006B017C01C501B4010E94D91120E030E06E
:1020720048EC52E40E94CC1AA70196010E94D01AA1
:10208200FF90EF90DF90CF90BF90AF909F908F9096
:022092000895AF
:10209400EF92FF920F931F93CF93DF931F92CDB7CD
:1020A400DEB769838A01E22E60E00E945916F82E99
:1020B400882369F161E0CE0101960E94E515F82EAE
:1020C400811104C083E08093A40821C0E0EAF8E011
:1020D40087818160878381E08483858185FD0AC04F
:1020E400858182FD07C0858183FD04C0858183705D
:1020F400833099F70E947419882329F083E0809330
:10210400A408F12C04C06E2DC8010E943F158F2D28
:102114000F90DF91CF911F910F91FF90EF90089551
:102124008AE096E80E9469138BE296E80E9469139C
:1021340084E796E80E9402140E94E61686E996E86F
:102144000E9402140E94E61681EB96E80E94011395
:102154000E94E61684EE96E80E94E8140E94E616B1
:1021640087E197E80E9402140E94E61687E297E846
:102174000E9402140E94E6168FE397E80E9402145C
:102184000E94E61680E597E80E9402140E94E61673
:102194008BE597E80E9469132AE684E091E02150D8
:0A21A40080409040E1F700C008956C
:1021AE0086E795E80E9469138CE895E80E9469130A
:1021BE0082EC95E80E94691384E0809346042AE637
:1021CE0034E081E0215030408040E1F700C0E5E08E
:1021DE00F4E088E080839AE624E031E091502040DC
:1021EE003040E1F700C0809306049FE32DE033E01A
:1021FE00915020403040E1F700C0000080839AE605
:10220E0024E031E0915020403040E1F700C080934F
:10221E0045048AE29CE22AE0815090402040E1F79A
:04222E00000008950F
:102232001F920F920FB60F9211242F933F934F9339
:102242005F936F937F938F939F93AF93BF93EF931C
:10225200FF931F9B05C0E091F536F091F636099584
:102262001A9B05C0E091EF36F091F0360995199B63
:1022720005C0E091ED36F091EE3609951B9B05C045
:10228200E091E536F091E63609958FEF83B9FF913B
:10229200EF91BF91AF919F918F917F916F915F91DC
:1022A2004F913F912F910F900FBE0F901F90189555
:1022B2001F920F920FB60F9211242F933F934F93B9
:1022C2005F936F937F938F939F93AF93BF93EF939C
:1022D200FF935B9B05C0E091F136F091F2360995D0
:1022E200599B05C0E091E736F091E8360995589B75
:1022F20005C0E091E336F091E43609955A9B05C09A
:10230200E091E136F091E23609958FEF8BB9FF91BA
:10231200EF91BF91AF919F918F917F916F915F915B
:102322004F913F912F910F900FBE0F901F901895D4
:10233200EF92FF920F931F93CF93DF93E091AF340D
:10234200F091B034238121FF29C08C01D0E0C0E09C
:102352008DEAE82E84E3F82EF80181918F0188231B
:1023620081F0D70112966D917C911397DB0118963B
:10237200ED91FC9119970995892B71F3DFEFCFEF5E
:10238200EBCF6091AF347091B034DB011896ED91D0
:10239200FC9119978AE00995892B19F08FEF9FEF2D
:1023A20002C08D2F9C2FCDB7DEB7E6E00C944F18FC
:1023B200E89409C097FB3EF49095809570956195DD
:1023C2007F4F8F4F9F4F9923A9F0F92F96E9BB2793
:1023D2009395F695879577956795B795F111F8CF0F
:1023E200FAF4BB0F11F460FF1BC06F5F7F4F8F4F7A
:1023F2009F4F16C0882311F096E911C0772321F070
:102402009EE8872F762F05C0662371F096E8862F07
:1024120070E060E02AF09A95660F771F881FDAF75E
:0A242200880F9695879597F90895A5
:10242C000F931F93CF93DF93FB01238121FD03C0F7
:10243C008FEF9FEF2CC022FF16C04681578124815D
:10244C0035814217530744F4A081B1819D012F5F60
:10245C003F4F208331838C93268137812F5F3F4FF1
:10246C002683378314C08B01EC01FB010084F185BA
:10247C00E02D0995892BE1F6D80116968D919C914A
:10248C001797019616968D939C931797CE01DF9113
:08249C00CF911F910F910895EB
:1024A40008C029F416F00C94B91A0C947B1A0C94F5
:1024B400E91A0E94AA16A8F39638A0F707F80F9213
:1024C400E8942BE33AEA48EB5FE70E94E00D0F92B1
:1024D4000F920F924DB75EB70F920E949D13E8E7DB
:1024E400F0E00E940C164F915F91EF91FF91E595FA
:1024F400EE1FFF1F49F0FE57E0684427EE0F441F0C
:10250400FA95E1F74195550B0E948D120F9007FE45
:062514000C94481A089522
:10251A0004C00C94B91A0C949E190E94AA16D8F3F6
:10252A009923C9F3940F511DA3F39150504094F08D
:10253A0059F0882332F0660F771F881F9150504058
:10254A00C1F79E3F51052CF7880F911D96958795E7
:10255A0097F908955F3FACF0983E9CF0BB278695AB
:10256A0077956795B79508F4B1609395C1F7BB0F56
:10257A0058F711F460FFE8CF6F5F7F4F8F4F9F4F7F
:06258A00E3CF0C947C1A63
:102590001F920F920FB60F9211242F933F934F93D8
:1025A0005F936F937F938F939F93AF93BF93EF93BB
:1025B000FF933D9B05C0E091F336F091F436099509
:1025C0003B9B05C0E091EB36F091EC3609953A9BC8
:1025D00005C0E091E936F091EA3609958FEF87B9A9
:1025E000FF91EF91BF91AF919F918F917F916F91EB
:1025F0005F914F913F912F910F900FBE0F901F90C1
:0226000018952B
:10260200EF92FF921F93CF93DF937C0184ED95E8C5
:102612000E946913C7010E9435132AE684E091E003
:10262200215080409040E1F700C010E009C00E94B4
:10263200A11A882341F00E94FF190E94DD1A1F5F30
:10264200E701C10FD11D88818111F1CF2AE684E013
:1026520091E0215080409040E1F700C0DF91CF919E
:082662001F91FF90EF90089515
:10266A000F931F93CF938C01FC014081C0910337D4
:10267A002C2F30E0A0910437B0E0C90101968A17E7
:10268A009B07F1F04423E1F090E0CF5FF901ED54AC
:10269A00FB4C40835C2F590F9F5FF801E90FF11D36
:1026AA004081252F30E0B9016F5F7F4F6A177B07A2
:1026BA0019F45093033704C04111E8CF50930337FC
:0826CA00CF911F910F910895BB
:1026D200EF92FF920F931F93CF93FC01208122234D
:1026E20029F17C01E0E0F8E0848180648483F701D1
:1026F2008081811114C016C00E948F1A8823E1F3D1
:10270200F80180810E949019CF5F87010C0F111D83
:10271200F8019081992331F0CF3F71F703C087010F
:10272200C0E0EACF0E94951A8111FCCFCF911F9190
:082732000F91FF90EF90089554
:10273A00FA01DC01AA0FBB1F9B01AC01BF5728F4A9
:10274A00222733274427507820C0B75190F4AB2F63
:10275A000024469537952795011CA395D2F30020AE
:10276A0071F0220F331F441FB395DAF30ED00C9485
:10277A005F1A61307105A0E88A07B94630F49B01F7
:10278A00AC016627772788279078309621F0208336
:08279A0031834283538308954B
:1027A200CF93DF93CDB7DEB72697CDBFDEBF85EFE0
:1027B2008983809110348A8342E0BE016F5F7F4F2C
:1027C20086E70E94711882EF8B8380914D348C834F
:1027D20042E0BE016D5F7F4F86E70E94711884EF71
:1027E2008D83809156348E8342E0BE016B5F7F4FB2
:1027F20086E70E9471182696CDBFDEBFDF91CF918A
:02280200089537
:10280400FF920F931F93CF93DF938C018DEC95E888
:102814000E946913C8010E946913C8010E943513FC
:10282400F12C09C00E94A11A882341F00E94FF19CB
:102834000E94DD1AF394E801CF0DD11D8881811126
:10284400F1CF2AE684E091E0215080409040E1F706
:0E28540000C0DF91CF911F910F91FF9008956A
:102862000E94AA1688F09F5798F0B92F9927B7515E
:10287200B0F0E1F0660F771F881F991F1AF0BA9522
:10288200C9F714C0B13091F00E947B1AB1E00895EB
:102892000C947B1A672F782F8827B85F39F0B93FDD
:1028A200CCF3869577956795B395D9F73EF49095D5
:0E28B2008095709561957F4F8F4F9F4F0895D1
:1028C0001F920F920FB60F9211248F939F93AF9385
:1028D000BF93EF93FF938091DD369091DE36A09108
:1028E000DF36B091E0360196A11DB11D8093DD3633
:1028F0009093DE36A093DF36B093E036E0E8FAE05E
:10290000868181608683FF91EF91BF91AF919F9106
:0C2910008F910F900FBE0F901F90189534
:10291C001F920F920FB60F9211248F939F93AF9328
:10292C00BF93EF93FF938091D5369091D636A091BB
:10293C00D736B091D8360196A11DB11D8093D536EE
:10294C009093D636A093D736B093D836E0E4F1E026
:10295C0083898160838BFF91EF91BF91AF919F91A0
:0C296C008F910F900FBE0F901F901895D8
:10297800E0E0F8E08DE695E080879187158280ECAD
:10298800868383E08783138614861686158689EFE7
:102998009AE180930234909303348AEF9AE180930A
:1029A8000034909301348BEF9AE180930434909330
:1029B80005341092F7361092F83683EB96E380933D
:0829C800AF349093B034089580
:1029D000EF92FF921F93CF93DF937C018CEE95E8EB
:1029E0000E946913C7010E9435132AE684E091E032
:1029F000215080409040E1F700C010E009C00E94E3
:102A0000A11A882341F00E94FF190E94DD1A1F5F5E
:102A1000E701C10FD11D88818111F1CFDF91CF91E5
:082A20001F91FF90EF90089553
:102A280040E068ED80E690E00E94C81A41E168ED58
:102A380081E690E00E94C81A40E068ED82E690E0E6
:102A48000E94C81A40E068ED83E690E00E94C81A28
:102A580040E068ED80E790E00E94C81A40E068ED29
:102A680088E790E00E94C81A40E068ED8CE790E0A3
:062A78000E94C81A089537
:102A7E0020E22093A5086623D1F0A82FB92F90E06D
:102A8E00E0EAF8E022E0858185FD17C0858182FDB0
:102A9E0007C0858183FD04C085818370833099F7DB
:102AAE0080858D939F5F691711F02483ECCF87E0AB
:102ABE008093A40808952483E6CF80858D939F5F2D
:062ACE006913F9CFF4CFFB
:102AD4001F920F920FB60F9211242F933F934F938F
:102AE4005F936F937F938F939F93AF93BF93EF9372
:102AF400FF938091480481FD0E94361A81E08093FF
:102B0400960AFF91EF91BF91AF919F918F917F9121
:102B14006F915F914F913F912F910F900FBE0F9046
:042B24001F90189551
:102B28000E94891A882321F00E94D41A0E949B18B7
:102B38000E949B1A882321F00E94DA1A0E94B0187A
:102B48000E94B31A882341F00E948F1A882321F02B
:102B58000E940A1A0E94D71A0E94AD1A882341F0CF
:102B68000E94A11A882321F00E94FF190E94DD1AF1
:022B78000895BE
:102B7A00CF93DF93EC010E94BF1A0E94E9190E94C9
:102B8A00661A68830E9401100E9431146A837B834B
:102B9A000E94F4190E94311469830E9421178C83C0
:102BAA000E942B188D838091FB369091FC360196FA
:102BBA008E839F83CE010E94620DDF91CF9108958B
:102BCA00662309F1DC016150262F30E02F5F3F4F69
:102BDA00280F391FE0EAF8E09D919087958195FDCD
:102BEA000AC0958192FD07C0958193FD04C0958125
:102BFA009370933099F7958194FD07C0A217B30794
:0E2C0A0059F781E0089581E0089580E0089573
:102C1800DF93CF931F930F93FF92EF92DF927B0185
:102C28008C01689406C0DA2EEF010E94CD0DFE01DA
:102C3800E894A5912591359145915591A6F3EF0119
:102C48000E94370EFE019701A801DA9469F7DF9018
:0E2C5800EF90FF900F911F91CF91DF910895A3
:102C6600E0E2F8E087EE90E080879187158280ECBD
:102C7600868383E0878313861486168615868CEFF3
:102C86009AE180930634909307348DEF9AE180930E
:102C96000834909309348EEF9AE180930A34909326
:0C2CA6000B341092F9361092FA360895A3
:102CB2009091A50893709330E1F0880F682B609390
:102CC200A708E0EAF8E0858185FD0AC0858182FDDA
:102CD20007C0858183FD04C085818370833099F7A5
:102CE2000E947419882339F083E08093A40880E05D
:0A2CF200089580E0089581E0089540
:102CFC000E94AA16E8F09E37E8F09639B8F49E3890
:102D0C0048F4672F782F8827985FF9CF86957795A9
:102D1C00679593959539D0F3B62FB1706B0F711DE4
:102D2C00811D20F487957795679593950C94AB1737
:082D3C000C949E190C947C1A02
:102D440057FD9058440F551F59F05F3F71F0479558
:102D5400880F97FB991F61F09F3F79F0879508953D
:102D6400121613061406551FF2CF4695F1DF08C05C
:102D7400161617061806991FF1CF86957105610579
:042D84000894089512
:102D8800A1E21A2EAA1BBB1BFD010DC0AA1FBB1F67
:102D9800EE1FFF1FA217B307E407F50720F0A21BD9
:102DA800B30BE40BF50B661F771F881F991F1A9446
:102DB80069F760957095809590959B01AC01BD0170
:042DC800CF0108959A
:102DCC00CF9384E096E80E9469130E949B1A882393
:102DDC0021F00E94DA1A0E94B0180E94B31A8823BC
:102DEC00A1F30E948F1A882381F30E940A1AC82F1C
:0C2DFC000E94D71ACA3049F7CF91089501
:102E08000E94AC190E94C6170E94581A0E94C51841
:102E18000E9475170E94D1190E94D91878940E94AF
:102E280082190E94901784E095EB0E94991184E022
:0A2E3800809346040E949505FDCF2B
:102E4200CF93DF930E949E0E87E00E941A19D62F1D
:102E5200C72F7F936F9384E69EE89F938F930E9480
:102E62005B188D2F9C2F0E94750C0F900F900F9066
:082E72000F90DF91CF9108954C
:102E7A00CF93DF93EC018BE198E80E9469138CE809
:102E8A0095E80E94691380E398E80E946913CE01CD
:102E9A000E94691384E498E80E943513CE010E94C7
:082EAA003513DF91CF9108956B
:102EB200CF93DF93EC018BE198E80E9469138CE8D1
:102EC20095E80E94691383E598E80E946913CE0190
:102ED2000E94691389E698E80E943513CE010E9488
:082EE2003513DF91CF91089533
:102EEA00E0E8FAE080E197E28487958780E18183D0
:102EFA0081E0858393E09083E0E9FAE02FE730E010
:102F0A002487358746E0418341E1448390832287C1
:062F1A0033878583089552
:102F20000E94861882EC92EA0197F1F700C00E9495
:102F30000A0A60E080E00E94471941E061E081E018
:102F40000E94DD1981E00E94E01A0E94D11381E005
:062F500080930137089593
:102F5600882371F4772321F09850872B762F07C0AA
:102F6600662311F499270DC09051862B70E060E01E
:102F76002AF09A95660F771F881FDAF7880F9695BD
:062F8600879597F90895FC
:102F8C00E0E4F4E0808181608083848181608483CB
:102F9C0080818D7F808381898860818B80E18093A3
:102FAC002104E0E0F4E0808180648083858180648A
:042FBC00858308956C
:102FC000CF93DF9300D0CDB7DEB7809156348C7F9E
:102FD00081608093563494EF99838A8342E0BE01E6
:102FE0006F5F7F4F86E70E9471180F900F90DF91FF
:042FF000CF910895E0
:102FF4002F923F924F925F926F927F928F929F9205
:10300400AF92BF92CF92DF92EF92FF920F931F93F2
:10301400CF93DF93CDB7DEB7CA1BDB0BCDBFDEBFCB
:0230240009940D
:103026001F920F920FB60F9211248F93EF93FF9377
:10303600E0E0F6E080E2858380E1858388E08583B1
:10304600FF91EF918F910F900FBE0F901F901895E3
:103056002091FB363091FC36369527953695279587
:1030660036952795A5ECB0E20E9465199295829552
:103076008F7089279F70892794E6981B892F08955A
:103086002A88398848885F846E847D848C849B84F2
:10309600AA84B984C884DF80EE80FD800C811B8100
:1030A600AA81B981CE0FD11DCDBFDEBFED01089536
:1030B600A0E0B0E0E1E6F8E10C940A18AE014B5F3F
:1030C6005F4FFA0161917191AF018091AF34909198
:0C30D600B0340E94DA00E2E00C945318C1
:1030E2001F93CF93DF93EB01142F60E00E945916D8
:1030F200882339F0612FCE010E94E51593E0909369
:0A310200A408DF91CF911F910895FA
:10310C00CF93DF9300D0CDB7DEB780EE898386EB0B
:10311C008A8342E0BE016F5F7F4F86E70E94711881
:0A312C000F900F90DF91CF910895EE
:1031360090910337292F30E0B9016F5F7F4F40919F
:10314600043750E06417750739F0F901ED54FB4C6C
:0A31560080839F5F90930337089574
:1031600090910537292F30E0B9016F5F7F4F409173
:10317000063750E06417750739F0F901ED54FA4C41
:0A31800080839F5F90930537089548
:10318A0082E08093E405E0E0FAE082E090E082A742
:10319A0093A710A211A283E2818383E090E086A321
:0831AA0097A381E080830895E2
:1031B20087EF80931704E0E0F6E081E0808381836B
:1031C20080E282838FEF808787E0848780E1828735
:0231D20008955E
:1031D400092E0394000C11F4882352F0BB0F40F421
:1031E400BF2B11F460FF04C06F5F7F4F8F4F9F4F61
:0231F40008953C
:1031F600DB018F939F930E94151ABF91AF91A29FF7
:10320600800D911DA39F900DB29F900D11240895DE
:10321600E0E0F6E09485907C94879485892B8487FA
:0E32260082858F7782878285816082870895F6
:103234000E940B190E94C41A8823E1F3E0E0F6E02F
:0E324400608971898289938921E0258308952C
:103252001F920F920FB60F9211248F9382E08093E8
:0E32620005068F910F900FBE0F901F901895CC
:103270001F920F920FB60F9211248F9381E08093CB
:0E32800005068F910F900FBE0F901F901895AE
:10328E0087708295807F2091103421786770962FF9
:0E329E00990F622F682B692B609310340895EE
:1032AC008DEE97E80E9469138BE296E80E946913F1
:0E32BC008CEF97E80E9402140E94E616089517
:1032CA00A29FB001B39FC001A39F700D811D11245D
:0E32DA00911DB29F700D811D1124911D08954C
:1032E8008091A5088C7141F49091A508937081E0B4
:0C32F800933019F080E0089581E0089503
:103304000E94401AE0EAF8E084E0808381E082834E
:0C3314009DEF95839DE0968383830895D0
:10332000CF93C82F0E948F1A882331F0E0E0F8E095
:0C333000948190649483C283CF9108952F
:10333C009F3F31F0915020F4879577956795B7951D
:0C334C00880F911D9695879597F90895BC
:103358000E9414150E94ED0B0E94BC140E943316A3
:0A3368000E94A71A0E94B9190895E7
:1033720040E068ED80E191E00E94C81AE0E1F1E0EE
:083382001282138280E008951D
:10338A00CF93C82F0E948F1A8823E1F3C0930208B3
:08339A0080E090E0CF9108955E
:1033A200E0E4F1E081E08783828B818980FDFDCFBB
:0833B20089E4809350010895A5
:1033BA008295880F807E6770660F660F4370862B32
:0833CA00842B80935634089512
:1033D2000E94CA0A0E94D91120E030E048EC52E46F
:0633E2000E94CC1A0895C0
:1033E8000E940E090E94D91120E030E040E85AE31B
:0633F8000E94D01A0895A6
:1033FE0090910437E92FF0E0ED54FB4C80819F5FF4
:06340E00909304370895BD
:1034140090910637E92FF0E0ED54FA4C80819F5FDC
:06342400909306370895A5
:10342A000E946519A59F900DB49F900DA49F800DD1
:06343A00911D112408950C
:10344000FC010590615070400110D8F7809590956F
:063450008E0F9F1F08957E
:10345600FC016150704001900110D8F7809590955D
:063466008E0F9F1F089568
:10346C008091FD369091FE3681608093FD3690936D
:04347C00FE3608957B
:10348000E0E2F4E083E0818388E0808B818B089523
:103490009B01AC0160E070E080E89FE30C94CC1AE3
:1034A000B7FF0C94151A0E94151A821B930B0895EE
:0E34B000E0E8F1E081E4838B84E082AB0895D4
:0E34BE005058BB27AA270E94370E0C94EA181C
:0E34CC000E9431146894B1110C947C1A08957A
:0E34DA0000240A94161617061806090608950F
:0E34E80000240A941216130614060506089511
:0E34F600E894BB2766277727CB0197F9089546
:0D350400726573657474696E672E2E2E005B
:0C35120080910408881F8827881F0895F6
:0C351E008091040885FB882780F908953F
:0C352A008091040886FB882780F9089532
:0C35360080912408881F8827881F0895B2
:0C3542008091240885FB882780F90895FB
:0C354E00E0EAF0E01082118280E00895B5
:0C355A008091043790910337891B08957D
:0C3566008091063790910537891B08956D
:0C35720097F99F6780E870E060E0089522
:0A357E000E94E0170E945E0B089502
:08358800809105068170089591
:08359000FC0164BF40830895B3
:083598000E94F30C0C94EA18E8
:0835A0000E94CD0D0C94EA1805
:0635A80080910008089567
:0635AE008093020808955D
:0635B4008091200808953B
:0635BA0080932208089531
:0635C00080934D340895D4
:0635C6000E94921008951E
:0635CC000E94561908954B
:0635D2009FEF80EC08955C
:0435D8000C9400004F
:0235DC00089550
:0235DE0008954E
:0235E00008954C
:0235E20008954A
:0235E400089548
:0235E600089546
:0235E800089544
:0235EA00089542
:0235EC00089540
:0235EE0008953E
:0235F00008953C
:0235F20008953A
:0235F400089538
:0235F600089536
:0235F800089534
:0235FA00089532
:0235FC00089530
:0E35FE000000000200000000C51900000000DF
:02000004008278
:090000000000020000C40700002A
:00000001FF
