:100000000C9486000C94F3180C94F3180C94F318C9
:100010000C9445130C94F3180C94D00F0C947F118E
:100020000C94F3180C94F3180C94F3180C94F31824
:100030000C94F3180C9417130C94F3180C94F318F5
:100040000C94F3180C94F3180C94F3180C94F31804
:100050000C94F3180C944B160C9439170C942A1723
:100060000C9410100C9421140C94F3180C94F318A5
:100070000C94F3180C94F31807634236B79BD8A777
:100080001A39685618AEBAAB558C1D3CB7CC5763BD
:10009000BD6DEDFD753EF6177231BF000000803F6B
:1000A00008000000BE922449123EABAAAA2ABECD87
:1000B000CCCC4C3E00000080BEABAAAAAA3E0000F9
:1000C0000000BF000000803F0000000000084178F1
:1000D000D3BB4387D1133D190E3CC3BD4282AD2B28
:1000E0003E68EC8276BED98FE1A93E4C80EFFFBE20
:1000F00001C4FF7F3F0000000000340036B18036AD
:10010000B136BF00320C36BF36F4800011241FBE5A
:10011000CFEFCDBFDFE3DEBFEAEFF0E041E017C095
:10012000B591A59135912591059107FD0CC095914B
:100130008591EF01F92FE82F05900D92A217B307D3
:10014000D9F7FE0104C01D92A217B307E1F7EB3007
:10015000F40731F70E94E5160C94AE00F894FFCF37
:10016000ABE0B0E0E6EBF0E00C9432166C017B0102
:100170008A01FC0116821782838181FFCCC1CE01E6
:1001800001963C01F6019381F70193FD859193FF60
:1001900081917F01882309F4BAC1853239F493FD36
:1001A000859193FF81917F01853229F4B60190E01A
:1001B0000E94CD10E7CF912C212C312CFFE1F315BB
:1001C000D8F08B3279F038F4803279F08332A1F4B0
:1001D000232D20611DC08D3261F0803369F4232D01
:1001E000216016C0832D8260382EE32DE4603E2E00
:1001F0002AC0F32DF8601DC037FC2DC020ED280F5C
:100200002A3040F08E32B9F436FC81C1232D2064AF
:10021000322E19C036FE06C08AE0989E200D1124A9
:10022000922E11C0EAE02E9E200D1124222EF32DD5
:10023000F0623F2E08C08C3621F4832D8068382E62
:1002400002C0883641F4F70193FD859193FF8191B7
:100250007F018111B3CF982F9F7D9554933028F45F
:100260000C5F1F4F9FE399830DC0833631F08337B6
:1002700071F0833509F059C021C0F801808189836C
:100280000E5F1F4F88248394912C530113C02801C3
:10029000F2E04F0E511CF801A080B18036FE03C081
:1002A000692D70E002C06FEF7FEFC5010E943D181D
:1002B0004C018201F32DFF773F2E16C0280122E06A
:1002C000420E511CF801A080B18036FE03C0692D9A
:1002D00070E002C06FEF7FEFC5010E9432184C0141
:1002E000F32DF0683F2E820133FC1BC0822D90E07D
:1002F00088169906B0F4B60180E290E00E94CD1015
:100300002A94F4CFF50137FC859137FE81915F0186
:10031000B60190E00E94CD1021102A9421E0821AAB
:1003200091088114910471F7E8C0843611F0893680
:1003300041F5F80137FE07C06081718182819381A8
:100340000C5F1F4F08C060817181072E000C880B65
:10035000990B0E5F1F4FF32DFF763F2E97FF09C0BD
:1003600090958095709561957F4F8F4F9F4FF06866
:100370003F2E2AE030E0A3010E94B90D882E861896
:1003800045C0853731F4232D2F7EB22E2AE030E090
:1003900025C0932D997FB92E8F36C1F018F488357A
:1003A00079F0B5C0803719F0883721F0B0C0E92F57
:1003B000E061BE2EB4FE0DC0FB2DF460BF2E09C05F
:1003C00034FE0AC0292F2660B22E06C028E030E095
:1003D00005C020E130E002C020E132E0F801B7FEC4
:1003E00007C060817181828193810C5F1F4F06C0BD
:1003F0006081718180E090E00E5F1F4FA3010E9439
:10040000B90D882E8618FB2DFF773F2E36FE0DC0C6
:10041000232D2E7FA22E891458F434FE0BC032FCFB
:1004200009C0832D8E7EA82E05C0B82CA32C03C036
:10043000B82C01C0B92CA4FE0FC0FE01E80DF11DBF
:100440008081803321F49A2D997EA92E09C0A2FEC5
:1004500006C0B394B39404C08A2D867809F0B3948F
:10046000A3FC11C0A0FE06C0B21488F4280C922C84
:100470009B180EC0B21460F4B60180E290E00E94B6
:10048000CD10B394F7CFB21418F42B1802C0982CE7
:10049000212CA4FE10C0B60180E390E00E94CD1094
:1004A000A2FE17C0A1FC03C088E790E002C088E567
:1004B00090E0B6010CC08A2D867859F0A1FE02C0EA
:1004C0008BE201C080E2A7FC8DE2B60190E00E94C1
:1004D000CD10891438F4B60180E390E00E94CD106D
:1004E0009A94F7CF8A94F301E80DF11D8081B6014B
:1004F00090E00E94CD108110F5CF222009F442CE69
:10050000B60180E290E00E94CD102A94F6CFF60169
:100510008681978102C08FEF9FEF2B96E2E10C94CA
:02052000631660
:100522000D526573657474696E67204C52322043B4
:100532006C69636B0A002D2D2D2D2D2D2D2D2D2D4A
:100542002D2D2D2D2D2D2D2D2D2D2D2D2D2D2D2DD9
:100552002D2D2D2D2D2D2D2D2D2D2D2D2D2D2D2DC9
:100562002D2D2D2D2D2D2D2D2D2D0A004669726D2F
:10057200776172653A20000D0A54783A20000D0A1C
:1005820054783A206D6163207365742061707073D2
:100592006B65790D0A000D0A54783A206D6163206B
:1005A200736574206E776B736B65790D0A000D525B
:1005B200783A20000A0A436F6E6669677572696E3F
:1005C20067204C523220436C69636B20466F722065
:1005D2004142500A002D2D2D2D2D2D2D2D2D2D2D4D
:1005E2002D2D2D2D2D2D2D2D2D2D2D2D2D2D2D2D39
:1005F2002D2D2D2D2D2D2D2D2D2D2D2D2D2D2D2D29
:100602002D2D2D2D2D2D2D2D2D2D2D2D2D2D2D2D18
:100612002D2D2D2D2D2D2D2D2D2D2D2D0A006D61E4
:10062200632073657420646576657569203730428E
:10063200334435374544303035363430330D0A00D3
:100642006D616320736574206465766164647220F1
:1006520032363043303333330D0A006D6163207319
:10066200657420617070736B657920383336463853
:1006720030394537364632393141353239433534EE
:1006820030413033373145343133370D0A006D6133
:100692006320736574206E776B736B6579204538C0
:1006A20034303935454132434636343637394430B1
:1006B20042323033313941313433393738390D0A26
:1006C200006D616320736574206172206F6E0D0A84
:1006D200006D61632073657420727864656C617962
:1006E2003120353030300D0A006D6163207365743E
:1006F20020616472206F6E0D0A006D616320736168
:1007020076650D0A000A0A000A0A436F6E66696777
:100712007572696E67204C523220436C69636B209C
:10072200666F72204F5441410A006D616320736508
:1007320074206170706B65792046343243333832ED
:1007420042423941383739463732323439394445F1
:100752004337454636354246330D0A006D61632004
:100762007365742061707065756920303030303087
:1007720030303030303030303030300D0A006D6182
:10078200632070617573650D0A006D616320726587
:1007920073756D650D0A000A0A4A6F696E696E67A4
:1007A2002054544E0A006D6163206A6F696E2061A5
:1007B20062700D0A006D6163206A6F696E206F744A
:1007C20061610D0A000A0A5472616E736D69747474
:1007D200696E6720446174610A000A54783A206D98
:1007E200616320747820636E6620343220006D616C
:1007F2006320747820636E6620343220000A5478B5
:100802003A206D616320747820756E636E662034C1
:100812003320006D616320747820756E636E6620EC
:04082200343320004B
:100826004F925F926F927F928F929F92AF92BF92FA
:10083600CF92DF92EF92FF92C0907534D0907634CB
:10084600E0907734F0907834F594E794D794C79491
:100856008AEFD81AE108F108C701B6019595879580
:100866007795679595958795779567959B01AC01E3
:100876000E941A174B015C01E9E7F4E3A285B385F0
:100886009B01AC01012E1DE055954795379527959F
:100896001A95D1F7102D0E9462182B013C0168941D
:1008A60012F875946794579447941694D1F7A085D7
:1008B600B185A70196010E946218DC01CB01B595AE
:1008C600A79597958795840D951DA61DB71D072E8F
:1008D60072E1B595A795979587957A95D1F7702D7D
:1008E6009C01AD0130584F4F5F4FA681B7810E94E2
:1008F60027182B013C01032E3FE07594679457940B
:1009060047943A95D1F7302D41145104610471048E
:1009160009F4CEC0A5019401012E1BE0559547951B
:10092600379527951A95D1F7102DA089B1890E9480
:1009360062184B015C01A685B785A70196010E9446
:100946006218DC01CB01880F991FAA1FBB1F880EF6
:10095600991EAA1EBB1ED501C401B595A7959795EC
:100966008795B595A7959795879584849584092C41
:10097600000CAA08BB08540199248824880E991EE5
:10098600AA1EBB1E072E7CE0B594A7949794879465
:100996007A95D1F7702D80914E3490914F34A09175
:1009A6005034B0915134A5019401280F391F4A1FC4
:1009B6005B1FABECB3EF0E946518805B9C439923E9
:1009C6005CF0660F771F881F991FA30192010E9492
:1009D600511569017A010AC0A30192010E945115BD
:1009E60069017A01CC0CDD1CEE1CFF1CC701B601A7
:1009F600689412F896958795779567951694D1F72A
:100A06009B01AC010E941A179B01AC01012E1DE04F
:100A160056954795379527951A95D1F7102DE9E7FD
:100A2600F4E3A689B7890E9462184B015C01072E80
:100A36007CE0B594A794979487947A95D1F7702D16
:100A4600A70196015695479537952795569547954B
:100A560037952795A489B5890E946218DC01CB01D8
:100A6600072E7DE0B595A795979587957A95D1F749
:100A7600702DB501A401480F591F6A1F7B1F82897B
:100A86009389092E000CAA0BBB0B840F951FA61F7A
:100A9600B71F689413F8B595A795979587951694FB
:100AA600D1F7BC01CD016C0D7D1D8E1D9F1D03C0B0
:100AB60060E070E0CB01FF90EF90DF90CF90BF90A9
:100AC600AF909F908F907F906F905F904F9008951A
:100AD6008091EA369091EB3680FF31C08091EF36F7
:100AE600813081F028F0823089F0853099F01EC07F
:100AF6000E948E0F0E94EA180E94ED1881E08093F2
:100B0600EF3614C083E08093EF3610C083E0809305
:100B1600EF360CC086E08093EF368091EC369091EC
:100B2600ED3601968093EC369093ED368091EA3659
:100B36009091EB368E7F8093EA369093EB368091D8
:100B4600EF36833071F018F4813041F00895843027
:100B560009F451C0863009F46EC008950E944B1402
:100B660008958FEB96E30E940D156FEB76E38AE905
:100B760094E30E94B50884E39FE80E94B9120E949C
:100B8600731588E0809345044091E8365091E93624
:100B96009A01ADECBCEC0E948417969587959695C4
:100BA6008795969587959C01220F331F880F991F6D
:100BB600880F991F880F991F820F931F481759078F
:100BC60029F48AE994E30E94911504C08AE994E322
:100BD6000E94AD158091E8369091E9360196809392
:100BE600E8369093E936E0E4F1E080818160808325
:100BF60084E08093EF368091C6369091C736A091F7
:100C0600C836B091C936843B9105A105B10581F47A
:100C160083E08093EF36E0E4F1E080818E7F80838D
:100C26001092C6361092C7361092C8361092C93640
:100C36000E944B1408958091EC369091ED368230E7
:100C46009105F9F08330910589F1019709F068C0A3
:100C56001F9281E08F9385E49FE89F938F930E9474
:100C66007B1685E08093EF362AE634E081E021505A
:100C760030408040E1F700C00F900F900F900F902A
:100C860008951F9282E08F9385E59FE89F938F9347
:100C96000E947B168FEB96E30E940D1585E08093EC
:100CA600EF360F900F900F900F9008951F9283E0EC
:100CB6008F9384E69FE89F938F930E947B16E5E0CF
:100CC600F4E088E080839AE624E031E09150204009
:100CD6003040E1F700C0809306049FE32DE033E047
:100CE600915020403040E1F700C0000080839AE632
:100CF60024E031E0915020403040E1F700C080937D
:100D060045048AE29CE22AE0815090402040E1F7C7
:100D1600000085E08093EF360F900F900F900F90B4
:020D260008952E
:100D28000A416674657220313030204D6F697374E2
:100D38007572652052656164696E6773002D2D2D8B
:100D48002D2D2D2D2D2D2D2D2D2D2D2D2D2D2D2DCB
:100D58002D2D2D2D2D2D2D2D2D2D2D2D2D2D2D2DBB
:100D68002D2D2D2D2D2D2D2D2D2D2D2D2D2D2D2DAB
:100D78002D2D2D2D2D2D2D2D2D2D2D2D2D2D2D2D9B
:100D88002D2D2D2D00546865204D41582072656128
:100D980064696E67207761732025640A005468656A
:100DA800204D494E2072656164696E6720776173D2
:100DB8002025640A0A00546865204D4158206D6159
:100DC800707320746F2025640A00546865204D49AB
:100DD8004E206D61707320746F2025640A000A0A22
:100DE80043757272656E742053656E736F7220441A
:100DF8006174610A002D2D2D2D2D2D2D2D2D2D2DBC
:100E08002D2D2D2D2D2D2D2D2D2D2D2D2D2D2D2D0A
:100E18002D2D2D2D2D2D2D2D2D2D2D2D2D2D2D2DFA
:100E28002D2D2D2D2D2D2D2D2D2D2D2D2D2D2D2DEA
:100E38002D2D2D2D2D2D2D2D2D2D2D2D0A005265CD
:100E48006C61746976652048756D69646974793A6E
:100E58002025752525200D0A004D6F69737475725C
:100E6800653A2025752525200D0A00507265737393
:100E78007572653A202575206850610D0A00416930
:100E8800722054656D70657261747572653A2025BB
:100E9800692043200D0A0042617474657279204C00
:100EA8006576656C3A2025752525200D0A0A000A05
:100EB8004A534F4E20466F726D61740D0050617930
:100EC8006C6F61643A207B206169725F74656D7034
:100ED8003A2025692C20626174746572793A20255C
:100EE800752C2068756D69646974793A2025752CAC
:100EF800206D6F6973747572653A2025752C2070A2
:100F0800726573737572653A2025752C206E756D40
:100F180054783A2025750D0A0A7D00303132333471
:100F28003536373839414243444546006D616320C0
:100F3800676574207374617475730D0A0042656780
:100F4800696E20546573742025640D0A0054657316
:100F58007420256420424D4532383000546573743E
:090F6800202564204C6F52610049
:100F72004F925F926F927F928F929F92AF92BF92A7
:100F8200CF92DF92EF92FF928090753490907634F8
:100F9200A0907734B09078342CE2921A21E0A20A21
:100FA200B108C0900C34D0900D34E0900E34F09023
:100FB2000F340B2EBEE0CC0CDD1CEE1CFF1CBA95D0
:100FC200D1F7B02DE9E7F4E3848D958D092E000C5D
:100FD200AA0BBB0B072E74E1880F991FAA1FBB1F18
:100FE2007A95D1F7702DC81AD90AEA0AFB0AA68D9A
:100FF200B78DA50194010E946218C61AD70AE80AA1
:10100200F90A30E4D30EE11CF11C0B2EBFE0F5947B
:10101200E794D794C794BA95D1F7B02DA38DB0E0D9
:10102200A50194010E9427182B013C01032E3BE0ED
:1010320075946794579447943A95D1F7302D40E8C8
:10104200540E611C711CA0A10A2E000CBB0BA50141
:1010520094010E946218052E5AE09595879577951E
:1010620067955A95D1F7502DA30192010E941A1744
:10107200DC01CB01072E7AE0B595A7959795879568
:101082007A95D1F7702D9C01AD01405E5F4FA18D25
:10109200B28D0E946218DC01CB01905EAF4FBF4F50
:1010A200BC01CD01052E5EE09595879577956795F4
:1010B2005A95D1F7502DA70196010E941A176B017C
:1010C2007C01052E5FE095958795779567955A95F2
:1010D200D1F7502D9B01AC010E941A179B01AC0164
:1010E200689416F855954795379527951694D1F734
:1010F200A08DB0E00E942718DC01CB01689413F8A0
:10110200B595A795979587951694D1F7A70196015E
:10111200281B390B4A0B5B0BDA01C9011AF480E078
:1011220090E0DC0181309105A10539E1B30724F09B
:1011320080E090E0A0E0B9E1BC01CD01052E5CE0C9
:1011420095958795779567955A95D1F7502DFF908C
:10115200EF90DF90CF90BF90AF909F908F907F9055
:081162006F905F904F9008951B
:10116A00CF93DF93CDB7DEB76197CDBFDEBF21E165
:10117A00E3E2FFE8DE01119601900D922A95E1F76C
:10118A00DB012C9122952F70E1E0F0E0EC0FFD1FBE
:10119A00E20FF11D2081FC0120832C912F70E1E0E8
:1011AA00F0E0EC0FFD1FE20FF11D2081DC0111962A
:1011BA002C931197FB01218122952F70E1E0F0E039
:1011CA00EC0FFD1FE20FF11D208112962C93DB011B
:1011DA0011962C9111972F70E1E0F0E0EC0FFD1FB2
:1011EA00E20FF11D2081FC01238314962C91229594
:1011FA002F70E1E0F0E0EC0FFD1FE20FF11D2081FE
:10120A00DC0114962C931497FB0124812F70E1E0E2
:10121A00F0E0EC0FFD1FE20FF11D208115962C93D3
:10122A00DB0113964C911397242F22952F7030E0EF
:10123A00E1E0F0E0EC0FFD1FE20FF31F2081FC015B
:10124A00268313962C9130E02F703327E1E0F0E0EB
:10125A00EC0FFD1FE20FF31F2081DC0117962C9380
:10126A00DB011296ED91FC911397F295E295EF70DE
:10127A00EF27FF70EF27EF70FF2721E030E02C0FF8
:10128A003D1FE20FF31F2081DC0118962C93DB012E
:10129A001296ED91FC911397EF70FF2721E030E051
:1012AA002C0F3D1FE20FF31F2081DC0119962C93AE
:1012BA001997FB01258122952F70E1E0F0E0EC0FF0
:1012CA00FD1FE20FF11D20811A962C93DB01159662
:1012DA002C9115972F70E1E0F0E0EC0FFD1FE20F63
:1012EA00F11D2081FC01238716962C9122952F70DF
:1012FA00E1E0F0E0EC0FFD1FE20FF11D2081DC01BF
:10130A001C962C931C97FB0126812F70E1E0F0E0DC
:10131A00EC0FFD1FE20FF11D20811D962C931D97E6
:10132A002DE01E962C931E972AE01F962C931F974A
:10133A0050961C926196CDBFDEBFDF91CF91089582
:10134A000F931F93CF93DF93CDB7DEB76897CDBFC7
:10135A00DEBF28E1AE014F5F5F4F68E886E70E9473
:10136A00010F09E714E38A8190E0982F88272981E1
:10137A00820F911DF801808391838C8190E0982FD0
:10138A0088272B81820F911D828393838E8190E01F
:10139A00982F88272D81820F911D848395838885B4
:1013AA0090E0982F88272F81820F911D868397833B
:1013BA008A8590E0982F88272985820F911D80873A
:1013CA0091878C8590E0982F88272B85820F911D15
:1013DA00828793878E8590E0982F88272D85820FA4
:1013EA00911D84879587888990E0982F88272F8573
:1013FA00820F911D868797878A8990E0982F882780
:10140A002989820F911D808B918B8C8990E0982F6E
:10141A0088272B89820F911D828B938B8E8990E06E
:10142A00982F88272D89820F911D848B958B888D03
:10143A0090E0982F88272F89820F911D868B978B92
:10144A0021E0AE014F5F5F4F61EA86E70E94010F1C
:10145A008981F801808F27E0AE014F5F5F4F61EE0F
:10146A0086E70E94010F2A8130E0322F22279981D4
:10147A00290F311DF801218F328F9B81938F9D8116
:10148A002C81F0E12F9F90011124492F4F70242BBA
:10149A00F801248F358F2E81F0E12F9F90011124BE
:1014AA0092959F70292BF801268F378F9F8190A3E1
:1014BA006896CDBFDEBFDF91CF911F910F9108953E
:1014CA008F929F92AF92BF92CF92DF92EF92FF924A
:1014DA008091523490915334A0915434B091553440
:1014EA00E9E7F4E34081518160E070E06C017D013D
:1014FA00689413F8F594E794D794C7941694D1F79F
:10150A00C41AD50AE60AF70A689412F8B595A79597
:10151A00979587951694D1F7440F551F661F771F25
:10152A004C015D01841A950AA60AB70AA50194011D
:10153A00A281B3810E9462184B015C01072E7BE0F5
:10154A00B594A794979487947A95D1F7702DA701AB
:10155A009601C701B6010E941A179B01AC01012E20
:10156A001CE055954795379527951A95D1F7102D73
:10157A00A481B5810E946218DC01CB01072E7EE0AE
:10158A00B595A795979587957A95D1F7702D880D7A
:10159A00991DAA1DBB1D8093753490937634A09330
:1015AA007734B09378346C017D01CC0CDD1CEE1CD1
:1015BA00FF1CCC0CDD1CEE1CFF1C8C0D9D1DAE1DF2
:1015CA00BF1D80589F4FAF4FBF4F692F7A2F8B2F68
:1015DA00992787FD9A95FF90EF90DF90CF90BF9063
:0815EA00AF909F908F900895CF
:1015F200CF93DF93CDB7DEB72897CDBFDEBF28E00C
:10160200AE014F5F5F4F67EF86E70E94010F8F8148
:1016120090E0A0E0B0E0BA2FA92F982F8827288564
:10162200822B80930C3490930D34A0930E34B0939C
:101632000F348C8190E0A0E0B0E0AC01BD01032E3C
:101642003CE0440F551F661F771F3A95D1F7302DA6
:101652009D81892F90E0A0E0B0E0880F991FAA1F1A
:10166200BB1F880F991FAA1FBB1F880F991FAA1F94
:10167200BB1F880F991FAA1FBB1F842B952BA62B5C
:10168200B72B2E8122952F70822B80935234909308
:101692005334A0935434B0935534898190E0A0E040
:1016A200B0E0AC01BD01032E3CE0440F551F661FA4
:1016B200771F3A95D1F7302D9A81892F90E0A0E0DB
:1016C200B0E0880F991FAA1FBB1F880F991FAA1F7E
:1016D200BB1F880F991FAA1FBB1F880F991FAA1F24
:1016E200BB1F842B952BA62BB72B2B8122952F70FA
:1016F200822B80934E3490934F34A0935034B09306
:0E17020051342896CDBFDEBFDF91CF91089500
:10171000CF93DF93C0E0D4E08AE08883A0E2B4E016
:1017200084E28C93E0E4F4E08DE080831C821496E4
:101730001C9214971482188A198A1A8A1B8A1C8A86
:101740001D8A1E8A1F8A50961C92509751961C9291
:10175000519752961C92529753961C9253975496B7
:101760001C92549755961C92559756961C925697D4
:1017700057961C92108A118A128A138A148A158A23
:10178000168A178AE0EEF5E0118210821382148225
:101790001582128285EF98E18093E2369093E336CA
:1017A00086EF98E18093E0369093E13687EF98E1F9
:1017B0008093DE369093DF3688EF98E18093DC36B5
:1017C0009093DD3689EF98E18093DA369093DB369B
:1017D0008AEF98E18093D8369093D9368BEF98E1D1
:1017E0008093D6369093D7368CEF98E18093D43699
:1017F0009093D5368DEF98E18093D2369093D3367F
:101800008EEF98E18093D0369093D1368FEF98E1A8
:0E1810008093CE369093CF36DF91CF9108951E
:10181E0010C00E94861858F00E947F1840F029F4DC
:10182E005F3F29F00C94C41851110C948E180C942F
:10183E00F0180E942F1568F39923B1F3552391F3F5
:10184E00951B550BBB27AA2762177307840738F021
:10185E009F5F5F4F220F331F441FAA1FA9F335D07E
:10186E000E2E3AF0E0E832D091505040E695001C32
:10187E00CAF72BD0FE2F29D0660F771F881FBB1FEC
:10188E00261737074807AB07B0E809F0BB0B802DCA
:10189E00BF01FF2793585F4F3AF09E3F510578F0F6
:1018AE000C94C4180C948E185F3FE4F3983ED4F356
:1018BE00869577956795B795F7959F5FC9F7880FCA
:1018CE00911D9695879597F90895E1E0660F771F1C
:1018DE00881FBB1F621773078407BA0720F0621BAD
:0E18EE00730B840BBA0BEE1F88F7E09508957C
:1018FC00CF93DF93EC0186EE9DE80E9420128DEFD2
:10190C009DE80E94201289811F928F9386E49EE8A5
:10191C009F938F930E947B168C811F928F9381E6ED
:10192C009EE89F938F930E947B168B818F938A8165
:10193C008F9383E79EE89F938F930E947B168881F9
:10194C00282F082E000C330B3F938F9386E89EE8CC
:10195C009F938F930E947B168D811F928F938FE99B
:10196C009EE89F938F930E947B1687EB9EE80E94C4
:10197C00501085E49DE80E9450108E811F928F9329
:10198C008B818F938A818F938C811F928F93898106
:10199C001F928F938D811F928F938881282F082EF1
:1019AC00000C330B3F938F9385EC9EE89F938F93A2
:1019BC000E947B168DB79EB782968DBF9EBFDF911E
:0419CC00CF9108951A
:1019D0000FC00E947F1838F00E94861820F09523CF
:1019E00011F00C94C4180C94F01811240C948E1857
:1019F0000E942F1570F3959FC1F3950F50E0551F6E
:101A0000629FF001729FBB27F00DB11D639FAA2753
:101A1000F00DB11DAA1F649F6627B00DA11D661FA2
:101A2000829F2227B00DA11D621F739FB00DA11DC3
:101A3000621F839FA00D611D221F749F3327A00D7D
:101A4000611D231F849F600D211D822F762F6A2F19
:101A500011249F5750409AF0F1F088234AF0EE0F7E
:101A6000FF1FBB1F661F771F881F91505040A9F7AB
:101A70009E3F510580F00C94C4180C948E185F3F63
:101A8000E4F3983ED4F3869577956795B795F795E7
:101A9000E7959F5FC1F7FE2B880F911D969587955F
:041AA00097F9089515
:101AA40011C00E947F1838F00E94861820F039F483
:101AB4009F3F19F426F40C94F0180EF4E095E7FB1C
:101AC4000C94C418E92F0E942F1558F3BA17620713
:101AD40073078407950720F079F4A6F50C948D1804
:101AE4000EF4E0950B2EBA2FA02D0B01B901900135
:101AF4000C01CA01A0011124FF27591B99F0593F79
:101B040050F4503E68F11A16F040A22F232F342FC0
:101B14004427585FF3CF469537952795A795F0400E
:101B24005395C9F77EF41F16BA0B620B730B840B23
:101B3400BAF09150A1F0FF0FBB1F661F771F881FDB
:101B4400C2F70EC0BA0F621F731F841F48F4879533
:101B540077956795B795F7959E3F08F0B0CF939525
:0E1B6400880F08F09927EE0F97958795089542
:101B7200FA01AA27283051F1203181F1E8946F93BC
:101B82006E7F6E5F7F4F8F4F9F4FAF4FB1E03ED062
:101B9200B4E03CD0670F781F891F9A1FA11D680F00
:101BA200791F8A1F911DA11D6A0F711D811D911D33
:101BB200A11D20D009F468943F912AE0269F1124A8
:101BC2003019305D3193DEF6CF010895462F47700C
:101BD200405D4193B3E00FD0C9F7F6CF462F4F7067
:101BE200405D4A3318F0495D31FD4052419302D0C5
:101BF200A9F7EACFB4E0A69597958795779567956B
:101C0200BA95C9F700976105710508959B01AC016A
:101C12000A2E06945795479537952795BA95C9F791
:0C1C2200620F731F841F951FA01D089502
:101C2E0008C016F00C94BD170C94F01868940C9420
:101C3E00C4180E943715A8F39923C1F3AEF3DF93AE
:101C4E00CF931F930F93FF92C92FDD2788232AF07E
:101C5E002197660F771F881FDAF720E030E040E803
:101C6E005FEB9FE3883920F0803E38F021968F7726
:101C7E000E947218E0EAF0E004C00E947218EDECC7
:101C8E00F0E00E949B148B01BE01EC01FB2E6F57FE
:101C9E0071097595771F880B990B0E94921028E198
:101CAE0032E741E35FE30E94E80CAF2D9801AE01ED
:101CBE00FF900F911F91CF91DF910E94520D0C94C6
:021CCE000917F4
:101CD000FA01EE0FFF1F309621053105A1F16115C4
:101CE000710561F48038BFE39B0749F1689490382F
:101CF000810561F08038BFEF9B0741F099234AF5D9
:101D0000FF3FE1053105210519F1E8940894E795B5
:101D1000D901AA2329F4AB2FBE2FF85FD0F310C04E
:101D2000FF5F70F4A695E0F7F73950F019F0FF3A2D
:101D300038F49F779F930DD00F9007FC905808952B
:101D400046F00C94F01860E070E080E89FE308959E
:101D50004FE79F775F934F933F932F930E94170E08
:101D60002F913F914F915F910E94D7180C940911C8
:101D70008F929F92AF92BF92CF92DF92EF92FF929B
:101D80000E9413044B015C010E94FB1724E036E51E
:101D90004AE150E40E94721823E333E948E853E42F
:101DA0000E9472189B01AC0164E076E58AE190E440
:101DB0000E94D3189B01AC0160E070E080E89FE3D3
:101DC0000E94711828E539E348EA50EC0E94680E39
:101DD0006B017C01C501B4010E94901020E030E04D
:101DE00048EC52E40E94D318A70196010E94D7182C
:101DF000FF90EF90DF90CF90BF90AF909F908F902B
:021E0000089543
:101E0200EF92FF920F931F93CF93DF931F92CDB761
:101E1200DEB769838A01E22E60E00E94E814F82EA0
:101E2200882369F161E0CE0101960E947414F82EB4
:101E3200811104C083E08093A40821C0E0EAF8E0A5
:101E420087818160878381E08483858185FD0AC0E3
:101E5200858182FD07C0858183FD04C085818370F1
:101E6200833099F70E949317882329F083E08093A7
:101E7200A408F12C04C06E2DC8010E94F6138F2D08
:101E82000F90DF91CF911F910F91FF90EF900895E6
:101E920086EB95E80E94201287ED95E80E942012B9
:101EA20080E296E80E94B9120E94731582E496E8D5
:101EB2000E94B9120E9473158DE596E80E94B8112E
:101EC2000E94731580E996E80E949F130E94731581
:101ED20083EC96E80E94B9120E94731583ED96E88E
:101EE2000E94B9120E9473158BEE96E80E94B912F5
:101EF2000E9473158CEF96E80E94B9120E94731526
:101F020087E097E80E9420122AE684E091E02150BF
:0A1F120080409040E1F700C0089500
:101F1C0082E295E80E94201288E395E80E94201244
:101F2C008EE695E80E94201284E0809346042AE60F
:101F3C0034E081E0215030408040E1F700C0E5E022
:101F4C00F4E088E080839AE624E031E09150204070
:101F5C003040E1F700C0809306049FE32DE033E0AE
:101F6C00915020403040E1F700C0000080839AE699
:101F7C0024E031E0915020403040E1F700C08093E4
:101F8C0045048AE29CE22AE0815090402040E1F72F
:041F9C0000000895A4
:101FA0001F920F920FB60F9211242F933F934F93CE
:101FB0005F936F937F938F939F93AF93BF93EF93B1
:101FC000FF931F9B05C0E091E236F091E33609953F
:101FD0001A9B05C0E091E036F091E1360995199B16
:101FE00005C0E091DE36F091DF3609951B9B05C0F8
:101FF000E091D636F091D73609958FEF83B9FF91EE
:10200000EF91BF91AF919F918F917F916F915F9170
:102010004F913F912F910F900FBE0F901F901895E9
:102020001F920F920FB60F9211242F933F934F934D
:102030005F936F937F938F939F93AF93BF93EF9330
:10204000FF93599B05C0E091D836F091D936099598
:10205000589B05C0E091D236F091D33609955A9B32
:1020600005C0E091D036F091D13609955B9B05C053
:10207000E091CE36F091CF3609958FEF8BB9FF9175
:10208000EF91BF91AF919F918F917F916F915F91F0
:102090004F913F912F910F900FBE0F901F90189569
:1020A000EF92FF920F931F93CF93DF93E091AD34A4
:1020B000F091AE34238121FF29C08C01D0E0C0E033
:1020C0008BEAE82E84E3F82EF80181918F018823B2
:1020D00081F0D70112966D917C911397DB011896D0
:1020E000ED91FC9119970995892B71F3DFEFCFEFF3
:1020F000EBCF6091AD347091AE34DB011896ED9169
:10210000FC9119978AE00995892B19F08FEF9FEFC1
:1021100002C08D2F9C2FCDB7DEB7E6E00C946F1672
:10212000E89409C097FB3EF4909580957095619571
:102130007F4F8F4F9F4F9923A9F0F92F96E9BB2727
:102140009395F695879577956795B795F111F8CFA3
:10215000FAF4BB0F11F460FF1BC06F5F7F4F8F4F0E
:102160009F4F16C0882311F096E911C0772321F004
:102170009EE8872F762F05C0662371F096E8862F9C
:1021800070E060E02AF09A95660F771F881FDAF7F3
:0A219000880F9695879597F908953A
:10219A000F931F93CF93DF93FB01238121FD03C08C
:1021AA008FEF9FEF2CC022FF16C0468157812481F2
:1021BA0035814217530744F4A081B1819D012F5FF5
:1021CA003F4F208331838C93268137812F5F3F4F86
:1021DA002683378314C08B01EC01FB010084F1854F
:1021EA00E02D0995892BE1F6D80116968D919C91DF
:1021FA001797019616968D939C931797CE01DF91A8
:08220A00CF911F910F9108957F
:1022120008C029F416F00C94C4180C948D180C9470
:10222200F0180E943715A8F39638A0F707F80F9216
:10223200E8942BE33AEA48EB5FE70E94FB0C0F922B
:102242000F920F924DB75EB70F920E945412E8E7B9
:10225200F0E00E949B144F915F91EF91FF91E59501
:10226200EE1FFF1F49F0FE57E0684427EE0F441FA0
:10227200FA95E1F74195550B0E9444110F9007FE24
:062282000C945A180895A7
:1022880004C00C94C4180C94BD170E943715D8F3D9
:102298009923C9F3940F511DA3F39150504094F022
:1022A80059F0882332F0660F771F881F91505040ED
:1022B800C1F79E3F51052CF7880F911D969587957C
:1022C80097F908955F3FACF0983E9CF0BB27869540
:1022D80077956795B79508F4B1609395C1F7BB0FEB
:1022E80058F711F460FFE8CF6F5F7F4F8F4F9F4F14
:0622F800E3CF0C948E18E8
:1022FE001F920F920FB60F9211242F933F934F936D
:10230E005F936F937F938F939F93AF93BF93EF934F
:10231E00FF933B9B05C0E091DC36F091DD360995CD
:10232E003A9B05C0E091DA36F091DB3609953D9B7C
:10233E0005C0E091D436F091D53609958FEF87B967
:10234E00FF91EF91BF91AF919F918F917F916F917F
:10235E005F914F913F912F910F900FBE0F901F9055
:02236E001895C0
:10237000EF92FF921F93CF93DF937C0180E895E863
:102380000E942012C7010E94EC112AE684E091E02D
:10239000215080409040E1F700C010E009C00E9449
:1023A000AC18882341F00E9411180E94E4181F5FA6
:1023B000E701C10FD11D88818111F1CF2AE684E0A8
:1023C00091E0215080409040E1F700C0DF91CF9133
:0823D0001F91FF90EF900895AA
:1023D8000F931F93CF938C01FC014081C091F0367D
:1023E8002C2F30E0A091F136B0E0C90101968A1790
:1023F8009B07F1F04423E1F090E0CF5FF901EF543F
:10240800FB4C40835C2F590F9F5FF801E90FF11DCA
:102418004081252F30E0B9016F5F7F4F6A177B0736
:1024280019F45093F03604C04111E8CF5093F036B8
:08243800CF911F910F9108954F
:10244000EF92FF920F931F93CF93FC0120812223E1
:1024500029F17C01E0E0F8E0848180648483F70165
:102460008081811114C016C00E949A188823E1F35C
:10247000F80180810E94AF17CF5F87010C0F111DFB
:10248000F8019081992331F0CF3F71F703C08701A4
:10249000C0E0EACF0E94A0188111FCCFCF911F911C
:0824A0000F91FF90EF900895E9
:1024A800FA01DC01AA0FBB1F9B01AC01BF5728F43E
:1024B800222733274427507820C0B75190F4AB2FF8
:1024C8000024469537952795011CA395D2F3002043
:1024D80071F0220F331F441FB395DAF30ED00C941A
:1024E800711861307105A0E88A07B94630F49B017C
:1024F800AC016627772788279078309621F02083CB
:082508003183428353830895DF
:10251000CF93DF93CDB7DEB72697CDBFDEBF85EF74
:102520008983809110348A8342E0BE016F5F7F4FC0
:1025300086E70E94911682EF8B8380914D348C83C5
:1025400042E0BE016D5F7F4F86E70E94911684EFE7
:102550008D83809156348E8342E0BE016B5F7F4F46
:1025600086E70E9491162696CDBFDEBFDF91CF9100
:022570000895CC
:10257200FF920F931F93CF93DF938C0189E795E826
:102582000E942012C8010E942012C8010E94EC1170
:10259200F12C09C00E94AC18882341F00E94111846
:1025A2000E94E418F394E801CF0DD11D88818111B6
:1025B200F1CF2AE684E091E0215080409040E1F79B
:0E25C20000C0DF91CF911F910F91FF900895FF
:1025D0000E94371588F09F5798F0B92F9927B75167
:1025E000B0F0E1F0660F771F881F991F1AF0BA95B7
:1025F000C9F714C0B13091F00E948D18B1E0089570
:102600000C948D18672F782F8827B85F39F0B93F61
:10261000CCF3869577956795B395D9F73EF4909569
:0E2620008095709561957F4F8F4F9F4F089565
:10262E001F920F920FB60F9211248F939F93AF9319
:10263E00BF93EF93FF938091CA369091CB36A091C2
:10264E00CC36B091CD360196A11DB11D8093CA3600
:10265E009093CB36A093CC36B093CD36E0E8FAE02B
:10266E00868181608683FF91EF91BF91AF919F919B
:0C267E008F910F900FBE0F901F901895C9
:10268A001F920F920FB60F9211248F939F93AF93BD
:10269A00BF93EF93FF938091C6369091C736A0916E
:1026AA00C836B091C9360196A11DB11D8093C636B0
:1026BA009093C736A093C836B093C936E0E4F1E0E8
:1026CA0083898160838BFF91EF91BF91AF919F9135
:0C26DA008F910F900FBE0F901F9018956D
:1026E600E0E0F8E08DE695E080879187158280EC42
:1026F600868383E08783138614861686158680E094
:1027060099E1809302349093033481E099E18093B8
:1027160000349093013482E099E1809304349093DD
:1027260005341092E4361092E53681EB96E38093F9
:08273600AD349093AE34089518
:10273E00EF92FF921F93CF93DF937C0188E995E888
:10274E000E942012C7010E94EC112AE684E091E05B
:10275E00215080409040E1F700C010E009C00E9477
:10276E00AC18882341F00E9411180E94E4181F5FD4
:10277E00E701C10FD11D88818111F1CFDF91CF917A
:08278E001F91FF90EF900895E8
:1027960040E068ED80E690E00E94CF1841E168EDE8
:1027A60081E690E00E94CF1840E068ED82E690E076
:1027B6000E94CF1840E068ED83E690E00E94CF18B3
:1027C60040E068ED80E790E00E94CF1840E068EDB9
:1027D60088E790E00E94CF1840E068ED8CE790E033
:0627E6000E94CF180895C7
:1027EC0020E22093A5086623D1F0A82FB92F90E002
:1027FC00E0EAF8E022E0858185FD17C0858182FD45
:10280C0007C0858183FD04C085818370833099F76F
:10281C0080858D939F5F691711F02483ECCF87E03F
:10282C008093A40808952483E6CF80858D939F5FC1
:06283C006913F9CFF4CF8F
:102842001F920F920FB60F9211242F933F934F9323
:102852005F936F937F938F939F93AF93BF93EF9306
:10286200FF938091480481FD0E94481881E0809383
:10287200960AFF91EF91BF91AF919F918F917F91B6
:102882006F915F914F913F912F910F900FBE0F90DB
:042892001F901895E6
:102896000E949418882321F00E94DB180E94BB1620
:1028A6000E94A618882321F00E94E1180E94D016E3
:1028B6000E94BE18882341F00E949A18882321F0AE
:1028C6000E941C180E94DE180E94B818882341F046
:1028D6000E94AC18882321F00E9411180E94E41867
:0228E600089553
:1028E800662309F1DC016150262F30E02F5F3F4F4E
:1028F800280F391FE0EAF8E09D919087958195FDB2
:102908000AC0958192FD07C0958193FD04C0958109
:102918009370933099F7958194FD07C0A217B30778
:0E29280059F781E0089581E0089580E0089558
:10293600DF93CF931F930F93FF92EF92DF927B016A
:102946008C01689406C0DA2EEF010E94E80CFE01A5
:10295600E894A5912591359145915591A6F3EF01FE
:102966000E94520DFE019701A801DA9469F7DF90E3
:0E297600EF90FF900F911F91CF91DF91089588
:10298400E0E2F8E087EE90E080879187158280ECA2
:10299400868383E08783138614861686158683E0F0
:1029A40099E1809306349093073484E099E180930D
:1029B40008349093093485E099E180930A34909324
:0C29C4000B341092E6361092E7360895AE
:1029D0009091A50893709330E1F0880F682B609375
:1029E000A708E0EAF8E0858185FD0AC0858182FDBF
:1029F00007C0858183FD04C085818370833099F78A
:102A00000E949317882339F083E08093A40880E024
:0A2A1000089580E0089581E0089524
:102A1A00CF93DF93EC010E94CA180E94FB170E9411
:102A2A00781868830E94B80E0E94E8126A837B8332
:102A3A000E9406180E94E81269830E94F7168D8385
:102A4A008091E8368F5F8E83CE010E947E0CDF91E3
:042A5A00CF9108957B
:102A5E0057FD9058440F551F59F05F3F71F0479541
:102A6E00880F97FB991F61F09F3F79F08795089526
:102A7E00121613061406551FF2CF4695F1DF08C045
:102A8E00161617061806991FF1CF86957105610562
:042A9E0008940895FB
:102AA200A1E21A2EAA1BBB1BFD010DC0AA1FBB1F50
:102AB200EE1FFF1FA217B307E407F50720F0A21BC2
:102AC200B30BE40BF50B661F771F881F991F1A942F
:102AD20069F760957095809590959B01AC01BD0159
:042AE200CF01089583
:102AE600CF9380EB95E80E9420120E94A6188823B7
:102AF60021F00E94E1180E94D0160E94BE18882379
:102B0600A1F30E949A18882381F30E941C18C82FEB
:0C2B16000E94DE18CA3049F7CF910895E4
:102B2200CF93DF93EC0187EC97E80E94201288E3B1
:102B320095E80E9420128CED97E80E942012CE01A7
:102B42000E94201280EF97E80E94EC11CE010E94B1
:082B5200EC11DF91CF91089511
:102B5A00CF93DF93EC0187EC97E80E94201288E379
:102B6A0095E80E9420128FEF97E80E942012CE016A
:102B7A000E94201285E198E80E94EC11CE010E9481
:082B8A00EC11DF91CF910895D9
:102B9200E0E8FAE080E197E28487958780E181832B
:102BA20081E0858393E09083E0E9FAE02FEF3FEF45
:102BB2002487358746E0418341E14483908322871D
:062BC200338785830895AE
:102BC8000E94A61682EC92EA0197F1F700C00E94D3
:102BD800A50960E080E00E94661741E061E081E0BD
:102BE8000E94EF1781E00E94E7180E94881281E096
:062BF8008093EE36089503
:102BFE00CF93DF9300D0CDB7DEB7809156348C7F64
:102C0E0081608093563494EF99838A8342E0BE01AB
:102C1E006F5F7F4F86E70E9491160F900F90DF91A6
:042C2E00CF910895A5
:102C3200E0E0F6E01182118680E2828313828FEF58
:102C420080871386178280E18287148287E08487D7
:102C520080E38587168E178E148E158E108280E083
:022C62000895D3
:102C64002F923F924F925F926F927F928F929F9298
:102C7400AF92BF92CF92DF92EF92FF920F931F9386
:102C8400CF93DF93CDB7DEB7CA1BDB0BCDBFDEBF5F
:022C94000994A1
:102C96001F920F920FB60F9211248F93EF93FF930B
:102CA600E0E0F6E080E2858380E1858388E0858345
:102CB600FF91EF918F910F900FBE0F901F90189577
:102CC6002A88398848885F846E847D848C849B84B6
:102CD600AA84B984C884DF80EE80FD800C811B81C4
:102CE600AA81B981CE0FD11DCDBFDEBFED010895FA
:102CF600A0E0B0E0E1E8F6E10C944216AE014B5FCD
:102D06005F4FFA0161917191AF018091AD3490915D
:0C2D1600AE340E94B000E2E00C94731692
:102D22001F93CF93DF93EB01142F60E00E94E8140E
:102D3200882339F0612FCE010E94741493E090939E
:0A2D4200A408DF91CF911F910895BE
:102D4C00CF93DF9300D0CDB7DEB780EE898386EBCF
:102D5C008A8342E0BE016F5F7F4F86E70E94911627
:0A2D6C000F900F90DF91CF910895B2
:102D76009091F036292F30E0B9016F5F7F4F409177
:102D8600F13650E06417750739F0F901EF54FB4C42
:0A2D960080839F5F9093F03608954C
:102DA0009091F236292F30E0B9016F5F7F4F40914B
:102DB000F33650E06417750739F0F901EF54FA4C17
:0A2DC00080839F5F9093F236089520
:102DCA000E9448170E9457170E946A180E94C91544
:102DDA000E94E31778940E94A1170E94E4150E94AA
:042DEA006B05FDCFA9
:102DEE002091E8363091E936ADECBCEC0E948417A8
:102DFE0096958795969587959695879594E6981BC3
:042E0E00892F08956B
:102E1200092E0394000C11F4882352F0BB0F40F4E6
:102E2200BF2B11F460FF04C06F5F7F4F8F4F9F4F26
:022E3200089501
:102E3400DB018F939F930E942718BF91AF91A29FAC
:102E4400800D911DA39F900DB29F900D11240895A4
:102E54001F920F920FB60F9211248F9382E08093EA
:0E2E640005068F910F900FBE0F901F901895CE
:102E72001F920F920FB60F9211248F9381E08093CD
:0E2E820005068F910F900FBE0F901F901895B0
:102E90000E94CB130E94880B0E9419160E94731384
:0E2EA0000E94C2140E94B2180E94CB1708951F
:102EAE00E0E4F4E0808181608083848181608483AA
:0E2EBE0080818D7F808381898860818B08955B
:102ECC0087708295807F2091103421786770962FBF
:0E2EDC00990F622F682B692B609310340895B4
:102EEA0089E997E80E94201287ED95E80E9420124E
:0E2EFA0088EA97E80E94B9120E9473150895A5
:102F0800A29FB001B39FC001A39F700D811D112422
:0E2F1800911DB29F700D811D1124911D089511
:102F26008091A5088C7141F49091A508937081E079
:0C2F3600933019F080E0089581E00895C8
:102F42000E945218E0EAF8E084E0808381E0828304
:0C2F52009DEF95839FE096838383089594
:102F5E00CF93C82F0E949A18882331F0E0E0F8E052
:0C2F6E00948190649483C283CF910895F5
:102F7A009F3F31F0915020F4879577956795B795E3
:0C2F8A00880F911D9695879597F9089582
:102F960040E068ED80E191E00E94CF18E0E1F1E0C9
:082FA6001282138280E00895FD
:102FAE00CF93C82F0E949A188823E1F3C09302088A
:082FBE0080E090E0CF9108953E
:102FC600E0E4F1E081E08783828B818980FDFDCF9B
:082FD60089E480935001089585
:102FDE008295880F807E6770660F660F4370862B12
:082FEE00842B809356340895F2
:102FF6000E94650A0E94901020E030E048EC52E4FE
:063006000E94D31808959A
:10300C000E94B9070E94901020E030E040E85AE39B
:06301C000E94D718089580
:103022009091F136E92FF0E0EF54FB4C80819F5FE5
:063032009093F1360895B1
:103038009091F336E92FF0E0EF54FA4C80819F5FCE
:063048009093F336089599
:10304E000E948417A59F900DB49F900DA49F800D94
:06305E00911D11240895EC
:10306400FC010590615070400110D8F7809590954F
:063074008E0F9F1F08955E
:10307A00FC016150704001900110D8F7809590953D
:06308A008E0F9F1F089548
:103090008091EA369091EB3681608093EA36909386
:0430A000EB3608956E
:1030A400E0E2F4E083E0818388E0808B818B089503
:1030B4009B01AC0160E070E080E89FE30C94D318BE
:1030C400B7FF0C9427180E942718821B930B0895AE
:0E30D400E0E8F1E081E4838B84E082AB0895B4
:0E30E2005058BB27AA270E94520D0C940917C4
:0E30F0000E94E8126894B1110C948E18089595
:0E30FE0000240A9416161706180609060895EF
:0E310C0000240A9412161306140605060895F0
:0E311A00E894BB2766277727CB0197F9089525
:0C31280080910408881F8827881F0895E4
:0C3134008091040885FB882780F908952D
:0C3140008091040886FB882780F9089520
:0C314C0080912408881F8827881F0895A0
:0C3158008091240885FB882780F90895E9
:0C316400E0EAF0E01082118280E00895A3
:0C3170008091F1369091F036891B089593
:0C317C008091F3369091F236891B089583
:0C31880097F99F6780E870E060E0089510
:0A3194000E94FF150E94F90A089539
:08319E00FC0164BF40830895A9
:0831A6000E940F0C0C940917A4
:0831AE000E94E80C0C940917C3
:0631B6008091000808955D
:0631BC0080930208089553
:0631C20080912008089531
:0631C80080932208089527
:0631CE0080934D340895CA
:0631D4000E94490F08955E
:0631DA000E947517089524
:0631E0009FEF80EC089552
:0431E6000C94000045
:0231EA00089546
:0231EC00089544
:0231EE00089542
:0231F000089540
:0231F20008953E
:0231F40008953C
:0231F60008953A
:0231F800089538
:0231FA00089536
:0231FC00089534
:0231FE00089532
:0232000008952F
:0232020008952D
:0232040008952B
:02320600089529
:02320800089527
:02320A00089525
:0E320C000000000200000000D71700000000C4
:02000004008278
:090000000000020000C40700002A
:00000001FF
