:100000000C9486000C9479190C9479190C94791934
:100010000C9425140C9479190C943A100C94231216
:100020000C9479190C9479190C9479190C94791908
:100030000C9479190C94F7130C9479190C94791980
:100040000C9479190C9479190C9479190C947919E8
:100050000C9479190C9400170C94FA170C94EB1764
:100060000C947A100C94D7140C9479190C94791977
:100070000C9479190C94791907634236B79BD8A769
:100080001A39685618AEBAAB558C1D3CB7CC5763BD
:10009000BD6DEDFD753EF6177231BF000000803F6B
:1000A00008000000BE922449123EABAAAA2ABECD87
:1000B000CCCC4C3E00000080BEABAAAAAA3E0000F9
:1000C0000000BF000000803F0000000000084178F1
:1000D000D3BB4387D1133D190E3CC3BD4282AD2B28
:1000E0003E68EC8276BED98FE1A93E4C80EFFFBE20
:1000F00001C4FF7F3F0000000000340035B88035A8
:10010000B835C600331835C63602800011241FBE2C
:10011000CFEFCDBFDFE3DEBFEAEFF0E041E017C095
:10012000B591A59135912591059107FD0CC095914B
:100130008591EF01F92FE82F05900D92A217B307D3
:10014000D9F7FE0104C01D92A217B307E1F7EB3007
:10015000F40731F70E94B5160C94AE00F894FFCF67
:10016000ABE0B0E0E6EBF0E00C94E7166C017B014D
:100170008A01FC0116821782838181FFCCC1CE01E6
:1001800001963C01F6019381F70193FD859193FF60
:1001900081917F01882309F4BAC1853239F493FD36
:1001A000859193FF81917F01853229F4B60190E01A
:1001B0000E943711E7CF912C212C312CFFE1F31550
:1001C000D8F08B3279F038F4803279F08332A1F4B0
:1001D000232D20611DC08D3261F0803369F4232D01
:1001E000216016C0832D8260382EE32DE4603E2E00
:1001F0002AC0F32DF8601DC037FC2DC020ED280F5C
:100200002A3040F08E32B9F436FC81C1232D2064AF
:10021000322E19C036FE06C08AE0989E200D1124A9
:10022000922E11C0EAE02E9E200D1124222EF32DD5
:10023000F0623F2E08C08C3621F4832D8068382E62
:1002400002C0883641F4F70193FD859193FF8191B7
:100250007F018111B3CF982F9F7D9554933028F45F
:100260000C5F1F4F9FE399830DC0833631F08337B6
:1002700071F0833509F059C021C0F801808189836C
:100280000E5F1F4F88248394912C530113C02801C3
:10029000F2E04F0E511CF801A080B18036FE03C081
:1002A000692D70E002C06FEF7FEFC5010E94EE186C
:1002B0004C018201F32DFF773F2E16C0280122E06A
:1002C000420E511CF801A080B18036FE03C0692D9A
:1002D00070E002C06FEF7FEFC5010E94E3184C0190
:1002E000F32DF0683F2E820133FC1BC0822D90E07D
:1002F00088169906B0F4B60180E290E00E943711AA
:100300002A94F4CFF50137FC859137FE81915F0186
:10031000B60190E00E94371121102A9421E0821A40
:1003200091088114910471F7E8C0843611F0893680
:1003300041F5F80137FE07C06081718182819381A8
:100340000C5F1F4F08C060817181072E000C880B65
:10035000990B0E5F1F4FF32DFF763F2E97FF09C0BD
:1003600090958095709561957F4F8F4F9F4FF06866
:100370003F2E2AE030E0A3010E94AA0E882E8618A4
:1003800045C0853731F4232D2F7EB22E2AE030E090
:1003900025C0932D997FB92E8F36C1F018F488357A
:1003A00079F0B5C0803719F0883721F0B0C0E92F57
:1003B000E061BE2EB4FE0DC0FB2DF460BF2E09C05F
:1003C00034FE0AC0292F2660B22E06C028E030E095
:1003D00005C020E130E002C020E132E0F801B7FEC4
:1003E00007C060817181828193810C5F1F4F06C0BD
:1003F0006081718180E090E00E5F1F4FA3010E9439
:10040000AA0E882E8618FB2DFF773F2E36FE0DC0D4
:10041000232D2E7FA22E891458F434FE0BC032FCFB
:1004200009C0832D8E7EA82E05C0B82CA32C03C036
:10043000B82C01C0B92CA4FE0FC0FE01E80DF11DBF
:100440008081803321F49A2D997EA92E09C0A2FEC5
:1004500006C0B394B39404C08A2D867809F0B3948F
:10046000A3FC11C0A0FE06C0B21488F4280C922C84
:100470009B180EC0B21460F4B60180E290E00E94B6
:100480003711B394F7CFB21418F42B1802C0982C7C
:10049000212CA4FE10C0B60180E390E00E94371129
:1004A000A2FE17C0A1FC03C088E790E002C088E567
:1004B00090E0B6010CC08A2D867859F0A1FE02C0EA
:1004C0008BE201C080E2A7FC8DE2B60190E00E94C1
:1004D0003711891438F4B60180E390E00E94371197
:1004E0009A94F7CF8A94F301E80DF11D8081B6014B
:1004F00090E00E9437118110F5CF222009F442CEFE
:10050000B60180E290E00E9437112A94F6CFF601FE
:100510008681978102C08FEF9FEF2B96E2E10C94CA
:020520001817AA
:100522000D526573657474696E67204C52322043B4
:100532006C69636B0A002D2D2D2D2D2D2D2D2D2D4A
:100542002D2D2D2D2D2D2D2D2D2D2D2D2D2D2D2DD9
:100552002D2D2D2D2D2D2D2D2D2D2D2D2D2D2D2DC9
:100562002D2D2D2D2D2D2D2D2D2D0A004669726D2F
:10057200776172653A20000D0A54783A20000D0A1C
:1005820054783A206D6163207365742061707073D2
:100592006B65790D0A000D0A54783A206D6163206B
:1005A200736574206E776B736B65790D0A000D525B
:1005B200783A20000A0A436F6E6669677572696E3F
:1005C20067204C523220436C69636B20466F722065
:1005D2004142500A002D2D2D2D2D2D2D2D2D2D2D4D
:1005E2002D2D2D2D2D2D2D2D2D2D2D2D2D2D2D2D39
:1005F2002D2D2D2D2D2D2D2D2D2D2D2D2D2D2D2D29
:100602002D2D2D2D2D2D2D2D2D2D2D2D2D2D2D2D18
:100612002D2D2D2D2D2D2D2D2D2D2D2D0A006D61E4
:10062200632073657420646576657569203730428E
:10063200334435374544303035363430330D0A00D3
:100642006D616320736574206465766164647220F1
:1006520032363043303333330D0A006D6163207319
:10066200657420617070736B657920383336463853
:1006720030394537364632393141353239433534EE
:1006820030413033373145343133370D0A006D6133
:100692006320736574206E776B736B6579204538C0
:1006A20034303935454132434636343637394430B1
:1006B20042323033313941313433393738390D0A26
:1006C200006D616320736574206172206F6E0D0A84
:1006D200006D61632073657420727864656C617962
:1006E2003120353030300D0A006D6163207365743E
:1006F20020616472206F6E0D0A006D616320736168
:1007020076650D0A000A0A436F6E6669677572693B
:100712006E67204C523220436C69636B20666F72A5
:10072200204F5441410A006D61632073657420615A
:1007320070706B6579203833364638303945373634
:10074200463239314135323943353430413033372D
:100752003145343133370D0A006D6163207365749E
:100762002061707065756920303030303030303043
:1007720030303030303030300D0A006D616320701F
:10078200617573650D0A006D616320726573756D25
:10079200650D0A000A0A000A0A4A6F696E696E67E5
:1007A2002054544E0A006D6163206A6F696E2061A5
:1007B20062700D0A006D6163206765742073746155
:1007C2007475730D0A006D6163206A6F696E206F24
:1007D2007461610D0A000A0A5472616E736D697464
:1007E20074696E6720446174610A000A54783A2081
:1007F2006D616320747820636E6620343220006D50
:10080200616320747820636E66203432203135347F
:1008120034303030324330363430310D0A000A542D
:10082200783A206D616320747820756E636E66205D
:10083200343320006D616320747820756E636E66B8
:0508420020343320000A
:100847000A416674657220313030204D6F697374C8
:100857007572652052656164696E6773002D2D2D71
:100867002D2D2D2D2D2D2D2D2D2D2D2D2D2D2D2DB1
:100877002D2D2D2D2D2D2D2D2D2D2D2D2D2D2D2DA1
:100887002D2D2D2D2D2D2D2D2D2D2D2D2D2D2D2D91
:100897002D2D2D2D2D2D2D2D2D2D2D2D2D2D2D2D81
:1008A7002D2D2D2D00546865204D4158207265610E
:1008B70064696E67207761732025640A0054686550
:1008C700204D494E2072656164696E6720776173B8
:1008D7002025640A0A00546865204D4158206D613F
:1008E700707320746F2025640A00546865204D4991
:1008F7004E206D61707320746F2025640A00626555
:10090700666F72652070756C7365006265666F72DD
:100917006520616463207265616400736F696C2090
:100927006D6F6973743A2025640A000A0A43757269
:1009370072656E742053656E736F722044617461C3
:100947000A002D2D2D2D2D2D2D2D2D2D2D2D2D2D20
:100957002D2D2D2D2D2D2D2D2D2D2D2D2D2D2D2DC0
:100967002D2D2D2D2D2D2D2D2D2D2D2D2D2D2D2DB0
:100977002D2D2D2D2D2D2D2D2D2D2D2D2D2D2D2DA0
:100987002D2D2D2D2D2D2D2D2D0A0052656C6174C9
:100997006976652048756D69646974793A202575AB
:1009A7002525200D0A004D6F6973747572653A200D
:1009B70025752525200D0A005072657373757265BC
:1009C7003A202575206850610D0A0041697220544C
:1009D700656D70657261747572653A20256920438B
:1009E700200D0A0042617474657279204C65766542
:1009F7006C3A2025752525200D0A0A000A4A534F0F
:100A07004E20466F726D61740D005061796C6F6195
:100A1700643A207B206169725F74656D703A2025A6
:100A2700692C20626174746572793A2025752C20CF
:100A370068756D69646974793A2025752C206D6F26
:100A47006973747572653A2025752C207072657309
:100A5700737572653A2025752C206E756D54783A3A
:100A67002025750D0A0A7D00696E2067657420735D
:100A7700656E736F7273206461746100636F6D706C
:100A87006C65746520726561642073656E736F723F
:100A970073006D6F69737400636F6D706C65746557
:100AA70064206C6F6164696E672073747275637418
:100AB70000696E20666F726D6174207061796C6F6A
:100AC7006164003031323334353637383941424387
:100AD70044454600627574746F6E0073656E6420DA
:100AE70064617461006265666F7265207061796C1C
:100AF7006F6164006265666F72652073656E64007E
:100B07006265666F7265207478006166746572202D
:100B17007478006D61632067657420737461747500
:100B2700730D0A00426567696E205465737420254A
:100B3700640D0A005465737420256420424D4532C4
:100B470038300054657374202564204C6F5261005F
:100B58004F925F926F927F928F929F92AF92BF92C5
:100B6800CF92DF92EF92FF92C0907534D090763496
:100B7800E0907734F0907834F594E794D794C7945C
:100B88008AEFD81AE108F108C701B601959587954B
:100B98007795679595958795779567959B01AC01AE
:100BA8000E94DB174B015C01E9E7F4E3A285B385FA
:100BB8009B01AC01012E1DE055954795379527956A
:100BC8001A95D1F7102D0E9409192B013C01689440
:100BD80012F875946794579447941694D1F7A085A2
:100BE800B185A70196010E940919DC01CB01B595D1
:100BF800A79597958795840D951DA61DB71D072E5A
:100C080072E1B595A795979587957A95D1F7702D47
:100C18009C01AD0130584F4F5F4FA681B7810E94AC
:100C2800D8182B013C01032E3FE075946794579424
:100C380047943A95D1F7302D411451046104710459
:100C480009F4CEC0A5019401012E1BE055954795E6
:100C5800379527951A95D1F7102DA089B1890E944B
:100C680009194B015C01A685B785A70196010E9469
:100C78000919DC01CB01880F991FAA1FBB1F880E19
:100C8800991EAA1EBB1ED501C401B595A7959795B7
:100C98008795B595A7959795879584849584092C0C
:100CA800000CAA08BB08540199248824880E991EB0
:100CB800AA1EBB1E072E7CE0B594A7949794879430
:100CC8007A95D1F7702D80914E3490914F34A09140
:100CD8005034B0915134A5019401280F391F4A1F8F
:100CE8005B1FABECB3EF0E940C19805B9C4399230C
:100CF8005CF0660F771F881F991FA30192010E945D
:100D0800081669017A010AC0A30192010E94081617
:100D180069017A01CC0CDD1CEE1CFF1CC701B60171
:100D2800689412F896958795779567951694D1F7F4
:100D38009B01AC010E94DB179B01AC01012E1DE059
:100D480056954795379527951A95D1F7102DE9E7C8
:100D5800F4E3A689B7890E9409194B015C01072EA3
:100D68007CE0B594A794979487947A95D1F7702DE1
:100D7800A701960156954795379527955695479516
:100D880037952795A489B5890E940919DC01CB01FB
:100D9800072E7DE0B595A795979587957A95D1F714
:100DA800702DB501A401480F591F6A1F7B1F828946
:100DB8009389092E000CAA0BBB0B840F951FA61F45
:100DC800B71F689413F8B595A795979587951694C6
:100DD800D1F7BC01CD016C0D7D1D8E1D9F1D03C07B
:100DE80060E070E0CB01FF90EF90DF90CF90BF9074
:100DF800AF909F908F907F906F905F904F900895E5
:100E08008091FA359091FB3580FF31C08091FF3594
:100E1800813081F028F0823089F0853099F01EC049
:100E28000E94E9110E9470190E94731981E0809351
:100E3800FF3514C083E08093FF3510C083E08093B2
:100E4800FF350CC086E08093FF358091FC3590918A
:100E5800FD3501968093FC359093FD358091FA35E8
:100E68009091FB358E7F8093FA359093FB35809176
:100E7800FF35843009F45FC0863009F47BC08330C5
:100E880009F0F1C082EE9AE80E94BA108AE994E368
:100E98000E945C128CEE9AE80E94BA106AE974E328
:100EA80081EA94E30E9438088BEF9AE80E94BA100E
:100EB8004091F8355091F9359A01ADECBCEC0E949F
:100EC80018189695879596958795969587959C0178
:100ED800220F331F880F991F880F991F880F991F9A
:100EE800820F931F4817590789F487E09BE80E94EF
:100EF800BA1081EA94E30E94CE1681E19BE89F93A1
:100F08008F930E9430170F900F9004C08AE19BE8DE
:100F18000E9498138091F8359091F9350196809345
:100F2800F8359093F935E0E4F1E0808181608083C1
:100F380084E08093FF358091D2359091D335A0918C
:100F4800D435B091D535843B9105A105B10508F498
:100F58008AC083E08093FF35E0E4F1E080818E7FF2
:100F680080831092D2351092D3351092D4351092D6
:100F7800D53508958091FC359091FD3582309105E5
:100F880001F18330910591F1019709F06CC01F922E
:100F980081E08F938BE29BE89F938F930E94301799
:100FA80085E08093FF352FE73AE186E02150304015
:100FB8008040E1F700C000000F900F900F900F9055
:100FC80008951F9282E08F938BE39BE89F938F9302
:100FD8000E9430178AE994E30E945C1285E08093AE
:100FE800FF350F900F900F900F9008951F9283E098
:100FF8008F938AE49BE89F938F930E943017E5E0D4
:10100800F4E088E080839FE72AE136E091502040B1
:101018003040E1F700C00000809306049FE72FE40A
:1010280032E1915020403040E1F700C00000808359
:101038009FE72AE136E0915020403040E1F700C0B8
:101048000000809345048FEF98E02DE38150904095
:101058002040E1F700C0000085E08093FF350F9045
:081068000F900F900F90089506
:10107000EF92FF920F931F93CF93DF93CDB7DEB71D
:101080006197CDBFDEBF8C017B0188EB9AE80E949F
:10109000BA1081E1EAECFAE8DE01119601900D92B6
:1010A0008A95E1F7D7018C9182958F70E1E0F0E0AD
:1010B000EC0FFD1FE80FF11D8081F80180838C91FA
:1010C0008F70E1E0F0E0EC0FFD1FE80FF11D808173
:1010D000D80111968C931197F701818182958F70B9
:1010E000E1E0F0E0EC0FFD1FE80FF11D80811296AA
:1010F0008C93D70111968C9111978F70E1E0F0E0FD
:10110000EC0FFD1FE80FF11D8081F8018383149619
:101110008C9182958F70E1E0F0E0EC0FFD1FE80FFD
:10112000F11D8081D80114968C931497F701848166
:101130008F70E1E0F0E0EC0FFD1FE80FF11D808102
:1011400015968C93D70113962C911397822F829525
:101150008F7090E0E1E0F0E0EC0FFD1FE80FF91F69
:101160008081F801868313968C9190E08F70992787
:10117000E1E0F0E0EC0FFD1FE80FF91F8081D801DE
:1011800017968C93D7011296ED91FC911397F295D7
:10119000E295EF70EF27FF70EF27EF70FF2781E0F8
:1011A00090E08C0F9D1FE80FF91F8081D8011896E1
:1011B0008C93D7011296ED91FC911397EF70FF2756
:1011C00081E090E08C0F9D1FE80FF91F8081D8010E
:1011D00019968C931997F701858182958F70E1E0BC
:1011E000F0E0EC0FFD1FE80FF11D80811A968C9343
:1011F000D70115968C9115978F70E1E0F0E0EC0F18
:10120000FD1FE80FF11D8081F801838716968C91F0
:1012100082958F70E1E0F0E0EC0FFD1FE80FF11D0B
:101220008081D8011C968C931C97F70186818F7062
:10123000E1E0F0E0EC0FFD1FE80FF11D80811D964D
:101240008C931D978DE01E968C931E978AE01F96B7
:101250008C931F9750961C926196CDBFDEBFDF9195
:0C126000CF911F910F91FF90EF90089527
:10126C004F925F926F927F928F929F92AF92BF92AA
:10127C00CF92DF92EF92FF928090753490907634FB
:10128C00A0907734B09078342CE2921A21E0A20A24
:10129C00B108C0900C34D0900D34E0900E34F09026
:1012AC000F340B2EBEE0CC0CDD1CEE1CFF1CBA95D3
:1012BC00D1F7B02DE9E7F4E3848D958D092E000C60
:1012CC00AA0BBB0B072E74E1880F991FAA1FBB1F1B
:1012DC007A95D1F7702DC81AD90AEA0AFB0AA68D9D
:1012EC00B78DA50194010E940919C61AD70AE80AFC
:1012FC00F90A30E4D30EE11CF11C0B2EBFE0F5947F
:10130C00E794D794C794BA95D1F7B02DA38DB0E0DC
:10131C00A50194010E94D8182B013C01032E3BE03F
:10132C0075946794579447943A95D1F7302D40E8CB
:10133C00540E611C711CA0A10A2E000CBB0BA50144
:10134C0094010E940919052E5AE095958795779579
:10135C0067955A95D1F7502DA30192010E94DB1786
:10136C00DC01CB01072E7AE0B595A795979587956B
:10137C007A95D1F7702D9C01AD01405E5F4FA18D28
:10138C00B28D0E940919DC01CB01905EAF4FBF4FAB
:10139C00BC01CD01052E5EE09595879577956795F7
:1013AC005A95D1F7502DA70196010E94DB176B01BE
:1013BC007C01052E5FE095958795779567955A95F5
:1013CC00D1F7502D9B01AC010E94DB179B01AC01A6
:1013DC00689416F855954795379527951694D1F737
:1013EC00A08DB0E00E94D818DC01CB01689413F8F2
:1013FC00B595A795979587951694D1F7A701960162
:10140C00281B390B4A0B5B0BDA01C9011AF480E07B
:10141C0090E0DC0181309105A10539E1B30724F09E
:10142C0080E090E0A0E0B9E1BC01CD01052E5CE0CC
:10143C0095958795779567955A95D1F7502DFF908F
:10144C00EF90DF90CF90BF90AF909F908F907F9058
:08145C006F905F904F9008951E
:101464000F931F93CF93DF93CDB7DEB76897CDBFAC
:10147400DEBF28E1AE014F5F5F4F68E886E70E9458
:10148400F20F09E714E38A8190E0982F88272981D5
:10149400820F911DF801808391838C8190E0982FB5
:1014A40088272B81820F911D828393838E8190E004
:1014B400982F88272D81820F911D84839583888599
:1014C40090E0982F88272F81820F911D8683978320
:1014D4008A8590E0982F88272985820F911D80871F
:1014E40091878C8590E0982F88272B85820F911DFA
:1014F400828793878E8590E0982F88272D85820F89
:10150400911D84879587888990E0982F88272F8557
:10151400820F911D868797878A8990E0982F882764
:101524002989820F911D808B918B8C8990E0982F53
:1015340088272B89820F911D828B938B8E8990E053
:10154400982F88272D89820F911D848B958B888DE8
:1015540090E0982F88272F89820F911D868B978B77
:1015640021E0AE014F5F5F4F61EA86E70E94F20F10
:101574008981F801808F27E0AE014F5F5F4F61EEF4
:1015840086E70E94F20F2A8130E0322F22279981C8
:10159400290F311DF801218F328F9B81938F9D81FB
:1015A4002C81F0E12F9F90011124492F4F70242B9F
:1015B400F801248F358F2E81F0E12F9F90011124A3
:1015C40092959F70292BF801268F378F9F8190A3C6
:1015D4006896CDBFDEBFDF91CF911F910F91089523
:1015E4008F929F92AF92BF92CF92DF92EF92FF922F
:1015F4008091523490915334A0915434B091553425
:10160400E9E7F4E34081518160E070E06C017D0121
:10161400689413F8F594E794D794C7941694D1F783
:10162400C41AD50AE60AF70A689412F8B595A7957C
:10163400979587951694D1F7440F551F661F771F0A
:101644004C015D01841A950AA60AB70AA501940102
:10165400A281B3810E9409194B015C01072E7BE032
:10166400B594A794979487947A95D1F7702DA70190
:101674009601C701B6010E94DB179B01AC01012E44
:101684001CE055954795379527951A95D1F7102D58
:10169400A481B5810E940919DC01CB01072E7EE0EB
:1016A400B595A795979587957A95D1F7702D880D5F
:1016B400991DAA1DBB1D8093753490937634A09315
:1016C4007734B09378346C017D01CC0CDD1CEE1CB6
:1016D400FF1CCC0CDD1CEE1CFF1C8C0D9D1DAE1DD7
:1016E400BF1D80589F4FAF4FBF4F692F7A2F8B2F4D
:1016F400992787FD9A95FF90EF90DF90CF90BF9048
:08170400AF909F908F900895B3
:10170C00CF93DF93CDB7DEB72897CDBFDEBF28E0F0
:10171C00AE014F5F5F4F67EF86E70E94F20F8F813C
:10172C0090E0A0E0B0E0BA2FA92F982F8827288549
:10173C00822B80930C3490930D34A0930E34B09381
:10174C000F348C8190E0A0E0B0E0AC01BD01032E21
:10175C003CE0440F551F661F771F3A95D1F7302D8B
:10176C009D81892F90E0A0E0B0E0880F991FAA1FFF
:10177C00BB1F880F991FAA1FBB1F880F991FAA1F79
:10178C00BB1F880F991FAA1FBB1F842B952BA62B41
:10179C00B72B2E8122952F70822B809352349093ED
:1017AC005334A0935434B0935534898190E0A0E025
:1017BC00B0E0AC01BD01032E3CE0440F551F661F89
:1017CC00771F3A95D1F7302D9A81892F90E0A0E0C0
:1017DC00B0E0880F991FAA1FBB1F880F991FAA1F63
:1017EC00BB1F880F991FAA1FBB1F880F991FAA1F09
:1017FC00BB1F842B952BA62BB72B2B8122952F70DF
:10180C00822B80934E3490934F34A0935034B093EA
:0E181C0051342896CDBFDEBFDF91CF910895E5
:10182A00CF93DF93C0E0D4E08AE08883A0E2B4E0FB
:10183A0084E28C93E0E4F4E08DE080831C821496C9
:10184A001C9214971482188A198A1A8A1B8A1C8A6B
:10185A001D8A1E8A1F8A50961C92509751961C9276
:10186A00519752961C92529753961C92539754969C
:10187A001C92549755961C92559756961C925697B9
:10188A0057961C92108A118A128A138A148A158A08
:10189A00168A178AE0EEF5E011821082138214820A
:1018AA00158212828BE799E18093F2359093F33592
:1018BA008CE799E18093F0359093F1358DE799E1C2
:1018CA008093EE359093EF358EE799E18093EC356E
:1018DA009093ED358FE799E18093EA359093EB3554
:1018EA0080E899E18093E8359093E93581E899E1B8
:1018FA008093E6359093E73582E899E18093E43561
:10190A009093E53583E899E18093E2359093E33546
:10191A0084E899E18093E0359093E13585E899E18F
:0E192A008093DE359093DF35DF91CF910895E5
:1019380010C00E942D1958F00E94261940F029F471
:101948005F3F29F00C94531951110C9435190C94DC
:1019580076190E94E61568F39923B1F3552391F39C
:10196800951B550BBB27AA2762177307840738F006
:101978009F5F5F4F220F331F441FAA1FA9F335D063
:101988000E2E3AF0E0E832D091505040E695001C17
:10199800CAF72BD0FE2F29D0660F771F881FBB1FD1
:1019A800261737074807AB07B0E809F0BB0B802DAF
:1019B800BF01FF2793585F4F3AF09E3F510578F0DB
:1019C8000C9453190C9435195F3FE4F3983ED4F303
:1019D800869577956795B795F7959F5FC9F7880FAF
:1019E800911D9695879597F90895E1E0660F771F01
:1019F800881FBB1F621773078407BA0720F0621B92
:0E1A0800730B840BBA0BEE1F88F7E095089560
:101A1600CF93DF93EC0182E399E80E94FF1289E4F9
:101A260099E80E94FF1289811F928F9382E999E8B3
:101A36009F938F930E9430178C811F928F938DEA0C
:101A460099E89F938F930E9430178B818F938A8199
:101A56008F938FEB99E89F938F930E94301788811D
:101A6600282F082E000C330B3F938F9382ED99E8B5
:101A76009F938F930E9430178D811F928F938BEEC9
:101A860099E89F938F930E94301783E09AE80E940B
:101A9600BA1084E698E80E94BA108E811F928F933E
:101AA6008B818F938A818F938C811F928F938981EB
:101AB6001F928F938D811F928F938881282F082ED6
:101AC600000C330B3F938F9381E19AE89F938F939A
:101AD6000E9430178DB79EB782968DBF9EBFDF914D
:041AE600CF910895FF
:101AEA000FC00E94261938F00E942D1920F0952364
:101AFA0011F00C9453190C94761911240C9435197D
:101B0A000E94E61570F3959FC1F3950F50E0551F9B
:101B1A00629FF001729FBB27F00DB11D639FAA2738
:101B2A00F00DB11DAA1F649F6627B00DA11D661F87
:101B3A00829F2227B00DA11D621F739FB00DA11DA8
:101B4A00621F839FA00D611D221F749F3327A00D62
:101B5A00611D231F849F600D211D822F762F6A2FFE
:101B6A0011249F5750409AF0F1F088234AF0EE0F63
:101B7A00FF1FBB1F661F771F881F91505040A9F790
:101B8A009E3F510580F00C9453190C9435195F3F10
:101B9A00E4F3983ED4F3869577956795B795F795CC
:101BAA00E7959F5FC1F7FE2B880F911D9695879544
:041BBA0097F90895FA
:101BBE0011C00E94261938F00E942D1920F039F418
:101BCE009F3F19F426F40C9476190EF4E095E7FB7A
:101BDE000C945319E92F0E94E61558F3BA176207B1
:101BEE0073078407950720F079F4A6F50C94341941
:101BFE000EF4E0950B2EBA2FA02D0B01B90190011A
:101C0E000C01CA01A0011124FF27591B99F0593F5D
:101C1E0050F4503E68F11A16F040A22F232F342FA5
:101C2E004427585FF3CF469537952795A795F040F3
:101C3E005395C9F77EF41F16BA0B620B730B840B08
:101C4E00BAF09150A1F0FF0FBB1F661F771F881FC0
:101C5E00C2F70EC0BA0F621F731F841F48F4879518
:101C6E0077956795B795F7959E3F08F0B0CF93950A
:0E1C7E00880F08F09927EE0F97958795089527
:101C8C00EF92FF920F931F938091C6359091C735B9
:101C9C00A091C835B091C9350196A11DB11D809395
:101CAC00C6359093C735A093C835B093C93580918C
:101CBC00DA359091DB35A091DC35B091DD350091B2
:101CCC00D6351091D7352091D8353091D935BC0106
:101CDC00CD01601B710B820B930B28EE33E040E0BF
:101CEC0050E00E9408162093CE353093CF354093A8
:101CFC00D0355093D1358091CA359091CB35A09188
:101D0C00CC35B091CD3579018A01E81AF90A0A0B64
:101D1C001B0BD801C7010297A105B10580F080917A
:101D2C00DA359091DB35A091DC35B091DD358093BF
:101D3C00D6359093D735A093D835B093D9351F911C
:081D4C000F91FF90EF90089544
:101D5400FA01AA27283051F1203181F1E8946F93D8
:101D64006E7F6E5F7F4F8F4F9F4FAF4FB1E03ED07E
:101D7400B4E03CD0670F781F891F9A1FA11D680F1C
:101D8400791F8A1F911DA11D6A0F711D811D911D4F
:101D9400A11D20D009F468943F912AE0269F1124C4
:101DA4003019305D3193DEF6CF010895462F477028
:101DB400405D4193B3E00FD0C9F7F6CF462F4F7083
:101DC400405D4A3318F0495D31FD4052419302D0E1
:101DD400A9F7EACFB4E0A695979587957795679587
:101DE400BA95C9F700976105710508959B01AC0187
:101DF4000A2E06945795479537952795BA95C9F7AE
:0C1E0400620F731F841F951FA01D08951E
:101E100008C016F00C945F180C94761968940C9412
:101E200053190E94EE15A8F39923C1F3AEF3DF9383
:101E3000CF931F930F93FF92C92FDD2788232AF09A
:101E40002197660F771F881FDAF720E030E040E81F
:101E50005FEB9FE3883920F0803E38F021968F7742
:101E60000E941919E0EAF0E004C00E941919EDEC93
:101E7000F0E00E9451158B01BE01EC01FB2E6F5763
:101E800071097595771F880B990B0E94FC1028E14A
:101E900032E741E35FE30E94750DAF2D9801AE017B
:101EA000FF900F911F91CF91DF910E94DF0D0C9455
:021EB000CA174F
:101EB200FA01EE0FFF1F309621053105A1F16115E0
:101EC200710561F48038BFE39B0749F1689490384B
:101ED200810561F08038BFEF9B0741F099234AF5F5
:101EE200FF3FE1053105210519F1E8940894E795D2
:101EF200D901AA2329F4AB2FBE2FF85FD0F310C06B
:101F0200FF5F70F4A695E0F7F73950F019F0FF3A49
:101F120038F49F779F930DD00F9007FC9058089547
:101F220046F00C94761960E070E080E89FE3089533
:101F32004FE79F775F934F933F932F930E94080F32
:101F42002F913F914F915F910E9466190C947311EA
:101F52008F929F92AF92BF92CF92DF92EF92FF92B7
:101F62000E94AC054B015C010E94B71824E036E5E3
:101F72004AE150E40E94191923E333E948E853E4A3
:101F82000E9419199B01AC0164E076E58AE190E4B4
:101F92000E9462199B01AC0160E070E080E89FE35F
:101FA2000E94181928E539E348EA50EC0E94590FBB
:101FB2006B017C01C501B4010E94FA1020E030E0FF
:101FC20048EC52E40E946219A70196010E94661928
:101FD200FF90EF90DF90CF90BF90AF909F908F9047
:021FE200089560
:101FE400EF92FF920F931F93CF93DF931F92CDB77E
:101FF400DEB769838A01E22E60E00E949E15F82E06
:10200400882369F161E0CE0101960E942A15F82E19
:10201400811104C083E08093A40821C0E0EAF8E0C1
:1020240087818160878381E08483858185FD0AC0FF
:10203400858182FD07C0858183FD04C0858183700D
:10204400833099F70E942718882329F083E080932E
:10205400A408F12C04C06E2DC8010E94AC148F2D6D
:102064000F90DF91CF911F910F91FF90EF90089502
:102074001F920F920FB60F9211242F933F934F93F9
:102084005F936F937F938F939F93AF93BF93EF93DC
:10209400FF931F9B05C0E091F235F091F33509954C
:1020A4001A9B05C0E091F035F091F1350995199B23
:1020B40005C0E091EE35F091EF3509951B9B05C005
:1020C400E091E635F091E73509958FEF83B9FF91FB
:1020D400EF91BF91AF919F918F917F916F915F919C
:1020E4004F913F912F910F900FBE0F901F90189515
:1020F4001F920F920FB60F9211242F933F934F9379
:102104005F936F937F938F939F93AF93BF93EF935B
:10211400FF93599B05C0E091E835F091E9350995A5
:10212400589B05C0E091E235F091E33509955A9B3F
:1021340005C0E091E035F091E13509955B9B05C060
:10214400E091DE35F091DF3509958FEF8BB9FF9182
:10215400EF91BF91AF919F918F917F916F915F911B
:102164004F913F912F910F900FBE0F901F90189594
:10217400EF92FF920F931F93CF93DF93E091B434C8
:10218400F091B534238121FF29C08C01D0E0C0E057
:1021940082EBE82E84E3F82EF80181918F018823E5
:1021A40081F0D70112966D917C911397DB011896FB
:1021B400ED91FC9119970995892B71F3DFEFCFEF1E
:1021C400EBCF6091B4347091B534DB011896ED9186
:1021D400FC9119978AE00995892B19F08FEF9FEFED
:1021E40002C08D2F9C2FCDB7DEB7E6E00C942417E8
:1021F400E89409C097FB3EF490958095709561959D
:102204007F4F8F4F9F4F9923A9F0F92F96E9BB2752
:102214009395F695879577956795B795F111F8CFCE
:10222400FAF4BB0F11F460FF1BC06F5F7F4F8F4F39
:102234009F4F16C0882311F096E911C0772321F02F
:102244009EE8872F762F05C0662371F096E8862FC7
:1022540070E060E02AF09A95660F771F881FDAF71E
:0A226400880F9695879597F9089565
:10226E000F931F93CF93DF93FB01238121FD03C0B7
:10227E008FEF9FEF2CC022FF16C04681578124811D
:10228E0035814217530744F4A081B1819D012F5F20
:10229E003F4F208331838C93268137812F5F3F4FB1
:1022AE002683378314C08B01EC01FB010084F1857A
:1022BE00E02D0995892BE1F6D80116968D919C910A
:1022CE001797019616968D939C931797CE01DF91D3
:0822DE00CF911F910F910895AB
:1022E60008C029F416F00C9453190C9434190C9464
:1022F60076190E94EE15A8F39638A0F707F80F9204
:10230600E8942BE33AEA48EB5FE70E94880D0F92C8
:102316000F920F924DB75EB70F920E943313E8E704
:10232600F0E00E9451154F915F91EF91FF91E59575
:10233600EE1FFF1F49F0FE57E0684427EE0F441FCB
:10234600FA95E1F74195550B0E94AE110F9007FEE5
:062356000C94011908952A
:10235C0004C00C9453190C945F180E94EE15D8F31A
:10236C009923C9F3940F511DA3F39150504094F04D
:10237C0059F0882332F0660F771F881F9150504018
:10238C00C1F79E3F51052CF7880F911D96958795A7
:10239C0097F908955F3FACF0983E9CF0BB2786956B
:1023AC0077956795B79508F4B1609395C1F7BB0F16
:1023BC0058F711F460FFE8CF6F5F7F4F8F4F9F4F3F
:0623CC00E3CF0C9435196B
:1023D20082E295E80E94FF1288E395E80E94FF12CC
:1023E2008EE695E80E94FF12E5E0F4E088E0808343
:1023F2002FE73AE196E0215030409040E1F700C0EB
:102402000000809306042FE73FE492E12150304020
:102412009040E1F700C0000080832FE73AE196E0A8
:10242200215030409040E1F700C000008093450405
:102432002FEF38E08DE3215030408040E1F700C0BB
:0424420000000895F9
:102446001F920F920FB60F9211242F933F934F9323
:102456005F936F937F938F939F93AF93BF93EF9306
:10246600FF933B9B05C0E091EC35F091ED35099566
:102476003A9B05C0E091EA35F091EB3509953D9B15
:1024860005C0E091E435F091E53509958FEF87B900
:10249600FF91EF91BF91AF919F918F917F916F9136
:1024A6005F914F913F912F910F900FBE0F901F900C
:0224B600189577
:1024B800CF93DF93EC018FE69AE80E94BA100E944E
:1024C800591983E89AE80E94BA100E94B7180E9426
:1024D8001F1968830E94A90F0E94C8136A837B830F
:1024E8000E94C2180E94C81369830E94C3158C8376
:1024F80089E99AE80E94BA100E9496178D83809104
:10250800F8358F5F8E838FE99AE89F938F930E94A7
:102518003017CE010E940B0D0F900F90DF91CF91D5
:02252800089514
:10252A00EF92FF921F93CF93DF937C0180E895E8A7
:10253A000E94FF12C7010E94CB122FE78AE196E0A0
:10254A00215080409040E1F700C0000010E009C02F
:10255A000E944719882341F00E94CD180E946A19E7
:10256A001F5FE701C10FD11D88818111F1CF2FE7CC
:10257A008AE196E0215080409040E1F700C00000D7
:0C258A00DF91CF911F91FF90EF9008951A
:102596000F931F93CF938C01FC014081C0910036AD
:1025A6002C2F30E0A0910136B0E0C90101968A17C0
:1025B6009B07F1F04423E1F090E0CF5FF901E85486
:1025C600FB4C40835C2F590F9F5FF801E90FF11D0B
:1025D6004081252F30E0B9016F5F7F4F6A177B0777
:1025E60019F45093003604C04111E8CF50930036D9
:0825F600CF911F910F91089590
:1025FE00EF92FF920F931F93CF93FC012081222322
:10260E0029F17C01E0E0F8E0848180648483F701A5
:10261E008081811114C016C00E943B198823E1F3FA
:10262E00F80180810E945118CF5F87010C0F111D98
:10263E00F8019081992331F0CF3F71F703C08701E4
:10264E00C0E0EACF0E9441198111FCCFCF911F91BA
:08265E000F91FF90EF90089529
:10266600FA01DC01AA0FBB1F9B01AC01BF5728F47E
:10267600222733274427507820C0B75190F4AB2F38
:102686000024469537952795011CA395D2F3002083
:1026960071F0220F331F441FB395DAF30ED00C945A
:1026A600181961307105A0E88A07B94630F49B0114
:1026B600AC016627772788279078309621F020830B
:0826C600318342835383089520
:1026CE00CF93DF93CDB7DEB72697CDBFDEBF85EFB5
:1026DE008983809110348A8342E0BE016F5F7F4F01
:1026EE0086E70E94461782EF8B8380914D348C8350
:1026FE0042E0BE016D5F7F4F86E70E94461784EF72
:10270E008D83809156348E8342E0BE016B5F7F4F86
:10271E0086E70E9446172696CDBFDEBFDF91CF918A
:02272E0008950C
:10273000FF920F931F93CF93DF938C0189E795E866
:102740000E94FF12C8010E94FF12C8010E94CB1212
:10275000F12C09C00E944719882341F00E94CD182E
:102760000E946A19F394E801CF0DD11D888181116F
:10277000F1CF2FE78AE196E0215080409040E1F7C9
:1027800000C00000DF91CF911F910F91FF9008953D
:102790000E94EE1588F09F5798F0B92F9927B751EE
:1027A000B0F0E1F0660F771F881F991F1AF0BA95F5
:1027B000C9F714C0B13091F00E943419B1E0089506
:1027C0000C943419672F782F8827B85F39F0B93FF8
:1027D000CCF3869577956795B395D9F73EF49095A8
:0E27E0008095709561957F4F8F4F9F4F0895A4
:1027EE001F920F920FB60F9211248F939F93AF9358
:1027FE00BF93EF93FF938091DA359091DB35A091E3
:10280E00DC35B091DD350196A11DB11D8093DA3511
:10281E009093DB35A093DC35B093DD35E0E8FAE03C
:10282E00868181608683FF91EF91BF91AF919F91D9
:0C283E008F910F900FBE0F901F90189507
:10284A001F920F920FB60F9211248F939F93AF93FB
:10285A00BF93EF93FF938091D2359091D335A09196
:10286A00D435B091D5350196A11DB11D8093D235CD
:10287A009093D335A093D435B093D535E0E4F1E005
:10288A0083898160838BFF91EF91BF91AF919F9173
:0C289A008F910F900FBE0F901F901895AB
:1028A600EF92FF921F93CF93DF937C0188E995E81F
:1028B6000E94FF12C7010E94CB122FE78AE196E021
:1028C600215080409040E1F700C0000010E009C0B0
:1028D6000E944719882341F00E94CD180E946A1968
:1028E6001F5FE701C10FD11D88818111F1CFDF91F3
:0A28F600CF911F91FF90EF9008951D
:10290000E0E0F8E08DE890E280879187158280EC26
:10291000868383E08783138614861686158686E869
:1029200099E1809302349093033487E899E180938E
:1029300000349093013488E899E1809304349093B3
:1029400005341092F4351092F53588EB95E38093B9
:08295000B4349093B5340895EE
:1029580020E22093A5086623D1F0A82FB92F90E094
:10296800E0EAF8E022E0858185FD17C0858182FDD7
:1029780007C0858183FD04C085818370833099F702
:1029880080858D939F5F691711F02483ECCF87E0D2
:102998008093A40808952483E6CF80858D939F5F54
:0629A8006913F9CFF4CF22
:1029AE001F920F920FB60F9211242F933F934F93B6
:1029BE005F936F937F938F939F93AF93BF93EF9399
:1029CE00FF938091480481FD0E94431881E080931B
:1029DE00960AFF91EF91BF91AF919F918F917F9149
:1029EE006F915F914F913F912F910F900FBE0F906E
:0429FE001F90189579
:102A020086EB95E80E94FF1287ED95E80E94FF127F
:102A120080E296E80E94981382E496E80E94981356
:102A22008DE596E80E94951280E996E80E9453147B
:102A320083EC96E80E94981383ED96E80E9498131F
:102A42008BEE96E80E9498138CEF96E80E949813FA
:022A52000895E5
:102A5400662309F1DC016150262F30E02F5F3F4FE0
:102A6400280F391FE0EAF8E09D919087958195FD44
:102A74000AC0958192FD07C0958193FD04C095819C
:102A84009370933099F7958194FD07C0A217B3070B
:0E2A940059F781E0089581E0089580E00895EB
:102AA200DF93CF931F930F93FF92EF92DF927B01FD
:102AB2008C01689406C0DA2EEF010E94750DFE01AA
:102AC200E894A5912591359145915591A6F3EF0191
:102AD2000E94DF0DFE019701A801DA9469F7DF90E9
:0E2AE200EF90FF900F911F91CF91DF9108951B
:102AF000E0E2F8E08DE695E080879187158280EC32
:102B0000868383E08783138614861686158689E874
:102B100099E180930634909307348AE899E1809391
:102B20000834909309348BE899E180930A349093A8
:0C2B30000B341092F6351092F735089522
:102B3C009091A50893709330E1F0880F682B609307
:102B4C00A708E0EAF8E0858185FD0AC0858182FD51
:102B5C0007C0858183FD04C085818370833099F71C
:102B6C000E942718882339F083E08093A40880E022
:0A2B7C00089580E0089581E00895B7
:102B8600CF93DF9385E099E80E94BA100E94460E23
:102B960082E199E80E94BA100E948417D82FC92FA3
:102BA6009F938F9382E299E89F938F930E943017A9
:102BB6008D2F9C2F0E9449160F900F900F900F900B
:062BC600DF91CF9108959C
:102BCC0057FD9058440F551F59F05F3F71F04795D2
:102BDC00880F97FB991F61F09F3F79F087950895B7
:102BEC00121613061406551FF2CF4695F1DF08C0D6
:102BFC00161617061806991FF1CF869571056105F3
:042C0C00089408958B
:102C1000A1E21A2EAA1BBB1BFD010DC0AA1FBB1FE0
:102C2000EE1FFF1FA217B307E407F50720F0A21B52
:102C3000B30BE40BF50B661F771F881F991F1A94BF
:102C400069F760957095809590959B01AC01BD01E9
:042C5000CF01089513
:102C54000E945B172FE38DE093E021508040904069
:102C6400E1F700C000000E94320A60E080E00E94A8
:102C7400091841E061E081E00E94AB1881E00E9404
:0E2C84006D190E94671381E08093FE3508955C
:102C9200883E2AE0920710F087EE9AE0873A24E015
:102CA200920710F487EA94E0BC01675A744080E00E
:102CB20090E00E94FA1020E030E040E85DE30E94DC
:0C2CC20066190E94C81384E6861B089562
:102CCE00E0E8FAE080E197E28487958780E18183EE
:102CDE0081E0858393E09083E0E9FAE02FE730E02E
:102CEE002487358746E0418341E1448390832287E0
:062CFE0033878583089571
:102D0400CF93DF9300D0CDB7DEB7809156348C7F5C
:102D140081608093563494EF99838A8342E0BE01A4
:102D24006F5F7F4F86E70E9446170F900F90DF91E9
:042D3400CF9108959E
:102D3800E0E4F4E080818160808384818160848321
:102D480080818D7F808381898860818BE0E2F4E0D7
:102D5800808180618083E0E0F4E08081806480830A
:022D68000895CC
:102D6A000E947A180E949C160E9411190E947017DC
:102D7A000E9467160E949F180E94A81778940E94C2
:102D8A0035180E942A1684E0809346040E9404079C
:022D9A00FDCF6B
:102D9C00CF93DF93EC0188ED97E80E94FF1288E354
:102DAC0095E80E94FF128DEE97E80E94FF12CE016B
:102DBC000E94FF1281E098E80E94CB12DF91CF9124
:022DCC00089568
:102DCE002F923F924F925F926F927F928F929F922D
:102DDE00AF92BF92CF92DF92EF92FF920F931F931B
:102DEE00CF93DF93CDB7DEB7CA1BDB0BCDBFDEBFF4
:022DFE00099436
:102E00001F920F920FB60F9211248F93EF93FF939F
:102E1000E0E0F6E080E2858380E1858388E08583D9
:102E2000FF91EF918F910F900FBE0F901F9018950B
:102E30002A88398848885F846E847D848C849B844A
:102E4000AA84B984C884DF80EE80FD800C811B8158
:102E5000AA81B981CE0FD11DCDBFDEBFED0108958E
:102E6000A0E0B0E0E6E3F7E10C94F716AE014B5FAB
:102E70005F4FFA0161917191AF018091B4349091EB
:0C2E8000B5340E94B000E2E00C9428176A
:102E8C001F93CF93DF93EB01142F60E00E949E15EC
:102E9C00882339F0612FCE010E942A1593E090937C
:0A2EAC00A408DF91CF911F91089553
:102EB600CF93DF9300D0CDB7DEB780EE898386EB64
:102EC6008A8342E0BE016F5F7F4F86E70E94461706
:0A2ED6000F900F90DF91CF91089547
:102EE00082E08093E405E0E0FAE08DE090E082A7E4
:102EF00093A710A211A283E2818386E190E086A3CA
:082F000097A381E0808308958E
:102F0800E0E0F6E0828581608287858180FFFDCFE1
:102F1800E0E0F6E085818160858380899189A289D6
:042F2800B3890895CC
:102F2C002091F8353091F935ADECBCEC0E941818B5
:102F3C0096958795969587959695879594E6981B83
:042F4C00892F08952C
:102F500087EF80931704E0E0F6E081E080838183CF
:102F600080EA82838FEF808787E0848780E1828791
:022F70000895C2
:102F720089E997E80E94FF1287ED95E80E94FF1207
:102F820088EA97E80E94981387EB97E80E949813C3
:022F92000895A0
:102F9400092E0394000C11F4882352F0BB0F40F463
:102FA400BF2B11F460FF04C06F5F7F4F8F4F9F4FA3
:022FB40008957E
:102FB600DB018F939F930E94D818BF91AF91A29F78
:102FC600800D911DA39F900DB29F900D1124089521
:102FD6001F920F920FB60F9211248F9382E0809367
:0E2FE60005068F910F900FBE0F901F9018954B
:102FF4001F920F920FB60F9211248F9381E080934A
:0E30040005068F910F900FBE0F901F9018952C
:1030120087708295807F2091103421786770962F77
:0E302200990F622F682B692B6093103408956C
:10303000A29FB001B39FC001A39F700D811D1124F9
:0E304000911DB29F700D811D1124911D0895E8
:10304E008091A5088C7141F49091A508937081E050
:0C305E00933019F080E0089581E008959F
:10306A000E94F918E0EAF8E084E0808381E0828334
:0C307A009DEF95839FE09683838308956B
:103086008BED9AE80E94BA108091FA359091FB3543
:0C30960081608093FA359093FB3508951B
:1030A200CF93C82F0E943B19882331F0E0E0F8E06B
:0C30B200948190649483C283CF910895B0
:1030BE009F3F31F0915020F4879577956795B7959E
:0C30CE00880F911D9695879597F908953D
:1030DA0028ED80E024BF809360008091610090E039
:0A30EA008E7F24BF809361000895DB
:1030F4000E946D180E94150C0E9480140E9478157D
:0A3104000E944D190E9487180895DB
:10310E0040E068ED80E191E00E945E19E0E1F1E0BF
:08311E001282138280E0089583
:10312600CF93C82F0E943B198823E1F3C09302086E
:0831360080E090E0CF910895C4
:10313E00E0E4F1E081E08783828B818980FDFDCF21
:08314E0089E48093500108950B
:103156008295880F807E6770660F660F4370862B98
:08316600842B80935634089578
:10316E000E94F20A0E94FA1020E030E048EC52E48D
:06317E000E946219089591
:103184000E9436090E94FA1020E030E040E85AE339
:063194000E946619089577
:10319A0090910136E92FF0E0E854FB4C80819F5F63
:0631AA0090930136089528
:1031B0000E941818A59F900DB49F900DA49F800D9C
:0631C000911D1124089589
:1031C600FC010590615070400110D8F780959095EC
:0631D6008E0F9F1F0895FB
:1031DC00FC016150704001900110D8F780959095DA
:0631EC008E0F9F1F0895E5
:1031F200E0E2F4E083E0818388E0808B818B0895B4
:103202009B01AC0160E070E080E89FE30C946219DE
:10321200B7FF0C94D8180E94D818821B930B0895FC
:0E322200E0E8F1E081E4838B84E082AB089564
:0E3230005058BB27AA270E94DF0D0C94CA1726
:0E323E000E94C8136894B1110C9435190895BC
:0E324C0000240A94161617061806090608959F
:0E325A0000240A9412161306140605060895A1
:0E326800E894BB2766277727CB0197F90895D6
:0C3276008091040885FB882780F90895EA
:0C3282008091040886FB882780F90895DD
:0C328E008091240885FB882780F90895B2
:0C329A00E0EAF0E01082118280E008956C
:0C32A60097F99F6780E870E060E00895F1
:0A32B2000E9482160E94860B089508
:0832BC00FC0164BF408308958A
:0832C4000E949C0C0C94CA1737
:0832CC000E94750D0C94CA1755
:0632D4008093220808951A
:0632DA0080934D340895BD
:0632E0000E940115089593
:0632E6000E94B9170895D3
:0632EC009FEF80EC089545
:0432F2000C94000038
:0232F600089539
:0232F800089537
:0232FA00089535
:0232FC00089533
:0232FE00089531
:0233000008952E
:0233020008952C
:0233040008952A
:02330600089528
:02330800089526
:02330A00089524
:02330C00089522
:02330E00089520
:0233100008951E
:0233120008951C
:0233140008951A
:02331600089518
:0E3318000000000200000000931800000000FA
:02000004008278
:090000000000020000C40700002A
:00000001FF
